{
	"contracts/Gacha.sol": {
		"MonkeyGacha": {
			"abi": [
				{
					"inputs": [
						{
							"internalType": "address",
							"name": "_monkeysContract",
							"type": "address"
						},
						{
							"internalType": "address",
							"name": "_paymentToken",
							"type": "address"
						},
						{
							"internalType": "uint256",
							"name": "_drawPrice",
							"type": "uint256"
						}
					],
					"stateMutability": "nonpayable",
					"type": "constructor"
				},
				{
					"anonymous": false,
					"inputs": [
						{
							"indexed": false,
							"internalType": "uint256",
							"name": "newPrice",
							"type": "uint256"
						}
					],
					"name": "DrawPriceUpdated",
					"type": "event"
				},
				{
					"anonymous": false,
					"inputs": [
						{
							"indexed": true,
							"internalType": "address",
							"name": "player",
							"type": "address"
						},
						{
							"indexed": true,
							"internalType": "uint256",
							"name": "tokenId",
							"type": "uint256"
						},
						{
							"indexed": false,
							"internalType": "uint8",
							"name": "rarity",
							"type": "uint8"
						}
					],
					"name": "MonkeyDrawn",
					"type": "event"
				},
				{
					"inputs": [],
					"name": "drawMonkey",
					"outputs": [
						{
							"internalType": "uint256",
							"name": "",
							"type": "uint256"
						}
					],
					"stateMutability": "nonpayable",
					"type": "function"
				},
				{
					"inputs": [],
					"name": "drawPrice",
					"outputs": [
						{
							"internalType": "uint256",
							"name": "",
							"type": "uint256"
						}
					],
					"stateMutability": "view",
					"type": "function"
				},
				{
					"inputs": [],
					"name": "isOwner",
					"outputs": [
						{
							"internalType": "bool",
							"name": "",
							"type": "bool"
						}
					],
					"stateMutability": "view",
					"type": "function"
				},
				{
					"inputs": [],
					"name": "monkeysContract",
					"outputs": [
						{
							"internalType": "contract IMonkeys",
							"name": "",
							"type": "address"
						}
					],
					"stateMutability": "view",
					"type": "function"
				},
				{
					"inputs": [],
					"name": "owner",
					"outputs": [
						{
							"internalType": "address",
							"name": "",
							"type": "address"
						}
					],
					"stateMutability": "view",
					"type": "function"
				},
				{
					"inputs": [],
					"name": "paymentToken",
					"outputs": [
						{
							"internalType": "contract IERC20",
							"name": "",
							"type": "address"
						}
					],
					"stateMutability": "view",
					"type": "function"
				},
				{
					"inputs": [
						{
							"internalType": "uint256",
							"name": "_newPrice",
							"type": "uint256"
						}
					],
					"name": "setDrawPrice",
					"outputs": [],
					"stateMutability": "nonpayable",
					"type": "function"
				},
				{
					"inputs": [
						{
							"internalType": "address",
							"name": "to",
							"type": "address"
						}
					],
					"name": "withdrawTokens",
					"outputs": [],
					"stateMutability": "nonpayable",
					"type": "function"
				}
			],
			"devdoc": {
				"kind": "dev",
				"methods": {},
				"version": 1
			},
			"evm": {
				"assembly": "    /* \"contracts/Gacha.sol\":354:5607  contract MonkeyGacha is Ownable {... */\n  mstore(0x40, 0x80)\n    /* \"contracts/Gacha.sol\":1159:1417  constructor(... */\n  callvalue\n  dup1\n  iszero\n  tag_1\n  jumpi\n  0x00\n  dup1\n  revert\ntag_1:\n  pop\n  mload(0x40)\n  sub(codesize, bytecodeSize)\n  dup1\n  bytecodeSize\n  dup4\n  codecopy\n  dup2\n  dup2\n  add\n  0x40\n  mstore\n  dup2\n  add\n  swap1\n  tag_2\n  swap2\n  swap1\n  tag_3\n  jump\t// in\ntag_2:\n    /* \"contracts/Ownable.sol\":282:292  msg.sender */\n  caller\n    /* \"contracts/Ownable.sol\":273:279  _owner */\n  0x00\n  dup1\n    /* \"contracts/Ownable.sol\":273:292  _owner = msg.sender */\n  0x0100\n  exp\n  dup2\n  sload\n  dup2\n  0xffffffffffffffffffffffffffffffffffffffff\n  mul\n  not\n  and\n  swap1\n  dup4\n  0xffffffffffffffffffffffffffffffffffffffff\n  and\n  mul\n  or\n  swap1\n  sstore\n  pop\n    /* \"contracts/Gacha.sol\":1312:1328  _monkeysContract */\n  dup3\n    /* \"contracts/Gacha.sol\":1285:1300  monkeysContract */\n  0x03\n  0x00\n    /* \"contracts/Gacha.sol\":1285:1329  monkeysContract = IMonkeys(_monkeysContract) */\n  0x0100\n  exp\n  dup2\n  sload\n  dup2\n  0xffffffffffffffffffffffffffffffffffffffff\n  mul\n  not\n  and\n  swap1\n  dup4\n  0xffffffffffffffffffffffffffffffffffffffff\n  and\n  mul\n  or\n  swap1\n  sstore\n  pop\n    /* \"contracts/Gacha.sol\":1362:1375  _paymentToken */\n  dup2\n    /* \"contracts/Gacha.sol\":1340:1352  paymentToken */\n  0x02\n  0x00\n    /* \"contracts/Gacha.sol\":1340:1376  paymentToken = IERC20(_paymentToken) */\n  0x0100\n  exp\n  dup2\n  sload\n  dup2\n  0xffffffffffffffffffffffffffffffffffffffff\n  mul\n  not\n  and\n  swap1\n  dup4\n  0xffffffffffffffffffffffffffffffffffffffff\n  and\n  mul\n  or\n  swap1\n  sstore\n  pop\n    /* \"contracts/Gacha.sol\":1399:1409  _drawPrice */\n  dup1\n    /* \"contracts/Gacha.sol\":1387:1396  drawPrice */\n  0x01\n    /* \"contracts/Gacha.sol\":1387:1409  drawPrice = _drawPrice */\n  dup2\n  swap1\n  sstore\n  pop\n    /* \"contracts/Gacha.sol\":1159:1417  constructor(... */\n  pop\n  pop\n  pop\n    /* \"contracts/Gacha.sol\":354:5607  contract MonkeyGacha is Ownable {... */\n  jump(tag_8)\n    /* \"#utility.yul\":88:205   */\ntag_10:\n    /* \"#utility.yul\":197:198   */\n  0x00\n    /* \"#utility.yul\":194:195   */\n  dup1\n    /* \"#utility.yul\":187:199   */\n  revert\n    /* \"#utility.yul\":334:460   */\ntag_12:\n    /* \"#utility.yul\":371:378   */\n  0x00\n    /* \"#utility.yul\":411:453   */\n  0xffffffffffffffffffffffffffffffffffffffff\n    /* \"#utility.yul\":404:409   */\n  dup3\n    /* \"#utility.yul\":400:454   */\n  and\n    /* \"#utility.yul\":389:454   */\n  swap1\n  pop\n    /* \"#utility.yul\":334:460   */\n  swap2\n  swap1\n  pop\n  jump\t// out\n    /* \"#utility.yul\":466:562   */\ntag_13:\n    /* \"#utility.yul\":503:510   */\n  0x00\n    /* \"#utility.yul\":532:556   */\n  tag_25\n    /* \"#utility.yul\":550:555   */\n  dup3\n    /* \"#utility.yul\":532:556   */\n  tag_12\n  jump\t// in\ntag_25:\n    /* \"#utility.yul\":521:556   */\n  swap1\n  pop\n    /* \"#utility.yul\":466:562   */\n  swap2\n  swap1\n  pop\n  jump\t// out\n    /* \"#utility.yul\":568:690   */\ntag_14:\n    /* \"#utility.yul\":641:665   */\n  tag_27\n    /* \"#utility.yul\":659:664   */\n  dup2\n    /* \"#utility.yul\":641:665   */\n  tag_13\n  jump\t// in\ntag_27:\n    /* \"#utility.yul\":634:639   */\n  dup2\n    /* \"#utility.yul\":631:666   */\n  eq\n    /* \"#utility.yul\":621:684   */\n  tag_28\n  jumpi\n    /* \"#utility.yul\":680:681   */\n  0x00\n    /* \"#utility.yul\":677:678   */\n  dup1\n    /* \"#utility.yul\":670:682   */\n  revert\n    /* \"#utility.yul\":621:684   */\ntag_28:\n    /* \"#utility.yul\":568:690   */\n  pop\n  jump\t// out\n    /* \"#utility.yul\":696:839   */\ntag_15:\n    /* \"#utility.yul\":753:758   */\n  0x00\n    /* \"#utility.yul\":784:790   */\n  dup2\n    /* \"#utility.yul\":778:791   */\n  mload\n    /* \"#utility.yul\":769:791   */\n  swap1\n  pop\n    /* \"#utility.yul\":800:833   */\n  tag_30\n    /* \"#utility.yul\":827:832   */\n  dup2\n    /* \"#utility.yul\":800:833   */\n  tag_14\n  jump\t// in\ntag_30:\n    /* \"#utility.yul\":696:839   */\n  swap3\n  swap2\n  pop\n  pop\n  jump\t// out\n    /* \"#utility.yul\":845:922   */\ntag_16:\n    /* \"#utility.yul\":882:889   */\n  0x00\n    /* \"#utility.yul\":911:916   */\n  dup2\n    /* \"#utility.yul\":900:916   */\n  swap1\n  pop\n    /* \"#utility.yul\":845:922   */\n  swap2\n  swap1\n  pop\n  jump\t// out\n    /* \"#utility.yul\":928:1050   */\ntag_17:\n    /* \"#utility.yul\":1001:1025   */\n  tag_33\n    /* \"#utility.yul\":1019:1024   */\n  dup2\n    /* \"#utility.yul\":1001:1025   */\n  tag_16\n  jump\t// in\ntag_33:\n    /* \"#utility.yul\":994:999   */\n  dup2\n    /* \"#utility.yul\":991:1026   */\n  eq\n    /* \"#utility.yul\":981:1044   */\n  tag_34\n  jumpi\n    /* \"#utility.yul\":1040:1041   */\n  0x00\n    /* \"#utility.yul\":1037:1038   */\n  dup1\n    /* \"#utility.yul\":1030:1042   */\n  revert\n    /* \"#utility.yul\":981:1044   */\ntag_34:\n    /* \"#utility.yul\":928:1050   */\n  pop\n  jump\t// out\n    /* \"#utility.yul\":1056:1199   */\ntag_18:\n    /* \"#utility.yul\":1113:1118   */\n  0x00\n    /* \"#utility.yul\":1144:1150   */\n  dup2\n    /* \"#utility.yul\":1138:1151   */\n  mload\n    /* \"#utility.yul\":1129:1151   */\n  swap1\n  pop\n    /* \"#utility.yul\":1160:1193   */\n  tag_36\n    /* \"#utility.yul\":1187:1192   */\n  dup2\n    /* \"#utility.yul\":1160:1193   */\n  tag_17\n  jump\t// in\ntag_36:\n    /* \"#utility.yul\":1056:1199   */\n  swap3\n  swap2\n  pop\n  pop\n  jump\t// out\n    /* \"#utility.yul\":1205:1868   */\ntag_3:\n    /* \"#utility.yul\":1293:1299   */\n  0x00\n    /* \"#utility.yul\":1301:1307   */\n  dup1\n    /* \"#utility.yul\":1309:1315   */\n  0x00\n    /* \"#utility.yul\":1358:1360   */\n  0x60\n    /* \"#utility.yul\":1346:1355   */\n  dup5\n    /* \"#utility.yul\":1337:1344   */\n  dup7\n    /* \"#utility.yul\":1333:1356   */\n  sub\n    /* \"#utility.yul\":1329:1361   */\n  slt\n    /* \"#utility.yul\":1326:1445   */\n  iszero\n  tag_38\n  jumpi\n    /* \"#utility.yul\":1364:1443   */\n  tag_39\n  tag_10\n  jump\t// in\ntag_39:\n    /* \"#utility.yul\":1326:1445   */\ntag_38:\n    /* \"#utility.yul\":1484:1485   */\n  0x00\n    /* \"#utility.yul\":1509:1573   */\n  tag_40\n    /* \"#utility.yul\":1565:1572   */\n  dup7\n    /* \"#utility.yul\":1556:1562   */\n  dup3\n    /* \"#utility.yul\":1545:1554   */\n  dup8\n    /* \"#utility.yul\":1541:1563   */\n  add\n    /* \"#utility.yul\":1509:1573   */\n  tag_15\n  jump\t// in\ntag_40:\n    /* \"#utility.yul\":1499:1573   */\n  swap4\n  pop\n    /* \"#utility.yul\":1455:1583   */\n  pop\n    /* \"#utility.yul\":1622:1624   */\n  0x20\n    /* \"#utility.yul\":1648:1712   */\n  tag_41\n    /* \"#utility.yul\":1704:1711   */\n  dup7\n    /* \"#utility.yul\":1695:1701   */\n  dup3\n    /* \"#utility.yul\":1684:1693   */\n  dup8\n    /* \"#utility.yul\":1680:1702   */\n  add\n    /* \"#utility.yul\":1648:1712   */\n  tag_15\n  jump\t// in\ntag_41:\n    /* \"#utility.yul\":1638:1712   */\n  swap3\n  pop\n    /* \"#utility.yul\":1593:1722   */\n  pop\n    /* \"#utility.yul\":1761:1763   */\n  0x40\n    /* \"#utility.yul\":1787:1851   */\n  tag_42\n    /* \"#utility.yul\":1843:1850   */\n  dup7\n    /* \"#utility.yul\":1834:1840   */\n  dup3\n    /* \"#utility.yul\":1823:1832   */\n  dup8\n    /* \"#utility.yul\":1819:1841   */\n  add\n    /* \"#utility.yul\":1787:1851   */\n  tag_18\n  jump\t// in\ntag_42:\n    /* \"#utility.yul\":1777:1851   */\n  swap2\n  pop\n    /* \"#utility.yul\":1732:1861   */\n  pop\n    /* \"#utility.yul\":1205:1868   */\n  swap3\n  pop\n  swap3\n  pop\n  swap3\n  jump\t// out\n    /* \"contracts/Gacha.sol\":354:5607  contract MonkeyGacha is Ownable {... */\ntag_8:\n  dataSize(sub_0)\n  dup1\n  dataOffset(sub_0)\n  0x00\n  codecopy\n  0x00\n  return\nstop\n\nsub_0: assembly {\n        /* \"contracts/Gacha.sol\":354:5607  contract MonkeyGacha is Ownable {... */\n      mstore(0x40, 0x80)\n      callvalue\n      dup1\n      iszero\n      tag_1\n      jumpi\n      0x00\n      dup1\n      revert\n    tag_1:\n      pop\n      jumpi(tag_2, lt(calldatasize, 0x04))\n      shr(0xe0, calldataload(0x00))\n      dup1\n      0x8da5cb5b\n      gt\n      tag_11\n      jumpi\n      dup1\n      0x8da5cb5b\n      eq\n      tag_7\n      jumpi\n      dup1\n      0x8f32d59b\n      eq\n      tag_8\n      jumpi\n      dup1\n      0xf1cd170e\n      eq\n      tag_9\n      jumpi\n      dup1\n      0xface1779\n      eq\n      tag_10\n      jumpi\n      jump(tag_2)\n    tag_11:\n      dup1\n      0x3013ce29\n      eq\n      tag_3\n      jumpi\n      dup1\n      0x49df728c\n      eq\n      tag_4\n      jumpi\n      dup1\n      0x5db1211a\n      eq\n      tag_5\n      jumpi\n      dup1\n      0x83d0ddec\n      eq\n      tag_6\n      jumpi\n    tag_2:\n      0x00\n      dup1\n      revert\n        /* \"contracts/Gacha.sol\":790:816  IERC20 public paymentToken */\n    tag_3:\n      tag_12\n      tag_13\n      jump\t// in\n    tag_12:\n      mload(0x40)\n      tag_14\n      swap2\n      swap1\n      tag_15\n      jump\t// in\n    tag_14:\n      mload(0x40)\n      dup1\n      swap2\n      sub\n      swap1\n      return\n        /* \"contracts/Gacha.sol\":4807:5009  function withdrawTokens(address to) external onlyOwner {... */\n    tag_4:\n      tag_16\n      0x04\n      dup1\n      calldatasize\n      sub\n      dup2\n      add\n      swap1\n      tag_17\n      swap2\n      swap1\n      tag_18\n      jump\t// in\n    tag_17:\n      tag_19\n      jump\t// in\n    tag_16:\n      stop\n        /* \"contracts/Gacha.sol\":875:906  IMonkeys public monkeysContract */\n    tag_5:\n      tag_20\n      tag_21\n      jump\t// in\n    tag_20:\n      mload(0x40)\n      tag_22\n      swap2\n      swap1\n      tag_23\n      jump\t// in\n    tag_22:\n      mload(0x40)\n      dup1\n      swap2\n      sub\n      swap1\n      return\n        /* \"contracts/Gacha.sol\":703:727  uint256 public drawPrice */\n    tag_6:\n      tag_24\n      tag_25\n      jump\t// in\n    tag_24:\n      mload(0x40)\n      tag_26\n      swap2\n      swap1\n      tag_27\n      jump\t// in\n    tag_26:\n      mload(0x40)\n      dup1\n      swap2\n      sub\n      swap1\n      return\n        /* \"contracts/Ownable.sol\":366:445  function owner() public view returns(address)  ... */\n    tag_7:\n      tag_28\n      tag_29\n      jump\t// in\n    tag_28:\n      mload(0x40)\n      tag_30\n      swap2\n      swap1\n      tag_31\n      jump\t// in\n    tag_30:\n      mload(0x40)\n      dup1\n      swap2\n      sub\n      swap1\n      return\n        /* \"contracts/Ownable.sol\":776:868  function isOwner() public view returns(bool)  ... */\n    tag_8:\n      tag_32\n      tag_33\n      jump\t// in\n    tag_32:\n      mload(0x40)\n      tag_34\n      swap2\n      swap1\n      tag_35\n      jump\t// in\n    tag_34:\n      mload(0x40)\n      dup1\n      swap2\n      sub\n      swap1\n      return\n        /* \"contracts/Gacha.sol\":4610:4753  function setDrawPrice(uint256 _newPrice) external onlyOwner {... */\n    tag_9:\n      tag_36\n      0x04\n      dup1\n      calldatasize\n      sub\n      dup2\n      add\n      swap1\n      tag_37\n      swap2\n      swap1\n      tag_38\n      jump\t// in\n    tag_37:\n      tag_39\n      jump\t// in\n    tag_36:\n      stop\n        /* \"contracts/Gacha.sol\":1463:2614  function drawMonkey() external returns (uint256) {... */\n    tag_10:\n      tag_40\n      tag_41\n      jump\t// in\n    tag_40:\n      mload(0x40)\n      tag_42\n      swap2\n      swap1\n      tag_27\n      jump\t// in\n    tag_42:\n      mload(0x40)\n      dup1\n      swap2\n      sub\n      swap1\n      return\n        /* \"contracts/Gacha.sol\":790:816  IERC20 public paymentToken */\n    tag_13:\n      0x02\n      0x00\n      swap1\n      sload\n      swap1\n      0x0100\n      exp\n      swap1\n      div\n      0xffffffffffffffffffffffffffffffffffffffff\n      and\n      dup2\n      jump\t// out\n        /* \"contracts/Gacha.sol\":4807:5009  function withdrawTokens(address to) external onlyOwner {... */\n    tag_19:\n        /* \"contracts/Ownable.sol\":597:606  isOwner() */\n      tag_44\n        /* \"contracts/Ownable.sol\":597:604  isOwner */\n      tag_33\n        /* \"contracts/Ownable.sol\":597:606  isOwner() */\n      jump\t// in\n    tag_44:\n        /* \"contracts/Ownable.sol\":589:657  require(isOwner(), ... */\n      tag_45\n      jumpi\n      mload(0x40)\n      0x08c379a000000000000000000000000000000000000000000000000000000000\n      dup2\n      mstore\n      0x04\n      add\n      tag_46\n      swap1\n      tag_47\n      jump\t// in\n    tag_46:\n      mload(0x40)\n      dup1\n      swap2\n      sub\n      swap1\n      revert\n    tag_45:\n        /* \"contracts/Gacha.sol\":4873:4888  uint256 balance */\n      0x00\n        /* \"contracts/Gacha.sol\":4891:4903  paymentToken */\n      0x02\n      0x00\n      swap1\n      sload\n      swap1\n      0x0100\n      exp\n      swap1\n      div\n      0xffffffffffffffffffffffffffffffffffffffff\n      and\n        /* \"contracts/Gacha.sol\":4891:4913  paymentToken.balanceOf */\n      0xffffffffffffffffffffffffffffffffffffffff\n      and\n      0x70a08231\n        /* \"contracts/Gacha.sol\":4922:4926  this */\n      address\n        /* \"contracts/Gacha.sol\":4891:4928  paymentToken.balanceOf(address(this)) */\n      mload(0x40)\n      dup3\n      0xffffffff\n      and\n      0xe0\n      shl\n      dup2\n      mstore\n      0x04\n      add\n      tag_49\n      swap2\n      swap1\n      tag_31\n      jump\t// in\n    tag_49:\n      0x20\n      mload(0x40)\n      dup1\n      dup4\n      sub\n      dup2\n      dup7\n      gas\n      staticcall\n      iszero\n      dup1\n      iszero\n      tag_51\n      jumpi\n      returndatasize\n      0x00\n      dup1\n      returndatacopy\n      revert(0x00, returndatasize)\n    tag_51:\n      pop\n      pop\n      pop\n      pop\n      mload(0x40)\n      returndatasize\n      not(0x1f)\n      0x1f\n      dup3\n      add\n      and\n      dup3\n      add\n      dup1\n      0x40\n      mstore\n      pop\n      dup2\n      add\n      swap1\n      tag_52\n      swap2\n      swap1\n      tag_53\n      jump\t// in\n    tag_52:\n        /* \"contracts/Gacha.sol\":4873:4928  uint256 balance = paymentToken.balanceOf(address(this)) */\n      swap1\n      pop\n        /* \"contracts/Gacha.sol\":4947:4959  paymentToken */\n      0x02\n      0x00\n      swap1\n      sload\n      swap1\n      0x0100\n      exp\n      swap1\n      div\n      0xffffffffffffffffffffffffffffffffffffffff\n      and\n        /* \"contracts/Gacha.sol\":4947:4968  paymentToken.transfer */\n      0xffffffffffffffffffffffffffffffffffffffff\n      and\n      0xa9059cbb\n        /* \"contracts/Gacha.sol\":4969:4971  to */\n      dup4\n        /* \"contracts/Gacha.sol\":4973:4980  balance */\n      dup4\n        /* \"contracts/Gacha.sol\":4947:4981  paymentToken.transfer(to, balance) */\n      mload(0x40)\n      dup4\n      0xffffffff\n      and\n      0xe0\n      shl\n      dup2\n      mstore\n      0x04\n      add\n      tag_54\n      swap3\n      swap2\n      swap1\n      tag_55\n      jump\t// in\n    tag_54:\n      0x20\n      mload(0x40)\n      dup1\n      dup4\n      sub\n      dup2\n      0x00\n      dup8\n      gas\n      call\n      iszero\n      dup1\n      iszero\n      tag_57\n      jumpi\n      returndatasize\n      0x00\n      dup1\n      returndatacopy\n      revert(0x00, returndatasize)\n    tag_57:\n      pop\n      pop\n      pop\n      pop\n      mload(0x40)\n      returndatasize\n      not(0x1f)\n      0x1f\n      dup3\n      add\n      and\n      dup3\n      add\n      dup1\n      0x40\n      mstore\n      pop\n      dup2\n      add\n      swap1\n      tag_58\n      swap2\n      swap1\n      tag_59\n      jump\t// in\n    tag_58:\n        /* \"contracts/Gacha.sol\":4939:5001  require(paymentToken.transfer(to, balance), \"Transfer failed\") */\n      tag_60\n      jumpi\n      mload(0x40)\n      0x08c379a000000000000000000000000000000000000000000000000000000000\n      dup2\n      mstore\n      0x04\n      add\n      tag_61\n      swap1\n      tag_62\n      jump\t// in\n    tag_61:\n      mload(0x40)\n      dup1\n      swap2\n      sub\n      swap1\n      revert\n    tag_60:\n        /* \"contracts/Gacha.sol\":4862:5009  {... */\n      pop\n        /* \"contracts/Gacha.sol\":4807:5009  function withdrawTokens(address to) external onlyOwner {... */\n      pop\n      jump\t// out\n        /* \"contracts/Gacha.sol\":875:906  IMonkeys public monkeysContract */\n    tag_21:\n      0x03\n      0x00\n      swap1\n      sload\n      swap1\n      0x0100\n      exp\n      swap1\n      div\n      0xffffffffffffffffffffffffffffffffffffffff\n      and\n      dup2\n      jump\t// out\n        /* \"contracts/Gacha.sol\":703:727  uint256 public drawPrice */\n    tag_25:\n      sload(0x01)\n      dup2\n      jump\t// out\n        /* \"contracts/Ownable.sol\":366:445  function owner() public view returns(address)  ... */\n    tag_29:\n        /* \"contracts/Ownable.sol\":403:410  address */\n      0x00\n        /* \"contracts/Ownable.sol\":432:438  _owner */\n      dup1\n      0x00\n      swap1\n      sload\n      swap1\n      0x0100\n      exp\n      swap1\n      div\n      0xffffffffffffffffffffffffffffffffffffffff\n      and\n        /* \"contracts/Ownable.sol\":425:438  return _owner */\n      swap1\n      pop\n        /* \"contracts/Ownable.sol\":366:445  function owner() public view returns(address)  ... */\n      swap1\n      jump\t// out\n        /* \"contracts/Ownable.sol\":776:868  function isOwner() public view returns(bool)  ... */\n    tag_33:\n        /* \"contracts/Ownable.sol\":815:819  bool */\n      0x00\n        /* \"contracts/Ownable.sol\":855:861  _owner */\n      dup1\n      0x00\n      swap1\n      sload\n      swap1\n      0x0100\n      exp\n      swap1\n      div\n      0xffffffffffffffffffffffffffffffffffffffff\n      and\n        /* \"contracts/Ownable.sol\":841:861  msg.sender == _owner */\n      0xffffffffffffffffffffffffffffffffffffffff\n      and\n        /* \"contracts/Ownable.sol\":841:851  msg.sender */\n      caller\n        /* \"contracts/Ownable.sol\":841:861  msg.sender == _owner */\n      0xffffffffffffffffffffffffffffffffffffffff\n      and\n      eq\n        /* \"contracts/Ownable.sol\":834:861  return msg.sender == _owner */\n      swap1\n      pop\n        /* \"contracts/Ownable.sol\":776:868  function isOwner() public view returns(bool)  ... */\n      swap1\n      jump\t// out\n        /* \"contracts/Gacha.sol\":4610:4753  function setDrawPrice(uint256 _newPrice) external onlyOwner {... */\n    tag_39:\n        /* \"contracts/Ownable.sol\":597:606  isOwner() */\n      tag_66\n        /* \"contracts/Ownable.sol\":597:604  isOwner */\n      tag_33\n        /* \"contracts/Ownable.sol\":597:606  isOwner() */\n      jump\t// in\n    tag_66:\n        /* \"contracts/Ownable.sol\":589:657  require(isOwner(), ... */\n      tag_67\n      jumpi\n      mload(0x40)\n      0x08c379a000000000000000000000000000000000000000000000000000000000\n      dup2\n      mstore\n      0x04\n      add\n      tag_68\n      swap1\n      tag_47\n      jump\t// in\n    tag_68:\n      mload(0x40)\n      dup1\n      swap2\n      sub\n      swap1\n      revert\n    tag_67:\n        /* \"contracts/Gacha.sol\":4693:4702  _newPrice */\n      dup1\n        /* \"contracts/Gacha.sol\":4681:4690  drawPrice */\n      0x01\n        /* \"contracts/Gacha.sol\":4681:4702  drawPrice = _newPrice */\n      dup2\n      swap1\n      sstore\n      pop\n        /* \"contracts/Gacha.sol\":4718:4745  DrawPriceUpdated(_newPrice) */\n      0x247ea9f4463cd58873c4b89904ce30f00bedad5f28471f701d63c1d98d187e2f\n        /* \"contracts/Gacha.sol\":4735:4744  _newPrice */\n      dup2\n        /* \"contracts/Gacha.sol\":4718:4745  DrawPriceUpdated(_newPrice) */\n      mload(0x40)\n      tag_70\n      swap2\n      swap1\n      tag_27\n      jump\t// in\n    tag_70:\n      mload(0x40)\n      dup1\n      swap2\n      sub\n      swap1\n      log1\n        /* \"contracts/Gacha.sol\":4610:4753  function setDrawPrice(uint256 _newPrice) external onlyOwner {... */\n      pop\n      jump\t// out\n        /* \"contracts/Gacha.sol\":1463:2614  function drawMonkey() external returns (uint256) {... */\n    tag_41:\n        /* \"contracts/Gacha.sol\":1503:1510  uint256 */\n      0x00\n        /* \"contracts/Gacha.sol\":1633:1642  drawPrice */\n      sload(0x01)\n        /* \"contracts/Gacha.sol\":1595:1607  paymentToken */\n      0x02\n      0x00\n      swap1\n      sload\n      swap1\n      0x0100\n      exp\n      swap1\n      div\n      0xffffffffffffffffffffffffffffffffffffffff\n      and\n        /* \"contracts/Gacha.sol\":1595:1617  paymentToken.balanceOf */\n      0xffffffffffffffffffffffffffffffffffffffff\n      and\n      0x70a08231\n        /* \"contracts/Gacha.sol\":1618:1628  msg.sender */\n      caller\n        /* \"contracts/Gacha.sol\":1595:1629  paymentToken.balanceOf(msg.sender) */\n      mload(0x40)\n      dup3\n      0xffffffff\n      and\n      0xe0\n      shl\n      dup2\n      mstore\n      0x04\n      add\n      tag_72\n      swap2\n      swap1\n      tag_31\n      jump\t// in\n    tag_72:\n      0x20\n      mload(0x40)\n      dup1\n      dup4\n      sub\n      dup2\n      dup7\n      gas\n      staticcall\n      iszero\n      dup1\n      iszero\n      tag_74\n      jumpi\n      returndatasize\n      0x00\n      dup1\n      returndatacopy\n      revert(0x00, returndatasize)\n    tag_74:\n      pop\n      pop\n      pop\n      pop\n      mload(0x40)\n      returndatasize\n      not(0x1f)\n      0x1f\n      dup3\n      add\n      and\n      dup3\n      add\n      dup1\n      0x40\n      mstore\n      pop\n      dup2\n      add\n      swap1\n      tag_75\n      swap2\n      swap1\n      tag_53\n      jump\t// in\n    tag_75:\n        /* \"contracts/Gacha.sol\":1595:1642  paymentToken.balanceOf(msg.sender) >= drawPrice */\n      lt\n      iszero\n        /* \"contracts/Gacha.sol\":1587:1666  require(paymentToken.balanceOf(msg.sender) >= drawPrice, \"Insufficient tokens\") */\n      tag_76\n      jumpi\n      mload(0x40)\n      0x08c379a000000000000000000000000000000000000000000000000000000000\n      dup2\n      mstore\n      0x04\n      add\n      tag_77\n      swap1\n      tag_78\n      jump\t// in\n    tag_77:\n      mload(0x40)\n      dup1\n      swap2\n      sub\n      swap1\n      revert\n    tag_76:\n        /* \"contracts/Gacha.sol\":1685:1697  paymentToken */\n      0x02\n      0x00\n      swap1\n      sload\n      swap1\n      0x0100\n      exp\n      swap1\n      div\n      0xffffffffffffffffffffffffffffffffffffffff\n      and\n        /* \"contracts/Gacha.sol\":1685:1710  paymentToken.transferFrom */\n      0xffffffffffffffffffffffffffffffffffffffff\n      and\n      0x23b872dd\n        /* \"contracts/Gacha.sol\":1711:1721  msg.sender */\n      caller\n        /* \"contracts/Gacha.sol\":1731:1735  this */\n      address\n        /* \"contracts/Gacha.sol\":1738:1747  drawPrice */\n      sload(0x01)\n        /* \"contracts/Gacha.sol\":1685:1748  paymentToken.transferFrom(msg.sender, address(this), drawPrice) */\n      mload(0x40)\n      dup5\n      0xffffffff\n      and\n      0xe0\n      shl\n      dup2\n      mstore\n      0x04\n      add\n      tag_79\n      swap4\n      swap3\n      swap2\n      swap1\n      tag_80\n      jump\t// in\n    tag_79:\n      0x20\n      mload(0x40)\n      dup1\n      dup4\n      sub\n      dup2\n      0x00\n      dup8\n      gas\n      call\n      iszero\n      dup1\n      iszero\n      tag_82\n      jumpi\n      returndatasize\n      0x00\n      dup1\n      returndatacopy\n      revert(0x00, returndatasize)\n    tag_82:\n      pop\n      pop\n      pop\n      pop\n      mload(0x40)\n      returndatasize\n      not(0x1f)\n      0x1f\n      dup3\n      add\n      and\n      dup3\n      add\n      dup1\n      0x40\n      mstore\n      pop\n      dup2\n      add\n      swap1\n      tag_83\n      swap2\n      swap1\n      tag_59\n      jump\t// in\n    tag_83:\n        /* \"contracts/Gacha.sol\":1677:1768  require(paymentToken.transferFrom(msg.sender, address(this), drawPrice), \"Transfer failed\") */\n      tag_84\n      jumpi\n      mload(0x40)\n      0x08c379a000000000000000000000000000000000000000000000000000000000\n      dup2\n      mstore\n      0x04\n      add\n      tag_85\n      swap1\n      tag_62\n      jump\t// in\n    tag_85:\n      mload(0x40)\n      dup1\n      swap2\n      sub\n      swap1\n      revert\n    tag_84:\n        /* \"contracts/Gacha.sol\":1846:1858  uint8 rarity */\n      0x00\n        /* \"contracts/Gacha.sol\":1861:1878  _generateRarity() */\n      tag_86\n        /* \"contracts/Gacha.sol\":1861:1876  _generateRarity */\n      tag_87\n        /* \"contracts/Gacha.sol\":1861:1878  _generateRarity() */\n      jump\t// in\n    tag_86:\n        /* \"contracts/Gacha.sol\":1846:1878  uint8 rarity = _generateRarity() */\n      swap1\n      pop\n        /* \"contracts/Gacha.sol\":1889:1904  uint8 powerType */\n      0x00\n        /* \"contracts/Gacha.sol\":1907:1927  _generatePowerType() */\n      tag_88\n        /* \"contracts/Gacha.sol\":1907:1925  _generatePowerType */\n      tag_89\n        /* \"contracts/Gacha.sol\":1907:1927  _generatePowerType() */\n      jump\t// in\n    tag_88:\n        /* \"contracts/Gacha.sol\":1889:1927  uint8 powerType = _generatePowerType() */\n      swap1\n      pop\n        /* \"contracts/Gacha.sol\":1938:1952  uint256 attack */\n      0x00\n        /* \"contracts/Gacha.sol\":1955:1976  _generateStat(rarity) */\n      tag_90\n        /* \"contracts/Gacha.sol\":1969:1975  rarity */\n      dup4\n        /* \"contracts/Gacha.sol\":1955:1968  _generateStat */\n      tag_91\n        /* \"contracts/Gacha.sol\":1955:1976  _generateStat(rarity) */\n      jump\t// in\n    tag_90:\n        /* \"contracts/Gacha.sol\":1938:1976  uint256 attack = _generateStat(rarity) */\n      swap1\n      pop\n        /* \"contracts/Gacha.sol\":1987:2001  uint256 health */\n      0x00\n        /* \"contracts/Gacha.sol\":2004:2025  _generateStat(rarity) */\n      tag_92\n        /* \"contracts/Gacha.sol\":2018:2024  rarity */\n      dup5\n        /* \"contracts/Gacha.sol\":2004:2017  _generateStat */\n      tag_91\n        /* \"contracts/Gacha.sol\":2004:2025  _generateStat(rarity) */\n      jump\t// in\n    tag_92:\n        /* \"contracts/Gacha.sol\":1987:2025  uint256 health = _generateStat(rarity) */\n      swap1\n      pop\n        /* \"contracts/Gacha.sol\":2097:2115  string memory name */\n      0x00\n        /* \"contracts/Gacha.sol\":2156:2180  _getRarityString(rarity) */\n      tag_93\n        /* \"contracts/Gacha.sol\":2173:2179  rarity */\n      dup6\n        /* \"contracts/Gacha.sol\":2156:2172  _getRarityString */\n      tag_94\n        /* \"contracts/Gacha.sol\":2156:2180  _getRarityString(rarity) */\n      jump\t// in\n    tag_93:\n        /* \"contracts/Gacha.sol\":2221:2236  toString(nonce) */\n      tag_95\n        /* \"contracts/Gacha.sol\":2230:2235  nonce */\n      sload(0x04)\n        /* \"contracts/Gacha.sol\":2221:2229  toString */\n      tag_96\n        /* \"contracts/Gacha.sol\":2221:2236  toString(nonce) */\n      jump\t// in\n    tag_95:\n        /* \"contracts/Gacha.sol\":2125:2247  abi.encodePacked(... */\n      add(0x20, mload(0x40))\n      tag_97\n      swap3\n      swap2\n      swap1\n      tag_98\n      jump\t// in\n    tag_97:\n      mload(0x40)\n      0x20\n      dup2\n      dup4\n      sub\n      sub\n      dup2\n      mstore\n      swap1\n      0x40\n      mstore\n        /* \"contracts/Gacha.sol\":2097:2248  string memory name = string(abi.encodePacked(... */\n      swap1\n      pop\n        /* \"contracts/Gacha.sol\":2301:2316  uint256 tokenId */\n      0x00\n        /* \"contracts/Gacha.sol\":2319:2334  monkeysContract */\n      0x03\n      0x00\n      swap1\n      sload\n      swap1\n      0x0100\n      exp\n      swap1\n      div\n      0xffffffffffffffffffffffffffffffffffffffff\n      and\n        /* \"contracts/Gacha.sol\":2319:2345  monkeysContract.mintMonkey */\n      0xffffffffffffffffffffffffffffffffffffffff\n      and\n      0x0d522f6e\n        /* \"contracts/Gacha.sol\":2360:2370  msg.sender */\n      caller\n        /* \"contracts/Gacha.sol\":2385:2389  name */\n      dup5\n        /* \"contracts/Gacha.sol\":2404:2410  rarity */\n      dup10\n        /* \"contracts/Gacha.sol\":2425:2434  powerType */\n      dup10\n        /* \"contracts/Gacha.sol\":2449:2455  attack */\n      dup10\n        /* \"contracts/Gacha.sol\":2470:2476  health */\n      dup10\n        /* \"contracts/Gacha.sol\":2319:2487  monkeysContract.mintMonkey(... */\n      mload(0x40)\n      dup8\n      0xffffffff\n      and\n      0xe0\n      shl\n      dup2\n      mstore\n      0x04\n      add\n      tag_99\n      swap7\n      swap6\n      swap5\n      swap4\n      swap3\n      swap2\n      swap1\n      tag_100\n      jump\t// in\n    tag_99:\n      0x20\n      mload(0x40)\n      dup1\n      dup4\n      sub\n      dup2\n      0x00\n      dup8\n      gas\n      call\n      iszero\n      dup1\n      iszero\n      tag_102\n      jumpi\n      returndatasize\n      0x00\n      dup1\n      returndatacopy\n      revert(0x00, returndatasize)\n    tag_102:\n      pop\n      pop\n      pop\n      pop\n      mload(0x40)\n      returndatasize\n      not(0x1f)\n      0x1f\n      dup3\n      add\n      and\n      dup3\n      add\n      dup1\n      0x40\n      mstore\n      pop\n      dup2\n      add\n      swap1\n      tag_103\n      swap2\n      swap1\n      tag_53\n      jump\t// in\n    tag_103:\n        /* \"contracts/Gacha.sol\":2301:2487  uint256 tokenId = monkeysContract.mintMonkey(... */\n      swap1\n      pop\n        /* \"contracts/Gacha.sol\":2537:2544  tokenId */\n      dup1\n        /* \"contracts/Gacha.sol\":2525:2535  msg.sender */\n      caller\n        /* \"contracts/Gacha.sol\":2513:2553  MonkeyDrawn(msg.sender, tokenId, rarity) */\n      0xffffffffffffffffffffffffffffffffffffffff\n      and\n      0x9ab4ada96e14074a5116d152adbb77ecfd26dae04d5f727e13f409578a90b092\n        /* \"contracts/Gacha.sol\":2546:2552  rarity */\n      dup9\n        /* \"contracts/Gacha.sol\":2513:2553  MonkeyDrawn(msg.sender, tokenId, rarity) */\n      mload(0x40)\n      tag_104\n      swap2\n      swap1\n      tag_105\n      jump\t// in\n    tag_104:\n      mload(0x40)\n      dup1\n      swap2\n      sub\n      swap1\n      log3\n        /* \"contracts/Gacha.sol\":2564:2569  nonce */\n      0x04\n      0x00\n        /* \"contracts/Gacha.sol\":2564:2571  nonce++ */\n      dup2\n      sload\n      dup1\n      swap3\n      swap2\n      swap1\n      tag_106\n      swap1\n      tag_107\n      jump\t// in\n    tag_106:\n      swap2\n      swap1\n      pop\n      sstore\n      pop\n        /* \"contracts/Gacha.sol\":2599:2606  tokenId */\n      dup1\n        /* \"contracts/Gacha.sol\":2592:2606  return tokenId */\n      swap7\n      pop\n      pop\n      pop\n      pop\n      pop\n      pop\n      pop\n        /* \"contracts/Gacha.sol\":1463:2614  function drawMonkey() external returns (uint256) {... */\n      swap1\n      jump\t// out\n        /* \"contracts/Gacha.sol\":2688:3083  function _generateRarity() internal view returns (uint8) {... */\n    tag_87:\n        /* \"contracts/Gacha.sol\":2738:2743  uint8 */\n      0x00\n        /* \"contracts/Gacha.sol\":2756:2768  uint256 rand */\n      dup1\n        /* \"contracts/Gacha.sol\":2771:2785  _random(10000) */\n      tag_109\n        /* \"contracts/Gacha.sol\":2779:2784  10000 */\n      0x2710\n        /* \"contracts/Gacha.sol\":2771:2778  _random */\n      tag_110\n        /* \"contracts/Gacha.sol\":2771:2785  _random(10000) */\n      jump\t// in\n    tag_109:\n        /* \"contracts/Gacha.sol\":2756:2785  uint256 rand = _random(10000) */\n      swap1\n      pop\n        /* \"contracts/Gacha.sol\":497:500  500 */\n      0x01f4\n        /* \"contracts/Gacha.sol\":2846:2869  rand < LEGENDARY_CHANCE */\n      0xffff\n      and\n        /* \"contracts/Gacha.sol\":2846:2850  rand */\n      dup2\n        /* \"contracts/Gacha.sol\":2846:2869  rand < LEGENDARY_CHANCE */\n      lt\n        /* \"contracts/Gacha.sol\":2842:2879  if (rand < LEGENDARY_CHANCE) return 3 */\n      iszero\n      tag_111\n      jumpi\n        /* \"contracts/Gacha.sol\":2878:2879  3 */\n      0x03\n        /* \"contracts/Gacha.sol\":2871:2879  return 3 */\n      swap2\n      pop\n      pop\n      jump(tag_108)\n        /* \"contracts/Gacha.sol\":2842:2879  if (rand < LEGENDARY_CHANCE) return 3 */\n    tag_111:\n        /* \"contracts/Gacha.sol\":544:548  1500 */\n      0x05dc\n        /* \"contracts/Gacha.sol\":497:500  500 */\n      0x01f4\n        /* \"contracts/Gacha.sol\":2914:2944  LEGENDARY_CHANCE + EPIC_CHANCE */\n      tag_112\n      swap2\n      swap1\n      tag_113\n      jump\t// in\n    tag_112:\n        /* \"contracts/Gacha.sol\":2907:2944  rand < LEGENDARY_CHANCE + EPIC_CHANCE */\n      0xffff\n      and\n        /* \"contracts/Gacha.sol\":2907:2911  rand */\n      dup2\n        /* \"contracts/Gacha.sol\":2907:2944  rand < LEGENDARY_CHANCE + EPIC_CHANCE */\n      lt\n        /* \"contracts/Gacha.sol\":2903:2954  if (rand < LEGENDARY_CHANCE + EPIC_CHANCE) return 2 */\n      iszero\n      tag_114\n      jumpi\n        /* \"contracts/Gacha.sol\":2953:2954  2 */\n      0x02\n        /* \"contracts/Gacha.sol\":2946:2954  return 2 */\n      swap2\n      pop\n      pop\n      jump(tag_108)\n        /* \"contracts/Gacha.sol\":2903:2954  if (rand < LEGENDARY_CHANCE + EPIC_CHANCE) return 2 */\n    tag_114:\n        /* \"contracts/Gacha.sol\":597:601  2500 */\n      0x09c4\n        /* \"contracts/Gacha.sol\":544:548  1500 */\n      0x05dc\n        /* \"contracts/Gacha.sol\":497:500  500 */\n      0x01f4\n        /* \"contracts/Gacha.sol\":2984:3014  LEGENDARY_CHANCE + EPIC_CHANCE */\n      tag_115\n      swap2\n      swap1\n      tag_113\n      jump\t// in\n    tag_115:\n        /* \"contracts/Gacha.sol\":2984:3028  LEGENDARY_CHANCE + EPIC_CHANCE + RARE_CHANCE */\n      tag_116\n      swap2\n      swap1\n      tag_113\n      jump\t// in\n    tag_116:\n        /* \"contracts/Gacha.sol\":2977:3028  rand < LEGENDARY_CHANCE + EPIC_CHANCE + RARE_CHANCE */\n      0xffff\n      and\n        /* \"contracts/Gacha.sol\":2977:2981  rand */\n      dup2\n        /* \"contracts/Gacha.sol\":2977:3028  rand < LEGENDARY_CHANCE + EPIC_CHANCE + RARE_CHANCE */\n      lt\n        /* \"contracts/Gacha.sol\":2973:3038  if (rand < LEGENDARY_CHANCE + EPIC_CHANCE + RARE_CHANCE) return 1 */\n      iszero\n      tag_117\n      jumpi\n        /* \"contracts/Gacha.sol\":3037:3038  1 */\n      0x01\n        /* \"contracts/Gacha.sol\":3030:3038  return 1 */\n      swap2\n      pop\n      pop\n      jump(tag_108)\n        /* \"contracts/Gacha.sol\":2973:3038  if (rand < LEGENDARY_CHANCE + EPIC_CHANCE + RARE_CHANCE) return 1 */\n    tag_117:\n        /* \"contracts/Gacha.sol\":3064:3065  0 */\n      0x00\n        /* \"contracts/Gacha.sol\":3057:3065  return 0 */\n      swap2\n      pop\n      pop\n        /* \"contracts/Gacha.sol\":2688:3083  function _generateRarity() internal view returns (uint8) {... */\n    tag_108:\n      swap1\n      jump\t// out\n        /* \"contracts/Gacha.sol\":3177:3280  function _generatePowerType() internal view returns (uint8) {... */\n    tag_89:\n        /* \"contracts/Gacha.sol\":3230:3235  uint8 */\n      0x00\n        /* \"contracts/Gacha.sol\":3261:3271  _random(3) */\n      tag_119\n        /* \"contracts/Gacha.sol\":3269:3270  3 */\n      0x03\n        /* \"contracts/Gacha.sol\":3261:3268  _random */\n      tag_110\n        /* \"contracts/Gacha.sol\":3261:3271  _random(3) */\n      jump\t// in\n    tag_119:\n        /* \"contracts/Gacha.sol\":3248:3272  return uint8(_random(3)) */\n      swap1\n      pop\n        /* \"contracts/Gacha.sol\":3177:3280  function _generatePowerType() internal view returns (uint8) {... */\n      swap1\n      jump\t// out\n        /* \"contracts/Gacha.sol\":3366:3936  function _generateStat(uint8 rarity) internal view returns (uint256) {... */\n    tag_91:\n        /* \"contracts/Gacha.sol\":3426:3433  uint256 */\n      0x00\n        /* \"contracts/Gacha.sol\":3487:3499  uint256 base */\n      dup1\n        /* \"contracts/Gacha.sol\":3507:3518  _random(51) */\n      tag_121\n        /* \"contracts/Gacha.sol\":3515:3517  51 */\n      0x33\n        /* \"contracts/Gacha.sol\":3507:3514  _random */\n      tag_110\n        /* \"contracts/Gacha.sol\":3507:3518  _random(51) */\n      jump\t// in\n    tag_121:\n        /* \"contracts/Gacha.sol\":3502:3504  50 */\n      0x32\n        /* \"contracts/Gacha.sol\":3502:3518  50 + _random(51) */\n      tag_122\n      swap2\n      swap1\n      tag_123\n      jump\t// in\n    tag_122:\n        /* \"contracts/Gacha.sol\":3487:3518  uint256 base = 50 + _random(51) */\n      swap1\n      pop\n        /* \"contracts/Gacha.sol\":3628:3656  uint256[] memory multipliers */\n      0x00\n        /* \"contracts/Gacha.sol\":3673:3674  4 */\n      0x04\n        /* \"contracts/Gacha.sol\":3659:3675  new uint256[](4) */\n      0xffffffffffffffff\n      dup2\n      gt\n      iszero\n      tag_124\n      jumpi\n      tag_125\n      tag_126\n      jump\t// in\n    tag_125:\n    tag_124:\n      mload(0x40)\n      swap1\n      dup1\n      dup3\n      mstore\n      dup1\n      0x20\n      mul\n      0x20\n      add\n      dup3\n      add\n      0x40\n      mstore\n      dup1\n      iszero\n      tag_127\n      jumpi\n      dup2\n      0x20\n      add\n      0x20\n      dup3\n      mul\n      dup1\n      calldatasize\n      dup4\n      calldatacopy\n      dup1\n      dup3\n      add\n      swap2\n      pop\n      pop\n      swap1\n      pop\n    tag_127:\n      pop\n        /* \"contracts/Gacha.sol\":3628:3675  uint256[] memory multipliers = new uint256[](4) */\n      swap1\n      pop\n        /* \"contracts/Gacha.sol\":3703:3706  100 */\n      0x64\n        /* \"contracts/Gacha.sol\":3686:3697  multipliers */\n      dup2\n        /* \"contracts/Gacha.sol\":3698:3699  0 */\n      0x00\n        /* \"contracts/Gacha.sol\":3686:3700  multipliers[0] */\n      dup2\n      mload\n      dup2\n      lt\n      tag_128\n      jumpi\n      tag_129\n      tag_130\n      jump\t// in\n    tag_129:\n    tag_128:\n      0x20\n      mul\n      0x20\n      add\n      add\n        /* \"contracts/Gacha.sol\":3686:3706  multipliers[0] = 100 */\n      dup2\n      dup2\n      mstore\n      pop\n      pop\n        /* \"contracts/Gacha.sol\":3751:3754  120 */\n      0x78\n        /* \"contracts/Gacha.sol\":3734:3745  multipliers */\n      dup2\n        /* \"contracts/Gacha.sol\":3746:3747  1 */\n      0x01\n        /* \"contracts/Gacha.sol\":3734:3748  multipliers[1] */\n      dup2\n      mload\n      dup2\n      lt\n      tag_131\n      jumpi\n      tag_132\n      tag_130\n      jump\t// in\n    tag_132:\n    tag_131:\n      0x20\n      mul\n      0x20\n      add\n      add\n        /* \"contracts/Gacha.sol\":3734:3754  multipliers[1] = 120 */\n      dup2\n      dup2\n      mstore\n      pop\n      pop\n        /* \"contracts/Gacha.sol\":3797:3800  150 */\n      0x96\n        /* \"contracts/Gacha.sol\":3780:3791  multipliers */\n      dup2\n        /* \"contracts/Gacha.sol\":3792:3793  2 */\n      0x02\n        /* \"contracts/Gacha.sol\":3780:3794  multipliers[2] */\n      dup2\n      mload\n      dup2\n      lt\n      tag_133\n      jumpi\n      tag_134\n      tag_130\n      jump\t// in\n    tag_134:\n    tag_133:\n      0x20\n      mul\n      0x20\n      add\n      add\n        /* \"contracts/Gacha.sol\":3780:3800  multipliers[2] = 150 */\n      dup2\n      dup2\n      mstore\n      pop\n      pop\n        /* \"contracts/Gacha.sol\":3843:3846  200 */\n      0xc8\n        /* \"contracts/Gacha.sol\":3826:3837  multipliers */\n      dup2\n        /* \"contracts/Gacha.sol\":3838:3839  3 */\n      0x03\n        /* \"contracts/Gacha.sol\":3826:3840  multipliers[3] */\n      dup2\n      mload\n      dup2\n      lt\n      tag_135\n      jumpi\n      tag_136\n      tag_130\n      jump\t// in\n    tag_136:\n    tag_135:\n      0x20\n      mul\n      0x20\n      add\n      add\n        /* \"contracts/Gacha.sol\":3826:3846  multipliers[3] = 200 */\n      dup2\n      dup2\n      mstore\n      pop\n      pop\n        /* \"contracts/Gacha.sol\":3925:3928  100 */\n      0x64\n        /* \"contracts/Gacha.sol\":3902:3913  multipliers */\n      dup2\n        /* \"contracts/Gacha.sol\":3914:3920  rarity */\n      dup6\n        /* \"contracts/Gacha.sol\":3902:3921  multipliers[rarity] */\n      0xff\n      and\n      dup2\n      mload\n      dup2\n      lt\n      tag_137\n      jumpi\n      tag_138\n      tag_130\n      jump\t// in\n    tag_138:\n    tag_137:\n      0x20\n      mul\n      0x20\n      add\n      add\n      mload\n        /* \"contracts/Gacha.sol\":3895:3899  base */\n      dup4\n        /* \"contracts/Gacha.sol\":3895:3921  base * multipliers[rarity] */\n      tag_139\n      swap2\n      swap1\n      tag_140\n      jump\t// in\n    tag_139:\n        /* \"contracts/Gacha.sol\":3894:3928  (base * multipliers[rarity]) / 100 */\n      tag_141\n      swap2\n      swap1\n      tag_142\n      jump\t// in\n    tag_141:\n        /* \"contracts/Gacha.sol\":3887:3928  return (base * multipliers[rarity]) / 100 */\n      swap3\n      pop\n      pop\n      pop\n        /* \"contracts/Gacha.sol\":3366:3936  function _generateStat(uint8 rarity) internal view returns (uint256) {... */\n      swap2\n      swap1\n      pop\n      jump\t// out\n        /* \"contracts/Gacha.sol\":4314:4554  function _getRarityString(uint8 rarity) internal pure returns (string memory) {... */\n    tag_94:\n        /* \"contracts/Gacha.sol\":4377:4390  string memory */\n      0x60\n        /* \"contracts/Gacha.sol\":4417:4418  3 */\n      0x03\n        /* \"contracts/Gacha.sol\":4407:4413  rarity */\n      dup3\n        /* \"contracts/Gacha.sol\":4407:4418  rarity == 3 */\n      0xff\n      and\n      sub\n        /* \"contracts/Gacha.sol\":4403:4438  if (rarity == 3) return \"Legendary\" */\n      tag_144\n      jumpi\n        /* \"contracts/Gacha.sol\":4420:4438  return \"Legendary\" */\n      mload(0x40)\n      dup1\n      0x40\n      add\n      0x40\n      mstore\n      dup1\n      0x09\n      dup2\n      mstore\n      0x20\n      add\n      0x4c6567656e646172790000000000000000000000000000000000000000000000\n      dup2\n      mstore\n      pop\n      swap1\n      pop\n      jump(tag_143)\n        /* \"contracts/Gacha.sol\":4403:4438  if (rarity == 3) return \"Legendary\" */\n    tag_144:\n        /* \"contracts/Gacha.sol\":4463:4464  2 */\n      0x02\n        /* \"contracts/Gacha.sol\":4453:4459  rarity */\n      dup3\n        /* \"contracts/Gacha.sol\":4453:4464  rarity == 2 */\n      0xff\n      and\n      sub\n        /* \"contracts/Gacha.sol\":4449:4479  if (rarity == 2) return \"Epic\" */\n      tag_145\n      jumpi\n        /* \"contracts/Gacha.sol\":4466:4479  return \"Epic\" */\n      mload(0x40)\n      dup1\n      0x40\n      add\n      0x40\n      mstore\n      dup1\n      0x04\n      dup2\n      mstore\n      0x20\n      add\n      0x4570696300000000000000000000000000000000000000000000000000000000\n      dup2\n      mstore\n      pop\n      swap1\n      pop\n      jump(tag_143)\n        /* \"contracts/Gacha.sol\":4449:4479  if (rarity == 2) return \"Epic\" */\n    tag_145:\n        /* \"contracts/Gacha.sol\":4504:4505  1 */\n      0x01\n        /* \"contracts/Gacha.sol\":4494:4500  rarity */\n      dup3\n        /* \"contracts/Gacha.sol\":4494:4505  rarity == 1 */\n      0xff\n      and\n      sub\n        /* \"contracts/Gacha.sol\":4490:4520  if (rarity == 1) return \"Rare\" */\n      tag_146\n      jumpi\n        /* \"contracts/Gacha.sol\":4507:4520  return \"Rare\" */\n      mload(0x40)\n      dup1\n      0x40\n      add\n      0x40\n      mstore\n      dup1\n      0x04\n      dup2\n      mstore\n      0x20\n      add\n      0x5261726500000000000000000000000000000000000000000000000000000000\n      dup2\n      mstore\n      pop\n      swap1\n      pop\n      jump(tag_143)\n        /* \"contracts/Gacha.sol\":4490:4520  if (rarity == 1) return \"Rare\" */\n    tag_146:\n        /* \"contracts/Gacha.sol\":4531:4546  return \"Common\" */\n      mload(0x40)\n      dup1\n      0x40\n      add\n      0x40\n      mstore\n      dup1\n      0x06\n      dup2\n      mstore\n      0x20\n      add\n      0x436f6d6d6f6e0000000000000000000000000000000000000000000000000000\n      dup2\n      mstore\n      pop\n      swap1\n      pop\n        /* \"contracts/Gacha.sol\":4314:4554  function _getRarityString(uint8 rarity) internal pure returns (string memory) {... */\n    tag_143:\n      swap2\n      swap1\n      pop\n      jump\t// out\n        /* \"contracts/Gacha.sol\":5072:5604  function toString(uint256 value) internal pure returns (string memory) {... */\n    tag_96:\n        /* \"contracts/Gacha.sol\":5128:5141  string memory */\n      0x60\n        /* \"contracts/Gacha.sol\":5167:5168  0 */\n      0x00\n        /* \"contracts/Gacha.sol\":5158:5163  value */\n      dup3\n        /* \"contracts/Gacha.sol\":5158:5168  value == 0 */\n      sub\n        /* \"contracts/Gacha.sol\":5154:5207  if (value == 0) {... */\n      tag_148\n      jumpi\n        /* \"contracts/Gacha.sol\":5185:5195  return \"0\" */\n      mload(0x40)\n      dup1\n      0x40\n      add\n      0x40\n      mstore\n      dup1\n      0x01\n      dup2\n      mstore\n      0x20\n      add\n      0x3000000000000000000000000000000000000000000000000000000000000000\n      dup2\n      mstore\n      pop\n      swap1\n      pop\n      jump(tag_147)\n        /* \"contracts/Gacha.sol\":5154:5207  if (value == 0) {... */\n    tag_148:\n        /* \"contracts/Gacha.sol\":5217:5229  uint256 temp */\n      0x00\n        /* \"contracts/Gacha.sol\":5232:5237  value */\n      dup3\n        /* \"contracts/Gacha.sol\":5217:5237  uint256 temp = value */\n      swap1\n      pop\n        /* \"contracts/Gacha.sol\":5248:5262  uint256 digits */\n      0x00\n        /* \"contracts/Gacha.sol\":5273:5351  while (temp != 0) {... */\n    tag_149:\n        /* \"contracts/Gacha.sol\":5288:5289  0 */\n      0x00\n        /* \"contracts/Gacha.sol\":5280:5284  temp */\n      dup3\n        /* \"contracts/Gacha.sol\":5280:5289  temp != 0 */\n      eq\n        /* \"contracts/Gacha.sol\":5273:5351  while (temp != 0) {... */\n      tag_150\n      jumpi\n        /* \"contracts/Gacha.sol\":5306:5314  digits++ */\n      dup1\n      dup1\n      tag_151\n      swap1\n      tag_107\n      jump\t// in\n    tag_151:\n      swap2\n      pop\n      pop\n        /* \"contracts/Gacha.sol\":5337:5339  10 */\n      0x0a\n        /* \"contracts/Gacha.sol\":5329:5339  temp /= 10 */\n      dup3\n      tag_152\n      swap2\n      swap1\n      tag_142\n      jump\t// in\n    tag_152:\n      swap2\n      pop\n        /* \"contracts/Gacha.sol\":5273:5351  while (temp != 0) {... */\n      jump(tag_149)\n    tag_150:\n        /* \"contracts/Gacha.sol\":5361:5380  bytes memory buffer */\n      0x00\n        /* \"contracts/Gacha.sol\":5393:5399  digits */\n      dup2\n        /* \"contracts/Gacha.sol\":5383:5400  new bytes(digits) */\n      0xffffffffffffffff\n      dup2\n      gt\n      iszero\n      tag_153\n      jumpi\n      tag_154\n      tag_126\n      jump\t// in\n    tag_154:\n    tag_153:\n      mload(0x40)\n      swap1\n      dup1\n      dup3\n      mstore\n      dup1\n      0x1f\n      add\n      not(0x1f)\n      and\n      0x20\n      add\n      dup3\n      add\n      0x40\n      mstore\n      dup1\n      iszero\n      tag_155\n      jumpi\n      dup2\n      0x20\n      add\n      0x01\n      dup3\n      mul\n      dup1\n      calldatasize\n      dup4\n      calldatacopy\n      dup1\n      dup3\n      add\n      swap2\n      pop\n      pop\n      swap1\n      pop\n    tag_155:\n      pop\n        /* \"contracts/Gacha.sol\":5361:5400  bytes memory buffer = new bytes(digits) */\n      swap1\n      pop\n        /* \"contracts/Gacha.sol\":5411:5565  while (value != 0) {... */\n    tag_156:\n        /* \"contracts/Gacha.sol\":5427:5428  0 */\n      0x00\n        /* \"contracts/Gacha.sol\":5418:5423  value */\n      dup6\n        /* \"contracts/Gacha.sol\":5418:5428  value != 0 */\n      eq\n        /* \"contracts/Gacha.sol\":5411:5565  while (value != 0) {... */\n      tag_157\n      jumpi\n        /* \"contracts/Gacha.sol\":5455:5456  1 */\n      0x01\n        /* \"contracts/Gacha.sol\":5445:5456  digits -= 1 */\n      dup3\n      tag_158\n      swap2\n      swap1\n      tag_159\n      jump\t// in\n    tag_158:\n      swap2\n      pop\n        /* \"contracts/Gacha.sol\":5522:5524  10 */\n      0x0a\n        /* \"contracts/Gacha.sol\":5514:5519  value */\n      dup6\n        /* \"contracts/Gacha.sol\":5514:5524  value % 10 */\n      tag_160\n      swap2\n      swap1\n      tag_161\n      jump\t// in\n    tag_160:\n        /* \"contracts/Gacha.sol\":5501:5503  48 */\n      0x30\n        /* \"contracts/Gacha.sol\":5501:5525  48 + uint256(value % 10) */\n      tag_162\n      swap2\n      swap1\n      tag_123\n      jump\t// in\n    tag_162:\n        /* \"contracts/Gacha.sol\":5488:5527  bytes1(uint8(48 + uint256(value % 10))) */\n      0xf8\n      shl\n        /* \"contracts/Gacha.sol\":5471:5477  buffer */\n      dup2\n        /* \"contracts/Gacha.sol\":5478:5484  digits */\n      dup4\n        /* \"contracts/Gacha.sol\":5471:5485  buffer[digits] */\n      dup2\n      mload\n      dup2\n      lt\n      tag_163\n      jumpi\n      tag_164\n      tag_130\n      jump\t// in\n    tag_164:\n    tag_163:\n      0x20\n      add\n      add\n        /* \"contracts/Gacha.sol\":5471:5527  buffer[digits] = bytes1(uint8(48 + uint256(value % 10))) */\n      swap1\n      not(0xffffffffffffffffffffffffffffffffffffffffffffffffffffffffffffff)\n      and\n      swap1\n      dup2\n      0x00\n      byte\n      swap1\n      mstore8\n      pop\n        /* \"contracts/Gacha.sol\":5551:5553  10 */\n      0x0a\n        /* \"contracts/Gacha.sol\":5542:5553  value /= 10 */\n      dup6\n      tag_165\n      swap2\n      swap1\n      tag_142\n      jump\t// in\n    tag_165:\n      swap5\n      pop\n        /* \"contracts/Gacha.sol\":5411:5565  while (value != 0) {... */\n      jump(tag_156)\n    tag_157:\n        /* \"contracts/Gacha.sol\":5589:5595  buffer */\n      dup1\n        /* \"contracts/Gacha.sol\":5575:5596  return string(buffer) */\n      swap4\n      pop\n      pop\n      pop\n      pop\n        /* \"contracts/Gacha.sol\":5072:5604  function toString(uint256 value) internal pure returns (string memory) {... */\n    tag_147:\n      swap2\n      swap1\n      pop\n      jump\t// out\n        /* \"contracts/Gacha.sol\":4008:4255  function _random(uint256 max) internal view returns (uint256) {... */\n    tag_110:\n        /* \"contracts/Gacha.sol\":4061:4068  uint256 */\n      0x00\n        /* \"contracts/Gacha.sol\":4244:4247  max */\n      dup2\n        /* \"contracts/Gacha.sol\":4137:4152  block.timestamp */\n      timestamp\n        /* \"contracts/Gacha.sol\":4167:4183  block.prevrandao */\n      prevrandao\n        /* \"contracts/Gacha.sol\":4198:4208  msg.sender */\n      caller\n        /* \"contracts/Gacha.sol\":4223:4228  nonce */\n      sload(0x04)\n        /* \"contracts/Gacha.sol\":4106:4239  abi.encodePacked(... */\n      add(0x20, mload(0x40))\n      tag_167\n      swap5\n      swap4\n      swap3\n      swap2\n      swap1\n      tag_168\n      jump\t// in\n    tag_167:\n      mload(0x40)\n      0x20\n      dup2\n      dup4\n      sub\n      sub\n      dup2\n      mstore\n      swap1\n      0x40\n      mstore\n        /* \"contracts/Gacha.sol\":4096:4240  keccak256(abi.encodePacked(... */\n      dup1\n      mload\n      swap1\n      0x20\n      add\n      keccak256\n        /* \"contracts/Gacha.sol\":4088:4241  uint256(keccak256(abi.encodePacked(... */\n      0x00\n      shr\n        /* \"contracts/Gacha.sol\":4088:4247  uint256(keccak256(abi.encodePacked(... */\n      tag_169\n      swap2\n      swap1\n      tag_161\n      jump\t// in\n    tag_169:\n        /* \"contracts/Gacha.sol\":4081:4247  return uint256(keccak256(abi.encodePacked(... */\n      swap1\n      pop\n        /* \"contracts/Gacha.sol\":4008:4255  function _random(uint256 max) internal view returns (uint256) {... */\n      swap2\n      swap1\n      pop\n      jump\t// out\n        /* \"#utility.yul\":7:133   */\n    tag_170:\n        /* \"#utility.yul\":44:51   */\n      0x00\n        /* \"#utility.yul\":84:126   */\n      0xffffffffffffffffffffffffffffffffffffffff\n        /* \"#utility.yul\":77:82   */\n      dup3\n        /* \"#utility.yul\":73:127   */\n      and\n        /* \"#utility.yul\":62:127   */\n      swap1\n      pop\n        /* \"#utility.yul\":7:133   */\n      swap2\n      swap1\n      pop\n      jump\t// out\n        /* \"#utility.yul\":139:199   */\n    tag_171:\n        /* \"#utility.yul\":167:170   */\n      0x00\n        /* \"#utility.yul\":188:193   */\n      dup2\n        /* \"#utility.yul\":181:193   */\n      swap1\n      pop\n        /* \"#utility.yul\":139:199   */\n      swap2\n      swap1\n      pop\n      jump\t// out\n        /* \"#utility.yul\":205:347   */\n    tag_172:\n        /* \"#utility.yul\":255:264   */\n      0x00\n        /* \"#utility.yul\":288:341   */\n      tag_224\n        /* \"#utility.yul\":306:340   */\n      tag_225\n        /* \"#utility.yul\":315:339   */\n      tag_226\n        /* \"#utility.yul\":333:338   */\n      dup5\n        /* \"#utility.yul\":315:339   */\n      tag_170\n      jump\t// in\n    tag_226:\n        /* \"#utility.yul\":306:340   */\n      tag_171\n      jump\t// in\n    tag_225:\n        /* \"#utility.yul\":288:341   */\n      tag_170\n      jump\t// in\n    tag_224:\n        /* \"#utility.yul\":275:341   */\n      swap1\n      pop\n        /* \"#utility.yul\":205:347   */\n      swap2\n      swap1\n      pop\n      jump\t// out\n        /* \"#utility.yul\":353:479   */\n    tag_173:\n        /* \"#utility.yul\":403:412   */\n      0x00\n        /* \"#utility.yul\":436:473   */\n      tag_228\n        /* \"#utility.yul\":467:472   */\n      dup3\n        /* \"#utility.yul\":436:473   */\n      tag_172\n      jump\t// in\n    tag_228:\n        /* \"#utility.yul\":423:473   */\n      swap1\n      pop\n        /* \"#utility.yul\":353:479   */\n      swap2\n      swap1\n      pop\n      jump\t// out\n        /* \"#utility.yul\":485:625   */\n    tag_174:\n        /* \"#utility.yul\":549:558   */\n      0x00\n        /* \"#utility.yul\":582:619   */\n      tag_230\n        /* \"#utility.yul\":613:618   */\n      dup3\n        /* \"#utility.yul\":582:619   */\n      tag_173\n      jump\t// in\n    tag_230:\n        /* \"#utility.yul\":569:619   */\n      swap1\n      pop\n        /* \"#utility.yul\":485:625   */\n      swap2\n      swap1\n      pop\n      jump\t// out\n        /* \"#utility.yul\":631:790   */\n    tag_175:\n        /* \"#utility.yul\":732:783   */\n      tag_232\n        /* \"#utility.yul\":777:782   */\n      dup2\n        /* \"#utility.yul\":732:783   */\n      tag_174\n      jump\t// in\n    tag_232:\n        /* \"#utility.yul\":727:730   */\n      dup3\n        /* \"#utility.yul\":720:784   */\n      mstore\n        /* \"#utility.yul\":631:790   */\n      pop\n      pop\n      jump\t// out\n        /* \"#utility.yul\":796:1046   */\n    tag_15:\n        /* \"#utility.yul\":903:907   */\n      0x00\n        /* \"#utility.yul\":941:943   */\n      0x20\n        /* \"#utility.yul\":930:939   */\n      dup3\n        /* \"#utility.yul\":926:944   */\n      add\n        /* \"#utility.yul\":918:944   */\n      swap1\n      pop\n        /* \"#utility.yul\":954:1039   */\n      tag_234\n        /* \"#utility.yul\":1036:1037   */\n      0x00\n        /* \"#utility.yul\":1025:1034   */\n      dup4\n        /* \"#utility.yul\":1021:1038   */\n      add\n        /* \"#utility.yul\":1012:1018   */\n      dup5\n        /* \"#utility.yul\":954:1039   */\n      tag_175\n      jump\t// in\n    tag_234:\n        /* \"#utility.yul\":796:1046   */\n      swap3\n      swap2\n      pop\n      pop\n      jump\t// out\n        /* \"#utility.yul\":1133:1250   */\n    tag_177:\n        /* \"#utility.yul\":1242:1243   */\n      0x00\n        /* \"#utility.yul\":1239:1240   */\n      dup1\n        /* \"#utility.yul\":1232:1244   */\n      revert\n        /* \"#utility.yul\":1379:1475   */\n    tag_179:\n        /* \"#utility.yul\":1416:1423   */\n      0x00\n        /* \"#utility.yul\":1445:1469   */\n      tag_239\n        /* \"#utility.yul\":1463:1468   */\n      dup3\n        /* \"#utility.yul\":1445:1469   */\n      tag_170\n      jump\t// in\n    tag_239:\n        /* \"#utility.yul\":1434:1469   */\n      swap1\n      pop\n        /* \"#utility.yul\":1379:1475   */\n      swap2\n      swap1\n      pop\n      jump\t// out\n        /* \"#utility.yul\":1481:1603   */\n    tag_180:\n        /* \"#utility.yul\":1554:1578   */\n      tag_241\n        /* \"#utility.yul\":1572:1577   */\n      dup2\n        /* \"#utility.yul\":1554:1578   */\n      tag_179\n      jump\t// in\n    tag_241:\n        /* \"#utility.yul\":1547:1552   */\n      dup2\n        /* \"#utility.yul\":1544:1579   */\n      eq\n        /* \"#utility.yul\":1534:1597   */\n      tag_242\n      jumpi\n        /* \"#utility.yul\":1593:1594   */\n      0x00\n        /* \"#utility.yul\":1590:1591   */\n      dup1\n        /* \"#utility.yul\":1583:1595   */\n      revert\n        /* \"#utility.yul\":1534:1597   */\n    tag_242:\n        /* \"#utility.yul\":1481:1603   */\n      pop\n      jump\t// out\n        /* \"#utility.yul\":1609:1748   */\n    tag_181:\n        /* \"#utility.yul\":1655:1660   */\n      0x00\n        /* \"#utility.yul\":1693:1699   */\n      dup2\n        /* \"#utility.yul\":1680:1700   */\n      calldataload\n        /* \"#utility.yul\":1671:1700   */\n      swap1\n      pop\n        /* \"#utility.yul\":1709:1742   */\n      tag_244\n        /* \"#utility.yul\":1736:1741   */\n      dup2\n        /* \"#utility.yul\":1709:1742   */\n      tag_180\n      jump\t// in\n    tag_244:\n        /* \"#utility.yul\":1609:1748   */\n      swap3\n      swap2\n      pop\n      pop\n      jump\t// out\n        /* \"#utility.yul\":1754:2083   */\n    tag_18:\n        /* \"#utility.yul\":1813:1819   */\n      0x00\n        /* \"#utility.yul\":1862:1864   */\n      0x20\n        /* \"#utility.yul\":1850:1859   */\n      dup3\n        /* \"#utility.yul\":1841:1848   */\n      dup5\n        /* \"#utility.yul\":1837:1860   */\n      sub\n        /* \"#utility.yul\":1833:1865   */\n      slt\n        /* \"#utility.yul\":1830:1949   */\n      iszero\n      tag_246\n      jumpi\n        /* \"#utility.yul\":1868:1947   */\n      tag_247\n      tag_177\n      jump\t// in\n    tag_247:\n        /* \"#utility.yul\":1830:1949   */\n    tag_246:\n        /* \"#utility.yul\":1988:1989   */\n      0x00\n        /* \"#utility.yul\":2013:2066   */\n      tag_248\n        /* \"#utility.yul\":2058:2065   */\n      dup5\n        /* \"#utility.yul\":2049:2055   */\n      dup3\n        /* \"#utility.yul\":2038:2047   */\n      dup6\n        /* \"#utility.yul\":2034:2056   */\n      add\n        /* \"#utility.yul\":2013:2066   */\n      tag_181\n      jump\t// in\n    tag_248:\n        /* \"#utility.yul\":2003:2066   */\n      swap2\n      pop\n        /* \"#utility.yul\":1959:2076   */\n      pop\n        /* \"#utility.yul\":1754:2083   */\n      swap3\n      swap2\n      pop\n      pop\n      jump\t// out\n        /* \"#utility.yul\":2089:2230   */\n    tag_182:\n        /* \"#utility.yul\":2154:2163   */\n      0x00\n        /* \"#utility.yul\":2187:2224   */\n      tag_250\n        /* \"#utility.yul\":2218:2223   */\n      dup3\n        /* \"#utility.yul\":2187:2224   */\n      tag_173\n      jump\t// in\n    tag_250:\n        /* \"#utility.yul\":2174:2224   */\n      swap1\n      pop\n        /* \"#utility.yul\":2089:2230   */\n      swap2\n      swap1\n      pop\n      jump\t// out\n        /* \"#utility.yul\":2236:2397   */\n    tag_183:\n        /* \"#utility.yul\":2338:2390   */\n      tag_252\n        /* \"#utility.yul\":2384:2389   */\n      dup2\n        /* \"#utility.yul\":2338:2390   */\n      tag_182\n      jump\t// in\n    tag_252:\n        /* \"#utility.yul\":2333:2336   */\n      dup3\n        /* \"#utility.yul\":2326:2391   */\n      mstore\n        /* \"#utility.yul\":2236:2397   */\n      pop\n      pop\n      jump\t// out\n        /* \"#utility.yul\":2403:2655   */\n    tag_23:\n        /* \"#utility.yul\":2511:2515   */\n      0x00\n        /* \"#utility.yul\":2549:2551   */\n      0x20\n        /* \"#utility.yul\":2538:2547   */\n      dup3\n        /* \"#utility.yul\":2534:2552   */\n      add\n        /* \"#utility.yul\":2526:2552   */\n      swap1\n      pop\n        /* \"#utility.yul\":2562:2648   */\n      tag_254\n        /* \"#utility.yul\":2645:2646   */\n      0x00\n        /* \"#utility.yul\":2634:2643   */\n      dup4\n        /* \"#utility.yul\":2630:2647   */\n      add\n        /* \"#utility.yul\":2621:2627   */\n      dup5\n        /* \"#utility.yul\":2562:2648   */\n      tag_183\n      jump\t// in\n    tag_254:\n        /* \"#utility.yul\":2403:2655   */\n      swap3\n      swap2\n      pop\n      pop\n      jump\t// out\n        /* \"#utility.yul\":2661:2738   */\n    tag_184:\n        /* \"#utility.yul\":2698:2705   */\n      0x00\n        /* \"#utility.yul\":2727:2732   */\n      dup2\n        /* \"#utility.yul\":2716:2732   */\n      swap1\n      pop\n        /* \"#utility.yul\":2661:2738   */\n      swap2\n      swap1\n      pop\n      jump\t// out\n        /* \"#utility.yul\":2744:2862   */\n    tag_185:\n        /* \"#utility.yul\":2831:2855   */\n      tag_257\n        /* \"#utility.yul\":2849:2854   */\n      dup2\n        /* \"#utility.yul\":2831:2855   */\n      tag_184\n      jump\t// in\n    tag_257:\n        /* \"#utility.yul\":2826:2829   */\n      dup3\n        /* \"#utility.yul\":2819:2856   */\n      mstore\n        /* \"#utility.yul\":2744:2862   */\n      pop\n      pop\n      jump\t// out\n        /* \"#utility.yul\":2868:3090   */\n    tag_27:\n        /* \"#utility.yul\":2961:2965   */\n      0x00\n        /* \"#utility.yul\":2999:3001   */\n      0x20\n        /* \"#utility.yul\":2988:2997   */\n      dup3\n        /* \"#utility.yul\":2984:3002   */\n      add\n        /* \"#utility.yul\":2976:3002   */\n      swap1\n      pop\n        /* \"#utility.yul\":3012:3083   */\n      tag_259\n        /* \"#utility.yul\":3080:3081   */\n      0x00\n        /* \"#utility.yul\":3069:3078   */\n      dup4\n        /* \"#utility.yul\":3065:3082   */\n      add\n        /* \"#utility.yul\":3056:3062   */\n      dup5\n        /* \"#utility.yul\":3012:3083   */\n      tag_185\n      jump\t// in\n    tag_259:\n        /* \"#utility.yul\":2868:3090   */\n      swap3\n      swap2\n      pop\n      pop\n      jump\t// out\n        /* \"#utility.yul\":3096:3214   */\n    tag_186:\n        /* \"#utility.yul\":3183:3207   */\n      tag_261\n        /* \"#utility.yul\":3201:3206   */\n      dup2\n        /* \"#utility.yul\":3183:3207   */\n      tag_179\n      jump\t// in\n    tag_261:\n        /* \"#utility.yul\":3178:3181   */\n      dup3\n        /* \"#utility.yul\":3171:3208   */\n      mstore\n        /* \"#utility.yul\":3096:3214   */\n      pop\n      pop\n      jump\t// out\n        /* \"#utility.yul\":3220:3442   */\n    tag_31:\n        /* \"#utility.yul\":3313:3317   */\n      0x00\n        /* \"#utility.yul\":3351:3353   */\n      0x20\n        /* \"#utility.yul\":3340:3349   */\n      dup3\n        /* \"#utility.yul\":3336:3354   */\n      add\n        /* \"#utility.yul\":3328:3354   */\n      swap1\n      pop\n        /* \"#utility.yul\":3364:3435   */\n      tag_263\n        /* \"#utility.yul\":3432:3433   */\n      0x00\n        /* \"#utility.yul\":3421:3430   */\n      dup4\n        /* \"#utility.yul\":3417:3434   */\n      add\n        /* \"#utility.yul\":3408:3414   */\n      dup5\n        /* \"#utility.yul\":3364:3435   */\n      tag_186\n      jump\t// in\n    tag_263:\n        /* \"#utility.yul\":3220:3442   */\n      swap3\n      swap2\n      pop\n      pop\n      jump\t// out\n        /* \"#utility.yul\":3448:3538   */\n    tag_187:\n        /* \"#utility.yul\":3482:3489   */\n      0x00\n        /* \"#utility.yul\":3525:3530   */\n      dup2\n        /* \"#utility.yul\":3518:3531   */\n      iszero\n        /* \"#utility.yul\":3511:3532   */\n      iszero\n        /* \"#utility.yul\":3500:3532   */\n      swap1\n      pop\n        /* \"#utility.yul\":3448:3538   */\n      swap2\n      swap1\n      pop\n      jump\t// out\n        /* \"#utility.yul\":3544:3653   */\n    tag_188:\n        /* \"#utility.yul\":3625:3646   */\n      tag_266\n        /* \"#utility.yul\":3640:3645   */\n      dup2\n        /* \"#utility.yul\":3625:3646   */\n      tag_187\n      jump\t// in\n    tag_266:\n        /* \"#utility.yul\":3620:3623   */\n      dup3\n        /* \"#utility.yul\":3613:3647   */\n      mstore\n        /* \"#utility.yul\":3544:3653   */\n      pop\n      pop\n      jump\t// out\n        /* \"#utility.yul\":3659:3869   */\n    tag_35:\n        /* \"#utility.yul\":3746:3750   */\n      0x00\n        /* \"#utility.yul\":3784:3786   */\n      0x20\n        /* \"#utility.yul\":3773:3782   */\n      dup3\n        /* \"#utility.yul\":3769:3787   */\n      add\n        /* \"#utility.yul\":3761:3787   */\n      swap1\n      pop\n        /* \"#utility.yul\":3797:3862   */\n      tag_268\n        /* \"#utility.yul\":3859:3860   */\n      0x00\n        /* \"#utility.yul\":3848:3857   */\n      dup4\n        /* \"#utility.yul\":3844:3861   */\n      add\n        /* \"#utility.yul\":3835:3841   */\n      dup5\n        /* \"#utility.yul\":3797:3862   */\n      tag_188\n      jump\t// in\n    tag_268:\n        /* \"#utility.yul\":3659:3869   */\n      swap3\n      swap2\n      pop\n      pop\n      jump\t// out\n        /* \"#utility.yul\":3875:3997   */\n    tag_189:\n        /* \"#utility.yul\":3948:3972   */\n      tag_270\n        /* \"#utility.yul\":3966:3971   */\n      dup2\n        /* \"#utility.yul\":3948:3972   */\n      tag_184\n      jump\t// in\n    tag_270:\n        /* \"#utility.yul\":3941:3946   */\n      dup2\n        /* \"#utility.yul\":3938:3973   */\n      eq\n        /* \"#utility.yul\":3928:3991   */\n      tag_271\n      jumpi\n        /* \"#utility.yul\":3987:3988   */\n      0x00\n        /* \"#utility.yul\":3984:3985   */\n      dup1\n        /* \"#utility.yul\":3977:3989   */\n      revert\n        /* \"#utility.yul\":3928:3991   */\n    tag_271:\n        /* \"#utility.yul\":3875:3997   */\n      pop\n      jump\t// out\n        /* \"#utility.yul\":4003:4142   */\n    tag_190:\n        /* \"#utility.yul\":4049:4054   */\n      0x00\n        /* \"#utility.yul\":4087:4093   */\n      dup2\n        /* \"#utility.yul\":4074:4094   */\n      calldataload\n        /* \"#utility.yul\":4065:4094   */\n      swap1\n      pop\n        /* \"#utility.yul\":4103:4136   */\n      tag_273\n        /* \"#utility.yul\":4130:4135   */\n      dup2\n        /* \"#utility.yul\":4103:4136   */\n      tag_189\n      jump\t// in\n    tag_273:\n        /* \"#utility.yul\":4003:4142   */\n      swap3\n      swap2\n      pop\n      pop\n      jump\t// out\n        /* \"#utility.yul\":4148:4477   */\n    tag_38:\n        /* \"#utility.yul\":4207:4213   */\n      0x00\n        /* \"#utility.yul\":4256:4258   */\n      0x20\n        /* \"#utility.yul\":4244:4253   */\n      dup3\n        /* \"#utility.yul\":4235:4242   */\n      dup5\n        /* \"#utility.yul\":4231:4254   */\n      sub\n        /* \"#utility.yul\":4227:4259   */\n      slt\n        /* \"#utility.yul\":4224:4343   */\n      iszero\n      tag_275\n      jumpi\n        /* \"#utility.yul\":4262:4341   */\n      tag_276\n      tag_177\n      jump\t// in\n    tag_276:\n        /* \"#utility.yul\":4224:4343   */\n    tag_275:\n        /* \"#utility.yul\":4382:4383   */\n      0x00\n        /* \"#utility.yul\":4407:4460   */\n      tag_277\n        /* \"#utility.yul\":4452:4459   */\n      dup5\n        /* \"#utility.yul\":4443:4449   */\n      dup3\n        /* \"#utility.yul\":4432:4441   */\n      dup6\n        /* \"#utility.yul\":4428:4450   */\n      add\n        /* \"#utility.yul\":4407:4460   */\n      tag_190\n      jump\t// in\n    tag_277:\n        /* \"#utility.yul\":4397:4460   */\n      swap2\n      pop\n        /* \"#utility.yul\":4353:4470   */\n      pop\n        /* \"#utility.yul\":4148:4477   */\n      swap3\n      swap2\n      pop\n      pop\n      jump\t// out\n        /* \"#utility.yul\":4483:4652   */\n    tag_191:\n        /* \"#utility.yul\":4567:4578   */\n      0x00\n        /* \"#utility.yul\":4601:4607   */\n      dup3\n        /* \"#utility.yul\":4596:4599   */\n      dup3\n        /* \"#utility.yul\":4589:4608   */\n      mstore\n        /* \"#utility.yul\":4641:4645   */\n      0x20\n        /* \"#utility.yul\":4636:4639   */\n      dup3\n        /* \"#utility.yul\":4632:4646   */\n      add\n        /* \"#utility.yul\":4617:4646   */\n      swap1\n      pop\n        /* \"#utility.yul\":4483:4652   */\n      swap3\n      swap2\n      pop\n      pop\n      jump\t// out\n        /* \"#utility.yul\":4658:4885   */\n    tag_192:\n        /* \"#utility.yul\":4798:4832   */\n      0x46756e6374696f6e2061636365737369626c65206f6e6c792062792074686520\n        /* \"#utility.yul\":4794:4795   */\n      0x00\n        /* \"#utility.yul\":4786:4792   */\n      dup3\n        /* \"#utility.yul\":4782:4796   */\n      add\n        /* \"#utility.yul\":4775:4833   */\n      mstore\n        /* \"#utility.yul\":4867:4877   */\n      0x6f776e6572202121000000000000000000000000000000000000000000000000\n        /* \"#utility.yul\":4862:4864   */\n      0x20\n        /* \"#utility.yul\":4854:4860   */\n      dup3\n        /* \"#utility.yul\":4850:4865   */\n      add\n        /* \"#utility.yul\":4843:4878   */\n      mstore\n        /* \"#utility.yul\":4658:4885   */\n      pop\n      jump\t// out\n        /* \"#utility.yul\":4891:5257   */\n    tag_193:\n        /* \"#utility.yul\":5033:5036   */\n      0x00\n        /* \"#utility.yul\":5054:5121   */\n      tag_281\n        /* \"#utility.yul\":5118:5120   */\n      0x28\n        /* \"#utility.yul\":5113:5116   */\n      dup4\n        /* \"#utility.yul\":5054:5121   */\n      tag_191\n      jump\t// in\n    tag_281:\n        /* \"#utility.yul\":5047:5121   */\n      swap2\n      pop\n        /* \"#utility.yul\":5130:5223   */\n      tag_282\n        /* \"#utility.yul\":5219:5222   */\n      dup3\n        /* \"#utility.yul\":5130:5223   */\n      tag_192\n      jump\t// in\n    tag_282:\n        /* \"#utility.yul\":5248:5250   */\n      0x40\n        /* \"#utility.yul\":5243:5246   */\n      dup3\n        /* \"#utility.yul\":5239:5251   */\n      add\n        /* \"#utility.yul\":5232:5251   */\n      swap1\n      pop\n        /* \"#utility.yul\":4891:5257   */\n      swap2\n      swap1\n      pop\n      jump\t// out\n        /* \"#utility.yul\":5263:5682   */\n    tag_47:\n        /* \"#utility.yul\":5429:5433   */\n      0x00\n        /* \"#utility.yul\":5467:5469   */\n      0x20\n        /* \"#utility.yul\":5456:5465   */\n      dup3\n        /* \"#utility.yul\":5452:5470   */\n      add\n        /* \"#utility.yul\":5444:5470   */\n      swap1\n      pop\n        /* \"#utility.yul\":5516:5525   */\n      dup2\n        /* \"#utility.yul\":5510:5514   */\n      dup2\n        /* \"#utility.yul\":5506:5526   */\n      sub\n        /* \"#utility.yul\":5502:5503   */\n      0x00\n        /* \"#utility.yul\":5491:5500   */\n      dup4\n        /* \"#utility.yul\":5487:5504   */\n      add\n        /* \"#utility.yul\":5480:5527   */\n      mstore\n        /* \"#utility.yul\":5544:5675   */\n      tag_284\n        /* \"#utility.yul\":5670:5674   */\n      dup2\n        /* \"#utility.yul\":5544:5675   */\n      tag_193\n      jump\t// in\n    tag_284:\n        /* \"#utility.yul\":5536:5675   */\n      swap1\n      pop\n        /* \"#utility.yul\":5263:5682   */\n      swap2\n      swap1\n      pop\n      jump\t// out\n        /* \"#utility.yul\":5688:5831   */\n    tag_194:\n        /* \"#utility.yul\":5745:5750   */\n      0x00\n        /* \"#utility.yul\":5776:5782   */\n      dup2\n        /* \"#utility.yul\":5770:5783   */\n      mload\n        /* \"#utility.yul\":5761:5783   */\n      swap1\n      pop\n        /* \"#utility.yul\":5792:5825   */\n      tag_286\n        /* \"#utility.yul\":5819:5824   */\n      dup2\n        /* \"#utility.yul\":5792:5825   */\n      tag_189\n      jump\t// in\n    tag_286:\n        /* \"#utility.yul\":5688:5831   */\n      swap3\n      swap2\n      pop\n      pop\n      jump\t// out\n        /* \"#utility.yul\":5837:6188   */\n    tag_53:\n        /* \"#utility.yul\":5907:5913   */\n      0x00\n        /* \"#utility.yul\":5956:5958   */\n      0x20\n        /* \"#utility.yul\":5944:5953   */\n      dup3\n        /* \"#utility.yul\":5935:5942   */\n      dup5\n        /* \"#utility.yul\":5931:5954   */\n      sub\n        /* \"#utility.yul\":5927:5959   */\n      slt\n        /* \"#utility.yul\":5924:6043   */\n      iszero\n      tag_288\n      jumpi\n        /* \"#utility.yul\":5962:6041   */\n      tag_289\n      tag_177\n      jump\t// in\n    tag_289:\n        /* \"#utility.yul\":5924:6043   */\n    tag_288:\n        /* \"#utility.yul\":6082:6083   */\n      0x00\n        /* \"#utility.yul\":6107:6171   */\n      tag_290\n        /* \"#utility.yul\":6163:6170   */\n      dup5\n        /* \"#utility.yul\":6154:6160   */\n      dup3\n        /* \"#utility.yul\":6143:6152   */\n      dup6\n        /* \"#utility.yul\":6139:6161   */\n      add\n        /* \"#utility.yul\":6107:6171   */\n      tag_194\n      jump\t// in\n    tag_290:\n        /* \"#utility.yul\":6097:6171   */\n      swap2\n      pop\n        /* \"#utility.yul\":6053:6181   */\n      pop\n        /* \"#utility.yul\":5837:6188   */\n      swap3\n      swap2\n      pop\n      pop\n      jump\t// out\n        /* \"#utility.yul\":6194:6526   */\n    tag_55:\n        /* \"#utility.yul\":6315:6319   */\n      0x00\n        /* \"#utility.yul\":6353:6355   */\n      0x40\n        /* \"#utility.yul\":6342:6351   */\n      dup3\n        /* \"#utility.yul\":6338:6356   */\n      add\n        /* \"#utility.yul\":6330:6356   */\n      swap1\n      pop\n        /* \"#utility.yul\":6366:6437   */\n      tag_292\n        /* \"#utility.yul\":6434:6435   */\n      0x00\n        /* \"#utility.yul\":6423:6432   */\n      dup4\n        /* \"#utility.yul\":6419:6436   */\n      add\n        /* \"#utility.yul\":6410:6416   */\n      dup6\n        /* \"#utility.yul\":6366:6437   */\n      tag_186\n      jump\t// in\n    tag_292:\n        /* \"#utility.yul\":6447:6519   */\n      tag_293\n        /* \"#utility.yul\":6515:6517   */\n      0x20\n        /* \"#utility.yul\":6504:6513   */\n      dup4\n        /* \"#utility.yul\":6500:6518   */\n      add\n        /* \"#utility.yul\":6491:6497   */\n      dup5\n        /* \"#utility.yul\":6447:6519   */\n      tag_185\n      jump\t// in\n    tag_293:\n        /* \"#utility.yul\":6194:6526   */\n      swap4\n      swap3\n      pop\n      pop\n      pop\n      jump\t// out\n        /* \"#utility.yul\":6532:6648   */\n    tag_195:\n        /* \"#utility.yul\":6602:6623   */\n      tag_295\n        /* \"#utility.yul\":6617:6622   */\n      dup2\n        /* \"#utility.yul\":6602:6623   */\n      tag_187\n      jump\t// in\n    tag_295:\n        /* \"#utility.yul\":6595:6600   */\n      dup2\n        /* \"#utility.yul\":6592:6624   */\n      eq\n        /* \"#utility.yul\":6582:6642   */\n      tag_296\n      jumpi\n        /* \"#utility.yul\":6638:6639   */\n      0x00\n        /* \"#utility.yul\":6635:6636   */\n      dup1\n        /* \"#utility.yul\":6628:6640   */\n      revert\n        /* \"#utility.yul\":6582:6642   */\n    tag_296:\n        /* \"#utility.yul\":6532:6648   */\n      pop\n      jump\t// out\n        /* \"#utility.yul\":6654:6791   */\n    tag_196:\n        /* \"#utility.yul\":6708:6713   */\n      0x00\n        /* \"#utility.yul\":6739:6745   */\n      dup2\n        /* \"#utility.yul\":6733:6746   */\n      mload\n        /* \"#utility.yul\":6724:6746   */\n      swap1\n      pop\n        /* \"#utility.yul\":6755:6785   */\n      tag_298\n        /* \"#utility.yul\":6779:6784   */\n      dup2\n        /* \"#utility.yul\":6755:6785   */\n      tag_195\n      jump\t// in\n    tag_298:\n        /* \"#utility.yul\":6654:6791   */\n      swap3\n      swap2\n      pop\n      pop\n      jump\t// out\n        /* \"#utility.yul\":6797:7142   */\n    tag_59:\n        /* \"#utility.yul\":6864:6870   */\n      0x00\n        /* \"#utility.yul\":6913:6915   */\n      0x20\n        /* \"#utility.yul\":6901:6910   */\n      dup3\n        /* \"#utility.yul\":6892:6899   */\n      dup5\n        /* \"#utility.yul\":6888:6911   */\n      sub\n        /* \"#utility.yul\":6884:6916   */\n      slt\n        /* \"#utility.yul\":6881:7000   */\n      iszero\n      tag_300\n      jumpi\n        /* \"#utility.yul\":6919:6998   */\n      tag_301\n      tag_177\n      jump\t// in\n    tag_301:\n        /* \"#utility.yul\":6881:7000   */\n    tag_300:\n        /* \"#utility.yul\":7039:7040   */\n      0x00\n        /* \"#utility.yul\":7064:7125   */\n      tag_302\n        /* \"#utility.yul\":7117:7124   */\n      dup5\n        /* \"#utility.yul\":7108:7114   */\n      dup3\n        /* \"#utility.yul\":7097:7106   */\n      dup6\n        /* \"#utility.yul\":7093:7115   */\n      add\n        /* \"#utility.yul\":7064:7125   */\n      tag_196\n      jump\t// in\n    tag_302:\n        /* \"#utility.yul\":7054:7125   */\n      swap2\n      pop\n        /* \"#utility.yul\":7010:7135   */\n      pop\n        /* \"#utility.yul\":6797:7142   */\n      swap3\n      swap2\n      pop\n      pop\n      jump\t// out\n        /* \"#utility.yul\":7148:7313   */\n    tag_197:\n        /* \"#utility.yul\":7288:7305   */\n      0x5472616e73666572206661696c65640000000000000000000000000000000000\n        /* \"#utility.yul\":7284:7285   */\n      0x00\n        /* \"#utility.yul\":7276:7282   */\n      dup3\n        /* \"#utility.yul\":7272:7286   */\n      add\n        /* \"#utility.yul\":7265:7306   */\n      mstore\n        /* \"#utility.yul\":7148:7313   */\n      pop\n      jump\t// out\n        /* \"#utility.yul\":7319:7685   */\n    tag_198:\n        /* \"#utility.yul\":7461:7464   */\n      0x00\n        /* \"#utility.yul\":7482:7549   */\n      tag_305\n        /* \"#utility.yul\":7546:7548   */\n      0x0f\n        /* \"#utility.yul\":7541:7544   */\n      dup4\n        /* \"#utility.yul\":7482:7549   */\n      tag_191\n      jump\t// in\n    tag_305:\n        /* \"#utility.yul\":7475:7549   */\n      swap2\n      pop\n        /* \"#utility.yul\":7558:7651   */\n      tag_306\n        /* \"#utility.yul\":7647:7650   */\n      dup3\n        /* \"#utility.yul\":7558:7651   */\n      tag_197\n      jump\t// in\n    tag_306:\n        /* \"#utility.yul\":7676:7678   */\n      0x20\n        /* \"#utility.yul\":7671:7674   */\n      dup3\n        /* \"#utility.yul\":7667:7679   */\n      add\n        /* \"#utility.yul\":7660:7679   */\n      swap1\n      pop\n        /* \"#utility.yul\":7319:7685   */\n      swap2\n      swap1\n      pop\n      jump\t// out\n        /* \"#utility.yul\":7691:8110   */\n    tag_62:\n        /* \"#utility.yul\":7857:7861   */\n      0x00\n        /* \"#utility.yul\":7895:7897   */\n      0x20\n        /* \"#utility.yul\":7884:7893   */\n      dup3\n        /* \"#utility.yul\":7880:7898   */\n      add\n        /* \"#utility.yul\":7872:7898   */\n      swap1\n      pop\n        /* \"#utility.yul\":7944:7953   */\n      dup2\n        /* \"#utility.yul\":7938:7942   */\n      dup2\n        /* \"#utility.yul\":7934:7954   */\n      sub\n        /* \"#utility.yul\":7930:7931   */\n      0x00\n        /* \"#utility.yul\":7919:7928   */\n      dup4\n        /* \"#utility.yul\":7915:7932   */\n      add\n        /* \"#utility.yul\":7908:7955   */\n      mstore\n        /* \"#utility.yul\":7972:8103   */\n      tag_308\n        /* \"#utility.yul\":8098:8102   */\n      dup2\n        /* \"#utility.yul\":7972:8103   */\n      tag_198\n      jump\t// in\n    tag_308:\n        /* \"#utility.yul\":7964:8103   */\n      swap1\n      pop\n        /* \"#utility.yul\":7691:8110   */\n      swap2\n      swap1\n      pop\n      jump\t// out\n        /* \"#utility.yul\":8116:8285   */\n    tag_199:\n        /* \"#utility.yul\":8256:8277   */\n      0x496e73756666696369656e7420746f6b656e7300000000000000000000000000\n        /* \"#utility.yul\":8252:8253   */\n      0x00\n        /* \"#utility.yul\":8244:8250   */\n      dup3\n        /* \"#utility.yul\":8240:8254   */\n      add\n        /* \"#utility.yul\":8233:8278   */\n      mstore\n        /* \"#utility.yul\":8116:8285   */\n      pop\n      jump\t// out\n        /* \"#utility.yul\":8291:8657   */\n    tag_200:\n        /* \"#utility.yul\":8433:8436   */\n      0x00\n        /* \"#utility.yul\":8454:8521   */\n      tag_311\n        /* \"#utility.yul\":8518:8520   */\n      0x13\n        /* \"#utility.yul\":8513:8516   */\n      dup4\n        /* \"#utility.yul\":8454:8521   */\n      tag_191\n      jump\t// in\n    tag_311:\n        /* \"#utility.yul\":8447:8521   */\n      swap2\n      pop\n        /* \"#utility.yul\":8530:8623   */\n      tag_312\n        /* \"#utility.yul\":8619:8622   */\n      dup3\n        /* \"#utility.yul\":8530:8623   */\n      tag_199\n      jump\t// in\n    tag_312:\n        /* \"#utility.yul\":8648:8650   */\n      0x20\n        /* \"#utility.yul\":8643:8646   */\n      dup3\n        /* \"#utility.yul\":8639:8651   */\n      add\n        /* \"#utility.yul\":8632:8651   */\n      swap1\n      pop\n        /* \"#utility.yul\":8291:8657   */\n      swap2\n      swap1\n      pop\n      jump\t// out\n        /* \"#utility.yul\":8663:9082   */\n    tag_78:\n        /* \"#utility.yul\":8829:8833   */\n      0x00\n        /* \"#utility.yul\":8867:8869   */\n      0x20\n        /* \"#utility.yul\":8856:8865   */\n      dup3\n        /* \"#utility.yul\":8852:8870   */\n      add\n        /* \"#utility.yul\":8844:8870   */\n      swap1\n      pop\n        /* \"#utility.yul\":8916:8925   */\n      dup2\n        /* \"#utility.yul\":8910:8914   */\n      dup2\n        /* \"#utility.yul\":8906:8926   */\n      sub\n        /* \"#utility.yul\":8902:8903   */\n      0x00\n        /* \"#utility.yul\":8891:8900   */\n      dup4\n        /* \"#utility.yul\":8887:8904   */\n      add\n        /* \"#utility.yul\":8880:8927   */\n      mstore\n        /* \"#utility.yul\":8944:9075   */\n      tag_314\n        /* \"#utility.yul\":9070:9074   */\n      dup2\n        /* \"#utility.yul\":8944:9075   */\n      tag_200\n      jump\t// in\n    tag_314:\n        /* \"#utility.yul\":8936:9075   */\n      swap1\n      pop\n        /* \"#utility.yul\":8663:9082   */\n      swap2\n      swap1\n      pop\n      jump\t// out\n        /* \"#utility.yul\":9088:9530   */\n    tag_80:\n        /* \"#utility.yul\":9237:9241   */\n      0x00\n        /* \"#utility.yul\":9275:9277   */\n      0x60\n        /* \"#utility.yul\":9264:9273   */\n      dup3\n        /* \"#utility.yul\":9260:9278   */\n      add\n        /* \"#utility.yul\":9252:9278   */\n      swap1\n      pop\n        /* \"#utility.yul\":9288:9359   */\n      tag_316\n        /* \"#utility.yul\":9356:9357   */\n      0x00\n        /* \"#utility.yul\":9345:9354   */\n      dup4\n        /* \"#utility.yul\":9341:9358   */\n      add\n        /* \"#utility.yul\":9332:9338   */\n      dup7\n        /* \"#utility.yul\":9288:9359   */\n      tag_186\n      jump\t// in\n    tag_316:\n        /* \"#utility.yul\":9369:9441   */\n      tag_317\n        /* \"#utility.yul\":9437:9439   */\n      0x20\n        /* \"#utility.yul\":9426:9435   */\n      dup4\n        /* \"#utility.yul\":9422:9440   */\n      add\n        /* \"#utility.yul\":9413:9419   */\n      dup6\n        /* \"#utility.yul\":9369:9441   */\n      tag_186\n      jump\t// in\n    tag_317:\n        /* \"#utility.yul\":9451:9523   */\n      tag_318\n        /* \"#utility.yul\":9519:9521   */\n      0x40\n        /* \"#utility.yul\":9508:9517   */\n      dup4\n        /* \"#utility.yul\":9504:9522   */\n      add\n        /* \"#utility.yul\":9495:9501   */\n      dup5\n        /* \"#utility.yul\":9451:9523   */\n      tag_185\n      jump\t// in\n    tag_318:\n        /* \"#utility.yul\":9088:9530   */\n      swap5\n      swap4\n      pop\n      pop\n      pop\n      pop\n      jump\t// out\n        /* \"#utility.yul\":9536:9635   */\n    tag_201:\n        /* \"#utility.yul\":9588:9594   */\n      0x00\n        /* \"#utility.yul\":9622:9627   */\n      dup2\n        /* \"#utility.yul\":9616:9628   */\n      mload\n        /* \"#utility.yul\":9606:9628   */\n      swap1\n      pop\n        /* \"#utility.yul\":9536:9635   */\n      swap2\n      swap1\n      pop\n      jump\t// out\n        /* \"#utility.yul\":9641:9789   */\n    tag_202:\n        /* \"#utility.yul\":9743:9754   */\n      0x00\n        /* \"#utility.yul\":9780:9783   */\n      dup2\n        /* \"#utility.yul\":9765:9783   */\n      swap1\n      pop\n        /* \"#utility.yul\":9641:9789   */\n      swap3\n      swap2\n      pop\n      pop\n      jump\t// out\n        /* \"#utility.yul\":9795:9934   */\n    tag_203:\n        /* \"#utility.yul\":9884:9890   */\n      dup3\n        /* \"#utility.yul\":9879:9882   */\n      dup2\n        /* \"#utility.yul\":9874:9877   */\n      dup4\n        /* \"#utility.yul\":9868:9891   */\n      mcopy\n        /* \"#utility.yul\":9925:9926   */\n      0x00\n        /* \"#utility.yul\":9916:9922   */\n      dup4\n        /* \"#utility.yul\":9911:9914   */\n      dup4\n        /* \"#utility.yul\":9907:9923   */\n      add\n        /* \"#utility.yul\":9900:9927   */\n      mstore\n        /* \"#utility.yul\":9795:9934   */\n      pop\n      pop\n      pop\n      jump\t// out\n        /* \"#utility.yul\":9940:10330   */\n    tag_204:\n        /* \"#utility.yul\":10046:10049   */\n      0x00\n        /* \"#utility.yul\":10074:10113   */\n      tag_323\n        /* \"#utility.yul\":10107:10112   */\n      dup3\n        /* \"#utility.yul\":10074:10113   */\n      tag_201\n      jump\t// in\n    tag_323:\n        /* \"#utility.yul\":10129:10218   */\n      tag_324\n        /* \"#utility.yul\":10211:10217   */\n      dup2\n        /* \"#utility.yul\":10206:10209   */\n      dup6\n        /* \"#utility.yul\":10129:10218   */\n      tag_202\n      jump\t// in\n    tag_324:\n        /* \"#utility.yul\":10122:10218   */\n      swap4\n      pop\n        /* \"#utility.yul\":10227:10292   */\n      tag_325\n        /* \"#utility.yul\":10285:10291   */\n      dup2\n        /* \"#utility.yul\":10280:10283   */\n      dup6\n        /* \"#utility.yul\":10273:10277   */\n      0x20\n        /* \"#utility.yul\":10266:10271   */\n      dup7\n        /* \"#utility.yul\":10262:10278   */\n      add\n        /* \"#utility.yul\":10227:10292   */\n      tag_203\n      jump\t// in\n    tag_325:\n        /* \"#utility.yul\":10317:10323   */\n      dup1\n        /* \"#utility.yul\":10312:10315   */\n      dup5\n        /* \"#utility.yul\":10308:10324   */\n      add\n        /* \"#utility.yul\":10301:10324   */\n      swap2\n      pop\n        /* \"#utility.yul\":10050:10330   */\n      pop\n        /* \"#utility.yul\":9940:10330   */\n      swap3\n      swap2\n      pop\n      pop\n      jump\t// out\n        /* \"#utility.yul\":10336:10495   */\n    tag_205:\n        /* \"#utility.yul\":10476:10487   */\n      0x204d6f6e6b657920230000000000000000000000000000000000000000000000\n        /* \"#utility.yul\":10472:10473   */\n      0x00\n        /* \"#utility.yul\":10464:10470   */\n      dup3\n        /* \"#utility.yul\":10460:10474   */\n      add\n        /* \"#utility.yul\":10453:10488   */\n      mstore\n        /* \"#utility.yul\":10336:10495   */\n      pop\n      jump\t// out\n        /* \"#utility.yul\":10501:10901   */\n    tag_206:\n        /* \"#utility.yul\":10661:10664   */\n      0x00\n        /* \"#utility.yul\":10682:10766   */\n      tag_328\n        /* \"#utility.yul\":10764:10765   */\n      0x09\n        /* \"#utility.yul\":10759:10762   */\n      dup4\n        /* \"#utility.yul\":10682:10766   */\n      tag_202\n      jump\t// in\n    tag_328:\n        /* \"#utility.yul\":10675:10766   */\n      swap2\n      pop\n        /* \"#utility.yul\":10775:10868   */\n      tag_329\n        /* \"#utility.yul\":10864:10867   */\n      dup3\n        /* \"#utility.yul\":10775:10868   */\n      tag_205\n      jump\t// in\n    tag_329:\n        /* \"#utility.yul\":10893:10894   */\n      0x09\n        /* \"#utility.yul\":10888:10891   */\n      dup3\n        /* \"#utility.yul\":10884:10895   */\n      add\n        /* \"#utility.yul\":10877:10895   */\n      swap1\n      pop\n        /* \"#utility.yul\":10501:10901   */\n      swap2\n      swap1\n      pop\n      jump\t// out\n        /* \"#utility.yul\":10907:11608   */\n    tag_98:\n        /* \"#utility.yul\":11188:11191   */\n      0x00\n        /* \"#utility.yul\":11210:11305   */\n      tag_331\n        /* \"#utility.yul\":11301:11304   */\n      dup3\n        /* \"#utility.yul\":11292:11298   */\n      dup6\n        /* \"#utility.yul\":11210:11305   */\n      tag_204\n      jump\t// in\n    tag_331:\n        /* \"#utility.yul\":11203:11305   */\n      swap2\n      pop\n        /* \"#utility.yul\":11322:11470   */\n      tag_332\n        /* \"#utility.yul\":11466:11469   */\n      dup3\n        /* \"#utility.yul\":11322:11470   */\n      tag_206\n      jump\t// in\n    tag_332:\n        /* \"#utility.yul\":11315:11470   */\n      swap2\n      pop\n        /* \"#utility.yul\":11487:11582   */\n      tag_333\n        /* \"#utility.yul\":11578:11581   */\n      dup3\n        /* \"#utility.yul\":11569:11575   */\n      dup5\n        /* \"#utility.yul\":11487:11582   */\n      tag_204\n      jump\t// in\n    tag_333:\n        /* \"#utility.yul\":11480:11582   */\n      swap2\n      pop\n        /* \"#utility.yul\":11599:11602   */\n      dup2\n        /* \"#utility.yul\":11592:11602   */\n      swap1\n      pop\n        /* \"#utility.yul\":10907:11608   */\n      swap4\n      swap3\n      pop\n      pop\n      pop\n      jump\t// out\n        /* \"#utility.yul\":11614:11716   */\n    tag_207:\n        /* \"#utility.yul\":11655:11661   */\n      0x00\n        /* \"#utility.yul\":11706:11708   */\n      0x1f\n        /* \"#utility.yul\":11702:11709   */\n      not\n        /* \"#utility.yul\":11697:11699   */\n      0x1f\n        /* \"#utility.yul\":11690:11695   */\n      dup4\n        /* \"#utility.yul\":11686:11700   */\n      add\n        /* \"#utility.yul\":11682:11710   */\n      and\n        /* \"#utility.yul\":11672:11710   */\n      swap1\n      pop\n        /* \"#utility.yul\":11614:11716   */\n      swap2\n      swap1\n      pop\n      jump\t// out\n        /* \"#utility.yul\":11722:12099   */\n    tag_208:\n        /* \"#utility.yul\":11810:11813   */\n      0x00\n        /* \"#utility.yul\":11838:11877   */\n      tag_336\n        /* \"#utility.yul\":11871:11876   */\n      dup3\n        /* \"#utility.yul\":11838:11877   */\n      tag_201\n      jump\t// in\n    tag_336:\n        /* \"#utility.yul\":11893:11964   */\n      tag_337\n        /* \"#utility.yul\":11957:11963   */\n      dup2\n        /* \"#utility.yul\":11952:11955   */\n      dup6\n        /* \"#utility.yul\":11893:11964   */\n      tag_191\n      jump\t// in\n    tag_337:\n        /* \"#utility.yul\":11886:11964   */\n      swap4\n      pop\n        /* \"#utility.yul\":11973:12038   */\n      tag_338\n        /* \"#utility.yul\":12031:12037   */\n      dup2\n        /* \"#utility.yul\":12026:12029   */\n      dup6\n        /* \"#utility.yul\":12019:12023   */\n      0x20\n        /* \"#utility.yul\":12012:12017   */\n      dup7\n        /* \"#utility.yul\":12008:12024   */\n      add\n        /* \"#utility.yul\":11973:12038   */\n      tag_203\n      jump\t// in\n    tag_338:\n        /* \"#utility.yul\":12063:12092   */\n      tag_339\n        /* \"#utility.yul\":12085:12091   */\n      dup2\n        /* \"#utility.yul\":12063:12092   */\n      tag_207\n      jump\t// in\n    tag_339:\n        /* \"#utility.yul\":12058:12061   */\n      dup5\n        /* \"#utility.yul\":12054:12093   */\n      add\n        /* \"#utility.yul\":12047:12093   */\n      swap2\n      pop\n        /* \"#utility.yul\":11814:12099   */\n      pop\n        /* \"#utility.yul\":11722:12099   */\n      swap3\n      swap2\n      pop\n      pop\n      jump\t// out\n        /* \"#utility.yul\":12105:12191   */\n    tag_209:\n        /* \"#utility.yul\":12140:12147   */\n      0x00\n        /* \"#utility.yul\":12180:12184   */\n      0xff\n        /* \"#utility.yul\":12173:12178   */\n      dup3\n        /* \"#utility.yul\":12169:12185   */\n      and\n        /* \"#utility.yul\":12158:12185   */\n      swap1\n      pop\n        /* \"#utility.yul\":12105:12191   */\n      swap2\n      swap1\n      pop\n      jump\t// out\n        /* \"#utility.yul\":12197:12309   */\n    tag_210:\n        /* \"#utility.yul\":12280:12302   */\n      tag_342\n        /* \"#utility.yul\":12296:12301   */\n      dup2\n        /* \"#utility.yul\":12280:12302   */\n      tag_209\n      jump\t// in\n    tag_342:\n        /* \"#utility.yul\":12275:12278   */\n      dup3\n        /* \"#utility.yul\":12268:12303   */\n      mstore\n        /* \"#utility.yul\":12197:12309   */\n      pop\n      pop\n      jump\t// out\n        /* \"#utility.yul\":12315:13165   */\n    tag_100:\n        /* \"#utility.yul\":12560:12564   */\n      0x00\n        /* \"#utility.yul\":12598:12601   */\n      0xc0\n        /* \"#utility.yul\":12587:12596   */\n      dup3\n        /* \"#utility.yul\":12583:12602   */\n      add\n        /* \"#utility.yul\":12575:12602   */\n      swap1\n      pop\n        /* \"#utility.yul\":12612:12683   */\n      tag_344\n        /* \"#utility.yul\":12680:12681   */\n      0x00\n        /* \"#utility.yul\":12669:12678   */\n      dup4\n        /* \"#utility.yul\":12665:12682   */\n      add\n        /* \"#utility.yul\":12656:12662   */\n      dup10\n        /* \"#utility.yul\":12612:12683   */\n      tag_186\n      jump\t// in\n    tag_344:\n        /* \"#utility.yul\":12730:12739   */\n      dup2\n        /* \"#utility.yul\":12724:12728   */\n      dup2\n        /* \"#utility.yul\":12720:12740   */\n      sub\n        /* \"#utility.yul\":12715:12717   */\n      0x20\n        /* \"#utility.yul\":12704:12713   */\n      dup4\n        /* \"#utility.yul\":12700:12718   */\n      add\n        /* \"#utility.yul\":12693:12741   */\n      mstore\n        /* \"#utility.yul\":12758:12836   */\n      tag_345\n        /* \"#utility.yul\":12831:12835   */\n      dup2\n        /* \"#utility.yul\":12822:12828   */\n      dup9\n        /* \"#utility.yul\":12758:12836   */\n      tag_208\n      jump\t// in\n    tag_345:\n        /* \"#utility.yul\":12750:12836   */\n      swap1\n      pop\n        /* \"#utility.yul\":12846:12914   */\n      tag_346\n        /* \"#utility.yul\":12910:12912   */\n      0x40\n        /* \"#utility.yul\":12899:12908   */\n      dup4\n        /* \"#utility.yul\":12895:12913   */\n      add\n        /* \"#utility.yul\":12886:12892   */\n      dup8\n        /* \"#utility.yul\":12846:12914   */\n      tag_210\n      jump\t// in\n    tag_346:\n        /* \"#utility.yul\":12924:12992   */\n      tag_347\n        /* \"#utility.yul\":12988:12990   */\n      0x60\n        /* \"#utility.yul\":12977:12986   */\n      dup4\n        /* \"#utility.yul\":12973:12991   */\n      add\n        /* \"#utility.yul\":12964:12970   */\n      dup7\n        /* \"#utility.yul\":12924:12992   */\n      tag_210\n      jump\t// in\n    tag_347:\n        /* \"#utility.yul\":13002:13075   */\n      tag_348\n        /* \"#utility.yul\":13070:13073   */\n      0x80\n        /* \"#utility.yul\":13059:13068   */\n      dup4\n        /* \"#utility.yul\":13055:13074   */\n      add\n        /* \"#utility.yul\":13046:13052   */\n      dup6\n        /* \"#utility.yul\":13002:13075   */\n      tag_185\n      jump\t// in\n    tag_348:\n        /* \"#utility.yul\":13085:13158   */\n      tag_349\n        /* \"#utility.yul\":13153:13156   */\n      0xa0\n        /* \"#utility.yul\":13142:13151   */\n      dup4\n        /* \"#utility.yul\":13138:13157   */\n      add\n        /* \"#utility.yul\":13129:13135   */\n      dup5\n        /* \"#utility.yul\":13085:13158   */\n      tag_185\n      jump\t// in\n    tag_349:\n        /* \"#utility.yul\":12315:13165   */\n      swap8\n      swap7\n      pop\n      pop\n      pop\n      pop\n      pop\n      pop\n      pop\n      jump\t// out\n        /* \"#utility.yul\":13171:13385   */\n    tag_105:\n        /* \"#utility.yul\":13260:13264   */\n      0x00\n        /* \"#utility.yul\":13298:13300   */\n      0x20\n        /* \"#utility.yul\":13287:13296   */\n      dup3\n        /* \"#utility.yul\":13283:13301   */\n      add\n        /* \"#utility.yul\":13275:13301   */\n      swap1\n      pop\n        /* \"#utility.yul\":13311:13378   */\n      tag_351\n        /* \"#utility.yul\":13375:13376   */\n      0x00\n        /* \"#utility.yul\":13364:13373   */\n      dup4\n        /* \"#utility.yul\":13360:13377   */\n      add\n        /* \"#utility.yul\":13351:13357   */\n      dup5\n        /* \"#utility.yul\":13311:13378   */\n      tag_210\n      jump\t// in\n    tag_351:\n        /* \"#utility.yul\":13171:13385   */\n      swap3\n      swap2\n      pop\n      pop\n      jump\t// out\n        /* \"#utility.yul\":13391:13571   */\n    tag_211:\n        /* \"#utility.yul\":13439:13516   */\n      0x4e487b7100000000000000000000000000000000000000000000000000000000\n        /* \"#utility.yul\":13436:13437   */\n      0x00\n        /* \"#utility.yul\":13429:13517   */\n      mstore\n        /* \"#utility.yul\":13536:13540   */\n      0x11\n        /* \"#utility.yul\":13533:13534   */\n      0x04\n        /* \"#utility.yul\":13526:13541   */\n      mstore\n        /* \"#utility.yul\":13560:13564   */\n      0x24\n        /* \"#utility.yul\":13557:13558   */\n      0x00\n        /* \"#utility.yul\":13550:13565   */\n      revert\n        /* \"#utility.yul\":13577:13810   */\n    tag_107:\n        /* \"#utility.yul\":13616:13619   */\n      0x00\n        /* \"#utility.yul\":13639:13663   */\n      tag_354\n        /* \"#utility.yul\":13657:13662   */\n      dup3\n        /* \"#utility.yul\":13639:13663   */\n      tag_184\n      jump\t// in\n    tag_354:\n        /* \"#utility.yul\":13630:13663   */\n      swap2\n      pop\n        /* \"#utility.yul\":13685:13751   */\n      0xffffffffffffffffffffffffffffffffffffffffffffffffffffffffffffffff\n        /* \"#utility.yul\":13678:13683   */\n      dup3\n        /* \"#utility.yul\":13675:13752   */\n      sub\n        /* \"#utility.yul\":13672:13775   */\n      tag_355\n      jumpi\n        /* \"#utility.yul\":13755:13773   */\n      tag_356\n      tag_211\n      jump\t// in\n    tag_356:\n        /* \"#utility.yul\":13672:13775   */\n    tag_355:\n        /* \"#utility.yul\":13802:13803   */\n      0x01\n        /* \"#utility.yul\":13795:13800   */\n      dup3\n        /* \"#utility.yul\":13791:13804   */\n      add\n        /* \"#utility.yul\":13784:13804   */\n      swap1\n      pop\n        /* \"#utility.yul\":13577:13810   */\n      swap2\n      swap1\n      pop\n      jump\t// out\n        /* \"#utility.yul\":13816:13905   */\n    tag_212:\n        /* \"#utility.yul\":13852:13859   */\n      0x00\n        /* \"#utility.yul\":13892:13898   */\n      0xffff\n        /* \"#utility.yul\":13885:13890   */\n      dup3\n        /* \"#utility.yul\":13881:13899   */\n      and\n        /* \"#utility.yul\":13870:13899   */\n      swap1\n      pop\n        /* \"#utility.yul\":13816:13905   */\n      swap2\n      swap1\n      pop\n      jump\t// out\n        /* \"#utility.yul\":13911:14104   */\n    tag_113:\n        /* \"#utility.yul\":13950:13953   */\n      0x00\n        /* \"#utility.yul\":13969:13988   */\n      tag_359\n        /* \"#utility.yul\":13986:13987   */\n      dup3\n        /* \"#utility.yul\":13969:13988   */\n      tag_212\n      jump\t// in\n    tag_359:\n        /* \"#utility.yul\":13964:13988   */\n      swap2\n      pop\n        /* \"#utility.yul\":14002:14021   */\n      tag_360\n        /* \"#utility.yul\":14019:14020   */\n      dup4\n        /* \"#utility.yul\":14002:14021   */\n      tag_212\n      jump\t// in\n    tag_360:\n        /* \"#utility.yul\":13997:14021   */\n      swap3\n      pop\n        /* \"#utility.yul\":14044:14045   */\n      dup3\n        /* \"#utility.yul\":14041:14042   */\n      dup3\n        /* \"#utility.yul\":14037:14046   */\n      add\n        /* \"#utility.yul\":14030:14046   */\n      swap1\n      pop\n        /* \"#utility.yul\":14067:14073   */\n      0xffff\n        /* \"#utility.yul\":14062:14065   */\n      dup2\n        /* \"#utility.yul\":14059:14074   */\n      gt\n        /* \"#utility.yul\":14056:14097   */\n      iszero\n      tag_361\n      jumpi\n        /* \"#utility.yul\":14077:14095   */\n      tag_362\n      tag_211\n      jump\t// in\n    tag_362:\n        /* \"#utility.yul\":14056:14097   */\n    tag_361:\n        /* \"#utility.yul\":13911:14104   */\n      swap3\n      swap2\n      pop\n      pop\n      jump\t// out\n        /* \"#utility.yul\":14110:14301   */\n    tag_123:\n        /* \"#utility.yul\":14150:14153   */\n      0x00\n        /* \"#utility.yul\":14169:14189   */\n      tag_364\n        /* \"#utility.yul\":14187:14188   */\n      dup3\n        /* \"#utility.yul\":14169:14189   */\n      tag_184\n      jump\t// in\n    tag_364:\n        /* \"#utility.yul\":14164:14189   */\n      swap2\n      pop\n        /* \"#utility.yul\":14203:14223   */\n      tag_365\n        /* \"#utility.yul\":14221:14222   */\n      dup4\n        /* \"#utility.yul\":14203:14223   */\n      tag_184\n      jump\t// in\n    tag_365:\n        /* \"#utility.yul\":14198:14223   */\n      swap3\n      pop\n        /* \"#utility.yul\":14246:14247   */\n      dup3\n        /* \"#utility.yul\":14243:14244   */\n      dup3\n        /* \"#utility.yul\":14239:14248   */\n      add\n        /* \"#utility.yul\":14232:14248   */\n      swap1\n      pop\n        /* \"#utility.yul\":14267:14270   */\n      dup1\n        /* \"#utility.yul\":14264:14265   */\n      dup3\n        /* \"#utility.yul\":14261:14271   */\n      gt\n        /* \"#utility.yul\":14258:14294   */\n      iszero\n      tag_366\n      jumpi\n        /* \"#utility.yul\":14274:14292   */\n      tag_367\n      tag_211\n      jump\t// in\n    tag_367:\n        /* \"#utility.yul\":14258:14294   */\n    tag_366:\n        /* \"#utility.yul\":14110:14301   */\n      swap3\n      swap2\n      pop\n      pop\n      jump\t// out\n        /* \"#utility.yul\":14307:14487   */\n    tag_126:\n        /* \"#utility.yul\":14355:14432   */\n      0x4e487b7100000000000000000000000000000000000000000000000000000000\n        /* \"#utility.yul\":14352:14353   */\n      0x00\n        /* \"#utility.yul\":14345:14433   */\n      mstore\n        /* \"#utility.yul\":14452:14456   */\n      0x41\n        /* \"#utility.yul\":14449:14450   */\n      0x04\n        /* \"#utility.yul\":14442:14457   */\n      mstore\n        /* \"#utility.yul\":14476:14480   */\n      0x24\n        /* \"#utility.yul\":14473:14474   */\n      0x00\n        /* \"#utility.yul\":14466:14481   */\n      revert\n        /* \"#utility.yul\":14493:14673   */\n    tag_130:\n        /* \"#utility.yul\":14541:14618   */\n      0x4e487b7100000000000000000000000000000000000000000000000000000000\n        /* \"#utility.yul\":14538:14539   */\n      0x00\n        /* \"#utility.yul\":14531:14619   */\n      mstore\n        /* \"#utility.yul\":14638:14642   */\n      0x32\n        /* \"#utility.yul\":14635:14636   */\n      0x04\n        /* \"#utility.yul\":14628:14643   */\n      mstore\n        /* \"#utility.yul\":14662:14666   */\n      0x24\n        /* \"#utility.yul\":14659:14660   */\n      0x00\n        /* \"#utility.yul\":14652:14667   */\n      revert\n        /* \"#utility.yul\":14679:15089   */\n    tag_140:\n        /* \"#utility.yul\":14719:14726   */\n      0x00\n        /* \"#utility.yul\":14742:14762   */\n      tag_371\n        /* \"#utility.yul\":14760:14761   */\n      dup3\n        /* \"#utility.yul\":14742:14762   */\n      tag_184\n      jump\t// in\n    tag_371:\n        /* \"#utility.yul\":14737:14762   */\n      swap2\n      pop\n        /* \"#utility.yul\":14776:14796   */\n      tag_372\n        /* \"#utility.yul\":14794:14795   */\n      dup4\n        /* \"#utility.yul\":14776:14796   */\n      tag_184\n      jump\t// in\n    tag_372:\n        /* \"#utility.yul\":14771:14796   */\n      swap3\n      pop\n        /* \"#utility.yul\":14831:14832   */\n      dup3\n        /* \"#utility.yul\":14828:14829   */\n      dup3\n        /* \"#utility.yul\":14824:14833   */\n      mul\n        /* \"#utility.yul\":14853:14883   */\n      tag_373\n        /* \"#utility.yul\":14871:14882   */\n      dup2\n        /* \"#utility.yul\":14853:14883   */\n      tag_184\n      jump\t// in\n    tag_373:\n        /* \"#utility.yul\":14842:14883   */\n      swap2\n      pop\n        /* \"#utility.yul\":15032:15033   */\n      dup3\n        /* \"#utility.yul\":15023:15030   */\n      dup3\n        /* \"#utility.yul\":15019:15034   */\n      div\n        /* \"#utility.yul\":15016:15017   */\n      dup5\n        /* \"#utility.yul\":15013:15035   */\n      eq\n        /* \"#utility.yul\":14993:14994   */\n      dup4\n        /* \"#utility.yul\":14986:14995   */\n      iszero\n        /* \"#utility.yul\":14966:15049   */\n      or\n        /* \"#utility.yul\":14943:15082   */\n      tag_374\n      jumpi\n        /* \"#utility.yul\":15062:15080   */\n      tag_375\n      tag_211\n      jump\t// in\n    tag_375:\n        /* \"#utility.yul\":14943:15082   */\n    tag_374:\n        /* \"#utility.yul\":14727:15089   */\n      pop\n        /* \"#utility.yul\":14679:15089   */\n      swap3\n      swap2\n      pop\n      pop\n      jump\t// out\n        /* \"#utility.yul\":15095:15275   */\n    tag_213:\n        /* \"#utility.yul\":15143:15220   */\n      0x4e487b7100000000000000000000000000000000000000000000000000000000\n        /* \"#utility.yul\":15140:15141   */\n      0x00\n        /* \"#utility.yul\":15133:15221   */\n      mstore\n        /* \"#utility.yul\":15240:15244   */\n      0x12\n        /* \"#utility.yul\":15237:15238   */\n      0x04\n        /* \"#utility.yul\":15230:15245   */\n      mstore\n        /* \"#utility.yul\":15264:15268   */\n      0x24\n        /* \"#utility.yul\":15261:15262   */\n      0x00\n        /* \"#utility.yul\":15254:15269   */\n      revert\n        /* \"#utility.yul\":15281:15466   */\n    tag_142:\n        /* \"#utility.yul\":15321:15322   */\n      0x00\n        /* \"#utility.yul\":15338:15358   */\n      tag_378\n        /* \"#utility.yul\":15356:15357   */\n      dup3\n        /* \"#utility.yul\":15338:15358   */\n      tag_184\n      jump\t// in\n    tag_378:\n        /* \"#utility.yul\":15333:15358   */\n      swap2\n      pop\n        /* \"#utility.yul\":15372:15392   */\n      tag_379\n        /* \"#utility.yul\":15390:15391   */\n      dup4\n        /* \"#utility.yul\":15372:15392   */\n      tag_184\n      jump\t// in\n    tag_379:\n        /* \"#utility.yul\":15367:15392   */\n      swap3\n      pop\n        /* \"#utility.yul\":15411:15412   */\n      dup3\n        /* \"#utility.yul\":15401:15436   */\n      tag_380\n      jumpi\n        /* \"#utility.yul\":15416:15434   */\n      tag_381\n      tag_213\n      jump\t// in\n    tag_381:\n        /* \"#utility.yul\":15401:15436   */\n    tag_380:\n        /* \"#utility.yul\":15458:15459   */\n      dup3\n        /* \"#utility.yul\":15455:15456   */\n      dup3\n        /* \"#utility.yul\":15451:15460   */\n      div\n        /* \"#utility.yul\":15446:15460   */\n      swap1\n      pop\n        /* \"#utility.yul\":15281:15466   */\n      swap3\n      swap2\n      pop\n      pop\n      jump\t// out\n        /* \"#utility.yul\":15472:15666   */\n    tag_159:\n        /* \"#utility.yul\":15512:15516   */\n      0x00\n        /* \"#utility.yul\":15532:15552   */\n      tag_383\n        /* \"#utility.yul\":15550:15551   */\n      dup3\n        /* \"#utility.yul\":15532:15552   */\n      tag_184\n      jump\t// in\n    tag_383:\n        /* \"#utility.yul\":15527:15552   */\n      swap2\n      pop\n        /* \"#utility.yul\":15566:15586   */\n      tag_384\n        /* \"#utility.yul\":15584:15585   */\n      dup4\n        /* \"#utility.yul\":15566:15586   */\n      tag_184\n      jump\t// in\n    tag_384:\n        /* \"#utility.yul\":15561:15586   */\n      swap3\n      pop\n        /* \"#utility.yul\":15610:15611   */\n      dup3\n        /* \"#utility.yul\":15607:15608   */\n      dup3\n        /* \"#utility.yul\":15603:15612   */\n      sub\n        /* \"#utility.yul\":15595:15612   */\n      swap1\n      pop\n        /* \"#utility.yul\":15634:15635   */\n      dup2\n        /* \"#utility.yul\":15628:15632   */\n      dup2\n        /* \"#utility.yul\":15625:15636   */\n      gt\n        /* \"#utility.yul\":15622:15659   */\n      iszero\n      tag_385\n      jumpi\n        /* \"#utility.yul\":15639:15657   */\n      tag_386\n      tag_211\n      jump\t// in\n    tag_386:\n        /* \"#utility.yul\":15622:15659   */\n    tag_385:\n        /* \"#utility.yul\":15472:15666   */\n      swap3\n      swap2\n      pop\n      pop\n      jump\t// out\n        /* \"#utility.yul\":15672:15848   */\n    tag_161:\n        /* \"#utility.yul\":15704:15705   */\n      0x00\n        /* \"#utility.yul\":15721:15741   */\n      tag_388\n        /* \"#utility.yul\":15739:15740   */\n      dup3\n        /* \"#utility.yul\":15721:15741   */\n      tag_184\n      jump\t// in\n    tag_388:\n        /* \"#utility.yul\":15716:15741   */\n      swap2\n      pop\n        /* \"#utility.yul\":15755:15775   */\n      tag_389\n        /* \"#utility.yul\":15773:15774   */\n      dup4\n        /* \"#utility.yul\":15755:15775   */\n      tag_184\n      jump\t// in\n    tag_389:\n        /* \"#utility.yul\":15750:15775   */\n      swap3\n      pop\n        /* \"#utility.yul\":15794:15795   */\n      dup3\n        /* \"#utility.yul\":15784:15819   */\n      tag_390\n      jumpi\n        /* \"#utility.yul\":15799:15817   */\n      tag_391\n      tag_213\n      jump\t// in\n    tag_391:\n        /* \"#utility.yul\":15784:15819   */\n    tag_390:\n        /* \"#utility.yul\":15840:15841   */\n      dup3\n        /* \"#utility.yul\":15837:15838   */\n      dup3\n        /* \"#utility.yul\":15833:15842   */\n      mod\n        /* \"#utility.yul\":15828:15842   */\n      swap1\n      pop\n        /* \"#utility.yul\":15672:15848   */\n      swap3\n      swap2\n      pop\n      pop\n      jump\t// out\n        /* \"#utility.yul\":15854:15933   */\n    tag_214:\n        /* \"#utility.yul\":15893:15900   */\n      0x00\n        /* \"#utility.yul\":15922:15927   */\n      dup2\n        /* \"#utility.yul\":15911:15927   */\n      swap1\n      pop\n        /* \"#utility.yul\":15854:15933   */\n      swap2\n      swap1\n      pop\n      jump\t// out\n        /* \"#utility.yul\":15939:16096   */\n    tag_215:\n        /* \"#utility.yul\":16044:16089   */\n      tag_394\n        /* \"#utility.yul\":16064:16088   */\n      tag_395\n        /* \"#utility.yul\":16082:16087   */\n      dup3\n        /* \"#utility.yul\":16064:16088   */\n      tag_184\n      jump\t// in\n    tag_395:\n        /* \"#utility.yul\":16044:16089   */\n      tag_214\n      jump\t// in\n    tag_394:\n        /* \"#utility.yul\":16039:16042   */\n      dup3\n        /* \"#utility.yul\":16032:16090   */\n      mstore\n        /* \"#utility.yul\":15939:16096   */\n      pop\n      pop\n      jump\t// out\n        /* \"#utility.yul\":16102:16196   */\n    tag_216:\n        /* \"#utility.yul\":16135:16143   */\n      0x00\n        /* \"#utility.yul\":16183:16188   */\n      dup2\n        /* \"#utility.yul\":16179:16181   */\n      0x60\n        /* \"#utility.yul\":16175:16189   */\n      shl\n        /* \"#utility.yul\":16154:16189   */\n      swap1\n      pop\n        /* \"#utility.yul\":16102:16196   */\n      swap2\n      swap1\n      pop\n      jump\t// out\n        /* \"#utility.yul\":16202:16296   */\n    tag_217:\n        /* \"#utility.yul\":16241:16248   */\n      0x00\n        /* \"#utility.yul\":16270:16290   */\n      tag_398\n        /* \"#utility.yul\":16284:16289   */\n      dup3\n        /* \"#utility.yul\":16270:16290   */\n      tag_216\n      jump\t// in\n    tag_398:\n        /* \"#utility.yul\":16259:16290   */\n      swap1\n      pop\n        /* \"#utility.yul\":16202:16296   */\n      swap2\n      swap1\n      pop\n      jump\t// out\n        /* \"#utility.yul\":16302:16402   */\n    tag_218:\n        /* \"#utility.yul\":16341:16348   */\n      0x00\n        /* \"#utility.yul\":16370:16396   */\n      tag_400\n        /* \"#utility.yul\":16390:16395   */\n      dup3\n        /* \"#utility.yul\":16370:16396   */\n      tag_217\n      jump\t// in\n    tag_400:\n        /* \"#utility.yul\":16359:16396   */\n      swap1\n      pop\n        /* \"#utility.yul\":16302:16402   */\n      swap2\n      swap1\n      pop\n      jump\t// out\n        /* \"#utility.yul\":16408:16565   */\n    tag_219:\n        /* \"#utility.yul\":16513:16558   */\n      tag_402\n        /* \"#utility.yul\":16533:16557   */\n      tag_403\n        /* \"#utility.yul\":16551:16556   */\n      dup3\n        /* \"#utility.yul\":16533:16557   */\n      tag_179\n      jump\t// in\n    tag_403:\n        /* \"#utility.yul\":16513:16558   */\n      tag_218\n      jump\t// in\n    tag_402:\n        /* \"#utility.yul\":16508:16511   */\n      dup3\n        /* \"#utility.yul\":16501:16559   */\n      mstore\n        /* \"#utility.yul\":16408:16565   */\n      pop\n      pop\n      jump\t// out\n        /* \"#utility.yul\":16571:17250   */\n    tag_168:\n        /* \"#utility.yul\":16767:16770   */\n      0x00\n        /* \"#utility.yul\":16782:16857   */\n      tag_405\n        /* \"#utility.yul\":16853:16856   */\n      dup3\n        /* \"#utility.yul\":16844:16850   */\n      dup8\n        /* \"#utility.yul\":16782:16857   */\n      tag_215\n      jump\t// in\n    tag_405:\n        /* \"#utility.yul\":16882:16884   */\n      0x20\n        /* \"#utility.yul\":16877:16880   */\n      dup3\n        /* \"#utility.yul\":16873:16885   */\n      add\n        /* \"#utility.yul\":16866:16885   */\n      swap2\n      pop\n        /* \"#utility.yul\":16895:16970   */\n      tag_406\n        /* \"#utility.yul\":16966:16969   */\n      dup3\n        /* \"#utility.yul\":16957:16963   */\n      dup7\n        /* \"#utility.yul\":16895:16970   */\n      tag_215\n      jump\t// in\n    tag_406:\n        /* \"#utility.yul\":16995:16997   */\n      0x20\n        /* \"#utility.yul\":16990:16993   */\n      dup3\n        /* \"#utility.yul\":16986:16998   */\n      add\n        /* \"#utility.yul\":16979:16998   */\n      swap2\n      pop\n        /* \"#utility.yul\":17008:17083   */\n      tag_407\n        /* \"#utility.yul\":17079:17082   */\n      dup3\n        /* \"#utility.yul\":17070:17076   */\n      dup6\n        /* \"#utility.yul\":17008:17083   */\n      tag_219\n      jump\t// in\n    tag_407:\n        /* \"#utility.yul\":17108:17110   */\n      0x14\n        /* \"#utility.yul\":17103:17106   */\n      dup3\n        /* \"#utility.yul\":17099:17111   */\n      add\n        /* \"#utility.yul\":17092:17111   */\n      swap2\n      pop\n        /* \"#utility.yul\":17121:17196   */\n      tag_408\n        /* \"#utility.yul\":17192:17195   */\n      dup3\n        /* \"#utility.yul\":17183:17189   */\n      dup5\n        /* \"#utility.yul\":17121:17196   */\n      tag_215\n      jump\t// in\n    tag_408:\n        /* \"#utility.yul\":17221:17223   */\n      0x20\n        /* \"#utility.yul\":17216:17219   */\n      dup3\n        /* \"#utility.yul\":17212:17224   */\n      add\n        /* \"#utility.yul\":17205:17224   */\n      swap2\n      pop\n        /* \"#utility.yul\":17241:17244   */\n      dup2\n        /* \"#utility.yul\":17234:17244   */\n      swap1\n      pop\n        /* \"#utility.yul\":16571:17250   */\n      swap6\n      swap5\n      pop\n      pop\n      pop\n      pop\n      pop\n      jump\t// out\n\n    auxdata: 0xa2646970667358221220bd41f5016cc2edfa78a5238adfcfdc94d9f3ae8d3aa2df69781e61be58a65c5364736f6c634300081a0033\n}\n",
				"bytecode": {
					"linkReferences": {},
					"object": "608060405234801561000f575f80fd5b5060405161177838038061177883398181016040528101906100319190610190565b335f806101000a81548173ffffffffffffffffffffffffffffffffffffffff021916908373ffffffffffffffffffffffffffffffffffffffff1602179055508260035f6101000a81548173ffffffffffffffffffffffffffffffffffffffff021916908373ffffffffffffffffffffffffffffffffffffffff1602179055508160025f6101000a81548173ffffffffffffffffffffffffffffffffffffffff021916908373ffffffffffffffffffffffffffffffffffffffff160217905550806001819055505050506101e0565b5f80fd5b5f73ffffffffffffffffffffffffffffffffffffffff82169050919050565b5f61012c82610103565b9050919050565b61013c81610122565b8114610146575f80fd5b50565b5f8151905061015781610133565b92915050565b5f819050919050565b61016f8161015d565b8114610179575f80fd5b50565b5f8151905061018a81610166565b92915050565b5f805f606084860312156101a7576101a66100ff565b5b5f6101b486828701610149565b93505060206101c586828701610149565b92505060406101d68682870161017c565b9150509250925092565b61158b806101ed5f395ff3fe608060405234801561000f575f80fd5b5060043610610086575f3560e01c80638da5cb5b116100595780638da5cb5b146101005780638f32d59b1461011e578063f1cd170e1461013c578063face17791461015857610086565b80633013ce291461008a57806349df728c146100a85780635db1211a146100c457806383d0ddec146100e2575b5f80fd5b610092610176565b60405161009f9190610cb8565b60405180910390f35b6100c260048036038101906100bd9190610d10565b61019b565b005b6100cc61035d565b6040516100d99190610d5b565b60405180910390f35b6100ea610382565b6040516100f79190610d8c565b60405180910390f35b610108610388565b6040516101159190610db4565b60405180910390f35b6101266103af565b6040516101339190610de7565b60405180910390f35b61015660048036038101906101519190610e2a565b610404565b005b61016061048c565b60405161016d9190610d8c565b60405180910390f35b60025f9054906101000a900473ffffffffffffffffffffffffffffffffffffffff1681565b6101a36103af565b6101e2576040517f08c379a00000000000000000000000000000000000000000000000000000000081526004016101d990610ed5565b60405180910390fd5b5f60025f9054906101000a900473ffffffffffffffffffffffffffffffffffffffff1673ffffffffffffffffffffffffffffffffffffffff166370a08231306040518263ffffffff1660e01b815260040161023d9190610db4565b602060405180830381865afa158015610258573d5f803e3d5ffd5b505050506040513d601f19601f8201168201806040525081019061027c9190610f07565b905060025f9054906101000a900473ffffffffffffffffffffffffffffffffffffffff1673ffffffffffffffffffffffffffffffffffffffff1663a9059cbb83836040518363ffffffff1660e01b81526004016102da929190610f32565b6020604051808303815f875af11580156102f6573d5f803e3d5ffd5b505050506040513d601f19601f8201168201806040525081019061031a9190610f83565b610359576040517f08c379a000000000000000000000000000000000000000000000000000000000815260040161035090610ff8565b60405180910390fd5b5050565b60035f9054906101000a900473ffffffffffffffffffffffffffffffffffffffff1681565b60015481565b5f805f9054906101000a900473ffffffffffffffffffffffffffffffffffffffff16905090565b5f805f9054906101000a900473ffffffffffffffffffffffffffffffffffffffff1673ffffffffffffffffffffffffffffffffffffffff163373ffffffffffffffffffffffffffffffffffffffff1614905090565b61040c6103af565b61044b576040517f08c379a000000000000000000000000000000000000000000000000000000000815260040161044290610ed5565b60405180910390fd5b806001819055507f247ea9f4463cd58873c4b89904ce30f00bedad5f28471f701d63c1d98d187e2f816040516104819190610d8c565b60405180910390a150565b5f60015460025f9054906101000a900473ffffffffffffffffffffffffffffffffffffffff1673ffffffffffffffffffffffffffffffffffffffff166370a08231336040518263ffffffff1660e01b81526004016104ea9190610db4565b602060405180830381865afa158015610505573d5f803e3d5ffd5b505050506040513d601f19601f820116820180604052508101906105299190610f07565b101561056a576040517f08c379a000000000000000000000000000000000000000000000000000000000815260040161056190611060565b60405180910390fd5b60025f9054906101000a900473ffffffffffffffffffffffffffffffffffffffff1673ffffffffffffffffffffffffffffffffffffffff166323b872dd33306001546040518463ffffffff1660e01b81526004016105ca9392919061107e565b6020604051808303815f875af11580156105e6573d5f803e3d5ffd5b505050506040513d601f19601f8201168201806040525081019061060a9190610f83565b610649576040517f08c379a000000000000000000000000000000000000000000000000000000000815260040161064090610ff8565b60405180910390fd5b5f6106526107c7565b90505f61065d61084d565b90505f6106698361085d565b90505f6106758461085d565b90505f61068185610989565b61068c600454610aa1565b60405160200161069d92919061114f565b60405160208183030381529060405290505f60035f9054906101000a900473ffffffffffffffffffffffffffffffffffffffff1673ffffffffffffffffffffffffffffffffffffffff16630d522f6e3384898989896040518763ffffffff1660e01b8152600401610713969594939291906111e0565b6020604051808303815f875af115801561072f573d5f803e3d5ffd5b505050506040513d601f19601f820116820180604052508101906107539190610f07565b9050803373ffffffffffffffffffffffffffffffffffffffff167f9ab4ada96e14074a5116d152adbb77ecfd26dae04d5f727e13f409578a90b0928860405161079c9190611246565b60405180910390a360045f8154809291906107b69061128c565b919050555080965050505050505090565b5f806107d4612710610bfa565b90506101f461ffff168110156107ee57600391505061084a565b6105dc6101f46107fe91906112e0565b61ffff1681101561081357600291505061084a565b6109c46105dc6101f461082691906112e0565b61083091906112e0565b61ffff1681101561084557600191505061084a565b5f9150505b90565b5f6108586003610bfa565b905090565b5f806108696033610bfa565b60326108759190611315565b90505f600467ffffffffffffffff81111561089357610892611348565b5b6040519080825280602002602001820160405280156108c15781602001602082028036833780820191505090505b5090506064815f815181106108d9576108d8611375565b5b6020026020010181815250506078816001815181106108fb576108fa611375565b5b60200260200101818152505060968160028151811061091d5761091c611375565b5b60200260200101818152505060c88160038151811061093f5761093e611375565b5b6020026020010181815250506064818560ff168151811061096357610962611375565b5b60200260200101518361097691906113a2565b6109809190611410565b92505050919050565b606060038260ff16036109d3576040518060400160405280600981526020017f4c6567656e6461727900000000000000000000000000000000000000000000008152509050610a9c565b60028260ff1603610a1b576040518060400160405280600481526020017f45706963000000000000000000000000000000000000000000000000000000008152509050610a9c565b60018260ff1603610a63576040518060400160405280600481526020017f52617265000000000000000000000000000000000000000000000000000000008152509050610a9c565b6040518060400160405280600681526020017f436f6d6d6f6e000000000000000000000000000000000000000000000000000081525090505b919050565b60605f8203610ae7576040518060400160405280600181526020017f30000000000000000000000000000000000000000000000000000000000000008152509050610bf5565b5f8290505f5b5f8214610b16578080610aff9061128c565b915050600a82610b0f9190611410565b9150610aed565b5f8167ffffffffffffffff811115610b3157610b30611348565b5b6040519080825280601f01601f191660200182016040528015610b635781602001600182028036833780820191505090505b5090505b5f8514610bee57600182610b7b9190611440565b9150600a85610b8a9190611473565b6030610b969190611315565b60f81b818381518110610bac57610bab611375565b5b60200101907effffffffffffffffffffffffffffffffffffffffffffffffffffffffffffff191690815f1a905350600a85610be79190611410565b9450610b67565b8093505050505b919050565b5f81424433600454604051602001610c159493929190611508565b604051602081830303815290604052805190602001205f1c610c379190611473565b9050919050565b5f73ffffffffffffffffffffffffffffffffffffffff82169050919050565b5f819050919050565b5f610c80610c7b610c7684610c3e565b610c5d565b610c3e565b9050919050565b5f610c9182610c66565b9050919050565b5f610ca282610c87565b9050919050565b610cb281610c98565b82525050565b5f602082019050610ccb5f830184610ca9565b92915050565b5f80fd5b5f610cdf82610c3e565b9050919050565b610cef81610cd5565b8114610cf9575f80fd5b50565b5f81359050610d0a81610ce6565b92915050565b5f60208284031215610d2557610d24610cd1565b5b5f610d3284828501610cfc565b91505092915050565b5f610d4582610c87565b9050919050565b610d5581610d3b565b82525050565b5f602082019050610d6e5f830184610d4c565b92915050565b5f819050919050565b610d8681610d74565b82525050565b5f602082019050610d9f5f830184610d7d565b92915050565b610dae81610cd5565b82525050565b5f602082019050610dc75f830184610da5565b92915050565b5f8115159050919050565b610de181610dcd565b82525050565b5f602082019050610dfa5f830184610dd8565b92915050565b610e0981610d74565b8114610e13575f80fd5b50565b5f81359050610e2481610e00565b92915050565b5f60208284031215610e3f57610e3e610cd1565b5b5f610e4c84828501610e16565b91505092915050565b5f82825260208201905092915050565b7f46756e6374696f6e2061636365737369626c65206f6e6c7920627920746865205f8201527f6f776e6572202121000000000000000000000000000000000000000000000000602082015250565b5f610ebf602883610e55565b9150610eca82610e65565b604082019050919050565b5f6020820190508181035f830152610eec81610eb3565b9050919050565b5f81519050610f0181610e00565b92915050565b5f60208284031215610f1c57610f1b610cd1565b5b5f610f2984828501610ef3565b91505092915050565b5f604082019050610f455f830185610da5565b610f526020830184610d7d565b9392505050565b610f6281610dcd565b8114610f6c575f80fd5b50565b5f81519050610f7d81610f59565b92915050565b5f60208284031215610f9857610f97610cd1565b5b5f610fa584828501610f6f565b91505092915050565b7f5472616e73666572206661696c656400000000000000000000000000000000005f82015250565b5f610fe2600f83610e55565b9150610fed82610fae565b602082019050919050565b5f6020820190508181035f83015261100f81610fd6565b9050919050565b7f496e73756666696369656e7420746f6b656e73000000000000000000000000005f82015250565b5f61104a601383610e55565b915061105582611016565b602082019050919050565b5f6020820190508181035f8301526110778161103e565b9050919050565b5f6060820190506110915f830186610da5565b61109e6020830185610da5565b6110ab6040830184610d7d565b949350505050565b5f81519050919050565b5f81905092915050565b8281835e5f83830152505050565b5f6110df826110b3565b6110e981856110bd565b93506110f98185602086016110c7565b80840191505092915050565b7f204d6f6e6b6579202300000000000000000000000000000000000000000000005f82015250565b5f6111396009836110bd565b915061114482611105565b600982019050919050565b5f61115a82856110d5565b91506111658261112d565b915061117182846110d5565b91508190509392505050565b5f601f19601f8301169050919050565b5f611197826110b3565b6111a18185610e55565b93506111b18185602086016110c7565b6111ba8161117d565b840191505092915050565b5f60ff82169050919050565b6111da816111c5565b82525050565b5f60c0820190506111f35f830189610da5565b8181036020830152611205818861118d565b905061121460408301876111d1565b61122160608301866111d1565b61122e6080830185610d7d565b61123b60a0830184610d7d565b979650505050505050565b5f6020820190506112595f8301846111d1565b92915050565b7f4e487b71000000000000000000000000000000000000000000000000000000005f52601160045260245ffd5b5f61129682610d74565b91507fffffffffffffffffffffffffffffffffffffffffffffffffffffffffffffffff82036112c8576112c761125f565b5b600182019050919050565b5f61ffff82169050919050565b5f6112ea826112d3565b91506112f5836112d3565b9250828201905061ffff81111561130f5761130e61125f565b5b92915050565b5f61131f82610d74565b915061132a83610d74565b92508282019050808211156113425761134161125f565b5b92915050565b7f4e487b71000000000000000000000000000000000000000000000000000000005f52604160045260245ffd5b7f4e487b71000000000000000000000000000000000000000000000000000000005f52603260045260245ffd5b5f6113ac82610d74565b91506113b783610d74565b92508282026113c581610d74565b915082820484148315176113dc576113db61125f565b5b5092915050565b7f4e487b71000000000000000000000000000000000000000000000000000000005f52601260045260245ffd5b5f61141a82610d74565b915061142583610d74565b925082611435576114346113e3565b5b828204905092915050565b5f61144a82610d74565b915061145583610d74565b925082820390508181111561146d5761146c61125f565b5b92915050565b5f61147d82610d74565b915061148883610d74565b925082611498576114976113e3565b5b828206905092915050565b5f819050919050565b6114bd6114b882610d74565b6114a3565b82525050565b5f8160601b9050919050565b5f6114d9826114c3565b9050919050565b5f6114ea826114cf565b9050919050565b6115026114fd82610cd5565b6114e0565b82525050565b5f61151382876114ac565b60208201915061152382866114ac565b60208201915061153382856114f1565b60148201915061154382846114ac565b6020820191508190509594505050505056fea2646970667358221220bd41f5016cc2edfa78a5238adfcfdc94d9f3ae8d3aa2df69781e61be58a65c5364736f6c634300081a0033",
					"opcodes": "PUSH1 0x80 PUSH1 0x40 MSTORE CALLVALUE DUP1 ISZERO PUSH2 0xF JUMPI PUSH0 DUP1 REVERT JUMPDEST POP PUSH1 0x40 MLOAD PUSH2 0x1778 CODESIZE SUB DUP1 PUSH2 0x1778 DUP4 CODECOPY DUP2 DUP2 ADD PUSH1 0x40 MSTORE DUP2 ADD SWAP1 PUSH2 0x31 SWAP2 SWAP1 PUSH2 0x190 JUMP JUMPDEST CALLER PUSH0 DUP1 PUSH2 0x100 EXP DUP2 SLOAD DUP2 PUSH20 0xFFFFFFFFFFFFFFFFFFFFFFFFFFFFFFFFFFFFFFFF MUL NOT AND SWAP1 DUP4 PUSH20 0xFFFFFFFFFFFFFFFFFFFFFFFFFFFFFFFFFFFFFFFF AND MUL OR SWAP1 SSTORE POP DUP3 PUSH1 0x3 PUSH0 PUSH2 0x100 EXP DUP2 SLOAD DUP2 PUSH20 0xFFFFFFFFFFFFFFFFFFFFFFFFFFFFFFFFFFFFFFFF MUL NOT AND SWAP1 DUP4 PUSH20 0xFFFFFFFFFFFFFFFFFFFFFFFFFFFFFFFFFFFFFFFF AND MUL OR SWAP1 SSTORE POP DUP2 PUSH1 0x2 PUSH0 PUSH2 0x100 EXP DUP2 SLOAD DUP2 PUSH20 0xFFFFFFFFFFFFFFFFFFFFFFFFFFFFFFFFFFFFFFFF MUL NOT AND SWAP1 DUP4 PUSH20 0xFFFFFFFFFFFFFFFFFFFFFFFFFFFFFFFFFFFFFFFF AND MUL OR SWAP1 SSTORE POP DUP1 PUSH1 0x1 DUP2 SWAP1 SSTORE POP POP POP POP PUSH2 0x1E0 JUMP JUMPDEST PUSH0 DUP1 REVERT JUMPDEST PUSH0 PUSH20 0xFFFFFFFFFFFFFFFFFFFFFFFFFFFFFFFFFFFFFFFF DUP3 AND SWAP1 POP SWAP2 SWAP1 POP JUMP JUMPDEST PUSH0 PUSH2 0x12C DUP3 PUSH2 0x103 JUMP JUMPDEST SWAP1 POP SWAP2 SWAP1 POP JUMP JUMPDEST PUSH2 0x13C DUP2 PUSH2 0x122 JUMP JUMPDEST DUP2 EQ PUSH2 0x146 JUMPI PUSH0 DUP1 REVERT JUMPDEST POP JUMP JUMPDEST PUSH0 DUP2 MLOAD SWAP1 POP PUSH2 0x157 DUP2 PUSH2 0x133 JUMP JUMPDEST SWAP3 SWAP2 POP POP JUMP JUMPDEST PUSH0 DUP2 SWAP1 POP SWAP2 SWAP1 POP JUMP JUMPDEST PUSH2 0x16F DUP2 PUSH2 0x15D JUMP JUMPDEST DUP2 EQ PUSH2 0x179 JUMPI PUSH0 DUP1 REVERT JUMPDEST POP JUMP JUMPDEST PUSH0 DUP2 MLOAD SWAP1 POP PUSH2 0x18A DUP2 PUSH2 0x166 JUMP JUMPDEST SWAP3 SWAP2 POP POP JUMP JUMPDEST PUSH0 DUP1 PUSH0 PUSH1 0x60 DUP5 DUP7 SUB SLT ISZERO PUSH2 0x1A7 JUMPI PUSH2 0x1A6 PUSH2 0xFF JUMP JUMPDEST JUMPDEST PUSH0 PUSH2 0x1B4 DUP7 DUP3 DUP8 ADD PUSH2 0x149 JUMP JUMPDEST SWAP4 POP POP PUSH1 0x20 PUSH2 0x1C5 DUP7 DUP3 DUP8 ADD PUSH2 0x149 JUMP JUMPDEST SWAP3 POP POP PUSH1 0x40 PUSH2 0x1D6 DUP7 DUP3 DUP8 ADD PUSH2 0x17C JUMP JUMPDEST SWAP2 POP POP SWAP3 POP SWAP3 POP SWAP3 JUMP JUMPDEST PUSH2 0x158B DUP1 PUSH2 0x1ED PUSH0 CODECOPY PUSH0 RETURN INVALID PUSH1 0x80 PUSH1 0x40 MSTORE CALLVALUE DUP1 ISZERO PUSH2 0xF JUMPI PUSH0 DUP1 REVERT JUMPDEST POP PUSH1 0x4 CALLDATASIZE LT PUSH2 0x86 JUMPI PUSH0 CALLDATALOAD PUSH1 0xE0 SHR DUP1 PUSH4 0x8DA5CB5B GT PUSH2 0x59 JUMPI DUP1 PUSH4 0x8DA5CB5B EQ PUSH2 0x100 JUMPI DUP1 PUSH4 0x8F32D59B EQ PUSH2 0x11E JUMPI DUP1 PUSH4 0xF1CD170E EQ PUSH2 0x13C JUMPI DUP1 PUSH4 0xFACE1779 EQ PUSH2 0x158 JUMPI PUSH2 0x86 JUMP JUMPDEST DUP1 PUSH4 0x3013CE29 EQ PUSH2 0x8A JUMPI DUP1 PUSH4 0x49DF728C EQ PUSH2 0xA8 JUMPI DUP1 PUSH4 0x5DB1211A EQ PUSH2 0xC4 JUMPI DUP1 PUSH4 0x83D0DDEC EQ PUSH2 0xE2 JUMPI JUMPDEST PUSH0 DUP1 REVERT JUMPDEST PUSH2 0x92 PUSH2 0x176 JUMP JUMPDEST PUSH1 0x40 MLOAD PUSH2 0x9F SWAP2 SWAP1 PUSH2 0xCB8 JUMP JUMPDEST PUSH1 0x40 MLOAD DUP1 SWAP2 SUB SWAP1 RETURN JUMPDEST PUSH2 0xC2 PUSH1 0x4 DUP1 CALLDATASIZE SUB DUP2 ADD SWAP1 PUSH2 0xBD SWAP2 SWAP1 PUSH2 0xD10 JUMP JUMPDEST PUSH2 0x19B JUMP JUMPDEST STOP JUMPDEST PUSH2 0xCC PUSH2 0x35D JUMP JUMPDEST PUSH1 0x40 MLOAD PUSH2 0xD9 SWAP2 SWAP1 PUSH2 0xD5B JUMP JUMPDEST PUSH1 0x40 MLOAD DUP1 SWAP2 SUB SWAP1 RETURN JUMPDEST PUSH2 0xEA PUSH2 0x382 JUMP JUMPDEST PUSH1 0x40 MLOAD PUSH2 0xF7 SWAP2 SWAP1 PUSH2 0xD8C JUMP JUMPDEST PUSH1 0x40 MLOAD DUP1 SWAP2 SUB SWAP1 RETURN JUMPDEST PUSH2 0x108 PUSH2 0x388 JUMP JUMPDEST PUSH1 0x40 MLOAD PUSH2 0x115 SWAP2 SWAP1 PUSH2 0xDB4 JUMP JUMPDEST PUSH1 0x40 MLOAD DUP1 SWAP2 SUB SWAP1 RETURN JUMPDEST PUSH2 0x126 PUSH2 0x3AF JUMP JUMPDEST PUSH1 0x40 MLOAD PUSH2 0x133 SWAP2 SWAP1 PUSH2 0xDE7 JUMP JUMPDEST PUSH1 0x40 MLOAD DUP1 SWAP2 SUB SWAP1 RETURN JUMPDEST PUSH2 0x156 PUSH1 0x4 DUP1 CALLDATASIZE SUB DUP2 ADD SWAP1 PUSH2 0x151 SWAP2 SWAP1 PUSH2 0xE2A JUMP JUMPDEST PUSH2 0x404 JUMP JUMPDEST STOP JUMPDEST PUSH2 0x160 PUSH2 0x48C JUMP JUMPDEST PUSH1 0x40 MLOAD PUSH2 0x16D SWAP2 SWAP1 PUSH2 0xD8C JUMP JUMPDEST PUSH1 0x40 MLOAD DUP1 SWAP2 SUB SWAP1 RETURN JUMPDEST PUSH1 0x2 PUSH0 SWAP1 SLOAD SWAP1 PUSH2 0x100 EXP SWAP1 DIV PUSH20 0xFFFFFFFFFFFFFFFFFFFFFFFFFFFFFFFFFFFFFFFF AND DUP2 JUMP JUMPDEST PUSH2 0x1A3 PUSH2 0x3AF JUMP JUMPDEST PUSH2 0x1E2 JUMPI PUSH1 0x40 MLOAD PUSH32 0x8C379A000000000000000000000000000000000000000000000000000000000 DUP2 MSTORE PUSH1 0x4 ADD PUSH2 0x1D9 SWAP1 PUSH2 0xED5 JUMP JUMPDEST PUSH1 0x40 MLOAD DUP1 SWAP2 SUB SWAP1 REVERT JUMPDEST PUSH0 PUSH1 0x2 PUSH0 SWAP1 SLOAD SWAP1 PUSH2 0x100 EXP SWAP1 DIV PUSH20 0xFFFFFFFFFFFFFFFFFFFFFFFFFFFFFFFFFFFFFFFF AND PUSH20 0xFFFFFFFFFFFFFFFFFFFFFFFFFFFFFFFFFFFFFFFF AND PUSH4 0x70A08231 ADDRESS PUSH1 0x40 MLOAD DUP3 PUSH4 0xFFFFFFFF AND PUSH1 0xE0 SHL DUP2 MSTORE PUSH1 0x4 ADD PUSH2 0x23D SWAP2 SWAP1 PUSH2 0xDB4 JUMP JUMPDEST PUSH1 0x20 PUSH1 0x40 MLOAD DUP1 DUP4 SUB DUP2 DUP7 GAS STATICCALL ISZERO DUP1 ISZERO PUSH2 0x258 JUMPI RETURNDATASIZE PUSH0 DUP1 RETURNDATACOPY RETURNDATASIZE PUSH0 REVERT JUMPDEST POP POP POP POP PUSH1 0x40 MLOAD RETURNDATASIZE PUSH1 0x1F NOT PUSH1 0x1F DUP3 ADD AND DUP3 ADD DUP1 PUSH1 0x40 MSTORE POP DUP2 ADD SWAP1 PUSH2 0x27C SWAP2 SWAP1 PUSH2 0xF07 JUMP JUMPDEST SWAP1 POP PUSH1 0x2 PUSH0 SWAP1 SLOAD SWAP1 PUSH2 0x100 EXP SWAP1 DIV PUSH20 0xFFFFFFFFFFFFFFFFFFFFFFFFFFFFFFFFFFFFFFFF AND PUSH20 0xFFFFFFFFFFFFFFFFFFFFFFFFFFFFFFFFFFFFFFFF AND PUSH4 0xA9059CBB DUP4 DUP4 PUSH1 0x40 MLOAD DUP4 PUSH4 0xFFFFFFFF AND PUSH1 0xE0 SHL DUP2 MSTORE PUSH1 0x4 ADD PUSH2 0x2DA SWAP3 SWAP2 SWAP1 PUSH2 0xF32 JUMP JUMPDEST PUSH1 0x20 PUSH1 0x40 MLOAD DUP1 DUP4 SUB DUP2 PUSH0 DUP8 GAS CALL ISZERO DUP1 ISZERO PUSH2 0x2F6 JUMPI RETURNDATASIZE PUSH0 DUP1 RETURNDATACOPY RETURNDATASIZE PUSH0 REVERT JUMPDEST POP POP POP POP PUSH1 0x40 MLOAD RETURNDATASIZE PUSH1 0x1F NOT PUSH1 0x1F DUP3 ADD AND DUP3 ADD DUP1 PUSH1 0x40 MSTORE POP DUP2 ADD SWAP1 PUSH2 0x31A SWAP2 SWAP1 PUSH2 0xF83 JUMP JUMPDEST PUSH2 0x359 JUMPI PUSH1 0x40 MLOAD PUSH32 0x8C379A000000000000000000000000000000000000000000000000000000000 DUP2 MSTORE PUSH1 0x4 ADD PUSH2 0x350 SWAP1 PUSH2 0xFF8 JUMP JUMPDEST PUSH1 0x40 MLOAD DUP1 SWAP2 SUB SWAP1 REVERT JUMPDEST POP POP JUMP JUMPDEST PUSH1 0x3 PUSH0 SWAP1 SLOAD SWAP1 PUSH2 0x100 EXP SWAP1 DIV PUSH20 0xFFFFFFFFFFFFFFFFFFFFFFFFFFFFFFFFFFFFFFFF AND DUP2 JUMP JUMPDEST PUSH1 0x1 SLOAD DUP2 JUMP JUMPDEST PUSH0 DUP1 PUSH0 SWAP1 SLOAD SWAP1 PUSH2 0x100 EXP SWAP1 DIV PUSH20 0xFFFFFFFFFFFFFFFFFFFFFFFFFFFFFFFFFFFFFFFF AND SWAP1 POP SWAP1 JUMP JUMPDEST PUSH0 DUP1 PUSH0 SWAP1 SLOAD SWAP1 PUSH2 0x100 EXP SWAP1 DIV PUSH20 0xFFFFFFFFFFFFFFFFFFFFFFFFFFFFFFFFFFFFFFFF AND PUSH20 0xFFFFFFFFFFFFFFFFFFFFFFFFFFFFFFFFFFFFFFFF AND CALLER PUSH20 0xFFFFFFFFFFFFFFFFFFFFFFFFFFFFFFFFFFFFFFFF AND EQ SWAP1 POP SWAP1 JUMP JUMPDEST PUSH2 0x40C PUSH2 0x3AF JUMP JUMPDEST PUSH2 0x44B JUMPI PUSH1 0x40 MLOAD PUSH32 0x8C379A000000000000000000000000000000000000000000000000000000000 DUP2 MSTORE PUSH1 0x4 ADD PUSH2 0x442 SWAP1 PUSH2 0xED5 JUMP JUMPDEST PUSH1 0x40 MLOAD DUP1 SWAP2 SUB SWAP1 REVERT JUMPDEST DUP1 PUSH1 0x1 DUP2 SWAP1 SSTORE POP PUSH32 0x247EA9F4463CD58873C4B89904CE30F00BEDAD5F28471F701D63C1D98D187E2F DUP2 PUSH1 0x40 MLOAD PUSH2 0x481 SWAP2 SWAP1 PUSH2 0xD8C JUMP JUMPDEST PUSH1 0x40 MLOAD DUP1 SWAP2 SUB SWAP1 LOG1 POP JUMP JUMPDEST PUSH0 PUSH1 0x1 SLOAD PUSH1 0x2 PUSH0 SWAP1 SLOAD SWAP1 PUSH2 0x100 EXP SWAP1 DIV PUSH20 0xFFFFFFFFFFFFFFFFFFFFFFFFFFFFFFFFFFFFFFFF AND PUSH20 0xFFFFFFFFFFFFFFFFFFFFFFFFFFFFFFFFFFFFFFFF AND PUSH4 0x70A08231 CALLER PUSH1 0x40 MLOAD DUP3 PUSH4 0xFFFFFFFF AND PUSH1 0xE0 SHL DUP2 MSTORE PUSH1 0x4 ADD PUSH2 0x4EA SWAP2 SWAP1 PUSH2 0xDB4 JUMP JUMPDEST PUSH1 0x20 PUSH1 0x40 MLOAD DUP1 DUP4 SUB DUP2 DUP7 GAS STATICCALL ISZERO DUP1 ISZERO PUSH2 0x505 JUMPI RETURNDATASIZE PUSH0 DUP1 RETURNDATACOPY RETURNDATASIZE PUSH0 REVERT JUMPDEST POP POP POP POP PUSH1 0x40 MLOAD RETURNDATASIZE PUSH1 0x1F NOT PUSH1 0x1F DUP3 ADD AND DUP3 ADD DUP1 PUSH1 0x40 MSTORE POP DUP2 ADD SWAP1 PUSH2 0x529 SWAP2 SWAP1 PUSH2 0xF07 JUMP JUMPDEST LT ISZERO PUSH2 0x56A JUMPI PUSH1 0x40 MLOAD PUSH32 0x8C379A000000000000000000000000000000000000000000000000000000000 DUP2 MSTORE PUSH1 0x4 ADD PUSH2 0x561 SWAP1 PUSH2 0x1060 JUMP JUMPDEST PUSH1 0x40 MLOAD DUP1 SWAP2 SUB SWAP1 REVERT JUMPDEST PUSH1 0x2 PUSH0 SWAP1 SLOAD SWAP1 PUSH2 0x100 EXP SWAP1 DIV PUSH20 0xFFFFFFFFFFFFFFFFFFFFFFFFFFFFFFFFFFFFFFFF AND PUSH20 0xFFFFFFFFFFFFFFFFFFFFFFFFFFFFFFFFFFFFFFFF AND PUSH4 0x23B872DD CALLER ADDRESS PUSH1 0x1 SLOAD PUSH1 0x40 MLOAD DUP5 PUSH4 0xFFFFFFFF AND PUSH1 0xE0 SHL DUP2 MSTORE PUSH1 0x4 ADD PUSH2 0x5CA SWAP4 SWAP3 SWAP2 SWAP1 PUSH2 0x107E JUMP JUMPDEST PUSH1 0x20 PUSH1 0x40 MLOAD DUP1 DUP4 SUB DUP2 PUSH0 DUP8 GAS CALL ISZERO DUP1 ISZERO PUSH2 0x5E6 JUMPI RETURNDATASIZE PUSH0 DUP1 RETURNDATACOPY RETURNDATASIZE PUSH0 REVERT JUMPDEST POP POP POP POP PUSH1 0x40 MLOAD RETURNDATASIZE PUSH1 0x1F NOT PUSH1 0x1F DUP3 ADD AND DUP3 ADD DUP1 PUSH1 0x40 MSTORE POP DUP2 ADD SWAP1 PUSH2 0x60A SWAP2 SWAP1 PUSH2 0xF83 JUMP JUMPDEST PUSH2 0x649 JUMPI PUSH1 0x40 MLOAD PUSH32 0x8C379A000000000000000000000000000000000000000000000000000000000 DUP2 MSTORE PUSH1 0x4 ADD PUSH2 0x640 SWAP1 PUSH2 0xFF8 JUMP JUMPDEST PUSH1 0x40 MLOAD DUP1 SWAP2 SUB SWAP1 REVERT JUMPDEST PUSH0 PUSH2 0x652 PUSH2 0x7C7 JUMP JUMPDEST SWAP1 POP PUSH0 PUSH2 0x65D PUSH2 0x84D JUMP JUMPDEST SWAP1 POP PUSH0 PUSH2 0x669 DUP4 PUSH2 0x85D JUMP JUMPDEST SWAP1 POP PUSH0 PUSH2 0x675 DUP5 PUSH2 0x85D JUMP JUMPDEST SWAP1 POP PUSH0 PUSH2 0x681 DUP6 PUSH2 0x989 JUMP JUMPDEST PUSH2 0x68C PUSH1 0x4 SLOAD PUSH2 0xAA1 JUMP JUMPDEST PUSH1 0x40 MLOAD PUSH1 0x20 ADD PUSH2 0x69D SWAP3 SWAP2 SWAP1 PUSH2 0x114F JUMP JUMPDEST PUSH1 0x40 MLOAD PUSH1 0x20 DUP2 DUP4 SUB SUB DUP2 MSTORE SWAP1 PUSH1 0x40 MSTORE SWAP1 POP PUSH0 PUSH1 0x3 PUSH0 SWAP1 SLOAD SWAP1 PUSH2 0x100 EXP SWAP1 DIV PUSH20 0xFFFFFFFFFFFFFFFFFFFFFFFFFFFFFFFFFFFFFFFF AND PUSH20 0xFFFFFFFFFFFFFFFFFFFFFFFFFFFFFFFFFFFFFFFF AND PUSH4 0xD522F6E CALLER DUP5 DUP10 DUP10 DUP10 DUP10 PUSH1 0x40 MLOAD DUP8 PUSH4 0xFFFFFFFF AND PUSH1 0xE0 SHL DUP2 MSTORE PUSH1 0x4 ADD PUSH2 0x713 SWAP7 SWAP6 SWAP5 SWAP4 SWAP3 SWAP2 SWAP1 PUSH2 0x11E0 JUMP JUMPDEST PUSH1 0x20 PUSH1 0x40 MLOAD DUP1 DUP4 SUB DUP2 PUSH0 DUP8 GAS CALL ISZERO DUP1 ISZERO PUSH2 0x72F JUMPI RETURNDATASIZE PUSH0 DUP1 RETURNDATACOPY RETURNDATASIZE PUSH0 REVERT JUMPDEST POP POP POP POP PUSH1 0x40 MLOAD RETURNDATASIZE PUSH1 0x1F NOT PUSH1 0x1F DUP3 ADD AND DUP3 ADD DUP1 PUSH1 0x40 MSTORE POP DUP2 ADD SWAP1 PUSH2 0x753 SWAP2 SWAP1 PUSH2 0xF07 JUMP JUMPDEST SWAP1 POP DUP1 CALLER PUSH20 0xFFFFFFFFFFFFFFFFFFFFFFFFFFFFFFFFFFFFFFFF AND PUSH32 0x9AB4ADA96E14074A5116D152ADBB77ECFD26DAE04D5F727E13F409578A90B092 DUP9 PUSH1 0x40 MLOAD PUSH2 0x79C SWAP2 SWAP1 PUSH2 0x1246 JUMP JUMPDEST PUSH1 0x40 MLOAD DUP1 SWAP2 SUB SWAP1 LOG3 PUSH1 0x4 PUSH0 DUP2 SLOAD DUP1 SWAP3 SWAP2 SWAP1 PUSH2 0x7B6 SWAP1 PUSH2 0x128C JUMP JUMPDEST SWAP2 SWAP1 POP SSTORE POP DUP1 SWAP7 POP POP POP POP POP POP POP SWAP1 JUMP JUMPDEST PUSH0 DUP1 PUSH2 0x7D4 PUSH2 0x2710 PUSH2 0xBFA JUMP JUMPDEST SWAP1 POP PUSH2 0x1F4 PUSH2 0xFFFF AND DUP2 LT ISZERO PUSH2 0x7EE JUMPI PUSH1 0x3 SWAP2 POP POP PUSH2 0x84A JUMP JUMPDEST PUSH2 0x5DC PUSH2 0x1F4 PUSH2 0x7FE SWAP2 SWAP1 PUSH2 0x12E0 JUMP JUMPDEST PUSH2 0xFFFF AND DUP2 LT ISZERO PUSH2 0x813 JUMPI PUSH1 0x2 SWAP2 POP POP PUSH2 0x84A JUMP JUMPDEST PUSH2 0x9C4 PUSH2 0x5DC PUSH2 0x1F4 PUSH2 0x826 SWAP2 SWAP1 PUSH2 0x12E0 JUMP JUMPDEST PUSH2 0x830 SWAP2 SWAP1 PUSH2 0x12E0 JUMP JUMPDEST PUSH2 0xFFFF AND DUP2 LT ISZERO PUSH2 0x845 JUMPI PUSH1 0x1 SWAP2 POP POP PUSH2 0x84A JUMP JUMPDEST PUSH0 SWAP2 POP POP JUMPDEST SWAP1 JUMP JUMPDEST PUSH0 PUSH2 0x858 PUSH1 0x3 PUSH2 0xBFA JUMP JUMPDEST SWAP1 POP SWAP1 JUMP JUMPDEST PUSH0 DUP1 PUSH2 0x869 PUSH1 0x33 PUSH2 0xBFA JUMP JUMPDEST PUSH1 0x32 PUSH2 0x875 SWAP2 SWAP1 PUSH2 0x1315 JUMP JUMPDEST SWAP1 POP PUSH0 PUSH1 0x4 PUSH8 0xFFFFFFFFFFFFFFFF DUP2 GT ISZERO PUSH2 0x893 JUMPI PUSH2 0x892 PUSH2 0x1348 JUMP JUMPDEST JUMPDEST PUSH1 0x40 MLOAD SWAP1 DUP1 DUP3 MSTORE DUP1 PUSH1 0x20 MUL PUSH1 0x20 ADD DUP3 ADD PUSH1 0x40 MSTORE DUP1 ISZERO PUSH2 0x8C1 JUMPI DUP2 PUSH1 0x20 ADD PUSH1 0x20 DUP3 MUL DUP1 CALLDATASIZE DUP4 CALLDATACOPY DUP1 DUP3 ADD SWAP2 POP POP SWAP1 POP JUMPDEST POP SWAP1 POP PUSH1 0x64 DUP2 PUSH0 DUP2 MLOAD DUP2 LT PUSH2 0x8D9 JUMPI PUSH2 0x8D8 PUSH2 0x1375 JUMP JUMPDEST JUMPDEST PUSH1 0x20 MUL PUSH1 0x20 ADD ADD DUP2 DUP2 MSTORE POP POP PUSH1 0x78 DUP2 PUSH1 0x1 DUP2 MLOAD DUP2 LT PUSH2 0x8FB JUMPI PUSH2 0x8FA PUSH2 0x1375 JUMP JUMPDEST JUMPDEST PUSH1 0x20 MUL PUSH1 0x20 ADD ADD DUP2 DUP2 MSTORE POP POP PUSH1 0x96 DUP2 PUSH1 0x2 DUP2 MLOAD DUP2 LT PUSH2 0x91D JUMPI PUSH2 0x91C PUSH2 0x1375 JUMP JUMPDEST JUMPDEST PUSH1 0x20 MUL PUSH1 0x20 ADD ADD DUP2 DUP2 MSTORE POP POP PUSH1 0xC8 DUP2 PUSH1 0x3 DUP2 MLOAD DUP2 LT PUSH2 0x93F JUMPI PUSH2 0x93E PUSH2 0x1375 JUMP JUMPDEST JUMPDEST PUSH1 0x20 MUL PUSH1 0x20 ADD ADD DUP2 DUP2 MSTORE POP POP PUSH1 0x64 DUP2 DUP6 PUSH1 0xFF AND DUP2 MLOAD DUP2 LT PUSH2 0x963 JUMPI PUSH2 0x962 PUSH2 0x1375 JUMP JUMPDEST JUMPDEST PUSH1 0x20 MUL PUSH1 0x20 ADD ADD MLOAD DUP4 PUSH2 0x976 SWAP2 SWAP1 PUSH2 0x13A2 JUMP JUMPDEST PUSH2 0x980 SWAP2 SWAP1 PUSH2 0x1410 JUMP JUMPDEST SWAP3 POP POP POP SWAP2 SWAP1 POP JUMP JUMPDEST PUSH1 0x60 PUSH1 0x3 DUP3 PUSH1 0xFF AND SUB PUSH2 0x9D3 JUMPI PUSH1 0x40 MLOAD DUP1 PUSH1 0x40 ADD PUSH1 0x40 MSTORE DUP1 PUSH1 0x9 DUP2 MSTORE PUSH1 0x20 ADD PUSH32 0x4C6567656E646172790000000000000000000000000000000000000000000000 DUP2 MSTORE POP SWAP1 POP PUSH2 0xA9C JUMP JUMPDEST PUSH1 0x2 DUP3 PUSH1 0xFF AND SUB PUSH2 0xA1B JUMPI PUSH1 0x40 MLOAD DUP1 PUSH1 0x40 ADD PUSH1 0x40 MSTORE DUP1 PUSH1 0x4 DUP2 MSTORE PUSH1 0x20 ADD PUSH32 0x4570696300000000000000000000000000000000000000000000000000000000 DUP2 MSTORE POP SWAP1 POP PUSH2 0xA9C JUMP JUMPDEST PUSH1 0x1 DUP3 PUSH1 0xFF AND SUB PUSH2 0xA63 JUMPI PUSH1 0x40 MLOAD DUP1 PUSH1 0x40 ADD PUSH1 0x40 MSTORE DUP1 PUSH1 0x4 DUP2 MSTORE PUSH1 0x20 ADD PUSH32 0x5261726500000000000000000000000000000000000000000000000000000000 DUP2 MSTORE POP SWAP1 POP PUSH2 0xA9C JUMP JUMPDEST PUSH1 0x40 MLOAD DUP1 PUSH1 0x40 ADD PUSH1 0x40 MSTORE DUP1 PUSH1 0x6 DUP2 MSTORE PUSH1 0x20 ADD PUSH32 0x436F6D6D6F6E0000000000000000000000000000000000000000000000000000 DUP2 MSTORE POP SWAP1 POP JUMPDEST SWAP2 SWAP1 POP JUMP JUMPDEST PUSH1 0x60 PUSH0 DUP3 SUB PUSH2 0xAE7 JUMPI PUSH1 0x40 MLOAD DUP1 PUSH1 0x40 ADD PUSH1 0x40 MSTORE DUP1 PUSH1 0x1 DUP2 MSTORE PUSH1 0x20 ADD PUSH32 0x3000000000000000000000000000000000000000000000000000000000000000 DUP2 MSTORE POP SWAP1 POP PUSH2 0xBF5 JUMP JUMPDEST PUSH0 DUP3 SWAP1 POP PUSH0 JUMPDEST PUSH0 DUP3 EQ PUSH2 0xB16 JUMPI DUP1 DUP1 PUSH2 0xAFF SWAP1 PUSH2 0x128C JUMP JUMPDEST SWAP2 POP POP PUSH1 0xA DUP3 PUSH2 0xB0F SWAP2 SWAP1 PUSH2 0x1410 JUMP JUMPDEST SWAP2 POP PUSH2 0xAED JUMP JUMPDEST PUSH0 DUP2 PUSH8 0xFFFFFFFFFFFFFFFF DUP2 GT ISZERO PUSH2 0xB31 JUMPI PUSH2 0xB30 PUSH2 0x1348 JUMP JUMPDEST JUMPDEST PUSH1 0x40 MLOAD SWAP1 DUP1 DUP3 MSTORE DUP1 PUSH1 0x1F ADD PUSH1 0x1F NOT AND PUSH1 0x20 ADD DUP3 ADD PUSH1 0x40 MSTORE DUP1 ISZERO PUSH2 0xB63 JUMPI DUP2 PUSH1 0x20 ADD PUSH1 0x1 DUP3 MUL DUP1 CALLDATASIZE DUP4 CALLDATACOPY DUP1 DUP3 ADD SWAP2 POP POP SWAP1 POP JUMPDEST POP SWAP1 POP JUMPDEST PUSH0 DUP6 EQ PUSH2 0xBEE JUMPI PUSH1 0x1 DUP3 PUSH2 0xB7B SWAP2 SWAP1 PUSH2 0x1440 JUMP JUMPDEST SWAP2 POP PUSH1 0xA DUP6 PUSH2 0xB8A SWAP2 SWAP1 PUSH2 0x1473 JUMP JUMPDEST PUSH1 0x30 PUSH2 0xB96 SWAP2 SWAP1 PUSH2 0x1315 JUMP JUMPDEST PUSH1 0xF8 SHL DUP2 DUP4 DUP2 MLOAD DUP2 LT PUSH2 0xBAC JUMPI PUSH2 0xBAB PUSH2 0x1375 JUMP JUMPDEST JUMPDEST PUSH1 0x20 ADD ADD SWAP1 PUSH31 0xFFFFFFFFFFFFFFFFFFFFFFFFFFFFFFFFFFFFFFFFFFFFFFFFFFFFFFFFFFFFFF NOT AND SWAP1 DUP2 PUSH0 BYTE SWAP1 MSTORE8 POP PUSH1 0xA DUP6 PUSH2 0xBE7 SWAP2 SWAP1 PUSH2 0x1410 JUMP JUMPDEST SWAP5 POP PUSH2 0xB67 JUMP JUMPDEST DUP1 SWAP4 POP POP POP POP JUMPDEST SWAP2 SWAP1 POP JUMP JUMPDEST PUSH0 DUP2 TIMESTAMP PREVRANDAO CALLER PUSH1 0x4 SLOAD PUSH1 0x40 MLOAD PUSH1 0x20 ADD PUSH2 0xC15 SWAP5 SWAP4 SWAP3 SWAP2 SWAP1 PUSH2 0x1508 JUMP JUMPDEST PUSH1 0x40 MLOAD PUSH1 0x20 DUP2 DUP4 SUB SUB DUP2 MSTORE SWAP1 PUSH1 0x40 MSTORE DUP1 MLOAD SWAP1 PUSH1 0x20 ADD KECCAK256 PUSH0 SHR PUSH2 0xC37 SWAP2 SWAP1 PUSH2 0x1473 JUMP JUMPDEST SWAP1 POP SWAP2 SWAP1 POP JUMP JUMPDEST PUSH0 PUSH20 0xFFFFFFFFFFFFFFFFFFFFFFFFFFFFFFFFFFFFFFFF DUP3 AND SWAP1 POP SWAP2 SWAP1 POP JUMP JUMPDEST PUSH0 DUP2 SWAP1 POP SWAP2 SWAP1 POP JUMP JUMPDEST PUSH0 PUSH2 0xC80 PUSH2 0xC7B PUSH2 0xC76 DUP5 PUSH2 0xC3E JUMP JUMPDEST PUSH2 0xC5D JUMP JUMPDEST PUSH2 0xC3E JUMP JUMPDEST SWAP1 POP SWAP2 SWAP1 POP JUMP JUMPDEST PUSH0 PUSH2 0xC91 DUP3 PUSH2 0xC66 JUMP JUMPDEST SWAP1 POP SWAP2 SWAP1 POP JUMP JUMPDEST PUSH0 PUSH2 0xCA2 DUP3 PUSH2 0xC87 JUMP JUMPDEST SWAP1 POP SWAP2 SWAP1 POP JUMP JUMPDEST PUSH2 0xCB2 DUP2 PUSH2 0xC98 JUMP JUMPDEST DUP3 MSTORE POP POP JUMP JUMPDEST PUSH0 PUSH1 0x20 DUP3 ADD SWAP1 POP PUSH2 0xCCB PUSH0 DUP4 ADD DUP5 PUSH2 0xCA9 JUMP JUMPDEST SWAP3 SWAP2 POP POP JUMP JUMPDEST PUSH0 DUP1 REVERT JUMPDEST PUSH0 PUSH2 0xCDF DUP3 PUSH2 0xC3E JUMP JUMPDEST SWAP1 POP SWAP2 SWAP1 POP JUMP JUMPDEST PUSH2 0xCEF DUP2 PUSH2 0xCD5 JUMP JUMPDEST DUP2 EQ PUSH2 0xCF9 JUMPI PUSH0 DUP1 REVERT JUMPDEST POP JUMP JUMPDEST PUSH0 DUP2 CALLDATALOAD SWAP1 POP PUSH2 0xD0A DUP2 PUSH2 0xCE6 JUMP JUMPDEST SWAP3 SWAP2 POP POP JUMP JUMPDEST PUSH0 PUSH1 0x20 DUP3 DUP5 SUB SLT ISZERO PUSH2 0xD25 JUMPI PUSH2 0xD24 PUSH2 0xCD1 JUMP JUMPDEST JUMPDEST PUSH0 PUSH2 0xD32 DUP5 DUP3 DUP6 ADD PUSH2 0xCFC JUMP JUMPDEST SWAP2 POP POP SWAP3 SWAP2 POP POP JUMP JUMPDEST PUSH0 PUSH2 0xD45 DUP3 PUSH2 0xC87 JUMP JUMPDEST SWAP1 POP SWAP2 SWAP1 POP JUMP JUMPDEST PUSH2 0xD55 DUP2 PUSH2 0xD3B JUMP JUMPDEST DUP3 MSTORE POP POP JUMP JUMPDEST PUSH0 PUSH1 0x20 DUP3 ADD SWAP1 POP PUSH2 0xD6E PUSH0 DUP4 ADD DUP5 PUSH2 0xD4C JUMP JUMPDEST SWAP3 SWAP2 POP POP JUMP JUMPDEST PUSH0 DUP2 SWAP1 POP SWAP2 SWAP1 POP JUMP JUMPDEST PUSH2 0xD86 DUP2 PUSH2 0xD74 JUMP JUMPDEST DUP3 MSTORE POP POP JUMP JUMPDEST PUSH0 PUSH1 0x20 DUP3 ADD SWAP1 POP PUSH2 0xD9F PUSH0 DUP4 ADD DUP5 PUSH2 0xD7D JUMP JUMPDEST SWAP3 SWAP2 POP POP JUMP JUMPDEST PUSH2 0xDAE DUP2 PUSH2 0xCD5 JUMP JUMPDEST DUP3 MSTORE POP POP JUMP JUMPDEST PUSH0 PUSH1 0x20 DUP3 ADD SWAP1 POP PUSH2 0xDC7 PUSH0 DUP4 ADD DUP5 PUSH2 0xDA5 JUMP JUMPDEST SWAP3 SWAP2 POP POP JUMP JUMPDEST PUSH0 DUP2 ISZERO ISZERO SWAP1 POP SWAP2 SWAP1 POP JUMP JUMPDEST PUSH2 0xDE1 DUP2 PUSH2 0xDCD JUMP JUMPDEST DUP3 MSTORE POP POP JUMP JUMPDEST PUSH0 PUSH1 0x20 DUP3 ADD SWAP1 POP PUSH2 0xDFA PUSH0 DUP4 ADD DUP5 PUSH2 0xDD8 JUMP JUMPDEST SWAP3 SWAP2 POP POP JUMP JUMPDEST PUSH2 0xE09 DUP2 PUSH2 0xD74 JUMP JUMPDEST DUP2 EQ PUSH2 0xE13 JUMPI PUSH0 DUP1 REVERT JUMPDEST POP JUMP JUMPDEST PUSH0 DUP2 CALLDATALOAD SWAP1 POP PUSH2 0xE24 DUP2 PUSH2 0xE00 JUMP JUMPDEST SWAP3 SWAP2 POP POP JUMP JUMPDEST PUSH0 PUSH1 0x20 DUP3 DUP5 SUB SLT ISZERO PUSH2 0xE3F JUMPI PUSH2 0xE3E PUSH2 0xCD1 JUMP JUMPDEST JUMPDEST PUSH0 PUSH2 0xE4C DUP5 DUP3 DUP6 ADD PUSH2 0xE16 JUMP JUMPDEST SWAP2 POP POP SWAP3 SWAP2 POP POP JUMP JUMPDEST PUSH0 DUP3 DUP3 MSTORE PUSH1 0x20 DUP3 ADD SWAP1 POP SWAP3 SWAP2 POP POP JUMP JUMPDEST PUSH32 0x46756E6374696F6E2061636365737369626C65206F6E6C792062792074686520 PUSH0 DUP3 ADD MSTORE PUSH32 0x6F776E6572202121000000000000000000000000000000000000000000000000 PUSH1 0x20 DUP3 ADD MSTORE POP JUMP JUMPDEST PUSH0 PUSH2 0xEBF PUSH1 0x28 DUP4 PUSH2 0xE55 JUMP JUMPDEST SWAP2 POP PUSH2 0xECA DUP3 PUSH2 0xE65 JUMP JUMPDEST PUSH1 0x40 DUP3 ADD SWAP1 POP SWAP2 SWAP1 POP JUMP JUMPDEST PUSH0 PUSH1 0x20 DUP3 ADD SWAP1 POP DUP2 DUP2 SUB PUSH0 DUP4 ADD MSTORE PUSH2 0xEEC DUP2 PUSH2 0xEB3 JUMP JUMPDEST SWAP1 POP SWAP2 SWAP1 POP JUMP JUMPDEST PUSH0 DUP2 MLOAD SWAP1 POP PUSH2 0xF01 DUP2 PUSH2 0xE00 JUMP JUMPDEST SWAP3 SWAP2 POP POP JUMP JUMPDEST PUSH0 PUSH1 0x20 DUP3 DUP5 SUB SLT ISZERO PUSH2 0xF1C JUMPI PUSH2 0xF1B PUSH2 0xCD1 JUMP JUMPDEST JUMPDEST PUSH0 PUSH2 0xF29 DUP5 DUP3 DUP6 ADD PUSH2 0xEF3 JUMP JUMPDEST SWAP2 POP POP SWAP3 SWAP2 POP POP JUMP JUMPDEST PUSH0 PUSH1 0x40 DUP3 ADD SWAP1 POP PUSH2 0xF45 PUSH0 DUP4 ADD DUP6 PUSH2 0xDA5 JUMP JUMPDEST PUSH2 0xF52 PUSH1 0x20 DUP4 ADD DUP5 PUSH2 0xD7D JUMP JUMPDEST SWAP4 SWAP3 POP POP POP JUMP JUMPDEST PUSH2 0xF62 DUP2 PUSH2 0xDCD JUMP JUMPDEST DUP2 EQ PUSH2 0xF6C JUMPI PUSH0 DUP1 REVERT JUMPDEST POP JUMP JUMPDEST PUSH0 DUP2 MLOAD SWAP1 POP PUSH2 0xF7D DUP2 PUSH2 0xF59 JUMP JUMPDEST SWAP3 SWAP2 POP POP JUMP JUMPDEST PUSH0 PUSH1 0x20 DUP3 DUP5 SUB SLT ISZERO PUSH2 0xF98 JUMPI PUSH2 0xF97 PUSH2 0xCD1 JUMP JUMPDEST JUMPDEST PUSH0 PUSH2 0xFA5 DUP5 DUP3 DUP6 ADD PUSH2 0xF6F JUMP JUMPDEST SWAP2 POP POP SWAP3 SWAP2 POP POP JUMP JUMPDEST PUSH32 0x5472616E73666572206661696C65640000000000000000000000000000000000 PUSH0 DUP3 ADD MSTORE POP JUMP JUMPDEST PUSH0 PUSH2 0xFE2 PUSH1 0xF DUP4 PUSH2 0xE55 JUMP JUMPDEST SWAP2 POP PUSH2 0xFED DUP3 PUSH2 0xFAE JUMP JUMPDEST PUSH1 0x20 DUP3 ADD SWAP1 POP SWAP2 SWAP1 POP JUMP JUMPDEST PUSH0 PUSH1 0x20 DUP3 ADD SWAP1 POP DUP2 DUP2 SUB PUSH0 DUP4 ADD MSTORE PUSH2 0x100F DUP2 PUSH2 0xFD6 JUMP JUMPDEST SWAP1 POP SWAP2 SWAP1 POP JUMP JUMPDEST PUSH32 0x496E73756666696369656E7420746F6B656E7300000000000000000000000000 PUSH0 DUP3 ADD MSTORE POP JUMP JUMPDEST PUSH0 PUSH2 0x104A PUSH1 0x13 DUP4 PUSH2 0xE55 JUMP JUMPDEST SWAP2 POP PUSH2 0x1055 DUP3 PUSH2 0x1016 JUMP JUMPDEST PUSH1 0x20 DUP3 ADD SWAP1 POP SWAP2 SWAP1 POP JUMP JUMPDEST PUSH0 PUSH1 0x20 DUP3 ADD SWAP1 POP DUP2 DUP2 SUB PUSH0 DUP4 ADD MSTORE PUSH2 0x1077 DUP2 PUSH2 0x103E JUMP JUMPDEST SWAP1 POP SWAP2 SWAP1 POP JUMP JUMPDEST PUSH0 PUSH1 0x60 DUP3 ADD SWAP1 POP PUSH2 0x1091 PUSH0 DUP4 ADD DUP7 PUSH2 0xDA5 JUMP JUMPDEST PUSH2 0x109E PUSH1 0x20 DUP4 ADD DUP6 PUSH2 0xDA5 JUMP JUMPDEST PUSH2 0x10AB PUSH1 0x40 DUP4 ADD DUP5 PUSH2 0xD7D JUMP JUMPDEST SWAP5 SWAP4 POP POP POP POP JUMP JUMPDEST PUSH0 DUP2 MLOAD SWAP1 POP SWAP2 SWAP1 POP JUMP JUMPDEST PUSH0 DUP2 SWAP1 POP SWAP3 SWAP2 POP POP JUMP JUMPDEST DUP3 DUP2 DUP4 MCOPY PUSH0 DUP4 DUP4 ADD MSTORE POP POP POP JUMP JUMPDEST PUSH0 PUSH2 0x10DF DUP3 PUSH2 0x10B3 JUMP JUMPDEST PUSH2 0x10E9 DUP2 DUP6 PUSH2 0x10BD JUMP JUMPDEST SWAP4 POP PUSH2 0x10F9 DUP2 DUP6 PUSH1 0x20 DUP7 ADD PUSH2 0x10C7 JUMP JUMPDEST DUP1 DUP5 ADD SWAP2 POP POP SWAP3 SWAP2 POP POP JUMP JUMPDEST PUSH32 0x204D6F6E6B657920230000000000000000000000000000000000000000000000 PUSH0 DUP3 ADD MSTORE POP JUMP JUMPDEST PUSH0 PUSH2 0x1139 PUSH1 0x9 DUP4 PUSH2 0x10BD JUMP JUMPDEST SWAP2 POP PUSH2 0x1144 DUP3 PUSH2 0x1105 JUMP JUMPDEST PUSH1 0x9 DUP3 ADD SWAP1 POP SWAP2 SWAP1 POP JUMP JUMPDEST PUSH0 PUSH2 0x115A DUP3 DUP6 PUSH2 0x10D5 JUMP JUMPDEST SWAP2 POP PUSH2 0x1165 DUP3 PUSH2 0x112D JUMP JUMPDEST SWAP2 POP PUSH2 0x1171 DUP3 DUP5 PUSH2 0x10D5 JUMP JUMPDEST SWAP2 POP DUP2 SWAP1 POP SWAP4 SWAP3 POP POP POP JUMP JUMPDEST PUSH0 PUSH1 0x1F NOT PUSH1 0x1F DUP4 ADD AND SWAP1 POP SWAP2 SWAP1 POP JUMP JUMPDEST PUSH0 PUSH2 0x1197 DUP3 PUSH2 0x10B3 JUMP JUMPDEST PUSH2 0x11A1 DUP2 DUP6 PUSH2 0xE55 JUMP JUMPDEST SWAP4 POP PUSH2 0x11B1 DUP2 DUP6 PUSH1 0x20 DUP7 ADD PUSH2 0x10C7 JUMP JUMPDEST PUSH2 0x11BA DUP2 PUSH2 0x117D JUMP JUMPDEST DUP5 ADD SWAP2 POP POP SWAP3 SWAP2 POP POP JUMP JUMPDEST PUSH0 PUSH1 0xFF DUP3 AND SWAP1 POP SWAP2 SWAP1 POP JUMP JUMPDEST PUSH2 0x11DA DUP2 PUSH2 0x11C5 JUMP JUMPDEST DUP3 MSTORE POP POP JUMP JUMPDEST PUSH0 PUSH1 0xC0 DUP3 ADD SWAP1 POP PUSH2 0x11F3 PUSH0 DUP4 ADD DUP10 PUSH2 0xDA5 JUMP JUMPDEST DUP2 DUP2 SUB PUSH1 0x20 DUP4 ADD MSTORE PUSH2 0x1205 DUP2 DUP9 PUSH2 0x118D JUMP JUMPDEST SWAP1 POP PUSH2 0x1214 PUSH1 0x40 DUP4 ADD DUP8 PUSH2 0x11D1 JUMP JUMPDEST PUSH2 0x1221 PUSH1 0x60 DUP4 ADD DUP7 PUSH2 0x11D1 JUMP JUMPDEST PUSH2 0x122E PUSH1 0x80 DUP4 ADD DUP6 PUSH2 0xD7D JUMP JUMPDEST PUSH2 0x123B PUSH1 0xA0 DUP4 ADD DUP5 PUSH2 0xD7D JUMP JUMPDEST SWAP8 SWAP7 POP POP POP POP POP POP POP JUMP JUMPDEST PUSH0 PUSH1 0x20 DUP3 ADD SWAP1 POP PUSH2 0x1259 PUSH0 DUP4 ADD DUP5 PUSH2 0x11D1 JUMP JUMPDEST SWAP3 SWAP2 POP POP JUMP JUMPDEST PUSH32 0x4E487B7100000000000000000000000000000000000000000000000000000000 PUSH0 MSTORE PUSH1 0x11 PUSH1 0x4 MSTORE PUSH1 0x24 PUSH0 REVERT JUMPDEST PUSH0 PUSH2 0x1296 DUP3 PUSH2 0xD74 JUMP JUMPDEST SWAP2 POP PUSH32 0xFFFFFFFFFFFFFFFFFFFFFFFFFFFFFFFFFFFFFFFFFFFFFFFFFFFFFFFFFFFFFFFF DUP3 SUB PUSH2 0x12C8 JUMPI PUSH2 0x12C7 PUSH2 0x125F JUMP JUMPDEST JUMPDEST PUSH1 0x1 DUP3 ADD SWAP1 POP SWAP2 SWAP1 POP JUMP JUMPDEST PUSH0 PUSH2 0xFFFF DUP3 AND SWAP1 POP SWAP2 SWAP1 POP JUMP JUMPDEST PUSH0 PUSH2 0x12EA DUP3 PUSH2 0x12D3 JUMP JUMPDEST SWAP2 POP PUSH2 0x12F5 DUP4 PUSH2 0x12D3 JUMP JUMPDEST SWAP3 POP DUP3 DUP3 ADD SWAP1 POP PUSH2 0xFFFF DUP2 GT ISZERO PUSH2 0x130F JUMPI PUSH2 0x130E PUSH2 0x125F JUMP JUMPDEST JUMPDEST SWAP3 SWAP2 POP POP JUMP JUMPDEST PUSH0 PUSH2 0x131F DUP3 PUSH2 0xD74 JUMP JUMPDEST SWAP2 POP PUSH2 0x132A DUP4 PUSH2 0xD74 JUMP JUMPDEST SWAP3 POP DUP3 DUP3 ADD SWAP1 POP DUP1 DUP3 GT ISZERO PUSH2 0x1342 JUMPI PUSH2 0x1341 PUSH2 0x125F JUMP JUMPDEST JUMPDEST SWAP3 SWAP2 POP POP JUMP JUMPDEST PUSH32 0x4E487B7100000000000000000000000000000000000000000000000000000000 PUSH0 MSTORE PUSH1 0x41 PUSH1 0x4 MSTORE PUSH1 0x24 PUSH0 REVERT JUMPDEST PUSH32 0x4E487B7100000000000000000000000000000000000000000000000000000000 PUSH0 MSTORE PUSH1 0x32 PUSH1 0x4 MSTORE PUSH1 0x24 PUSH0 REVERT JUMPDEST PUSH0 PUSH2 0x13AC DUP3 PUSH2 0xD74 JUMP JUMPDEST SWAP2 POP PUSH2 0x13B7 DUP4 PUSH2 0xD74 JUMP JUMPDEST SWAP3 POP DUP3 DUP3 MUL PUSH2 0x13C5 DUP2 PUSH2 0xD74 JUMP JUMPDEST SWAP2 POP DUP3 DUP3 DIV DUP5 EQ DUP4 ISZERO OR PUSH2 0x13DC JUMPI PUSH2 0x13DB PUSH2 0x125F JUMP JUMPDEST JUMPDEST POP SWAP3 SWAP2 POP POP JUMP JUMPDEST PUSH32 0x4E487B7100000000000000000000000000000000000000000000000000000000 PUSH0 MSTORE PUSH1 0x12 PUSH1 0x4 MSTORE PUSH1 0x24 PUSH0 REVERT JUMPDEST PUSH0 PUSH2 0x141A DUP3 PUSH2 0xD74 JUMP JUMPDEST SWAP2 POP PUSH2 0x1425 DUP4 PUSH2 0xD74 JUMP JUMPDEST SWAP3 POP DUP3 PUSH2 0x1435 JUMPI PUSH2 0x1434 PUSH2 0x13E3 JUMP JUMPDEST JUMPDEST DUP3 DUP3 DIV SWAP1 POP SWAP3 SWAP2 POP POP JUMP JUMPDEST PUSH0 PUSH2 0x144A DUP3 PUSH2 0xD74 JUMP JUMPDEST SWAP2 POP PUSH2 0x1455 DUP4 PUSH2 0xD74 JUMP JUMPDEST SWAP3 POP DUP3 DUP3 SUB SWAP1 POP DUP2 DUP2 GT ISZERO PUSH2 0x146D JUMPI PUSH2 0x146C PUSH2 0x125F JUMP JUMPDEST JUMPDEST SWAP3 SWAP2 POP POP JUMP JUMPDEST PUSH0 PUSH2 0x147D DUP3 PUSH2 0xD74 JUMP JUMPDEST SWAP2 POP PUSH2 0x1488 DUP4 PUSH2 0xD74 JUMP JUMPDEST SWAP3 POP DUP3 PUSH2 0x1498 JUMPI PUSH2 0x1497 PUSH2 0x13E3 JUMP JUMPDEST JUMPDEST DUP3 DUP3 MOD SWAP1 POP SWAP3 SWAP2 POP POP JUMP JUMPDEST PUSH0 DUP2 SWAP1 POP SWAP2 SWAP1 POP JUMP JUMPDEST PUSH2 0x14BD PUSH2 0x14B8 DUP3 PUSH2 0xD74 JUMP JUMPDEST PUSH2 0x14A3 JUMP JUMPDEST DUP3 MSTORE POP POP JUMP JUMPDEST PUSH0 DUP2 PUSH1 0x60 SHL SWAP1 POP SWAP2 SWAP1 POP JUMP JUMPDEST PUSH0 PUSH2 0x14D9 DUP3 PUSH2 0x14C3 JUMP JUMPDEST SWAP1 POP SWAP2 SWAP1 POP JUMP JUMPDEST PUSH0 PUSH2 0x14EA DUP3 PUSH2 0x14CF JUMP JUMPDEST SWAP1 POP SWAP2 SWAP1 POP JUMP JUMPDEST PUSH2 0x1502 PUSH2 0x14FD DUP3 PUSH2 0xCD5 JUMP JUMPDEST PUSH2 0x14E0 JUMP JUMPDEST DUP3 MSTORE POP POP JUMP JUMPDEST PUSH0 PUSH2 0x1513 DUP3 DUP8 PUSH2 0x14AC JUMP JUMPDEST PUSH1 0x20 DUP3 ADD SWAP2 POP PUSH2 0x1523 DUP3 DUP7 PUSH2 0x14AC JUMP JUMPDEST PUSH1 0x20 DUP3 ADD SWAP2 POP PUSH2 0x1533 DUP3 DUP6 PUSH2 0x14F1 JUMP JUMPDEST PUSH1 0x14 DUP3 ADD SWAP2 POP PUSH2 0x1543 DUP3 DUP5 PUSH2 0x14AC JUMP JUMPDEST PUSH1 0x20 DUP3 ADD SWAP2 POP DUP2 SWAP1 POP SWAP6 SWAP5 POP POP POP POP POP JUMP INVALID LOG2 PUSH5 0x6970667358 0x22 SLT KECCAK256 0xBD COINBASE CREATE2 ADD PUSH13 0xC2EDFA78A5238ADFCFDC94D9F3 0xAE DUP14 GASPRICE LOG2 0xDF PUSH10 0x781E61BE58A65C536473 PUSH16 0x6C634300081A00330000000000000000 "
				},
				"gasEstimates": {
					"creation": {
						"codeDepositCost": "1103000",
						"executionCost": "infinite",
						"totalCost": "infinite"
					},
					"external": {
						"drawMonkey()": "infinite",
						"drawPrice()": "2492",
						"isOwner()": "2512",
						"monkeysContract()": "infinite",
						"owner()": "2515",
						"paymentToken()": "infinite",
						"setDrawPrice(uint256)": "infinite",
						"withdrawTokens(address)": "infinite"
					},
					"internal": {
						"_generatePowerType()": "infinite",
						"_generateRarity()": "infinite",
						"_generateStat(uint8)": "infinite",
						"_getRarityString(uint8)": "infinite",
						"_random(uint256)": "infinite",
						"toString(uint256)": "infinite"
					}
				},
				"methodIdentifiers": {
					"drawMonkey()": "face1779",
					"drawPrice()": "83d0ddec",
					"isOwner()": "8f32d59b",
					"monkeysContract()": "5db1211a",
					"owner()": "8da5cb5b",
					"paymentToken()": "3013ce29",
					"setDrawPrice(uint256)": "f1cd170e",
					"withdrawTokens(address)": "49df728c"
				}
			},
			"storageLayout": {
				"storage": [
					{
						"astId": 543,
						"contract": "contracts/Gacha.sol:MonkeyGacha",
						"label": "_owner",
						"offset": 0,
						"slot": "0",
						"type": "t_address"
					},
					{
						"astId": 34,
						"contract": "contracts/Gacha.sol:MonkeyGacha",
						"label": "drawPrice",
						"offset": 0,
						"slot": "1",
						"type": "t_uint256"
					},
					{
						"astId": 37,
						"contract": "contracts/Gacha.sol:MonkeyGacha",
						"label": "paymentToken",
						"offset": 0,
						"slot": "2",
						"type": "t_contract(IERC20)539"
					},
					{
						"astId": 40,
						"contract": "contracts/Gacha.sol:MonkeyGacha",
						"label": "monkeysContract",
						"offset": 0,
						"slot": "3",
						"type": "t_contract(IMonkeys)21"
					},
					{
						"astId": 42,
						"contract": "contracts/Gacha.sol:MonkeyGacha",
						"label": "nonce",
						"offset": 0,
						"slot": "4",
						"type": "t_uint256"
					}
				],
				"types": {
					"t_address": {
						"encoding": "inplace",
						"label": "address",
						"numberOfBytes": "20"
					},
					"t_contract(IERC20)539": {
						"encoding": "inplace",
						"label": "contract IERC20",
						"numberOfBytes": "20"
					},
					"t_contract(IMonkeys)21": {
						"encoding": "inplace",
						"label": "contract IMonkeys",
						"numberOfBytes": "20"
					},
					"t_uint256": {
						"encoding": "inplace",
						"label": "uint256",
						"numberOfBytes": "32"
					}
				}
			},
			"userdoc": {
				"kind": "user",
				"methods": {},
				"version": 1
			}
		}
	}
}