{
	"contracts/PlayerDetails.sol": {
		"PlayerDetails": {
			"abi": [
				{
					"inputs": [],
					"payable": false,
					"stateMutability": "nonpayable",
					"type": "constructor"
				},
				{
					"constant": false,
					"inputs": [
						{
							"internalType": "uint256",
							"name": "_exp",
							"type": "uint256"
						}
					],
					"name": "addExperience",
					"outputs": [],
					"payable": false,
					"stateMutability": "nonpayable",
					"type": "function"
				},
				{
					"constant": true,
					"inputs": [],
					"name": "exp",
					"outputs": [
						{
							"internalType": "uint256",
							"name": "",
							"type": "uint256"
						}
					],
					"payable": false,
					"stateMutability": "view",
					"type": "function"
				},
				{
					"constant": true,
					"inputs": [],
					"name": "level",
					"outputs": [
						{
							"internalType": "uint256",
							"name": "",
							"type": "uint256"
						}
					],
					"payable": false,
					"stateMutability": "view",
					"type": "function"
				},
				{
					"constant": true,
					"inputs": [],
					"name": "maxLevel",
					"outputs": [
						{
							"internalType": "uint256",
							"name": "",
							"type": "uint256"
						}
					],
					"payable": false,
					"stateMutability": "view",
					"type": "function"
				},
				{
					"constant": true,
					"inputs": [],
					"name": "requiredExpForNextLevel",
					"outputs": [
						{
							"internalType": "uint256",
							"name": "",
							"type": "uint256"
						}
					],
					"payable": false,
					"stateMutability": "view",
					"type": "function"
				}
			],
			"devdoc": {
				"details": "Stores player's level and experience",
				"methods": {
					"addExperience(uint256)": {
						"details": "Increases the player's experience by a given amount",
						"params": {
							"_exp": "The amount of experience to add"
						}
					},
					"requiredExpForNextLevel()": {
						"details": "Returns the experience required for the next level",
						"return": "The required experience for next level"
					}
				},
				"title": "Player Details"
			},
			"evm": {
				"assembly": "    /* \"contracts/PlayerDetails.sol\":103:1213  contract PlayerDetails {... */\n  mstore(0x40, 0x80)\n    /* \"contracts/PlayerDetails.sol\":362:454  constructor() public {... */\n  callvalue\n    /* \"--CODEGEN--\":8:17   */\n  dup1\n    /* \"--CODEGEN--\":5:7   */\n  iszero\n  tag_1\n  jumpi\n    /* \"--CODEGEN--\":30:31   */\n  0x00\n    /* \"--CODEGEN--\":27:28   */\n  dup1\n    /* \"--CODEGEN--\":20:32   */\n  revert\n    /* \"--CODEGEN--\":5:7   */\ntag_1:\n    /* \"contracts/PlayerDetails.sol\":362:454  constructor() public {... */\n  pop\n    /* \"contracts/PlayerDetails.sol\":401:411  msg.sender */\n  caller\n    /* \"contracts/PlayerDetails.sol\":393:398  owner */\n  0x00\n  dup1\n    /* \"contracts/PlayerDetails.sol\":393:411  owner = msg.sender */\n  0x0100\n  exp\n  dup2\n  sload\n  dup2\n  0xffffffffffffffffffffffffffffffffffffffff\n  mul\n  not\n  and\n  swap1\n  dup4\n  0xffffffffffffffffffffffffffffffffffffffff\n  and\n  mul\n  or\n  swap1\n  sstore\n  pop\n    /* \"contracts/PlayerDetails.sol\":429:430  1 */\n  0x01\n    /* \"contracts/PlayerDetails.sol\":421:426  level */\n  dup1\n    /* \"contracts/PlayerDetails.sol\":421:430  level = 1 */\n  dup2\n  swap1\n  sstore\n  pop\n    /* \"contracts/PlayerDetails.sol\":446:447  0 */\n  0x00\n    /* \"contracts/PlayerDetails.sol\":440:443  exp */\n  0x02\n    /* \"contracts/PlayerDetails.sol\":440:447  exp = 0 */\n  dup2\n  swap1\n  sstore\n  pop\n    /* \"contracts/PlayerDetails.sol\":103:1213  contract PlayerDetails {... */\n  dataSize(sub_0)\n  dup1\n  dataOffset(sub_0)\n  0x00\n  codecopy\n  0x00\n  return\nstop\n\nsub_0: assembly {\n        /* \"contracts/PlayerDetails.sol\":103:1213  contract PlayerDetails {... */\n      mstore(0x40, 0x80)\n      callvalue\n        /* \"--CODEGEN--\":8:17   */\n      dup1\n        /* \"--CODEGEN--\":5:7   */\n      iszero\n      tag_1\n      jumpi\n        /* \"--CODEGEN--\":30:31   */\n      0x00\n        /* \"--CODEGEN--\":27:28   */\n      dup1\n        /* \"--CODEGEN--\":20:32   */\n      revert\n        /* \"--CODEGEN--\":5:7   */\n    tag_1:\n        /* \"contracts/PlayerDetails.sol\":103:1213  contract PlayerDetails {... */\n      pop\n      jumpi(tag_2, lt(calldatasize, 0x04))\n      shr(0xe0, calldataload(0x00))\n      dup1\n      0x04a6f9e0\n      eq\n      tag_3\n      jumpi\n      dup1\n      0x6fd5ae15\n      eq\n      tag_4\n      jumpi\n      dup1\n      0xab60ffda\n      eq\n      tag_5\n      jumpi\n      dup1\n      0xc37c3555\n      eq\n      tag_6\n      jumpi\n      dup1\n      0xcc06c359\n      eq\n      tag_7\n      jumpi\n    tag_2:\n      0x00\n      dup1\n      revert\n        /* \"contracts/PlayerDetails.sol\":1114:1211  function requiredExpForNextLevel() public view returns (uint) {... */\n    tag_3:\n      tag_8\n      tag_9\n      jump\t// in\n    tag_8:\n      mload(0x40)\n      dup1\n      dup3\n      dup2\n      mstore\n      0x20\n      add\n      swap2\n      pop\n      pop\n      mload(0x40)\n      dup1\n      swap2\n      sub\n      swap1\n      return\n        /* \"contracts/PlayerDetails.sol\":151:168  uint public level */\n    tag_4:\n      tag_10\n      tag_11\n      jump\t// in\n    tag_10:\n      mload(0x40)\n      dup1\n      dup3\n      dup2\n      mstore\n      0x20\n      add\n      swap2\n      pop\n      pop\n      mload(0x40)\n      dup1\n      swap2\n      sub\n      swap1\n      return\n        /* \"contracts/PlayerDetails.sol\":174:189  uint public exp */\n    tag_5:\n      tag_12\n      tag_13\n      jump\t// in\n    tag_12:\n      mload(0x40)\n      dup1\n      dup3\n      dup2\n      mstore\n      0x20\n      add\n      swap2\n      pop\n      pop\n      mload(0x40)\n      dup1\n      swap2\n      sub\n      swap1\n      return\n        /* \"contracts/PlayerDetails.sol\":591:694  function addExperience(uint _exp) public onlyOwner {... */\n    tag_6:\n      tag_14\n      0x04\n      dup1\n      calldatasize\n      sub\n        /* \"--CODEGEN--\":13:15   */\n      0x20\n        /* \"--CODEGEN--\":8:11   */\n      dup2\n        /* \"--CODEGEN--\":5:16   */\n      lt\n        /* \"--CODEGEN--\":2:4   */\n      iszero\n      tag_15\n      jumpi\n        /* \"--CODEGEN--\":29:30   */\n      0x00\n        /* \"--CODEGEN--\":26:27   */\n      dup1\n        /* \"--CODEGEN--\":19:31   */\n      revert\n        /* \"--CODEGEN--\":2:4   */\n    tag_15:\n        /* \"contracts/PlayerDetails.sol\":591:694  function addExperience(uint _exp) public onlyOwner {... */\n      dup2\n      add\n      swap1\n      dup1\n      dup1\n      calldataload\n      swap1\n      0x20\n      add\n      swap1\n      swap3\n      swap2\n      swap1\n      pop\n      pop\n      pop\n      tag_16\n      jump\t// in\n    tag_14:\n      stop\n        /* \"contracts/PlayerDetails.sol\":195:230  uint public constant maxLevel = 100 */\n    tag_7:\n      tag_17\n      tag_18\n      jump\t// in\n    tag_17:\n      mload(0x40)\n      dup1\n      dup3\n      dup2\n      mstore\n      0x20\n      add\n      swap2\n      pop\n      pop\n      mload(0x40)\n      dup1\n      swap2\n      sub\n      swap1\n      return\n        /* \"contracts/PlayerDetails.sol\":1114:1211  function requiredExpForNextLevel() public view returns (uint) {... */\n    tag_9:\n        /* \"contracts/PlayerDetails.sol\":1170:1174  uint */\n      0x00\n        /* \"contracts/PlayerDetails.sol\":1201:1204  100 */\n      0x64\n        /* \"contracts/PlayerDetails.sol\":1193:1198  level */\n      sload(0x01)\n        /* \"contracts/PlayerDetails.sol\":1193:1204  level * 100 */\n      mul\n        /* \"contracts/PlayerDetails.sol\":1186:1204  return level * 100 */\n      swap1\n      pop\n        /* \"contracts/PlayerDetails.sol\":1114:1211  function requiredExpForNextLevel() public view returns (uint) {... */\n      swap1\n      jump\t// out\n        /* \"contracts/PlayerDetails.sol\":151:168  uint public level */\n    tag_11:\n      sload(0x01)\n      dup2\n      jump\t// out\n        /* \"contracts/PlayerDetails.sol\":174:189  uint public exp */\n    tag_13:\n      sload(0x02)\n      dup2\n      jump\t// out\n        /* \"contracts/PlayerDetails.sol\":591:694  function addExperience(uint _exp) public onlyOwner {... */\n    tag_16:\n        /* \"contracts/PlayerDetails.sol\":290:295  owner */\n      0x00\n      dup1\n      swap1\n      sload\n      swap1\n      0x0100\n      exp\n      swap1\n      div\n      0xffffffffffffffffffffffffffffffffffffffff\n      and\n        /* \"contracts/PlayerDetails.sol\":276:295  msg.sender == owner */\n      0xffffffffffffffffffffffffffffffffffffffff\n      and\n        /* \"contracts/PlayerDetails.sol\":276:286  msg.sender */\n      caller\n        /* \"contracts/PlayerDetails.sol\":276:295  msg.sender == owner */\n      0xffffffffffffffffffffffffffffffffffffffff\n      and\n      eq\n        /* \"contracts/PlayerDetails.sol\":268:338  require(msg.sender == owner, \"Only the owner can perform this action\") */\n      tag_21\n      jumpi\n      mload(0x40)\n      0x08c379a000000000000000000000000000000000000000000000000000000000\n      dup2\n      mstore\n      0x04\n      add\n      dup1\n      dup1\n      0x20\n      add\n      dup3\n      dup2\n      sub\n      dup3\n      mstore\n      0x26\n      dup2\n      mstore\n      0x20\n      add\n      dup1\n      data_2a1cb988fffa75dab1f18f6e33d352b421b15b8203fb8b7f8559967fd8de80e5\n      0x26\n      swap2\n      codecopy\n      0x40\n      add\n      swap2\n      pop\n      pop\n      mload(0x40)\n      dup1\n      swap2\n      sub\n      swap1\n      revert\n    tag_21:\n        /* \"contracts/PlayerDetails.sol\":659:663  _exp */\n      dup1\n        /* \"contracts/PlayerDetails.sol\":652:655  exp */\n      0x02\n      0x00\n        /* \"contracts/PlayerDetails.sol\":652:663  exp += _exp */\n      dup3\n      dup3\n      sload\n      add\n      swap3\n      pop\n      pop\n      dup2\n      swap1\n      sstore\n      pop\n        /* \"contracts/PlayerDetails.sol\":673:687  _updateLevel() */\n      tag_23\n        /* \"contracts/PlayerDetails.sol\":673:685  _updateLevel */\n      tag_24\n        /* \"contracts/PlayerDetails.sol\":673:687  _updateLevel() */\n      jump\t// in\n    tag_23:\n        /* \"contracts/PlayerDetails.sol\":591:694  function addExperience(uint _exp) public onlyOwner {... */\n      pop\n      jump\t// out\n        /* \"contracts/PlayerDetails.sol\":195:230  uint public constant maxLevel = 100 */\n    tag_18:\n        /* \"contracts/PlayerDetails.sol\":227:230  100 */\n      0x64\n        /* \"contracts/PlayerDetails.sol\":195:230  uint public constant maxLevel = 100 */\n      dup2\n      jump\t// out\n        /* \"contracts/PlayerDetails.sol\":787:975  function _updateLevel() internal {... */\n    tag_24:\n        /* \"contracts/PlayerDetails.sol\":830:969  while (exp >= requiredExpForNextLevel() && level < maxLevel) {... */\n    tag_26:\n        /* \"contracts/PlayerDetails.sol\":844:869  requiredExpForNextLevel() */\n      tag_28\n        /* \"contracts/PlayerDetails.sol\":844:867  requiredExpForNextLevel */\n      tag_9\n        /* \"contracts/PlayerDetails.sol\":844:869  requiredExpForNextLevel() */\n      jump\t// in\n    tag_28:\n        /* \"contracts/PlayerDetails.sol\":837:840  exp */\n      sload(0x02)\n        /* \"contracts/PlayerDetails.sol\":837:869  exp >= requiredExpForNextLevel() */\n      lt\n      iszero\n        /* \"contracts/PlayerDetails.sol\":837:889  exp >= requiredExpForNextLevel() && level < maxLevel */\n      dup1\n      iszero\n      tag_29\n      jumpi\n      pop\n        /* \"contracts/PlayerDetails.sol\":227:230  100 */\n      0x64\n        /* \"contracts/PlayerDetails.sol\":873:878  level */\n      sload(0x01)\n        /* \"contracts/PlayerDetails.sol\":873:889  level < maxLevel */\n      lt\n        /* \"contracts/PlayerDetails.sol\":837:889  exp >= requiredExpForNextLevel() && level < maxLevel */\n    tag_29:\n        /* \"contracts/PlayerDetails.sol\":830:969  while (exp >= requiredExpForNextLevel() && level < maxLevel) {... */\n      iszero\n      tag_27\n      jumpi\n        /* \"contracts/PlayerDetails.sol\":912:937  requiredExpForNextLevel() */\n      tag_30\n        /* \"contracts/PlayerDetails.sol\":912:935  requiredExpForNextLevel */\n      tag_9\n        /* \"contracts/PlayerDetails.sol\":912:937  requiredExpForNextLevel() */\n      jump\t// in\n    tag_30:\n        /* \"contracts/PlayerDetails.sol\":905:908  exp */\n      0x02\n      0x00\n        /* \"contracts/PlayerDetails.sol\":905:937  exp -= requiredExpForNextLevel() */\n      dup3\n      dup3\n      sload\n      sub\n      swap3\n      pop\n      pop\n      dup2\n      swap1\n      sstore\n      pop\n        /* \"contracts/PlayerDetails.sol\":951:956  level */\n      0x01\n      0x00\n        /* \"contracts/PlayerDetails.sol\":951:958  level++ */\n      dup2\n      sload\n      dup1\n      swap3\n      swap2\n      swap1\n      0x01\n      add\n      swap2\n      swap1\n      pop\n      sstore\n      pop\n        /* \"contracts/PlayerDetails.sol\":830:969  while (exp >= requiredExpForNextLevel() && level < maxLevel) {... */\n      jump(tag_26)\n    tag_27:\n        /* \"contracts/PlayerDetails.sol\":787:975  function _updateLevel() internal {... */\n      jump\t// out\n    stop\n    data_2a1cb988fffa75dab1f18f6e33d352b421b15b8203fb8b7f8559967fd8de80e5 4f6e6c7920746865206f776e65722063616e20706572666f726d207468697320616374696f6e\n\n    auxdata: 0xa265627a7a72315820823bdc3ca5410ae98b73132fdaf0a02e2e740613b31fbcd94f27f733f4a43cfa64736f6c63430005110032\n}\n",
				"bytecode": {
					"linkReferences": {},
					"object": "608060405234801561001057600080fd5b50336000806101000a81548173ffffffffffffffffffffffffffffffffffffffff021916908373ffffffffffffffffffffffffffffffffffffffff16021790555060018081905550600060028190555061028c8061006f6000396000f3fe608060405234801561001057600080fd5b50600436106100575760003560e01c806304a6f9e01461005c5780636fd5ae151461007a578063ab60ffda14610098578063c37c3555146100b6578063cc06c359146100e4575b600080fd5b610064610102565b6040518082815260200191505060405180910390f35b61008261010f565b6040518082815260200191505060405180910390f35b6100a0610115565b6040518082815260200191505060405180910390f35b6100e2600480360360208110156100cc57600080fd5b810190808035906020019092919050505061011b565b005b6100ec6101db565b6040518082815260200191505060405180910390f35b6000606460015402905090565b60015481565b60025481565b6000809054906101000a900473ffffffffffffffffffffffffffffffffffffffff1673ffffffffffffffffffffffffffffffffffffffff163373ffffffffffffffffffffffffffffffffffffffff16146101c0576040517f08c379a00000000000000000000000000000000000000000000000000000000081526004018080602001828103825260268152602001806102326026913960400191505060405180910390fd5b806002600082825401925050819055506101d86101e0565b50565b606481565b5b6101e9610102565b600254101580156101fc57506064600154105b1561022f57610209610102565b6002600082825403925050819055506001600081548092919060010191905055506101e1565b56fe4f6e6c7920746865206f776e65722063616e20706572666f726d207468697320616374696f6ea265627a7a72315820823bdc3ca5410ae98b73132fdaf0a02e2e740613b31fbcd94f27f733f4a43cfa64736f6c63430005110032",
					"opcodes": "PUSH1 0x80 PUSH1 0x40 MSTORE CALLVALUE DUP1 ISZERO PUSH2 0x10 JUMPI PUSH1 0x0 DUP1 REVERT JUMPDEST POP CALLER PUSH1 0x0 DUP1 PUSH2 0x100 EXP DUP2 SLOAD DUP2 PUSH20 0xFFFFFFFFFFFFFFFFFFFFFFFFFFFFFFFFFFFFFFFF MUL NOT AND SWAP1 DUP4 PUSH20 0xFFFFFFFFFFFFFFFFFFFFFFFFFFFFFFFFFFFFFFFF AND MUL OR SWAP1 SSTORE POP PUSH1 0x1 DUP1 DUP2 SWAP1 SSTORE POP PUSH1 0x0 PUSH1 0x2 DUP2 SWAP1 SSTORE POP PUSH2 0x28C DUP1 PUSH2 0x6F PUSH1 0x0 CODECOPY PUSH1 0x0 RETURN INVALID PUSH1 0x80 PUSH1 0x40 MSTORE CALLVALUE DUP1 ISZERO PUSH2 0x10 JUMPI PUSH1 0x0 DUP1 REVERT JUMPDEST POP PUSH1 0x4 CALLDATASIZE LT PUSH2 0x57 JUMPI PUSH1 0x0 CALLDATALOAD PUSH1 0xE0 SHR DUP1 PUSH4 0x4A6F9E0 EQ PUSH2 0x5C JUMPI DUP1 PUSH4 0x6FD5AE15 EQ PUSH2 0x7A JUMPI DUP1 PUSH4 0xAB60FFDA EQ PUSH2 0x98 JUMPI DUP1 PUSH4 0xC37C3555 EQ PUSH2 0xB6 JUMPI DUP1 PUSH4 0xCC06C359 EQ PUSH2 0xE4 JUMPI JUMPDEST PUSH1 0x0 DUP1 REVERT JUMPDEST PUSH2 0x64 PUSH2 0x102 JUMP JUMPDEST PUSH1 0x40 MLOAD DUP1 DUP3 DUP2 MSTORE PUSH1 0x20 ADD SWAP2 POP POP PUSH1 0x40 MLOAD DUP1 SWAP2 SUB SWAP1 RETURN JUMPDEST PUSH2 0x82 PUSH2 0x10F JUMP JUMPDEST PUSH1 0x40 MLOAD DUP1 DUP3 DUP2 MSTORE PUSH1 0x20 ADD SWAP2 POP POP PUSH1 0x40 MLOAD DUP1 SWAP2 SUB SWAP1 RETURN JUMPDEST PUSH2 0xA0 PUSH2 0x115 JUMP JUMPDEST PUSH1 0x40 MLOAD DUP1 DUP3 DUP2 MSTORE PUSH1 0x20 ADD SWAP2 POP POP PUSH1 0x40 MLOAD DUP1 SWAP2 SUB SWAP1 RETURN JUMPDEST PUSH2 0xE2 PUSH1 0x4 DUP1 CALLDATASIZE SUB PUSH1 0x20 DUP2 LT ISZERO PUSH2 0xCC JUMPI PUSH1 0x0 DUP1 REVERT JUMPDEST DUP2 ADD SWAP1 DUP1 DUP1 CALLDATALOAD SWAP1 PUSH1 0x20 ADD SWAP1 SWAP3 SWAP2 SWAP1 POP POP POP PUSH2 0x11B JUMP JUMPDEST STOP JUMPDEST PUSH2 0xEC PUSH2 0x1DB JUMP JUMPDEST PUSH1 0x40 MLOAD DUP1 DUP3 DUP2 MSTORE PUSH1 0x20 ADD SWAP2 POP POP PUSH1 0x40 MLOAD DUP1 SWAP2 SUB SWAP1 RETURN JUMPDEST PUSH1 0x0 PUSH1 0x64 PUSH1 0x1 SLOAD MUL SWAP1 POP SWAP1 JUMP JUMPDEST PUSH1 0x1 SLOAD DUP2 JUMP JUMPDEST PUSH1 0x2 SLOAD DUP2 JUMP JUMPDEST PUSH1 0x0 DUP1 SWAP1 SLOAD SWAP1 PUSH2 0x100 EXP SWAP1 DIV PUSH20 0xFFFFFFFFFFFFFFFFFFFFFFFFFFFFFFFFFFFFFFFF AND PUSH20 0xFFFFFFFFFFFFFFFFFFFFFFFFFFFFFFFFFFFFFFFF AND CALLER PUSH20 0xFFFFFFFFFFFFFFFFFFFFFFFFFFFFFFFFFFFFFFFF AND EQ PUSH2 0x1C0 JUMPI PUSH1 0x40 MLOAD PUSH32 0x8C379A000000000000000000000000000000000000000000000000000000000 DUP2 MSTORE PUSH1 0x4 ADD DUP1 DUP1 PUSH1 0x20 ADD DUP3 DUP2 SUB DUP3 MSTORE PUSH1 0x26 DUP2 MSTORE PUSH1 0x20 ADD DUP1 PUSH2 0x232 PUSH1 0x26 SWAP2 CODECOPY PUSH1 0x40 ADD SWAP2 POP POP PUSH1 0x40 MLOAD DUP1 SWAP2 SUB SWAP1 REVERT JUMPDEST DUP1 PUSH1 0x2 PUSH1 0x0 DUP3 DUP3 SLOAD ADD SWAP3 POP POP DUP2 SWAP1 SSTORE POP PUSH2 0x1D8 PUSH2 0x1E0 JUMP JUMPDEST POP JUMP JUMPDEST PUSH1 0x64 DUP2 JUMP JUMPDEST JUMPDEST PUSH2 0x1E9 PUSH2 0x102 JUMP JUMPDEST PUSH1 0x2 SLOAD LT ISZERO DUP1 ISZERO PUSH2 0x1FC JUMPI POP PUSH1 0x64 PUSH1 0x1 SLOAD LT JUMPDEST ISZERO PUSH2 0x22F JUMPI PUSH2 0x209 PUSH2 0x102 JUMP JUMPDEST PUSH1 0x2 PUSH1 0x0 DUP3 DUP3 SLOAD SUB SWAP3 POP POP DUP2 SWAP1 SSTORE POP PUSH1 0x1 PUSH1 0x0 DUP2 SLOAD DUP1 SWAP3 SWAP2 SWAP1 PUSH1 0x1 ADD SWAP2 SWAP1 POP SSTORE POP PUSH2 0x1E1 JUMP JUMPDEST JUMP INVALID 0x4F PUSH15 0x6C7920746865206F776E6572206361 PUSH15 0x20706572666F726D20746869732061 PUSH4 0x74696F6E LOG2 PUSH6 0x627A7A723158 KECCAK256 DUP3 EXTCODESIZE 0xDC EXTCODECOPY 0xA5 COINBASE EXP 0xE9 DUP12 PUSH20 0x132FDAF0A02E2E740613B31FBCD94F27F733F4A4 EXTCODECOPY STATICCALL PUSH5 0x736F6C6343 STOP SDIV GT STOP ORIGIN "
				},
				"gasEstimates": {
					"creation": {
						"codeDepositCost": "130400",
						"executionCost": "46071",
						"totalCost": "176471"
					},
					"external": {
						"addExperience(uint256)": "infinite",
						"exp()": "1027",
						"level()": "1005",
						"maxLevel()": "271",
						"requiredExpForNextLevel()": "999"
					},
					"internal": {
						"_updateLevel()": "infinite"
					}
				},
				"methodIdentifiers": {
					"addExperience(uint256)": "c37c3555",
					"exp()": "ab60ffda",
					"level()": "6fd5ae15",
					"maxLevel()": "cc06c359",
					"requiredExpForNextLevel()": "04a6f9e0"
				}
			},
			"storageLayout": {
				"storage": [
					{
						"astId": 3,
						"contract": "contracts/PlayerDetails.sol:PlayerDetails",
						"label": "owner",
						"offset": 0,
						"slot": "0",
						"type": "t_address"
					},
					{
						"astId": 5,
						"contract": "contracts/PlayerDetails.sol:PlayerDetails",
						"label": "level",
						"offset": 0,
						"slot": "1",
						"type": "t_uint256"
					},
					{
						"astId": 7,
						"contract": "contracts/PlayerDetails.sol:PlayerDetails",
						"label": "exp",
						"offset": 0,
						"slot": "2",
						"type": "t_uint256"
					}
				],
				"types": {
					"t_address": {
						"encoding": "inplace",
						"label": "address",
						"numberOfBytes": "20"
					},
					"t_uint256": {
						"encoding": "inplace",
						"label": "uint256",
						"numberOfBytes": "32"
					}
				}
			},
			"userdoc": {
				"methods": {}
			}
		}
	}
}