{
	"contracts/PlayerDetails.sol": {
		"PlayerDetails": {
			"abi": [
				{
					"inputs": [],
					"stateMutability": "nonpayable",
					"type": "constructor"
				},
				{
					"inputs": [
						{
							"internalType": "uint256",
							"name": "_exp",
							"type": "uint256"
						}
					],
					"name": "addExperience",
					"outputs": [],
					"stateMutability": "nonpayable",
					"type": "function"
				},
				{
					"inputs": [],
					"name": "exp",
					"outputs": [
						{
							"internalType": "uint256",
							"name": "",
							"type": "uint256"
						}
					],
					"stateMutability": "view",
					"type": "function"
				},
				{
					"inputs": [],
					"name": "level",
					"outputs": [
						{
							"internalType": "uint256",
							"name": "",
							"type": "uint256"
						}
					],
					"stateMutability": "view",
					"type": "function"
				},
				{
					"inputs": [],
					"name": "maxLevel",
					"outputs": [
						{
							"internalType": "uint256",
							"name": "",
							"type": "uint256"
						}
					],
					"stateMutability": "view",
					"type": "function"
				},
				{
					"inputs": [],
					"name": "requiredExpForNextLevel",
					"outputs": [
						{
							"internalType": "uint256",
							"name": "",
							"type": "uint256"
						}
					],
					"stateMutability": "view",
					"type": "function"
				}
			],
			"devdoc": {
				"details": "Stores player's level and experience",
				"kind": "dev",
				"methods": {
					"addExperience(uint256)": {
						"details": "Increases the player's experience by a given amount",
						"params": {
							"_exp": "The amount of experience to add"
						}
					},
					"requiredExpForNextLevel()": {
						"details": "Returns the experience required for the next level",
						"returns": {
							"_0": "The required experience for next level"
						}
					}
				},
				"title": "Player Details",
				"version": 1
			},
			"evm": {
				"assembly": "    /* \"contracts/PlayerDetails.sol\":143:1289  contract PlayerDetails {... */\n  mstore(0x40, 0x80)\n    /* \"contracts/PlayerDetails.sol\":413:502  constructor() {... */\n  callvalue\n  dup1\n  iszero\n  tag_1\n  jumpi\n  0x00\n  dup1\n  revert\ntag_1:\n  pop\n    /* \"contracts/PlayerDetails.sol\":446:456  msg.sender */\n  caller\n    /* \"contracts/PlayerDetails.sol\":438:443  owner */\n  0x00\n  dup1\n    /* \"contracts/PlayerDetails.sol\":438:456  owner = msg.sender */\n  0x0100\n  exp\n  dup2\n  sload\n  dup2\n  0xffffffffffffffffffffffffffffffffffffffff\n  mul\n  not\n  and\n  swap1\n  dup4\n  0xffffffffffffffffffffffffffffffffffffffff\n  and\n  mul\n  or\n  swap1\n  sstore\n  pop\n    /* \"contracts/PlayerDetails.sol\":475:476  1 */\n  0x01\n    /* \"contracts/PlayerDetails.sol\":467:472  level */\n  dup1\n    /* \"contracts/PlayerDetails.sol\":467:476  level = 1 */\n  dup2\n  swap1\n  sstore\n  pop\n    /* \"contracts/PlayerDetails.sol\":493:494  0 */\n  0x00\n    /* \"contracts/PlayerDetails.sol\":487:490  exp */\n  0x02\n    /* \"contracts/PlayerDetails.sol\":487:494  exp = 0 */\n  dup2\n  swap1\n  sstore\n  pop\n    /* \"contracts/PlayerDetails.sol\":143:1289  contract PlayerDetails {... */\n  dataSize(sub_0)\n  dup1\n  dataOffset(sub_0)\n  0x00\n  codecopy\n  0x00\n  return\nstop\n\nsub_0: assembly {\n        /* \"contracts/PlayerDetails.sol\":143:1289  contract PlayerDetails {... */\n      mstore(0x40, 0x80)\n      callvalue\n      dup1\n      iszero\n      tag_1\n      jumpi\n      0x00\n      dup1\n      revert\n    tag_1:\n      pop\n      jumpi(tag_2, lt(calldatasize, 0x04))\n      shr(0xe0, calldataload(0x00))\n      dup1\n      0x04a6f9e0\n      eq\n      tag_3\n      jumpi\n      dup1\n      0x6fd5ae15\n      eq\n      tag_4\n      jumpi\n      dup1\n      0xab60ffda\n      eq\n      tag_5\n      jumpi\n      dup1\n      0xc37c3555\n      eq\n      tag_6\n      jumpi\n      dup1\n      0xcc06c359\n      eq\n      tag_7\n      jumpi\n    tag_2:\n      0x00\n      dup1\n      revert\n        /* \"contracts/PlayerDetails.sol\":1187:1286  function requiredExpForNextLevel() public view returns (uint) {... */\n    tag_3:\n      tag_8\n      tag_9\n      jump\t// in\n    tag_8:\n      mload(0x40)\n      tag_10\n      swap2\n      swap1\n      tag_11\n      jump\t// in\n    tag_10:\n      mload(0x40)\n      dup1\n      swap2\n      sub\n      swap1\n      return\n        /* \"contracts/PlayerDetails.sol\":193:210  uint public level */\n    tag_4:\n      tag_12\n      tag_13\n      jump\t// in\n    tag_12:\n      mload(0x40)\n      tag_14\n      swap2\n      swap1\n      tag_11\n      jump\t// in\n    tag_14:\n      mload(0x40)\n      dup1\n      swap2\n      sub\n      swap1\n      return\n        /* \"contracts/PlayerDetails.sol\":217:232  uint public exp */\n    tag_5:\n      tag_15\n      tag_16\n      jump\t// in\n    tag_15:\n      mload(0x40)\n      tag_17\n      swap2\n      swap1\n      tag_11\n      jump\t// in\n    tag_17:\n      mload(0x40)\n      dup1\n      swap2\n      sub\n      swap1\n      return\n        /* \"contracts/PlayerDetails.sol\":645:751  function addExperience(uint _exp) public onlyOwner {... */\n    tag_6:\n      tag_18\n      0x04\n      dup1\n      calldatasize\n      sub\n      dup2\n      add\n      swap1\n      tag_19\n      swap2\n      swap1\n      tag_20\n      jump\t// in\n    tag_19:\n      tag_21\n      jump\t// in\n    tag_18:\n      stop\n        /* \"contracts/PlayerDetails.sol\":239:274  uint public constant maxLevel = 100 */\n    tag_7:\n      tag_22\n      tag_23\n      jump\t// in\n    tag_22:\n      mload(0x40)\n      tag_24\n      swap2\n      swap1\n      tag_11\n      jump\t// in\n    tag_24:\n      mload(0x40)\n      dup1\n      swap2\n      sub\n      swap1\n      return\n        /* \"contracts/PlayerDetails.sol\":1187:1286  function requiredExpForNextLevel() public view returns (uint) {... */\n    tag_9:\n        /* \"contracts/PlayerDetails.sol\":1243:1247  uint */\n      0x00\n        /* \"contracts/PlayerDetails.sol\":1275:1278  100 */\n      0x64\n        /* \"contracts/PlayerDetails.sol\":1267:1272  level */\n      sload(0x01)\n        /* \"contracts/PlayerDetails.sol\":1267:1278  level * 100 */\n      tag_26\n      swap2\n      swap1\n      tag_27\n      jump\t// in\n    tag_26:\n        /* \"contracts/PlayerDetails.sol\":1260:1278  return level * 100 */\n      swap1\n      pop\n        /* \"contracts/PlayerDetails.sol\":1187:1286  function requiredExpForNextLevel() public view returns (uint) {... */\n      swap1\n      jump\t// out\n        /* \"contracts/PlayerDetails.sol\":193:210  uint public level */\n    tag_13:\n      sload(0x01)\n      dup2\n      jump\t// out\n        /* \"contracts/PlayerDetails.sol\":217:232  uint public exp */\n    tag_16:\n      sload(0x02)\n      dup2\n      jump\t// out\n        /* \"contracts/PlayerDetails.sol\":645:751  function addExperience(uint _exp) public onlyOwner {... */\n    tag_21:\n        /* \"contracts/PlayerDetails.sol\":337:342  owner */\n      0x00\n      dup1\n      sload\n      swap1\n      0x0100\n      exp\n      swap1\n      div\n      0xffffffffffffffffffffffffffffffffffffffff\n      and\n        /* \"contracts/PlayerDetails.sol\":323:342  msg.sender == owner */\n      0xffffffffffffffffffffffffffffffffffffffff\n      and\n        /* \"contracts/PlayerDetails.sol\":323:333  msg.sender */\n      caller\n        /* \"contracts/PlayerDetails.sol\":323:342  msg.sender == owner */\n      0xffffffffffffffffffffffffffffffffffffffff\n      and\n      eq\n        /* \"contracts/PlayerDetails.sol\":315:385  require(msg.sender == owner, \"Only the owner can perform this action\") */\n      tag_29\n      jumpi\n      mload(0x40)\n      0x08c379a000000000000000000000000000000000000000000000000000000000\n      dup2\n      mstore\n      0x04\n      add\n      tag_30\n      swap1\n      tag_31\n      jump\t// in\n    tag_30:\n      mload(0x40)\n      dup1\n      swap2\n      sub\n      swap1\n      revert\n    tag_29:\n        /* \"contracts/PlayerDetails.sol\":714:718  _exp */\n      dup1\n        /* \"contracts/PlayerDetails.sol\":707:710  exp */\n      0x02\n      0x00\n        /* \"contracts/PlayerDetails.sol\":707:718  exp += _exp */\n      dup3\n      dup3\n      sload\n      tag_33\n      swap2\n      swap1\n      tag_34\n      jump\t// in\n    tag_33:\n      swap3\n      pop\n      pop\n      dup2\n      swap1\n      sstore\n      pop\n        /* \"contracts/PlayerDetails.sol\":729:743  _updateLevel() */\n      tag_35\n        /* \"contracts/PlayerDetails.sol\":729:741  _updateLevel */\n      tag_36\n        /* \"contracts/PlayerDetails.sol\":729:743  _updateLevel() */\n      jump\t// in\n    tag_35:\n        /* \"contracts/PlayerDetails.sol\":645:751  function addExperience(uint _exp) public onlyOwner {... */\n      pop\n      jump\t// out\n        /* \"contracts/PlayerDetails.sol\":239:274  uint public constant maxLevel = 100 */\n    tag_23:\n        /* \"contracts/PlayerDetails.sol\":271:274  100 */\n      0x64\n        /* \"contracts/PlayerDetails.sol\":239:274  uint public constant maxLevel = 100 */\n      dup2\n      jump\t// out\n        /* \"contracts/PlayerDetails.sol\":849:1042  function _updateLevel() internal {... */\n    tag_36:\n        /* \"contracts/PlayerDetails.sol\":893:1035  while (exp >= requiredExpForNextLevel() && level < maxLevel) {... */\n    tag_38:\n        /* \"contracts/PlayerDetails.sol\":907:932  requiredExpForNextLevel() */\n      tag_40\n        /* \"contracts/PlayerDetails.sol\":907:930  requiredExpForNextLevel */\n      tag_9\n        /* \"contracts/PlayerDetails.sol\":907:932  requiredExpForNextLevel() */\n      jump\t// in\n    tag_40:\n        /* \"contracts/PlayerDetails.sol\":900:903  exp */\n      sload(0x02)\n        /* \"contracts/PlayerDetails.sol\":900:932  exp >= requiredExpForNextLevel() */\n      lt\n      iszero\n        /* \"contracts/PlayerDetails.sol\":900:952  exp >= requiredExpForNextLevel() && level < maxLevel */\n      dup1\n      iszero\n      tag_41\n      jumpi\n      pop\n        /* \"contracts/PlayerDetails.sol\":271:274  100 */\n      0x64\n        /* \"contracts/PlayerDetails.sol\":936:941  level */\n      sload(0x01)\n        /* \"contracts/PlayerDetails.sol\":936:952  level < maxLevel */\n      lt\n        /* \"contracts/PlayerDetails.sol\":900:952  exp >= requiredExpForNextLevel() && level < maxLevel */\n    tag_41:\n        /* \"contracts/PlayerDetails.sol\":893:1035  while (exp >= requiredExpForNextLevel() && level < maxLevel) {... */\n      iszero\n      tag_39\n      jumpi\n        /* \"contracts/PlayerDetails.sol\":976:1001  requiredExpForNextLevel() */\n      tag_42\n        /* \"contracts/PlayerDetails.sol\":976:999  requiredExpForNextLevel */\n      tag_9\n        /* \"contracts/PlayerDetails.sol\":976:1001  requiredExpForNextLevel() */\n      jump\t// in\n    tag_42:\n        /* \"contracts/PlayerDetails.sol\":969:972  exp */\n      0x02\n      0x00\n        /* \"contracts/PlayerDetails.sol\":969:1001  exp -= requiredExpForNextLevel() */\n      dup3\n      dup3\n      sload\n      tag_43\n      swap2\n      swap1\n      tag_44\n      jump\t// in\n    tag_43:\n      swap3\n      pop\n      pop\n      dup2\n      swap1\n      sstore\n      pop\n        /* \"contracts/PlayerDetails.sol\":1016:1021  level */\n      0x01\n      0x00\n        /* \"contracts/PlayerDetails.sol\":1016:1023  level++ */\n      dup2\n      sload\n      dup1\n      swap3\n      swap2\n      swap1\n      tag_45\n      swap1\n      tag_46\n      jump\t// in\n    tag_45:\n      swap2\n      swap1\n      pop\n      sstore\n      pop\n        /* \"contracts/PlayerDetails.sol\":893:1035  while (exp >= requiredExpForNextLevel() && level < maxLevel) {... */\n      jump(tag_38)\n    tag_39:\n        /* \"contracts/PlayerDetails.sol\":849:1042  function _updateLevel() internal {... */\n      jump\t// out\n        /* \"#utility.yul\":7:84   */\n    tag_47:\n        /* \"#utility.yul\":44:51   */\n      0x00\n        /* \"#utility.yul\":73:78   */\n      dup2\n        /* \"#utility.yul\":62:78   */\n      swap1\n      pop\n        /* \"#utility.yul\":7:84   */\n      swap2\n      swap1\n      pop\n      jump\t// out\n        /* \"#utility.yul\":90:208   */\n    tag_48:\n        /* \"#utility.yul\":177:201   */\n      tag_61\n        /* \"#utility.yul\":195:200   */\n      dup2\n        /* \"#utility.yul\":177:201   */\n      tag_47\n      jump\t// in\n    tag_61:\n        /* \"#utility.yul\":172:175   */\n      dup3\n        /* \"#utility.yul\":165:202   */\n      mstore\n        /* \"#utility.yul\":90:208   */\n      pop\n      pop\n      jump\t// out\n        /* \"#utility.yul\":214:436   */\n    tag_11:\n        /* \"#utility.yul\":307:311   */\n      0x00\n        /* \"#utility.yul\":345:347   */\n      0x20\n        /* \"#utility.yul\":334:343   */\n      dup3\n        /* \"#utility.yul\":330:348   */\n      add\n        /* \"#utility.yul\":322:348   */\n      swap1\n      pop\n        /* \"#utility.yul\":358:429   */\n      tag_63\n        /* \"#utility.yul\":426:427   */\n      0x00\n        /* \"#utility.yul\":415:424   */\n      dup4\n        /* \"#utility.yul\":411:428   */\n      add\n        /* \"#utility.yul\":402:408   */\n      dup5\n        /* \"#utility.yul\":358:429   */\n      tag_48\n      jump\t// in\n    tag_63:\n        /* \"#utility.yul\":214:436   */\n      swap3\n      swap2\n      pop\n      pop\n      jump\t// out\n        /* \"#utility.yul\":523:640   */\n    tag_50:\n        /* \"#utility.yul\":632:633   */\n      0x00\n        /* \"#utility.yul\":629:630   */\n      dup1\n        /* \"#utility.yul\":622:634   */\n      revert\n        /* \"#utility.yul\":769:891   */\n    tag_52:\n        /* \"#utility.yul\":842:866   */\n      tag_68\n        /* \"#utility.yul\":860:865   */\n      dup2\n        /* \"#utility.yul\":842:866   */\n      tag_47\n      jump\t// in\n    tag_68:\n        /* \"#utility.yul\":835:840   */\n      dup2\n        /* \"#utility.yul\":832:867   */\n      eq\n        /* \"#utility.yul\":822:885   */\n      tag_69\n      jumpi\n        /* \"#utility.yul\":881:882   */\n      0x00\n        /* \"#utility.yul\":878:879   */\n      dup1\n        /* \"#utility.yul\":871:883   */\n      revert\n        /* \"#utility.yul\":822:885   */\n    tag_69:\n        /* \"#utility.yul\":769:891   */\n      pop\n      jump\t// out\n        /* \"#utility.yul\":897:1036   */\n    tag_53:\n        /* \"#utility.yul\":943:948   */\n      0x00\n        /* \"#utility.yul\":981:987   */\n      dup2\n        /* \"#utility.yul\":968:988   */\n      calldataload\n        /* \"#utility.yul\":959:988   */\n      swap1\n      pop\n        /* \"#utility.yul\":997:1030   */\n      tag_71\n        /* \"#utility.yul\":1024:1029   */\n      dup2\n        /* \"#utility.yul\":997:1030   */\n      tag_52\n      jump\t// in\n    tag_71:\n        /* \"#utility.yul\":897:1036   */\n      swap3\n      swap2\n      pop\n      pop\n      jump\t// out\n        /* \"#utility.yul\":1042:1371   */\n    tag_20:\n        /* \"#utility.yul\":1101:1107   */\n      0x00\n        /* \"#utility.yul\":1150:1152   */\n      0x20\n        /* \"#utility.yul\":1138:1147   */\n      dup3\n        /* \"#utility.yul\":1129:1136   */\n      dup5\n        /* \"#utility.yul\":1125:1148   */\n      sub\n        /* \"#utility.yul\":1121:1153   */\n      slt\n        /* \"#utility.yul\":1118:1237   */\n      iszero\n      tag_73\n      jumpi\n        /* \"#utility.yul\":1156:1235   */\n      tag_74\n      tag_50\n      jump\t// in\n    tag_74:\n        /* \"#utility.yul\":1118:1237   */\n    tag_73:\n        /* \"#utility.yul\":1276:1277   */\n      0x00\n        /* \"#utility.yul\":1301:1354   */\n      tag_75\n        /* \"#utility.yul\":1346:1353   */\n      dup5\n        /* \"#utility.yul\":1337:1343   */\n      dup3\n        /* \"#utility.yul\":1326:1335   */\n      dup6\n        /* \"#utility.yul\":1322:1344   */\n      add\n        /* \"#utility.yul\":1301:1354   */\n      tag_53\n      jump\t// in\n    tag_75:\n        /* \"#utility.yul\":1291:1354   */\n      swap2\n      pop\n        /* \"#utility.yul\":1247:1364   */\n      pop\n        /* \"#utility.yul\":1042:1371   */\n      swap3\n      swap2\n      pop\n      pop\n      jump\t// out\n        /* \"#utility.yul\":1377:1557   */\n    tag_54:\n        /* \"#utility.yul\":1425:1502   */\n      0x4e487b7100000000000000000000000000000000000000000000000000000000\n        /* \"#utility.yul\":1422:1423   */\n      0x00\n        /* \"#utility.yul\":1415:1503   */\n      mstore\n        /* \"#utility.yul\":1522:1526   */\n      0x11\n        /* \"#utility.yul\":1519:1520   */\n      0x04\n        /* \"#utility.yul\":1512:1527   */\n      mstore\n        /* \"#utility.yul\":1546:1550   */\n      0x24\n        /* \"#utility.yul\":1543:1544   */\n      0x00\n        /* \"#utility.yul\":1536:1551   */\n      revert\n        /* \"#utility.yul\":1563:1973   */\n    tag_27:\n        /* \"#utility.yul\":1603:1610   */\n      0x00\n        /* \"#utility.yul\":1626:1646   */\n      tag_78\n        /* \"#utility.yul\":1644:1645   */\n      dup3\n        /* \"#utility.yul\":1626:1646   */\n      tag_47\n      jump\t// in\n    tag_78:\n        /* \"#utility.yul\":1621:1646   */\n      swap2\n      pop\n        /* \"#utility.yul\":1660:1680   */\n      tag_79\n        /* \"#utility.yul\":1678:1679   */\n      dup4\n        /* \"#utility.yul\":1660:1680   */\n      tag_47\n      jump\t// in\n    tag_79:\n        /* \"#utility.yul\":1655:1680   */\n      swap3\n      pop\n        /* \"#utility.yul\":1715:1716   */\n      dup3\n        /* \"#utility.yul\":1712:1713   */\n      dup3\n        /* \"#utility.yul\":1708:1717   */\n      mul\n        /* \"#utility.yul\":1737:1767   */\n      tag_80\n        /* \"#utility.yul\":1755:1766   */\n      dup2\n        /* \"#utility.yul\":1737:1767   */\n      tag_47\n      jump\t// in\n    tag_80:\n        /* \"#utility.yul\":1726:1767   */\n      swap2\n      pop\n        /* \"#utility.yul\":1916:1917   */\n      dup3\n        /* \"#utility.yul\":1907:1914   */\n      dup3\n        /* \"#utility.yul\":1903:1918   */\n      div\n        /* \"#utility.yul\":1900:1901   */\n      dup5\n        /* \"#utility.yul\":1897:1919   */\n      eq\n        /* \"#utility.yul\":1877:1878   */\n      dup4\n        /* \"#utility.yul\":1870:1879   */\n      iszero\n        /* \"#utility.yul\":1850:1933   */\n      or\n        /* \"#utility.yul\":1827:1966   */\n      tag_81\n      jumpi\n        /* \"#utility.yul\":1946:1964   */\n      tag_82\n      tag_54\n      jump\t// in\n    tag_82:\n        /* \"#utility.yul\":1827:1966   */\n    tag_81:\n        /* \"#utility.yul\":1611:1973   */\n      pop\n        /* \"#utility.yul\":1563:1973   */\n      swap3\n      swap2\n      pop\n      pop\n      jump\t// out\n        /* \"#utility.yul\":1979:2148   */\n    tag_55:\n        /* \"#utility.yul\":2063:2074   */\n      0x00\n        /* \"#utility.yul\":2097:2103   */\n      dup3\n        /* \"#utility.yul\":2092:2095   */\n      dup3\n        /* \"#utility.yul\":2085:2104   */\n      mstore\n        /* \"#utility.yul\":2137:2141   */\n      0x20\n        /* \"#utility.yul\":2132:2135   */\n      dup3\n        /* \"#utility.yul\":2128:2142   */\n      add\n        /* \"#utility.yul\":2113:2142   */\n      swap1\n      pop\n        /* \"#utility.yul\":1979:2148   */\n      swap3\n      swap2\n      pop\n      pop\n      jump\t// out\n        /* \"#utility.yul\":2154:2379   */\n    tag_56:\n        /* \"#utility.yul\":2294:2328   */\n      0x4f6e6c7920746865206f776e65722063616e20706572666f726d207468697320\n        /* \"#utility.yul\":2290:2291   */\n      0x00\n        /* \"#utility.yul\":2282:2288   */\n      dup3\n        /* \"#utility.yul\":2278:2292   */\n      add\n        /* \"#utility.yul\":2271:2329   */\n      mstore\n        /* \"#utility.yul\":2363:2371   */\n      0x616374696f6e0000000000000000000000000000000000000000000000000000\n        /* \"#utility.yul\":2358:2360   */\n      0x20\n        /* \"#utility.yul\":2350:2356   */\n      dup3\n        /* \"#utility.yul\":2346:2361   */\n      add\n        /* \"#utility.yul\":2339:2372   */\n      mstore\n        /* \"#utility.yul\":2154:2379   */\n      pop\n      jump\t// out\n        /* \"#utility.yul\":2385:2751   */\n    tag_57:\n        /* \"#utility.yul\":2527:2530   */\n      0x00\n        /* \"#utility.yul\":2548:2615   */\n      tag_86\n        /* \"#utility.yul\":2612:2614   */\n      0x26\n        /* \"#utility.yul\":2607:2610   */\n      dup4\n        /* \"#utility.yul\":2548:2615   */\n      tag_55\n      jump\t// in\n    tag_86:\n        /* \"#utility.yul\":2541:2615   */\n      swap2\n      pop\n        /* \"#utility.yul\":2624:2717   */\n      tag_87\n        /* \"#utility.yul\":2713:2716   */\n      dup3\n        /* \"#utility.yul\":2624:2717   */\n      tag_56\n      jump\t// in\n    tag_87:\n        /* \"#utility.yul\":2742:2744   */\n      0x40\n        /* \"#utility.yul\":2737:2740   */\n      dup3\n        /* \"#utility.yul\":2733:2745   */\n      add\n        /* \"#utility.yul\":2726:2745   */\n      swap1\n      pop\n        /* \"#utility.yul\":2385:2751   */\n      swap2\n      swap1\n      pop\n      jump\t// out\n        /* \"#utility.yul\":2757:3176   */\n    tag_31:\n        /* \"#utility.yul\":2923:2927   */\n      0x00\n        /* \"#utility.yul\":2961:2963   */\n      0x20\n        /* \"#utility.yul\":2950:2959   */\n      dup3\n        /* \"#utility.yul\":2946:2964   */\n      add\n        /* \"#utility.yul\":2938:2964   */\n      swap1\n      pop\n        /* \"#utility.yul\":3010:3019   */\n      dup2\n        /* \"#utility.yul\":3004:3008   */\n      dup2\n        /* \"#utility.yul\":3000:3020   */\n      sub\n        /* \"#utility.yul\":2996:2997   */\n      0x00\n        /* \"#utility.yul\":2985:2994   */\n      dup4\n        /* \"#utility.yul\":2981:2998   */\n      add\n        /* \"#utility.yul\":2974:3021   */\n      mstore\n        /* \"#utility.yul\":3038:3169   */\n      tag_89\n        /* \"#utility.yul\":3164:3168   */\n      dup2\n        /* \"#utility.yul\":3038:3169   */\n      tag_57\n      jump\t// in\n    tag_89:\n        /* \"#utility.yul\":3030:3169   */\n      swap1\n      pop\n        /* \"#utility.yul\":2757:3176   */\n      swap2\n      swap1\n      pop\n      jump\t// out\n        /* \"#utility.yul\":3182:3373   */\n    tag_34:\n        /* \"#utility.yul\":3222:3225   */\n      0x00\n        /* \"#utility.yul\":3241:3261   */\n      tag_91\n        /* \"#utility.yul\":3259:3260   */\n      dup3\n        /* \"#utility.yul\":3241:3261   */\n      tag_47\n      jump\t// in\n    tag_91:\n        /* \"#utility.yul\":3236:3261   */\n      swap2\n      pop\n        /* \"#utility.yul\":3275:3295   */\n      tag_92\n        /* \"#utility.yul\":3293:3294   */\n      dup4\n        /* \"#utility.yul\":3275:3295   */\n      tag_47\n      jump\t// in\n    tag_92:\n        /* \"#utility.yul\":3270:3295   */\n      swap3\n      pop\n        /* \"#utility.yul\":3318:3319   */\n      dup3\n        /* \"#utility.yul\":3315:3316   */\n      dup3\n        /* \"#utility.yul\":3311:3320   */\n      add\n        /* \"#utility.yul\":3304:3320   */\n      swap1\n      pop\n        /* \"#utility.yul\":3339:3342   */\n      dup1\n        /* \"#utility.yul\":3336:3337   */\n      dup3\n        /* \"#utility.yul\":3333:3343   */\n      gt\n        /* \"#utility.yul\":3330:3366   */\n      iszero\n      tag_93\n      jumpi\n        /* \"#utility.yul\":3346:3364   */\n      tag_94\n      tag_54\n      jump\t// in\n    tag_94:\n        /* \"#utility.yul\":3330:3366   */\n    tag_93:\n        /* \"#utility.yul\":3182:3373   */\n      swap3\n      swap2\n      pop\n      pop\n      jump\t// out\n        /* \"#utility.yul\":3379:3573   */\n    tag_44:\n        /* \"#utility.yul\":3419:3423   */\n      0x00\n        /* \"#utility.yul\":3439:3459   */\n      tag_96\n        /* \"#utility.yul\":3457:3458   */\n      dup3\n        /* \"#utility.yul\":3439:3459   */\n      tag_47\n      jump\t// in\n    tag_96:\n        /* \"#utility.yul\":3434:3459   */\n      swap2\n      pop\n        /* \"#utility.yul\":3473:3493   */\n      tag_97\n        /* \"#utility.yul\":3491:3492   */\n      dup4\n        /* \"#utility.yul\":3473:3493   */\n      tag_47\n      jump\t// in\n    tag_97:\n        /* \"#utility.yul\":3468:3493   */\n      swap3\n      pop\n        /* \"#utility.yul\":3517:3518   */\n      dup3\n        /* \"#utility.yul\":3514:3515   */\n      dup3\n        /* \"#utility.yul\":3510:3519   */\n      sub\n        /* \"#utility.yul\":3502:3519   */\n      swap1\n      pop\n        /* \"#utility.yul\":3541:3542   */\n      dup2\n        /* \"#utility.yul\":3535:3539   */\n      dup2\n        /* \"#utility.yul\":3532:3543   */\n      gt\n        /* \"#utility.yul\":3529:3566   */\n      iszero\n      tag_98\n      jumpi\n        /* \"#utility.yul\":3546:3564   */\n      tag_99\n      tag_54\n      jump\t// in\n    tag_99:\n        /* \"#utility.yul\":3529:3566   */\n    tag_98:\n        /* \"#utility.yul\":3379:3573   */\n      swap3\n      swap2\n      pop\n      pop\n      jump\t// out\n        /* \"#utility.yul\":3579:3812   */\n    tag_46:\n        /* \"#utility.yul\":3618:3621   */\n      0x00\n        /* \"#utility.yul\":3641:3665   */\n      tag_101\n        /* \"#utility.yul\":3659:3664   */\n      dup3\n        /* \"#utility.yul\":3641:3665   */\n      tag_47\n      jump\t// in\n    tag_101:\n        /* \"#utility.yul\":3632:3665   */\n      swap2\n      pop\n        /* \"#utility.yul\":3687:3753   */\n      0xffffffffffffffffffffffffffffffffffffffffffffffffffffffffffffffff\n        /* \"#utility.yul\":3680:3685   */\n      dup3\n        /* \"#utility.yul\":3677:3754   */\n      sub\n        /* \"#utility.yul\":3674:3777   */\n      tag_102\n      jumpi\n        /* \"#utility.yul\":3757:3775   */\n      tag_103\n      tag_54\n      jump\t// in\n    tag_103:\n        /* \"#utility.yul\":3674:3777   */\n    tag_102:\n        /* \"#utility.yul\":3804:3805   */\n      0x01\n        /* \"#utility.yul\":3797:3802   */\n      dup3\n        /* \"#utility.yul\":3793:3806   */\n      add\n        /* \"#utility.yul\":3786:3806   */\n      swap1\n      pop\n        /* \"#utility.yul\":3579:3812   */\n      swap2\n      swap1\n      pop\n      jump\t// out\n\n    auxdata: 0xa26469706673582212202d21b1299bfc82824d90615234f25f554db563265315549bd34db95b4b738f4264736f6c634300081a0033\n}\n",
				"bytecode": {
					"linkReferences": {},
					"object": "6080604052348015600e575f80fd5b50335f806101000a81548173ffffffffffffffffffffffffffffffffffffffff021916908373ffffffffffffffffffffffffffffffffffffffff160217905550600180819055505f60028190555061049a806100695f395ff3fe608060405234801561000f575f80fd5b5060043610610055575f3560e01c806304a6f9e0146100595780636fd5ae1514610077578063ab60ffda14610095578063c37c3555146100b3578063cc06c359146100cf575b5f80fd5b6100616100ed565b60405161006e9190610239565b60405180910390f35b61007f610102565b60405161008c9190610239565b60405180910390f35b61009d610108565b6040516100aa9190610239565b60405180910390f35b6100cd60048036038101906100c89190610280565b61010e565b005b6100d76101be565b6040516100e49190610239565b60405180910390f35b5f60646001546100fd91906102d8565b905090565b60015481565b60025481565b5f8054906101000a900473ffffffffffffffffffffffffffffffffffffffff1673ffffffffffffffffffffffffffffffffffffffff163373ffffffffffffffffffffffffffffffffffffffff161461019b576040517f08c379a000000000000000000000000000000000000000000000000000000000815260040161019290610399565b60405180910390fd5b8060025f8282546101ac91906103b7565b925050819055506101bb6101c3565b50565b606481565b5b6101cc6100ed565b600254101580156101df57506064600154105b1561021f576101ec6100ed565b60025f8282546101fc91906103ea565b9250508190555060015f8154809291906102159061041d565b91905055506101c4565b565b5f819050919050565b61023381610221565b82525050565b5f60208201905061024c5f83018461022a565b92915050565b5f80fd5b61025f81610221565b8114610269575f80fd5b50565b5f8135905061027a81610256565b92915050565b5f6020828403121561029557610294610252565b5b5f6102a28482850161026c565b91505092915050565b7f4e487b71000000000000000000000000000000000000000000000000000000005f52601160045260245ffd5b5f6102e282610221565b91506102ed83610221565b92508282026102fb81610221565b91508282048414831517610312576103116102ab565b5b5092915050565b5f82825260208201905092915050565b7f4f6e6c7920746865206f776e65722063616e20706572666f726d2074686973205f8201527f616374696f6e0000000000000000000000000000000000000000000000000000602082015250565b5f610383602683610319565b915061038e82610329565b604082019050919050565b5f6020820190508181035f8301526103b081610377565b9050919050565b5f6103c182610221565b91506103cc83610221565b92508282019050808211156103e4576103e36102ab565b5b92915050565b5f6103f482610221565b91506103ff83610221565b9250828203905081811115610417576104166102ab565b5b92915050565b5f61042782610221565b91507fffffffffffffffffffffffffffffffffffffffffffffffffffffffffffffffff8203610459576104586102ab565b5b60018201905091905056fea26469706673582212202d21b1299bfc82824d90615234f25f554db563265315549bd34db95b4b738f4264736f6c634300081a0033",
					"opcodes": "PUSH1 0x80 PUSH1 0x40 MSTORE CALLVALUE DUP1 ISZERO PUSH1 0xE JUMPI PUSH0 DUP1 REVERT JUMPDEST POP CALLER PUSH0 DUP1 PUSH2 0x100 EXP DUP2 SLOAD DUP2 PUSH20 0xFFFFFFFFFFFFFFFFFFFFFFFFFFFFFFFFFFFFFFFF MUL NOT AND SWAP1 DUP4 PUSH20 0xFFFFFFFFFFFFFFFFFFFFFFFFFFFFFFFFFFFFFFFF AND MUL OR SWAP1 SSTORE POP PUSH1 0x1 DUP1 DUP2 SWAP1 SSTORE POP PUSH0 PUSH1 0x2 DUP2 SWAP1 SSTORE POP PUSH2 0x49A DUP1 PUSH2 0x69 PUSH0 CODECOPY PUSH0 RETURN INVALID PUSH1 0x80 PUSH1 0x40 MSTORE CALLVALUE DUP1 ISZERO PUSH2 0xF JUMPI PUSH0 DUP1 REVERT JUMPDEST POP PUSH1 0x4 CALLDATASIZE LT PUSH2 0x55 JUMPI PUSH0 CALLDATALOAD PUSH1 0xE0 SHR DUP1 PUSH4 0x4A6F9E0 EQ PUSH2 0x59 JUMPI DUP1 PUSH4 0x6FD5AE15 EQ PUSH2 0x77 JUMPI DUP1 PUSH4 0xAB60FFDA EQ PUSH2 0x95 JUMPI DUP1 PUSH4 0xC37C3555 EQ PUSH2 0xB3 JUMPI DUP1 PUSH4 0xCC06C359 EQ PUSH2 0xCF JUMPI JUMPDEST PUSH0 DUP1 REVERT JUMPDEST PUSH2 0x61 PUSH2 0xED JUMP JUMPDEST PUSH1 0x40 MLOAD PUSH2 0x6E SWAP2 SWAP1 PUSH2 0x239 JUMP JUMPDEST PUSH1 0x40 MLOAD DUP1 SWAP2 SUB SWAP1 RETURN JUMPDEST PUSH2 0x7F PUSH2 0x102 JUMP JUMPDEST PUSH1 0x40 MLOAD PUSH2 0x8C SWAP2 SWAP1 PUSH2 0x239 JUMP JUMPDEST PUSH1 0x40 MLOAD DUP1 SWAP2 SUB SWAP1 RETURN JUMPDEST PUSH2 0x9D PUSH2 0x108 JUMP JUMPDEST PUSH1 0x40 MLOAD PUSH2 0xAA SWAP2 SWAP1 PUSH2 0x239 JUMP JUMPDEST PUSH1 0x40 MLOAD DUP1 SWAP2 SUB SWAP1 RETURN JUMPDEST PUSH2 0xCD PUSH1 0x4 DUP1 CALLDATASIZE SUB DUP2 ADD SWAP1 PUSH2 0xC8 SWAP2 SWAP1 PUSH2 0x280 JUMP JUMPDEST PUSH2 0x10E JUMP JUMPDEST STOP JUMPDEST PUSH2 0xD7 PUSH2 0x1BE JUMP JUMPDEST PUSH1 0x40 MLOAD PUSH2 0xE4 SWAP2 SWAP1 PUSH2 0x239 JUMP JUMPDEST PUSH1 0x40 MLOAD DUP1 SWAP2 SUB SWAP1 RETURN JUMPDEST PUSH0 PUSH1 0x64 PUSH1 0x1 SLOAD PUSH2 0xFD SWAP2 SWAP1 PUSH2 0x2D8 JUMP JUMPDEST SWAP1 POP SWAP1 JUMP JUMPDEST PUSH1 0x1 SLOAD DUP2 JUMP JUMPDEST PUSH1 0x2 SLOAD DUP2 JUMP JUMPDEST PUSH0 DUP1 SLOAD SWAP1 PUSH2 0x100 EXP SWAP1 DIV PUSH20 0xFFFFFFFFFFFFFFFFFFFFFFFFFFFFFFFFFFFFFFFF AND PUSH20 0xFFFFFFFFFFFFFFFFFFFFFFFFFFFFFFFFFFFFFFFF AND CALLER PUSH20 0xFFFFFFFFFFFFFFFFFFFFFFFFFFFFFFFFFFFFFFFF AND EQ PUSH2 0x19B JUMPI PUSH1 0x40 MLOAD PUSH32 0x8C379A000000000000000000000000000000000000000000000000000000000 DUP2 MSTORE PUSH1 0x4 ADD PUSH2 0x192 SWAP1 PUSH2 0x399 JUMP JUMPDEST PUSH1 0x40 MLOAD DUP1 SWAP2 SUB SWAP1 REVERT JUMPDEST DUP1 PUSH1 0x2 PUSH0 DUP3 DUP3 SLOAD PUSH2 0x1AC SWAP2 SWAP1 PUSH2 0x3B7 JUMP JUMPDEST SWAP3 POP POP DUP2 SWAP1 SSTORE POP PUSH2 0x1BB PUSH2 0x1C3 JUMP JUMPDEST POP JUMP JUMPDEST PUSH1 0x64 DUP2 JUMP JUMPDEST JUMPDEST PUSH2 0x1CC PUSH2 0xED JUMP JUMPDEST PUSH1 0x2 SLOAD LT ISZERO DUP1 ISZERO PUSH2 0x1DF JUMPI POP PUSH1 0x64 PUSH1 0x1 SLOAD LT JUMPDEST ISZERO PUSH2 0x21F JUMPI PUSH2 0x1EC PUSH2 0xED JUMP JUMPDEST PUSH1 0x2 PUSH0 DUP3 DUP3 SLOAD PUSH2 0x1FC SWAP2 SWAP1 PUSH2 0x3EA JUMP JUMPDEST SWAP3 POP POP DUP2 SWAP1 SSTORE POP PUSH1 0x1 PUSH0 DUP2 SLOAD DUP1 SWAP3 SWAP2 SWAP1 PUSH2 0x215 SWAP1 PUSH2 0x41D JUMP JUMPDEST SWAP2 SWAP1 POP SSTORE POP PUSH2 0x1C4 JUMP JUMPDEST JUMP JUMPDEST PUSH0 DUP2 SWAP1 POP SWAP2 SWAP1 POP JUMP JUMPDEST PUSH2 0x233 DUP2 PUSH2 0x221 JUMP JUMPDEST DUP3 MSTORE POP POP JUMP JUMPDEST PUSH0 PUSH1 0x20 DUP3 ADD SWAP1 POP PUSH2 0x24C PUSH0 DUP4 ADD DUP5 PUSH2 0x22A JUMP JUMPDEST SWAP3 SWAP2 POP POP JUMP JUMPDEST PUSH0 DUP1 REVERT JUMPDEST PUSH2 0x25F DUP2 PUSH2 0x221 JUMP JUMPDEST DUP2 EQ PUSH2 0x269 JUMPI PUSH0 DUP1 REVERT JUMPDEST POP JUMP JUMPDEST PUSH0 DUP2 CALLDATALOAD SWAP1 POP PUSH2 0x27A DUP2 PUSH2 0x256 JUMP JUMPDEST SWAP3 SWAP2 POP POP JUMP JUMPDEST PUSH0 PUSH1 0x20 DUP3 DUP5 SUB SLT ISZERO PUSH2 0x295 JUMPI PUSH2 0x294 PUSH2 0x252 JUMP JUMPDEST JUMPDEST PUSH0 PUSH2 0x2A2 DUP5 DUP3 DUP6 ADD PUSH2 0x26C JUMP JUMPDEST SWAP2 POP POP SWAP3 SWAP2 POP POP JUMP JUMPDEST PUSH32 0x4E487B7100000000000000000000000000000000000000000000000000000000 PUSH0 MSTORE PUSH1 0x11 PUSH1 0x4 MSTORE PUSH1 0x24 PUSH0 REVERT JUMPDEST PUSH0 PUSH2 0x2E2 DUP3 PUSH2 0x221 JUMP JUMPDEST SWAP2 POP PUSH2 0x2ED DUP4 PUSH2 0x221 JUMP JUMPDEST SWAP3 POP DUP3 DUP3 MUL PUSH2 0x2FB DUP2 PUSH2 0x221 JUMP JUMPDEST SWAP2 POP DUP3 DUP3 DIV DUP5 EQ DUP4 ISZERO OR PUSH2 0x312 JUMPI PUSH2 0x311 PUSH2 0x2AB JUMP JUMPDEST JUMPDEST POP SWAP3 SWAP2 POP POP JUMP JUMPDEST PUSH0 DUP3 DUP3 MSTORE PUSH1 0x20 DUP3 ADD SWAP1 POP SWAP3 SWAP2 POP POP JUMP JUMPDEST PUSH32 0x4F6E6C7920746865206F776E65722063616E20706572666F726D207468697320 PUSH0 DUP3 ADD MSTORE PUSH32 0x616374696F6E0000000000000000000000000000000000000000000000000000 PUSH1 0x20 DUP3 ADD MSTORE POP JUMP JUMPDEST PUSH0 PUSH2 0x383 PUSH1 0x26 DUP4 PUSH2 0x319 JUMP JUMPDEST SWAP2 POP PUSH2 0x38E DUP3 PUSH2 0x329 JUMP JUMPDEST PUSH1 0x40 DUP3 ADD SWAP1 POP SWAP2 SWAP1 POP JUMP JUMPDEST PUSH0 PUSH1 0x20 DUP3 ADD SWAP1 POP DUP2 DUP2 SUB PUSH0 DUP4 ADD MSTORE PUSH2 0x3B0 DUP2 PUSH2 0x377 JUMP JUMPDEST SWAP1 POP SWAP2 SWAP1 POP JUMP JUMPDEST PUSH0 PUSH2 0x3C1 DUP3 PUSH2 0x221 JUMP JUMPDEST SWAP2 POP PUSH2 0x3CC DUP4 PUSH2 0x221 JUMP JUMPDEST SWAP3 POP DUP3 DUP3 ADD SWAP1 POP DUP1 DUP3 GT ISZERO PUSH2 0x3E4 JUMPI PUSH2 0x3E3 PUSH2 0x2AB JUMP JUMPDEST JUMPDEST SWAP3 SWAP2 POP POP JUMP JUMPDEST PUSH0 PUSH2 0x3F4 DUP3 PUSH2 0x221 JUMP JUMPDEST SWAP2 POP PUSH2 0x3FF DUP4 PUSH2 0x221 JUMP JUMPDEST SWAP3 POP DUP3 DUP3 SUB SWAP1 POP DUP2 DUP2 GT ISZERO PUSH2 0x417 JUMPI PUSH2 0x416 PUSH2 0x2AB JUMP JUMPDEST JUMPDEST SWAP3 SWAP2 POP POP JUMP JUMPDEST PUSH0 PUSH2 0x427 DUP3 PUSH2 0x221 JUMP JUMPDEST SWAP2 POP PUSH32 0xFFFFFFFFFFFFFFFFFFFFFFFFFFFFFFFFFFFFFFFFFFFFFFFFFFFFFFFFFFFFFFFF DUP3 SUB PUSH2 0x459 JUMPI PUSH2 0x458 PUSH2 0x2AB JUMP JUMPDEST JUMPDEST PUSH1 0x1 DUP3 ADD SWAP1 POP SWAP2 SWAP1 POP JUMP INVALID LOG2 PUSH5 0x6970667358 0x22 SLT KECCAK256 0x2D 0x21 0xB1 0x29 SWAP12 0xFC DUP3 DUP3 0x4D SWAP1 PUSH2 0x5234 CALLCODE PUSH0 SSTORE 0x4D 0xB5 PUSH4 0x26531554 SWAP12 0xD3 0x4D 0xB9 JUMPDEST 0x4B PUSH20 0x8F4264736F6C634300081A003300000000000000 "
				},
				"gasEstimates": {
					"creation": {
						"codeDepositCost": "235600",
						"executionCost": "51665",
						"totalCost": "287265"
					},
					"external": {
						"addExperience(uint256)": "infinite",
						"exp()": "2447",
						"level()": "2425",
						"maxLevel()": "391",
						"requiredExpForNextLevel()": "infinite"
					},
					"internal": {
						"_updateLevel()": "infinite"
					}
				},
				"methodIdentifiers": {
					"addExperience(uint256)": "c37c3555",
					"exp()": "ab60ffda",
					"level()": "6fd5ae15",
					"maxLevel()": "cc06c359",
					"requiredExpForNextLevel()": "04a6f9e0"
				}
			},
			"storageLayout": {
				"storage": [
					{
						"astId": 4,
						"contract": "contracts/PlayerDetails.sol:PlayerDetails",
						"label": "owner",
						"offset": 0,
						"slot": "0",
						"type": "t_address"
					},
					{
						"astId": 6,
						"contract": "contracts/PlayerDetails.sol:PlayerDetails",
						"label": "level",
						"offset": 0,
						"slot": "1",
						"type": "t_uint256"
					},
					{
						"astId": 8,
						"contract": "contracts/PlayerDetails.sol:PlayerDetails",
						"label": "exp",
						"offset": 0,
						"slot": "2",
						"type": "t_uint256"
					}
				],
				"types": {
					"t_address": {
						"encoding": "inplace",
						"label": "address",
						"numberOfBytes": "20"
					},
					"t_uint256": {
						"encoding": "inplace",
						"label": "uint256",
						"numberOfBytes": "32"
					}
				}
			},
			"userdoc": {
				"kind": "user",
				"methods": {},
				"version": 1
			}
		}
	}
}