{
	"contracts/Monkey.sol": {
		"Monkeys": {
			"abi": [
				{
					"inputs": [
						{
							"internalType": "address",
							"name": "_gachaContract",
							"type": "address"
						},
						{
							"internalType": "string",
							"name": "baseURI",
							"type": "string"
						}
					],
					"stateMutability": "nonpayable",
					"type": "constructor"
				},
				{
					"anonymous": false,
					"inputs": [
						{
							"indexed": true,
							"internalType": "address",
							"name": "owner",
							"type": "address"
						},
						{
							"indexed": true,
							"internalType": "address",
							"name": "approved",
							"type": "address"
						},
						{
							"indexed": true,
							"internalType": "uint256",
							"name": "tokenId",
							"type": "uint256"
						}
					],
					"name": "Approval",
					"type": "event"
				},
				{
					"anonymous": false,
					"inputs": [
						{
							"indexed": true,
							"internalType": "address",
							"name": "owner",
							"type": "address"
						},
						{
							"indexed": true,
							"internalType": "address",
							"name": "operator",
							"type": "address"
						},
						{
							"indexed": false,
							"internalType": "bool",
							"name": "approved",
							"type": "bool"
						}
					],
					"name": "ApprovalForAll",
					"type": "event"
				},
				{
					"anonymous": false,
					"inputs": [
						{
							"indexed": false,
							"internalType": "string",
							"name": "oldURI",
							"type": "string"
						},
						{
							"indexed": false,
							"internalType": "string",
							"name": "newBaseURI",
							"type": "string"
						}
					],
					"name": "BaseURIUpdated",
					"type": "event"
				},
				{
					"anonymous": false,
					"inputs": [
						{
							"indexed": true,
							"internalType": "address",
							"name": "oldGacha",
							"type": "address"
						},
						{
							"indexed": true,
							"internalType": "address",
							"name": "newGacha",
							"type": "address"
						}
					],
					"name": "GachaContractUpdated",
					"type": "event"
				},
				{
					"anonymous": false,
					"inputs": [
						{
							"indexed": true,
							"internalType": "uint256",
							"name": "tokenId",
							"type": "uint256"
						},
						{
							"indexed": false,
							"internalType": "string",
							"name": "name",
							"type": "string"
						},
						{
							"indexed": false,
							"internalType": "enum Monkeys.Rarity",
							"name": "rarity",
							"type": "uint8"
						},
						{
							"indexed": false,
							"internalType": "enum Monkeys.PowerType",
							"name": "powerType",
							"type": "uint8"
						}
					],
					"name": "MonkeyCreated",
					"type": "event"
				},
				{
					"anonymous": false,
					"inputs": [
						{
							"indexed": true,
							"internalType": "address",
							"name": "from",
							"type": "address"
						},
						{
							"indexed": true,
							"internalType": "address",
							"name": "to",
							"type": "address"
						},
						{
							"indexed": true,
							"internalType": "uint256",
							"name": "tokenId",
							"type": "uint256"
						}
					],
					"name": "Transfer",
					"type": "event"
				},
				{
					"inputs": [
						{
							"internalType": "address",
							"name": "to",
							"type": "address"
						},
						{
							"internalType": "uint256",
							"name": "tokenId",
							"type": "uint256"
						}
					],
					"name": "approve",
					"outputs": [],
					"stateMutability": "nonpayable",
					"type": "function"
				},
				{
					"inputs": [
						{
							"internalType": "address",
							"name": "owner",
							"type": "address"
						}
					],
					"name": "balanceOf",
					"outputs": [
						{
							"internalType": "uint256",
							"name": "",
							"type": "uint256"
						}
					],
					"stateMutability": "view",
					"type": "function"
				},
				{
					"inputs": [],
					"name": "gachaContract",
					"outputs": [
						{
							"internalType": "address",
							"name": "",
							"type": "address"
						}
					],
					"stateMutability": "view",
					"type": "function"
				},
				{
					"inputs": [
						{
							"internalType": "uint256",
							"name": "tokenId",
							"type": "uint256"
						}
					],
					"name": "getApproved",
					"outputs": [
						{
							"internalType": "address",
							"name": "",
							"type": "address"
						}
					],
					"stateMutability": "view",
					"type": "function"
				},
				{
					"inputs": [
						{
							"internalType": "uint256",
							"name": "tokenId",
							"type": "uint256"
						}
					],
					"name": "getMonkey",
					"outputs": [
						{
							"components": [
								{
									"internalType": "uint256",
									"name": "id",
									"type": "uint256"
								},
								{
									"internalType": "string",
									"name": "name",
									"type": "string"
								},
								{
									"internalType": "enum Monkeys.Rarity",
									"name": "rarity",
									"type": "uint8"
								},
								{
									"internalType": "enum Monkeys.PowerType",
									"name": "powerType",
									"type": "uint8"
								},
								{
									"internalType": "uint256",
									"name": "attack",
									"type": "uint256"
								},
								{
									"internalType": "uint256",
									"name": "health",
									"type": "uint256"
								}
							],
							"internalType": "struct Monkeys.Monkey",
							"name": "",
							"type": "tuple"
						}
					],
					"stateMutability": "view",
					"type": "function"
				},
				{
					"inputs": [
						{
							"internalType": "address",
							"name": "owner",
							"type": "address"
						},
						{
							"internalType": "address",
							"name": "operator",
							"type": "address"
						}
					],
					"name": "isApprovedForAll",
					"outputs": [
						{
							"internalType": "bool",
							"name": "",
							"type": "bool"
						}
					],
					"stateMutability": "view",
					"type": "function"
				},
				{
					"inputs": [],
					"name": "isOwner",
					"outputs": [
						{
							"internalType": "bool",
							"name": "",
							"type": "bool"
						}
					],
					"stateMutability": "view",
					"type": "function"
				},
				{
					"inputs": [
						{
							"internalType": "address",
							"name": "to",
							"type": "address"
						},
						{
							"internalType": "string",
							"name": "monkeyName",
							"type": "string"
						},
						{
							"internalType": "uint8",
							"name": "rarity",
							"type": "uint8"
						},
						{
							"internalType": "uint8",
							"name": "powerType",
							"type": "uint8"
						},
						{
							"internalType": "uint256",
							"name": "attack",
							"type": "uint256"
						},
						{
							"internalType": "uint256",
							"name": "health",
							"type": "uint256"
						}
					],
					"name": "mintMonkey",
					"outputs": [
						{
							"internalType": "uint256",
							"name": "",
							"type": "uint256"
						}
					],
					"stateMutability": "nonpayable",
					"type": "function"
				},
				{
					"inputs": [],
					"name": "name",
					"outputs": [
						{
							"internalType": "string",
							"name": "",
							"type": "string"
						}
					],
					"stateMutability": "view",
					"type": "function"
				},
				{
					"inputs": [],
					"name": "owner",
					"outputs": [
						{
							"internalType": "address",
							"name": "",
							"type": "address"
						}
					],
					"stateMutability": "view",
					"type": "function"
				},
				{
					"inputs": [
						{
							"internalType": "uint256",
							"name": "tokenId",
							"type": "uint256"
						}
					],
					"name": "ownerOf",
					"outputs": [
						{
							"internalType": "address",
							"name": "",
							"type": "address"
						}
					],
					"stateMutability": "view",
					"type": "function"
				},
				{
					"inputs": [
						{
							"internalType": "address",
							"name": "from",
							"type": "address"
						},
						{
							"internalType": "address",
							"name": "to",
							"type": "address"
						},
						{
							"internalType": "uint256",
							"name": "tokenId",
							"type": "uint256"
						}
					],
					"name": "safeTransferFrom",
					"outputs": [],
					"stateMutability": "nonpayable",
					"type": "function"
				},
				{
					"inputs": [
						{
							"internalType": "address",
							"name": "from",
							"type": "address"
						},
						{
							"internalType": "address",
							"name": "to",
							"type": "address"
						},
						{
							"internalType": "uint256",
							"name": "tokenId",
							"type": "uint256"
						},
						{
							"internalType": "bytes",
							"name": "data",
							"type": "bytes"
						}
					],
					"name": "safeTransferFrom",
					"outputs": [],
					"stateMutability": "nonpayable",
					"type": "function"
				},
				{
					"inputs": [
						{
							"internalType": "address",
							"name": "operator",
							"type": "address"
						},
						{
							"internalType": "bool",
							"name": "approved",
							"type": "bool"
						}
					],
					"name": "setApprovalForAll",
					"outputs": [],
					"stateMutability": "nonpayable",
					"type": "function"
				},
				{
					"inputs": [
						{
							"internalType": "string",
							"name": "newBaseURI",
							"type": "string"
						}
					],
					"name": "setBaseURI",
					"outputs": [],
					"stateMutability": "nonpayable",
					"type": "function"
				},
				{
					"inputs": [
						{
							"internalType": "address",
							"name": "_newGachaContract",
							"type": "address"
						}
					],
					"name": "setGachaContract",
					"outputs": [],
					"stateMutability": "nonpayable",
					"type": "function"
				},
				{
					"inputs": [
						{
							"internalType": "bytes4",
							"name": "interfaceId",
							"type": "bytes4"
						}
					],
					"name": "supportsInterface",
					"outputs": [
						{
							"internalType": "bool",
							"name": "",
							"type": "bool"
						}
					],
					"stateMutability": "view",
					"type": "function"
				},
				{
					"inputs": [],
					"name": "symbol",
					"outputs": [
						{
							"internalType": "string",
							"name": "",
							"type": "string"
						}
					],
					"stateMutability": "view",
					"type": "function"
				},
				{
					"inputs": [
						{
							"internalType": "uint256",
							"name": "tokenId",
							"type": "uint256"
						}
					],
					"name": "tokenURI",
					"outputs": [
						{
							"internalType": "string",
							"name": "",
							"type": "string"
						}
					],
					"stateMutability": "view",
					"type": "function"
				},
				{
					"inputs": [
						{
							"internalType": "address",
							"name": "from",
							"type": "address"
						},
						{
							"internalType": "address",
							"name": "to",
							"type": "address"
						},
						{
							"internalType": "uint256",
							"name": "tokenId",
							"type": "uint256"
						}
					],
					"name": "transferFrom",
					"outputs": [],
					"stateMutability": "nonpayable",
					"type": "function"
				}
			],
			"devdoc": {
				"events": {
					"Approval(address,address,uint256)": {
						"details": "Emitted when `owner` enables `approved` to manage the `tokenId` token."
					},
					"ApprovalForAll(address,address,bool)": {
						"details": "Emitted when `owner` enables or disables (`approved`) `operator` to manage all of its assets."
					},
					"Transfer(address,address,uint256)": {
						"details": "Emitted when `tokenId` token is transferred from `from` to `to`."
					}
				},
				"kind": "dev",
				"methods": {
					"approve(address,uint256)": {
						"details": "Gives permission to `to` to transfer `tokenId` token to another account. The approval is cleared when the token is transferred. Only a single account can be approved at a time, so approving the zero address clears previous approvals. Requirements: - The caller must own the token or be an approved operator. - `tokenId` must exist. Emits an {Approval} event."
					},
					"balanceOf(address)": {
						"details": "Returns the number of tokens in ``owner``'s account."
					},
					"getApproved(uint256)": {
						"details": "Returns the account approved for `tokenId` token. Requirements: - `tokenId` must exist."
					},
					"isApprovedForAll(address,address)": {
						"details": "Returns if the `operator` is allowed to manage all of the assets of `owner`. See {setApprovalForAll}"
					},
					"name()": {
						"details": "Returns the token collection name."
					},
					"ownerOf(uint256)": {
						"details": "Returns the owner of the `tokenId` token. Requirements: - `tokenId` must exist."
					},
					"safeTransferFrom(address,address,uint256)": {
						"details": "Safely transfers `tokenId` token from `from` to `to`, checking first that contract recipients are aware of the ERC-721 protocol to prevent tokens from being forever locked. Requirements: - `from` cannot be the zero address. - `to` cannot be the zero address. - `tokenId` token must exist and be owned by `from`. - If the caller is not `from`, it must have been allowed to move this token by either {approve} or   {setApprovalForAll}. - If `to` refers to a smart contract, it must implement {IERC721Receiver-onERC721Received}, which is called upon   a safe transfer. Emits a {Transfer} event."
					},
					"safeTransferFrom(address,address,uint256,bytes)": {
						"details": "Safely transfers `tokenId` token from `from` to `to`. Requirements: - `from` cannot be the zero address. - `to` cannot be the zero address. - `tokenId` token must exist and be owned by `from`. - If the caller is not `from`, it must be approved to move this token by either {approve} or {setApprovalForAll}. - If `to` refers to a smart contract, it must implement {IERC721Receiver-onERC721Received}, which is called upon   a safe transfer. Emits a {Transfer} event."
					},
					"setApprovalForAll(address,bool)": {
						"details": "Approve or remove `operator` as an operator for the caller. Operators can call {transferFrom} or {safeTransferFrom} for any token owned by the caller. Requirements: - The `operator` cannot be the address zero. Emits an {ApprovalForAll} event."
					},
					"supportsInterface(bytes4)": {
						"details": "See {IERC165-supportsInterface}."
					},
					"symbol()": {
						"details": "Returns the token collection symbol."
					},
					"tokenURI(uint256)": {
						"details": "Returns the Uniform Resource Identifier (URI) for `tokenId` token."
					},
					"transferFrom(address,address,uint256)": {
						"details": "Transfers `tokenId` token from `from` to `to`. WARNING: Note that the caller is responsible to confirm that the recipient is capable of receiving ERC-721 or else they may be permanently lost. Usage of {safeTransferFrom} prevents loss, though the caller must understand this adds an external call which potentially creates a reentrancy vulnerability. Requirements: - `from` cannot be the zero address. - `to` cannot be the zero address. - `tokenId` token must be owned by `from`. - If the caller is not `from`, it must be approved to move this token by either {approve} or {setApprovalForAll}. Emits a {Transfer} event."
					}
				},
				"version": 1
			},
			"evm": {
				"assembly": "    /* \"contracts/Monkey.sol\":264:10203  contract Monkeys is ERC165, IERC721, IERC721Metadata, Ownable {... */\n  mstore(0x40, 0x80)\n    /* \"contracts/Monkey.sol\":1406:1854  constructor(address _gachaContract, string memory baseURI) Ownable() {... */\n  callvalue\n  dup1\n  iszero\n  tag_1\n  jumpi\n  0x00\n  dup1\n  revert\ntag_1:\n  pop\n  mload(0x40)\n  sub(codesize, bytecodeSize)\n  dup1\n  bytecodeSize\n  dup4\n  codecopy\n  dup2\n  dup2\n  add\n  0x40\n  mstore\n  dup2\n  add\n  swap1\n  tag_2\n  swap2\n  swap1\n  tag_3\n  jump\t// in\ntag_2:\n    /* \"contracts/ERC165/ERC165.sol\":326:371  _registerInterface(type(IERC165).interfaceId) */\n  tag_8\n    /* \"contracts/ERC165/ERC165.sol\":345:370  type(IERC165).interfaceId */\n  0x01ffc9a700000000000000000000000000000000000000000000000000000000\n    /* \"contracts/ERC165/ERC165.sol\":326:344  _registerInterface */\n  shl(0x20, tag_9)\n    /* \"contracts/ERC165/ERC165.sol\":326:371  _registerInterface(type(IERC165).interfaceId) */\n  0x20\n  shr\n  jump\t// in\ntag_8:\n    /* \"contracts/Ownable.sol\":269:279  msg.sender */\n  caller\n    /* \"contracts/Ownable.sol\":260:266  _owner */\n  0x01\n  0x00\n    /* \"contracts/Ownable.sol\":260:279  _owner = msg.sender */\n  0x0100\n  exp\n  dup2\n  sload\n  dup2\n  0xffffffffffffffffffffffffffffffffffffffff\n  mul\n  not\n  and\n  swap1\n  dup4\n  0xffffffffffffffffffffffffffffffffffffffff\n  and\n  mul\n  or\n  swap1\n  sstore\n  pop\n    /* \"contracts/Monkey.sol\":1486:1511  _name = \"Monkey Brothers\" */\n  mload(0x40)\n  dup1\n  0x40\n  add\n  0x40\n  mstore\n  dup1\n  0x0f\n  dup2\n  mstore\n  0x20\n  add\n  0x4d6f6e6b65792042726f74686572730000000000000000000000000000000000\n  dup2\n  mstore\n  pop\n    /* \"contracts/Monkey.sol\":1486:1491  _name */\n  0x02\n    /* \"contracts/Monkey.sol\":1486:1511  _name = \"Monkey Brothers\" */\n  swap1\n  dup2\n  tag_12\n  swap2\n  swap1\n  tag_13\n  jump\t// in\ntag_12:\n  pop\n    /* \"contracts/Monkey.sol\":1522:1541  _symbol = \"MONKBRO\" */\n  mload(0x40)\n  dup1\n  0x40\n  add\n  0x40\n  mstore\n  dup1\n  0x07\n  dup2\n  mstore\n  0x20\n  add\n  0x4d4f4e4b42524f00000000000000000000000000000000000000000000000000\n  dup2\n  mstore\n  pop\n    /* \"contracts/Monkey.sol\":1522:1529  _symbol */\n  0x03\n    /* \"contracts/Monkey.sol\":1522:1541  _symbol = \"MONKBRO\" */\n  swap1\n  dup2\n  tag_14\n  swap2\n  swap1\n  tag_13\n  jump\t// in\ntag_14:\n  pop\n    /* \"contracts/Monkey.sol\":1568:1575  baseURI */\n  dup1\n    /* \"contracts/Monkey.sol\":1552:1565  _baseTokenURI */\n  0x04\n    /* \"contracts/Monkey.sol\":1552:1575  _baseTokenURI = baseURI */\n  swap1\n  dup2\n  tag_15\n  swap2\n  swap1\n  tag_13\n  jump\t// in\ntag_15:\n  pop\n    /* \"contracts/Monkey.sol\":1618:1619  0 */\n  0x00\n    /* \"contracts/Monkey.sol\":1592:1620  _gachaContract != address(0) */\n  0xffffffffffffffffffffffffffffffffffffffff\n  and\n    /* \"contracts/Monkey.sol\":1592:1606  _gachaContract */\n  dup3\n    /* \"contracts/Monkey.sol\":1592:1620  _gachaContract != address(0) */\n  0xffffffffffffffffffffffffffffffffffffffff\n  and\n  eq\n    /* \"contracts/Monkey.sol\":1588:1679  if (_gachaContract != address(0)) {... */\n  tag_16\n  jumpi\n    /* \"contracts/Monkey.sol\":1653:1667  _gachaContract */\n  dup2\n    /* \"contracts/Monkey.sol\":1637:1650  gachaContract */\n  0x05\n  0x00\n    /* \"contracts/Monkey.sol\":1637:1667  gachaContract = _gachaContract */\n  0x0100\n  exp\n  dup2\n  sload\n  dup2\n  0xffffffffffffffffffffffffffffffffffffffff\n  mul\n  not\n  and\n  swap1\n  dup4\n  0xffffffffffffffffffffffffffffffffffffffff\n  and\n  mul\n  or\n  swap1\n  sstore\n  pop\n    /* \"contracts/Monkey.sol\":1588:1679  if (_gachaContract != address(0)) {... */\ntag_16:\n    /* \"contracts/Monkey.sol\":1737:1782  _registerInterface(type(IERC721).interfaceId) */\n  tag_17\n    /* \"contracts/Monkey.sol\":1756:1781  type(IERC721).interfaceId */\n  0x80ac58cd00000000000000000000000000000000000000000000000000000000\n    /* \"contracts/Monkey.sol\":1737:1755  _registerInterface */\n  shl(0x20, tag_9)\n    /* \"contracts/Monkey.sol\":1737:1782  _registerInterface(type(IERC721).interfaceId) */\n  0x20\n  shr\n  jump\t// in\ntag_17:\n    /* \"contracts/Monkey.sol\":1793:1846  _registerInterface(type(IERC721Metadata).interfaceId) */\n  tag_18\n    /* \"contracts/Monkey.sol\":1812:1845  type(IERC721Metadata).interfaceId */\n  0x5b5e139f00000000000000000000000000000000000000000000000000000000\n    /* \"contracts/Monkey.sol\":1793:1811  _registerInterface */\n  shl(0x20, tag_9)\n    /* \"contracts/Monkey.sol\":1793:1846  _registerInterface(type(IERC721Metadata).interfaceId) */\n  0x20\n  shr\n  jump\t// in\ntag_18:\n    /* \"contracts/Monkey.sol\":1406:1854  constructor(address _gachaContract, string memory baseURI) Ownable() {... */\n  pop\n  pop\n    /* \"contracts/Monkey.sol\":264:10203  contract Monkeys is ERC165, IERC721, IERC721Metadata, Ownable {... */\n  jump(tag_19)\n    /* \"contracts/ERC165/ERC165.sol\":788:989  function _registerInterface(bytes4 interfaceId) internal virtual {... */\ntag_9:\n    /* \"contracts/ERC165/ERC165.sol\":887:897  0xffffffff */\n  0xffffffff\n    /* \"contracts/ERC165/ERC165.sol\":872:897  interfaceId != 0xffffffff */\n  0xe0\n  shl\n    /* \"contracts/ERC165/ERC165.sol\":872:883  interfaceId */\n  dup2\n    /* \"contracts/ERC165/ERC165.sol\":872:897  interfaceId != 0xffffffff */\n  not(0xffffffffffffffffffffffffffffffffffffffffffffffffffffffff)\n  and\n  sub\n    /* \"contracts/ERC165/ERC165.sol\":864:930  require(interfaceId != 0xffffffff, \"ERC165: invalid interface id\") */\n  tag_21\n  jumpi\n  mload(0x40)\n  0x08c379a000000000000000000000000000000000000000000000000000000000\n  dup2\n  mstore\n  0x04\n  add\n  tag_22\n  swap1\n  tag_23\n  jump\t// in\ntag_22:\n  mload(0x40)\n  dup1\n  swap2\n  sub\n  swap1\n  revert\ntag_21:\n    /* \"contracts/ERC165/ERC165.sol\":977:981  true */\n  0x01\n    /* \"contracts/ERC165/ERC165.sol\":941:961  _supportedInterfaces */\n  0x00\n    /* \"contracts/ERC165/ERC165.sol\":941:974  _supportedInterfaces[interfaceId] */\n  dup1\n    /* \"contracts/ERC165/ERC165.sol\":962:973  interfaceId */\n  dup4\n    /* \"contracts/ERC165/ERC165.sol\":941:974  _supportedInterfaces[interfaceId] */\n  not(0xffffffffffffffffffffffffffffffffffffffffffffffffffffffff)\n  and\n  not(0xffffffffffffffffffffffffffffffffffffffffffffffffffffffff)\n  and\n  dup2\n  mstore\n  0x20\n  add\n  swap1\n  dup2\n  mstore\n  0x20\n  add\n  0x00\n  keccak256\n  0x00\n    /* \"contracts/ERC165/ERC165.sol\":941:981  _supportedInterfaces[interfaceId] = true */\n  0x0100\n  exp\n  dup2\n  sload\n  dup2\n  0xff\n  mul\n  not\n  and\n  swap1\n  dup4\n  iszero\n  iszero\n  mul\n  or\n  swap1\n  sstore\n  pop\n    /* \"contracts/ERC165/ERC165.sol\":788:989  function _registerInterface(bytes4 interfaceId) internal virtual {... */\n  pop\n  jump\t// out\n    /* \"#utility.yul\":7:82   */\ntag_24:\n    /* \"#utility.yul\":40:46   */\n  0x00\n    /* \"#utility.yul\":73:75   */\n  0x40\n    /* \"#utility.yul\":67:76   */\n  mload\n    /* \"#utility.yul\":57:76   */\n  swap1\n  pop\n    /* \"#utility.yul\":7:82   */\n  swap1\n  jump\t// out\n    /* \"#utility.yul\":88:205   */\ntag_25:\n    /* \"#utility.yul\":197:198   */\n  0x00\n    /* \"#utility.yul\":194:195   */\n  dup1\n    /* \"#utility.yul\":187:199   */\n  revert\n    /* \"#utility.yul\":211:328   */\ntag_26:\n    /* \"#utility.yul\":320:321   */\n  0x00\n    /* \"#utility.yul\":317:318   */\n  dup1\n    /* \"#utility.yul\":310:322   */\n  revert\n    /* \"#utility.yul\":334:460   */\ntag_27:\n    /* \"#utility.yul\":371:378   */\n  0x00\n    /* \"#utility.yul\":411:453   */\n  0xffffffffffffffffffffffffffffffffffffffff\n    /* \"#utility.yul\":404:409   */\n  dup3\n    /* \"#utility.yul\":400:454   */\n  and\n    /* \"#utility.yul\":389:454   */\n  swap1\n  pop\n    /* \"#utility.yul\":334:460   */\n  swap2\n  swap1\n  pop\n  jump\t// out\n    /* \"#utility.yul\":466:562   */\ntag_28:\n    /* \"#utility.yul\":503:510   */\n  0x00\n    /* \"#utility.yul\":532:556   */\n  tag_69\n    /* \"#utility.yul\":550:555   */\n  dup3\n    /* \"#utility.yul\":532:556   */\n  tag_27\n  jump\t// in\ntag_69:\n    /* \"#utility.yul\":521:556   */\n  swap1\n  pop\n    /* \"#utility.yul\":466:562   */\n  swap2\n  swap1\n  pop\n  jump\t// out\n    /* \"#utility.yul\":568:690   */\ntag_29:\n    /* \"#utility.yul\":641:665   */\n  tag_71\n    /* \"#utility.yul\":659:664   */\n  dup2\n    /* \"#utility.yul\":641:665   */\n  tag_28\n  jump\t// in\ntag_71:\n    /* \"#utility.yul\":634:639   */\n  dup2\n    /* \"#utility.yul\":631:666   */\n  eq\n    /* \"#utility.yul\":621:684   */\n  tag_72\n  jumpi\n    /* \"#utility.yul\":680:681   */\n  0x00\n    /* \"#utility.yul\":677:678   */\n  dup1\n    /* \"#utility.yul\":670:682   */\n  revert\n    /* \"#utility.yul\":621:684   */\ntag_72:\n    /* \"#utility.yul\":568:690   */\n  pop\n  jump\t// out\n    /* \"#utility.yul\":696:839   */\ntag_30:\n    /* \"#utility.yul\":753:758   */\n  0x00\n    /* \"#utility.yul\":784:790   */\n  dup2\n    /* \"#utility.yul\":778:791   */\n  mload\n    /* \"#utility.yul\":769:791   */\n  swap1\n  pop\n    /* \"#utility.yul\":800:833   */\n  tag_74\n    /* \"#utility.yul\":827:832   */\n  dup2\n    /* \"#utility.yul\":800:833   */\n  tag_29\n  jump\t// in\ntag_74:\n    /* \"#utility.yul\":696:839   */\n  swap3\n  swap2\n  pop\n  pop\n  jump\t// out\n    /* \"#utility.yul\":845:962   */\ntag_31:\n    /* \"#utility.yul\":954:955   */\n  0x00\n    /* \"#utility.yul\":951:952   */\n  dup1\n    /* \"#utility.yul\":944:956   */\n  revert\n    /* \"#utility.yul\":968:1085   */\ntag_32:\n    /* \"#utility.yul\":1077:1078   */\n  0x00\n    /* \"#utility.yul\":1074:1075   */\n  dup1\n    /* \"#utility.yul\":1067:1079   */\n  revert\n    /* \"#utility.yul\":1091:1193   */\ntag_33:\n    /* \"#utility.yul\":1132:1138   */\n  0x00\n    /* \"#utility.yul\":1183:1185   */\n  0x1f\n    /* \"#utility.yul\":1179:1186   */\n  not\n    /* \"#utility.yul\":1174:1176   */\n  0x1f\n    /* \"#utility.yul\":1167:1172   */\n  dup4\n    /* \"#utility.yul\":1163:1177   */\n  add\n    /* \"#utility.yul\":1159:1187   */\n  and\n    /* \"#utility.yul\":1149:1187   */\n  swap1\n  pop\n    /* \"#utility.yul\":1091:1193   */\n  swap2\n  swap1\n  pop\n  jump\t// out\n    /* \"#utility.yul\":1199:1379   */\ntag_34:\n    /* \"#utility.yul\":1247:1324   */\n  0x4e487b7100000000000000000000000000000000000000000000000000000000\n    /* \"#utility.yul\":1244:1245   */\n  0x00\n    /* \"#utility.yul\":1237:1325   */\n  mstore\n    /* \"#utility.yul\":1344:1348   */\n  0x41\n    /* \"#utility.yul\":1341:1342   */\n  0x04\n    /* \"#utility.yul\":1334:1349   */\n  mstore\n    /* \"#utility.yul\":1368:1372   */\n  0x24\n    /* \"#utility.yul\":1365:1366   */\n  0x00\n    /* \"#utility.yul\":1358:1373   */\n  revert\n    /* \"#utility.yul\":1385:1666   */\ntag_35:\n    /* \"#utility.yul\":1468:1495   */\n  tag_80\n    /* \"#utility.yul\":1490:1494   */\n  dup3\n    /* \"#utility.yul\":1468:1495   */\n  tag_33\n  jump\t// in\ntag_80:\n    /* \"#utility.yul\":1460:1466   */\n  dup2\n    /* \"#utility.yul\":1456:1496   */\n  add\n    /* \"#utility.yul\":1598:1604   */\n  dup2\n    /* \"#utility.yul\":1586:1596   */\n  dup2\n    /* \"#utility.yul\":1583:1605   */\n  lt\n    /* \"#utility.yul\":1562:1580   */\n  0xffffffffffffffff\n    /* \"#utility.yul\":1550:1560   */\n  dup3\n    /* \"#utility.yul\":1547:1581   */\n  gt\n    /* \"#utility.yul\":1544:1606   */\n  or\n    /* \"#utility.yul\":1541:1629   */\n  iszero\n  tag_81\n  jumpi\n    /* \"#utility.yul\":1609:1627   */\n  tag_82\n  tag_34\n  jump\t// in\ntag_82:\n    /* \"#utility.yul\":1541:1629   */\ntag_81:\n    /* \"#utility.yul\":1649:1659   */\n  dup1\n    /* \"#utility.yul\":1645:1647   */\n  0x40\n    /* \"#utility.yul\":1638:1660   */\n  mstore\n    /* \"#utility.yul\":1428:1666   */\n  pop\n    /* \"#utility.yul\":1385:1666   */\n  pop\n  pop\n  jump\t// out\n    /* \"#utility.yul\":1672:1801   */\ntag_36:\n    /* \"#utility.yul\":1706:1712   */\n  0x00\n    /* \"#utility.yul\":1733:1753   */\n  tag_84\n  tag_24\n  jump\t// in\ntag_84:\n    /* \"#utility.yul\":1723:1753   */\n  swap1\n  pop\n    /* \"#utility.yul\":1762:1795   */\n  tag_85\n    /* \"#utility.yul\":1790:1794   */\n  dup3\n    /* \"#utility.yul\":1782:1788   */\n  dup3\n    /* \"#utility.yul\":1762:1795   */\n  tag_35\n  jump\t// in\ntag_85:\n    /* \"#utility.yul\":1672:1801   */\n  swap2\n  swap1\n  pop\n  jump\t// out\n    /* \"#utility.yul\":1807:2115   */\ntag_37:\n    /* \"#utility.yul\":1869:1873   */\n  0x00\n    /* \"#utility.yul\":1959:1977   */\n  0xffffffffffffffff\n    /* \"#utility.yul\":1951:1957   */\n  dup3\n    /* \"#utility.yul\":1948:1978   */\n  gt\n    /* \"#utility.yul\":1945:2001   */\n  iszero\n  tag_87\n  jumpi\n    /* \"#utility.yul\":1981:1999   */\n  tag_88\n  tag_34\n  jump\t// in\ntag_88:\n    /* \"#utility.yul\":1945:2001   */\ntag_87:\n    /* \"#utility.yul\":2019:2048   */\n  tag_89\n    /* \"#utility.yul\":2041:2047   */\n  dup3\n    /* \"#utility.yul\":2019:2048   */\n  tag_33\n  jump\t// in\ntag_89:\n    /* \"#utility.yul\":2011:2048   */\n  swap1\n  pop\n    /* \"#utility.yul\":2103:2107   */\n  0x20\n    /* \"#utility.yul\":2097:2101   */\n  dup2\n    /* \"#utility.yul\":2093:2108   */\n  add\n    /* \"#utility.yul\":2085:2108   */\n  swap1\n  pop\n    /* \"#utility.yul\":1807:2115   */\n  swap2\n  swap1\n  pop\n  jump\t// out\n    /* \"#utility.yul\":2121:2260   */\ntag_38:\n    /* \"#utility.yul\":2210:2216   */\n  dup3\n    /* \"#utility.yul\":2205:2208   */\n  dup2\n    /* \"#utility.yul\":2200:2203   */\n  dup4\n    /* \"#utility.yul\":2194:2217   */\n  mcopy\n    /* \"#utility.yul\":2251:2252   */\n  0x00\n    /* \"#utility.yul\":2242:2248   */\n  dup4\n    /* \"#utility.yul\":2237:2240   */\n  dup4\n    /* \"#utility.yul\":2233:2249   */\n  add\n    /* \"#utility.yul\":2226:2253   */\n  mstore\n    /* \"#utility.yul\":2121:2260   */\n  pop\n  pop\n  pop\n  jump\t// out\n    /* \"#utility.yul\":2266:2700   */\ntag_39:\n    /* \"#utility.yul\":2355:2360   */\n  0x00\n    /* \"#utility.yul\":2380:2446   */\n  tag_92\n    /* \"#utility.yul\":2396:2445   */\n  tag_93\n    /* \"#utility.yul\":2438:2444   */\n  dup5\n    /* \"#utility.yul\":2396:2445   */\n  tag_37\n  jump\t// in\ntag_93:\n    /* \"#utility.yul\":2380:2446   */\n  tag_36\n  jump\t// in\ntag_92:\n    /* \"#utility.yul\":2371:2446   */\n  swap1\n  pop\n    /* \"#utility.yul\":2469:2475   */\n  dup3\n    /* \"#utility.yul\":2462:2467   */\n  dup2\n    /* \"#utility.yul\":2455:2476   */\n  mstore\n    /* \"#utility.yul\":2507:2511   */\n  0x20\n    /* \"#utility.yul\":2500:2505   */\n  dup2\n    /* \"#utility.yul\":2496:2512   */\n  add\n    /* \"#utility.yul\":2545:2548   */\n  dup5\n    /* \"#utility.yul\":2536:2542   */\n  dup5\n    /* \"#utility.yul\":2531:2534   */\n  dup5\n    /* \"#utility.yul\":2527:2543   */\n  add\n    /* \"#utility.yul\":2524:2549   */\n  gt\n    /* \"#utility.yul\":2521:2633   */\n  iszero\n  tag_94\n  jumpi\n    /* \"#utility.yul\":2552:2631   */\n  tag_95\n  tag_32\n  jump\t// in\ntag_95:\n    /* \"#utility.yul\":2521:2633   */\ntag_94:\n    /* \"#utility.yul\":2642:2694   */\n  tag_96\n    /* \"#utility.yul\":2687:2693   */\n  dup5\n    /* \"#utility.yul\":2682:2685   */\n  dup3\n    /* \"#utility.yul\":2677:2680   */\n  dup6\n    /* \"#utility.yul\":2642:2694   */\n  tag_38\n  jump\t// in\ntag_96:\n    /* \"#utility.yul\":2361:2700   */\n  pop\n    /* \"#utility.yul\":2266:2700   */\n  swap4\n  swap3\n  pop\n  pop\n  pop\n  jump\t// out\n    /* \"#utility.yul\":2720:3075   */\ntag_40:\n    /* \"#utility.yul\":2787:2792   */\n  0x00\n    /* \"#utility.yul\":2836:2839   */\n  dup3\n    /* \"#utility.yul\":2829:2833   */\n  0x1f\n    /* \"#utility.yul\":2821:2827   */\n  dup4\n    /* \"#utility.yul\":2817:2834   */\n  add\n    /* \"#utility.yul\":2813:2840   */\n  slt\n    /* \"#utility.yul\":2803:2925   */\n  tag_98\n  jumpi\n    /* \"#utility.yul\":2844:2923   */\n  tag_99\n  tag_31\n  jump\t// in\ntag_99:\n    /* \"#utility.yul\":2803:2925   */\ntag_98:\n    /* \"#utility.yul\":2954:2960   */\n  dup2\n    /* \"#utility.yul\":2948:2961   */\n  mload\n    /* \"#utility.yul\":2979:3069   */\n  tag_100\n    /* \"#utility.yul\":3065:3068   */\n  dup5\n    /* \"#utility.yul\":3057:3063   */\n  dup3\n    /* \"#utility.yul\":3050:3054   */\n  0x20\n    /* \"#utility.yul\":3042:3048   */\n  dup7\n    /* \"#utility.yul\":3038:3055   */\n  add\n    /* \"#utility.yul\":2979:3069   */\n  tag_39\n  jump\t// in\ntag_100:\n    /* \"#utility.yul\":2970:3069   */\n  swap2\n  pop\n    /* \"#utility.yul\":2793:3075   */\n  pop\n    /* \"#utility.yul\":2720:3075   */\n  swap3\n  swap2\n  pop\n  pop\n  jump\t// out\n    /* \"#utility.yul\":3081:3761   */\ntag_3:\n    /* \"#utility.yul\":3170:3176   */\n  0x00\n    /* \"#utility.yul\":3178:3184   */\n  dup1\n    /* \"#utility.yul\":3227:3229   */\n  0x40\n    /* \"#utility.yul\":3215:3224   */\n  dup4\n    /* \"#utility.yul\":3206:3213   */\n  dup6\n    /* \"#utility.yul\":3202:3225   */\n  sub\n    /* \"#utility.yul\":3198:3230   */\n  slt\n    /* \"#utility.yul\":3195:3314   */\n  iszero\n  tag_102\n  jumpi\n    /* \"#utility.yul\":3233:3312   */\n  tag_103\n  tag_25\n  jump\t// in\ntag_103:\n    /* \"#utility.yul\":3195:3314   */\ntag_102:\n    /* \"#utility.yul\":3353:3354   */\n  0x00\n    /* \"#utility.yul\":3378:3442   */\n  tag_104\n    /* \"#utility.yul\":3434:3441   */\n  dup6\n    /* \"#utility.yul\":3425:3431   */\n  dup3\n    /* \"#utility.yul\":3414:3423   */\n  dup7\n    /* \"#utility.yul\":3410:3432   */\n  add\n    /* \"#utility.yul\":3378:3442   */\n  tag_30\n  jump\t// in\ntag_104:\n    /* \"#utility.yul\":3368:3442   */\n  swap3\n  pop\n    /* \"#utility.yul\":3324:3452   */\n  pop\n    /* \"#utility.yul\":3512:3514   */\n  0x20\n    /* \"#utility.yul\":3501:3510   */\n  dup4\n    /* \"#utility.yul\":3497:3515   */\n  add\n    /* \"#utility.yul\":3491:3516   */\n  mload\n    /* \"#utility.yul\":3543:3561   */\n  0xffffffffffffffff\n    /* \"#utility.yul\":3535:3541   */\n  dup2\n    /* \"#utility.yul\":3532:3562   */\n  gt\n    /* \"#utility.yul\":3529:3646   */\n  iszero\n  tag_105\n  jumpi\n    /* \"#utility.yul\":3565:3644   */\n  tag_106\n  tag_26\n  jump\t// in\ntag_106:\n    /* \"#utility.yul\":3529:3646   */\ntag_105:\n    /* \"#utility.yul\":3670:3744   */\n  tag_107\n    /* \"#utility.yul\":3736:3743   */\n  dup6\n    /* \"#utility.yul\":3727:3733   */\n  dup3\n    /* \"#utility.yul\":3716:3725   */\n  dup7\n    /* \"#utility.yul\":3712:3734   */\n  add\n    /* \"#utility.yul\":3670:3744   */\n  tag_40\n  jump\t// in\ntag_107:\n    /* \"#utility.yul\":3660:3744   */\n  swap2\n  pop\n    /* \"#utility.yul\":3462:3754   */\n  pop\n    /* \"#utility.yul\":3081:3761   */\n  swap3\n  pop\n  swap3\n  swap1\n  pop\n  jump\t// out\n    /* \"#utility.yul\":3767:3866   */\ntag_41:\n    /* \"#utility.yul\":3819:3825   */\n  0x00\n    /* \"#utility.yul\":3853:3858   */\n  dup2\n    /* \"#utility.yul\":3847:3859   */\n  mload\n    /* \"#utility.yul\":3837:3859   */\n  swap1\n  pop\n    /* \"#utility.yul\":3767:3866   */\n  swap2\n  swap1\n  pop\n  jump\t// out\n    /* \"#utility.yul\":3872:4052   */\ntag_42:\n    /* \"#utility.yul\":3920:3997   */\n  0x4e487b7100000000000000000000000000000000000000000000000000000000\n    /* \"#utility.yul\":3917:3918   */\n  0x00\n    /* \"#utility.yul\":3910:3998   */\n  mstore\n    /* \"#utility.yul\":4017:4021   */\n  0x22\n    /* \"#utility.yul\":4014:4015   */\n  0x04\n    /* \"#utility.yul\":4007:4022   */\n  mstore\n    /* \"#utility.yul\":4041:4045   */\n  0x24\n    /* \"#utility.yul\":4038:4039   */\n  0x00\n    /* \"#utility.yul\":4031:4046   */\n  revert\n    /* \"#utility.yul\":4058:4378   */\ntag_43:\n    /* \"#utility.yul\":4102:4108   */\n  0x00\n    /* \"#utility.yul\":4139:4140   */\n  0x02\n    /* \"#utility.yul\":4133:4137   */\n  dup3\n    /* \"#utility.yul\":4129:4141   */\n  div\n    /* \"#utility.yul\":4119:4141   */\n  swap1\n  pop\n    /* \"#utility.yul\":4186:4187   */\n  0x01\n    /* \"#utility.yul\":4180:4184   */\n  dup3\n    /* \"#utility.yul\":4176:4188   */\n  and\n    /* \"#utility.yul\":4207:4225   */\n  dup1\n    /* \"#utility.yul\":4197:4278   */\n  tag_111\n  jumpi\n    /* \"#utility.yul\":4263:4267   */\n  0x7f\n    /* \"#utility.yul\":4255:4261   */\n  dup3\n    /* \"#utility.yul\":4251:4268   */\n  and\n    /* \"#utility.yul\":4241:4268   */\n  swap2\n  pop\n    /* \"#utility.yul\":4197:4278   */\ntag_111:\n    /* \"#utility.yul\":4325:4327   */\n  0x20\n    /* \"#utility.yul\":4317:4323   */\n  dup3\n    /* \"#utility.yul\":4314:4328   */\n  lt\n    /* \"#utility.yul\":4294:4312   */\n  dup2\n    /* \"#utility.yul\":4291:4329   */\n  sub\n    /* \"#utility.yul\":4288:4372   */\n  tag_112\n  jumpi\n    /* \"#utility.yul\":4344:4362   */\n  tag_113\n  tag_42\n  jump\t// in\ntag_113:\n    /* \"#utility.yul\":4288:4372   */\ntag_112:\n    /* \"#utility.yul\":4109:4378   */\n  pop\n    /* \"#utility.yul\":4058:4378   */\n  swap2\n  swap1\n  pop\n  jump\t// out\n    /* \"#utility.yul\":4384:4525   */\ntag_44:\n    /* \"#utility.yul\":4433:4437   */\n  0x00\n    /* \"#utility.yul\":4456:4459   */\n  dup2\n    /* \"#utility.yul\":4448:4459   */\n  swap1\n  pop\n    /* \"#utility.yul\":4479:4482   */\n  dup2\n    /* \"#utility.yul\":4476:4477   */\n  0x00\n    /* \"#utility.yul\":4469:4483   */\n  mstore\n    /* \"#utility.yul\":4513:4517   */\n  0x20\n    /* \"#utility.yul\":4510:4511   */\n  0x00\n    /* \"#utility.yul\":4500:4518   */\n  keccak256\n    /* \"#utility.yul\":4492:4518   */\n  swap1\n  pop\n    /* \"#utility.yul\":4384:4525   */\n  swap2\n  swap1\n  pop\n  jump\t// out\n    /* \"#utility.yul\":4531:4624   */\ntag_45:\n    /* \"#utility.yul\":4568:4574   */\n  0x00\n    /* \"#utility.yul\":4615:4617   */\n  0x20\n    /* \"#utility.yul\":4610:4612   */\n  0x1f\n    /* \"#utility.yul\":4603:4608   */\n  dup4\n    /* \"#utility.yul\":4599:4613   */\n  add\n    /* \"#utility.yul\":4595:4618   */\n  div\n    /* \"#utility.yul\":4585:4618   */\n  swap1\n  pop\n    /* \"#utility.yul\":4531:4624   */\n  swap2\n  swap1\n  pop\n  jump\t// out\n    /* \"#utility.yul\":4630:4737   */\ntag_46:\n    /* \"#utility.yul\":4674:4682   */\n  0x00\n    /* \"#utility.yul\":4724:4729   */\n  dup3\n    /* \"#utility.yul\":4718:4722   */\n  dup3\n    /* \"#utility.yul\":4714:4730   */\n  shl\n    /* \"#utility.yul\":4693:4730   */\n  swap1\n  pop\n    /* \"#utility.yul\":4630:4737   */\n  swap3\n  swap2\n  pop\n  pop\n  jump\t// out\n    /* \"#utility.yul\":4743:5136   */\ntag_47:\n    /* \"#utility.yul\":4812:4818   */\n  0x00\n    /* \"#utility.yul\":4862:4863   */\n  0x08\n    /* \"#utility.yul\":4850:4860   */\n  dup4\n    /* \"#utility.yul\":4846:4864   */\n  mul\n    /* \"#utility.yul\":4885:4982   */\n  tag_118\n    /* \"#utility.yul\":4915:4981   */\n  0xffffffffffffffffffffffffffffffffffffffffffffffffffffffffffffffff\n    /* \"#utility.yul\":4904:4913   */\n  dup3\n    /* \"#utility.yul\":4885:4982   */\n  tag_46\n  jump\t// in\ntag_118:\n    /* \"#utility.yul\":5003:5042   */\n  tag_119\n    /* \"#utility.yul\":5033:5041   */\n  dup7\n    /* \"#utility.yul\":5022:5031   */\n  dup4\n    /* \"#utility.yul\":5003:5042   */\n  tag_46\n  jump\t// in\ntag_119:\n    /* \"#utility.yul\":4991:5042   */\n  swap6\n  pop\n    /* \"#utility.yul\":5075:5079   */\n  dup1\n    /* \"#utility.yul\":5071:5080   */\n  not\n    /* \"#utility.yul\":5064:5069   */\n  dup5\n    /* \"#utility.yul\":5060:5081   */\n  and\n    /* \"#utility.yul\":5051:5081   */\n  swap4\n  pop\n    /* \"#utility.yul\":5124:5128   */\n  dup1\n    /* \"#utility.yul\":5114:5122   */\n  dup7\n    /* \"#utility.yul\":5110:5129   */\n  and\n    /* \"#utility.yul\":5103:5108   */\n  dup5\n    /* \"#utility.yul\":5100:5130   */\n  or\n    /* \"#utility.yul\":5090:5130   */\n  swap3\n  pop\n    /* \"#utility.yul\":4819:5136   */\n  pop\n  pop\n    /* \"#utility.yul\":4743:5136   */\n  swap4\n  swap3\n  pop\n  pop\n  pop\n  jump\t// out\n    /* \"#utility.yul\":5142:5219   */\ntag_48:\n    /* \"#utility.yul\":5179:5186   */\n  0x00\n    /* \"#utility.yul\":5208:5213   */\n  dup2\n    /* \"#utility.yul\":5197:5213   */\n  swap1\n  pop\n    /* \"#utility.yul\":5142:5219   */\n  swap2\n  swap1\n  pop\n  jump\t// out\n    /* \"#utility.yul\":5225:5285   */\ntag_49:\n    /* \"#utility.yul\":5253:5256   */\n  0x00\n    /* \"#utility.yul\":5274:5279   */\n  dup2\n    /* \"#utility.yul\":5267:5279   */\n  swap1\n  pop\n    /* \"#utility.yul\":5225:5285   */\n  swap2\n  swap1\n  pop\n  jump\t// out\n    /* \"#utility.yul\":5291:5433   */\ntag_50:\n    /* \"#utility.yul\":5341:5350   */\n  0x00\n    /* \"#utility.yul\":5374:5427   */\n  tag_123\n    /* \"#utility.yul\":5392:5426   */\n  tag_124\n    /* \"#utility.yul\":5401:5425   */\n  tag_125\n    /* \"#utility.yul\":5419:5424   */\n  dup5\n    /* \"#utility.yul\":5401:5425   */\n  tag_48\n  jump\t// in\ntag_125:\n    /* \"#utility.yul\":5392:5426   */\n  tag_49\n  jump\t// in\ntag_124:\n    /* \"#utility.yul\":5374:5427   */\n  tag_48\n  jump\t// in\ntag_123:\n    /* \"#utility.yul\":5361:5427   */\n  swap1\n  pop\n    /* \"#utility.yul\":5291:5433   */\n  swap2\n  swap1\n  pop\n  jump\t// out\n    /* \"#utility.yul\":5439:5514   */\ntag_51:\n    /* \"#utility.yul\":5482:5485   */\n  0x00\n    /* \"#utility.yul\":5503:5508   */\n  dup2\n    /* \"#utility.yul\":5496:5508   */\n  swap1\n  pop\n    /* \"#utility.yul\":5439:5514   */\n  swap2\n  swap1\n  pop\n  jump\t// out\n    /* \"#utility.yul\":5520:5789   */\ntag_52:\n    /* \"#utility.yul\":5630:5669   */\n  tag_128\n    /* \"#utility.yul\":5661:5668   */\n  dup4\n    /* \"#utility.yul\":5630:5669   */\n  tag_50\n  jump\t// in\ntag_128:\n    /* \"#utility.yul\":5691:5782   */\n  tag_129\n    /* \"#utility.yul\":5740:5781   */\n  tag_130\n    /* \"#utility.yul\":5764:5780   */\n  dup3\n    /* \"#utility.yul\":5740:5781   */\n  tag_51\n  jump\t// in\ntag_130:\n    /* \"#utility.yul\":5732:5738   */\n  dup5\n    /* \"#utility.yul\":5725:5729   */\n  dup5\n    /* \"#utility.yul\":5719:5730   */\n  sload\n    /* \"#utility.yul\":5691:5782   */\n  tag_47\n  jump\t// in\ntag_129:\n    /* \"#utility.yul\":5685:5689   */\n  dup3\n    /* \"#utility.yul\":5678:5783   */\n  sstore\n    /* \"#utility.yul\":5596:5789   */\n  pop\n    /* \"#utility.yul\":5520:5789   */\n  pop\n  pop\n  pop\n  jump\t// out\n    /* \"#utility.yul\":5795:5868   */\ntag_53:\n    /* \"#utility.yul\":5840:5843   */\n  0x00\n    /* \"#utility.yul\":5795:5868   */\n  swap1\n  jump\t// out\n    /* \"#utility.yul\":5874:6063   */\ntag_54:\n    /* \"#utility.yul\":5951:5983   */\n  tag_133\n  tag_53\n  jump\t// in\ntag_133:\n    /* \"#utility.yul\":5992:6057   */\n  tag_134\n    /* \"#utility.yul\":6050:6056   */\n  dup2\n    /* \"#utility.yul\":6042:6048   */\n  dup5\n    /* \"#utility.yul\":6036:6040   */\n  dup5\n    /* \"#utility.yul\":5992:6057   */\n  tag_52\n  jump\t// in\ntag_134:\n    /* \"#utility.yul\":5927:6063   */\n  pop\n    /* \"#utility.yul\":5874:6063   */\n  pop\n  pop\n  jump\t// out\n    /* \"#utility.yul\":6069:6255   */\ntag_55:\n    /* \"#utility.yul\":6129:6249   */\ntag_136:\n    /* \"#utility.yul\":6146:6149   */\n  dup2\n    /* \"#utility.yul\":6139:6144   */\n  dup2\n    /* \"#utility.yul\":6136:6150   */\n  lt\n    /* \"#utility.yul\":6129:6249   */\n  iszero\n  tag_138\n  jumpi\n    /* \"#utility.yul\":6200:6239   */\n  tag_139\n    /* \"#utility.yul\":6237:6238   */\n  0x00\n    /* \"#utility.yul\":6230:6235   */\n  dup3\n    /* \"#utility.yul\":6200:6239   */\n  tag_54\n  jump\t// in\ntag_139:\n    /* \"#utility.yul\":6173:6174   */\n  0x01\n    /* \"#utility.yul\":6166:6171   */\n  dup2\n    /* \"#utility.yul\":6162:6175   */\n  add\n    /* \"#utility.yul\":6153:6175   */\n  swap1\n  pop\n    /* \"#utility.yul\":6129:6249   */\n  jump(tag_136)\ntag_138:\n    /* \"#utility.yul\":6069:6255   */\n  pop\n  pop\n  jump\t// out\n    /* \"#utility.yul\":6261:6804   */\ntag_56:\n    /* \"#utility.yul\":6362:6364   */\n  0x1f\n    /* \"#utility.yul\":6357:6360   */\n  dup3\n    /* \"#utility.yul\":6354:6365   */\n  gt\n    /* \"#utility.yul\":6351:6797   */\n  iszero\n  tag_141\n  jumpi\n    /* \"#utility.yul\":6396:6434   */\n  tag_142\n    /* \"#utility.yul\":6428:6433   */\n  dup2\n    /* \"#utility.yul\":6396:6434   */\n  tag_44\n  jump\t// in\ntag_142:\n    /* \"#utility.yul\":6480:6509   */\n  tag_143\n    /* \"#utility.yul\":6498:6508   */\n  dup5\n    /* \"#utility.yul\":6480:6509   */\n  tag_45\n  jump\t// in\ntag_143:\n    /* \"#utility.yul\":6470:6478   */\n  dup2\n    /* \"#utility.yul\":6466:6510   */\n  add\n    /* \"#utility.yul\":6663:6665   */\n  0x20\n    /* \"#utility.yul\":6651:6661   */\n  dup6\n    /* \"#utility.yul\":6648:6666   */\n  lt\n    /* \"#utility.yul\":6645:6694   */\n  iszero\n  tag_144\n  jumpi\n    /* \"#utility.yul\":6684:6692   */\n  dup2\n    /* \"#utility.yul\":6669:6692   */\n  swap1\n  pop\n    /* \"#utility.yul\":6645:6694   */\ntag_144:\n    /* \"#utility.yul\":6707:6787   */\n  tag_145\n    /* \"#utility.yul\":6763:6785   */\n  tag_146\n    /* \"#utility.yul\":6781:6784   */\n  dup6\n    /* \"#utility.yul\":6763:6785   */\n  tag_45\n  jump\t// in\ntag_146:\n    /* \"#utility.yul\":6753:6761   */\n  dup4\n    /* \"#utility.yul\":6749:6786   */\n  add\n    /* \"#utility.yul\":6736:6747   */\n  dup3\n    /* \"#utility.yul\":6707:6787   */\n  tag_55\n  jump\t// in\ntag_145:\n    /* \"#utility.yul\":6366:6797   */\n  pop\n  pop\n    /* \"#utility.yul\":6351:6797   */\ntag_141:\n    /* \"#utility.yul\":6261:6804   */\n  pop\n  pop\n  pop\n  jump\t// out\n    /* \"#utility.yul\":6810:6927   */\ntag_57:\n    /* \"#utility.yul\":6864:6872   */\n  0x00\n    /* \"#utility.yul\":6914:6919   */\n  dup3\n    /* \"#utility.yul\":6908:6912   */\n  dup3\n    /* \"#utility.yul\":6904:6920   */\n  shr\n    /* \"#utility.yul\":6883:6920   */\n  swap1\n  pop\n    /* \"#utility.yul\":6810:6927   */\n  swap3\n  swap2\n  pop\n  pop\n  jump\t// out\n    /* \"#utility.yul\":6933:7102   */\ntag_58:\n    /* \"#utility.yul\":6977:6983   */\n  0x00\n    /* \"#utility.yul\":7010:7061   */\n  tag_149\n    /* \"#utility.yul\":7058:7059   */\n  0x00\n    /* \"#utility.yul\":7054:7060   */\n  not\n    /* \"#utility.yul\":7046:7051   */\n  dup5\n    /* \"#utility.yul\":7043:7044   */\n  0x08\n    /* \"#utility.yul\":7039:7052   */\n  mul\n    /* \"#utility.yul\":7010:7061   */\n  tag_57\n  jump\t// in\ntag_149:\n    /* \"#utility.yul\":7006:7062   */\n  not\n    /* \"#utility.yul\":7091:7095   */\n  dup1\n    /* \"#utility.yul\":7085:7089   */\n  dup4\n    /* \"#utility.yul\":7081:7096   */\n  and\n    /* \"#utility.yul\":7071:7096   */\n  swap2\n  pop\n    /* \"#utility.yul\":6984:7102   */\n  pop\n    /* \"#utility.yul\":6933:7102   */\n  swap3\n  swap2\n  pop\n  pop\n  jump\t// out\n    /* \"#utility.yul\":7107:7402   */\ntag_59:\n    /* \"#utility.yul\":7183:7187   */\n  0x00\n    /* \"#utility.yul\":7329:7358   */\n  tag_151\n    /* \"#utility.yul\":7354:7357   */\n  dup4\n    /* \"#utility.yul\":7348:7352   */\n  dup4\n    /* \"#utility.yul\":7329:7358   */\n  tag_58\n  jump\t// in\ntag_151:\n    /* \"#utility.yul\":7321:7358   */\n  swap2\n  pop\n    /* \"#utility.yul\":7391:7394   */\n  dup3\n    /* \"#utility.yul\":7388:7389   */\n  0x02\n    /* \"#utility.yul\":7384:7395   */\n  mul\n    /* \"#utility.yul\":7378:7382   */\n  dup3\n    /* \"#utility.yul\":7375:7396   */\n  or\n    /* \"#utility.yul\":7367:7396   */\n  swap1\n  pop\n    /* \"#utility.yul\":7107:7402   */\n  swap3\n  swap2\n  pop\n  pop\n  jump\t// out\n    /* \"#utility.yul\":7407:8802   */\ntag_13:\n    /* \"#utility.yul\":7524:7561   */\n  tag_153\n    /* \"#utility.yul\":7557:7560   */\n  dup3\n    /* \"#utility.yul\":7524:7561   */\n  tag_41\n  jump\t// in\ntag_153:\n    /* \"#utility.yul\":7626:7644   */\n  0xffffffffffffffff\n    /* \"#utility.yul\":7618:7624   */\n  dup2\n    /* \"#utility.yul\":7615:7645   */\n  gt\n    /* \"#utility.yul\":7612:7668   */\n  iszero\n  tag_154\n  jumpi\n    /* \"#utility.yul\":7648:7666   */\n  tag_155\n  tag_34\n  jump\t// in\ntag_155:\n    /* \"#utility.yul\":7612:7668   */\ntag_154:\n    /* \"#utility.yul\":7692:7730   */\n  tag_156\n    /* \"#utility.yul\":7724:7728   */\n  dup3\n    /* \"#utility.yul\":7718:7729   */\n  sload\n    /* \"#utility.yul\":7692:7730   */\n  tag_43\n  jump\t// in\ntag_156:\n    /* \"#utility.yul\":7777:7844   */\n  tag_157\n    /* \"#utility.yul\":7837:7843   */\n  dup3\n    /* \"#utility.yul\":7829:7835   */\n  dup3\n    /* \"#utility.yul\":7823:7827   */\n  dup6\n    /* \"#utility.yul\":7777:7844   */\n  tag_56\n  jump\t// in\ntag_157:\n    /* \"#utility.yul\":7871:7872   */\n  0x00\n    /* \"#utility.yul\":7895:7899   */\n  0x20\n    /* \"#utility.yul\":7882:7899   */\n  swap1\n  pop\n    /* \"#utility.yul\":7927:7929   */\n  0x1f\n    /* \"#utility.yul\":7919:7925   */\n  dup4\n    /* \"#utility.yul\":7916:7930   */\n  gt\n    /* \"#utility.yul\":7944:7945   */\n  0x01\n    /* \"#utility.yul\":7939:8557   */\n  dup2\n  eq\n  tag_159\n  jumpi\n    /* \"#utility.yul\":8601:8602   */\n  0x00\n    /* \"#utility.yul\":8618:8624   */\n  dup5\n    /* \"#utility.yul\":8615:8692   */\n  iszero\n  tag_160\n  jumpi\n    /* \"#utility.yul\":8667:8676   */\n  dup3\n    /* \"#utility.yul\":8662:8665   */\n  dup8\n    /* \"#utility.yul\":8658:8677   */\n  add\n    /* \"#utility.yul\":8652:8678   */\n  mload\n    /* \"#utility.yul\":8643:8678   */\n  swap1\n  pop\n    /* \"#utility.yul\":8615:8692   */\ntag_160:\n    /* \"#utility.yul\":8718:8785   */\n  tag_161\n    /* \"#utility.yul\":8778:8784   */\n  dup6\n    /* \"#utility.yul\":8771:8776   */\n  dup3\n    /* \"#utility.yul\":8718:8785   */\n  tag_59\n  jump\t// in\ntag_161:\n    /* \"#utility.yul\":8712:8716   */\n  dup7\n    /* \"#utility.yul\":8705:8786   */\n  sstore\n    /* \"#utility.yul\":8574:8796   */\n  pop\n    /* \"#utility.yul\":7909:8796   */\n  jump(tag_158)\n    /* \"#utility.yul\":7939:8557   */\ntag_159:\n    /* \"#utility.yul\":7991:7995   */\n  0x1f\n    /* \"#utility.yul\":7987:7996   */\n  not\n    /* \"#utility.yul\":7979:7985   */\n  dup5\n    /* \"#utility.yul\":7975:7997   */\n  and\n    /* \"#utility.yul\":8025:8062   */\n  tag_162\n    /* \"#utility.yul\":8057:8061   */\n  dup7\n    /* \"#utility.yul\":8025:8062   */\n  tag_44\n  jump\t// in\ntag_162:\n    /* \"#utility.yul\":8084:8085   */\n  0x00\n    /* \"#utility.yul\":8098:8306   */\ntag_163:\n    /* \"#utility.yul\":8112:8119   */\n  dup3\n    /* \"#utility.yul\":8109:8110   */\n  dup2\n    /* \"#utility.yul\":8106:8120   */\n  lt\n    /* \"#utility.yul\":8098:8306   */\n  iszero\n  tag_165\n  jumpi\n    /* \"#utility.yul\":8191:8200   */\n  dup5\n    /* \"#utility.yul\":8186:8189   */\n  dup10\n    /* \"#utility.yul\":8182:8201   */\n  add\n    /* \"#utility.yul\":8176:8202   */\n  mload\n    /* \"#utility.yul\":8168:8174   */\n  dup3\n    /* \"#utility.yul\":8161:8203   */\n  sstore\n    /* \"#utility.yul\":8242:8243   */\n  0x01\n    /* \"#utility.yul\":8234:8240   */\n  dup3\n    /* \"#utility.yul\":8230:8244   */\n  add\n    /* \"#utility.yul\":8220:8244   */\n  swap2\n  pop\n    /* \"#utility.yul\":8289:8291   */\n  0x20\n    /* \"#utility.yul\":8278:8287   */\n  dup6\n    /* \"#utility.yul\":8274:8292   */\n  add\n    /* \"#utility.yul\":8261:8292   */\n  swap5\n  pop\n    /* \"#utility.yul\":8135:8139   */\n  0x20\n    /* \"#utility.yul\":8132:8133   */\n  dup2\n    /* \"#utility.yul\":8128:8140   */\n  add\n    /* \"#utility.yul\":8123:8140   */\n  swap1\n  pop\n    /* \"#utility.yul\":8098:8306   */\n  jump(tag_163)\ntag_165:\n    /* \"#utility.yul\":8334:8340   */\n  dup7\n    /* \"#utility.yul\":8325:8332   */\n  dup4\n    /* \"#utility.yul\":8322:8341   */\n  lt\n    /* \"#utility.yul\":8319:8498   */\n  iszero\n  tag_166\n  jumpi\n    /* \"#utility.yul\":8392:8401   */\n  dup5\n    /* \"#utility.yul\":8387:8390   */\n  dup10\n    /* \"#utility.yul\":8383:8402   */\n  add\n    /* \"#utility.yul\":8377:8403   */\n  mload\n    /* \"#utility.yul\":8435:8483   */\n  tag_167\n    /* \"#utility.yul\":8477:8481   */\n  0x1f\n    /* \"#utility.yul\":8469:8475   */\n  dup10\n    /* \"#utility.yul\":8465:8482   */\n  and\n    /* \"#utility.yul\":8454:8463   */\n  dup3\n    /* \"#utility.yul\":8435:8483   */\n  tag_58\n  jump\t// in\ntag_167:\n    /* \"#utility.yul\":8427:8433   */\n  dup4\n    /* \"#utility.yul\":8420:8484   */\n  sstore\n    /* \"#utility.yul\":8342:8498   */\n  pop\n    /* \"#utility.yul\":8319:8498   */\ntag_166:\n    /* \"#utility.yul\":8544:8545   */\n  0x01\n    /* \"#utility.yul\":8540:8541   */\n  0x02\n    /* \"#utility.yul\":8532:8538   */\n  dup9\n    /* \"#utility.yul\":8528:8542   */\n  mul\n    /* \"#utility.yul\":8524:8546   */\n  add\n    /* \"#utility.yul\":8518:8522   */\n  dup9\n    /* \"#utility.yul\":8511:8547   */\n  sstore\n    /* \"#utility.yul\":7946:8557   */\n  pop\n  pop\n  pop\n    /* \"#utility.yul\":7909:8796   */\ntag_158:\n  pop\n    /* \"#utility.yul\":7499:8802   */\n  pop\n  pop\n  pop\n    /* \"#utility.yul\":7407:8802   */\n  pop\n  pop\n  jump\t// out\n    /* \"#utility.yul\":8808:8977   */\ntag_60:\n    /* \"#utility.yul\":8892:8903   */\n  0x00\n    /* \"#utility.yul\":8926:8932   */\n  dup3\n    /* \"#utility.yul\":8921:8924   */\n  dup3\n    /* \"#utility.yul\":8914:8933   */\n  mstore\n    /* \"#utility.yul\":8966:8970   */\n  0x20\n    /* \"#utility.yul\":8961:8964   */\n  dup3\n    /* \"#utility.yul\":8957:8971   */\n  add\n    /* \"#utility.yul\":8942:8971   */\n  swap1\n  pop\n    /* \"#utility.yul\":8808:8977   */\n  swap3\n  swap2\n  pop\n  pop\n  jump\t// out\n    /* \"#utility.yul\":8983:9161   */\ntag_61:\n    /* \"#utility.yul\":9123:9153   */\n  0x4552433136353a20696e76616c696420696e7465726661636520696400000000\n    /* \"#utility.yul\":9119:9120   */\n  0x00\n    /* \"#utility.yul\":9111:9117   */\n  dup3\n    /* \"#utility.yul\":9107:9121   */\n  add\n    /* \"#utility.yul\":9100:9154   */\n  mstore\n    /* \"#utility.yul\":8983:9161   */\n  pop\n  jump\t// out\n    /* \"#utility.yul\":9167:9533   */\ntag_62:\n    /* \"#utility.yul\":9309:9312   */\n  0x00\n    /* \"#utility.yul\":9330:9397   */\n  tag_171\n    /* \"#utility.yul\":9394:9396   */\n  0x1c\n    /* \"#utility.yul\":9389:9392   */\n  dup4\n    /* \"#utility.yul\":9330:9397   */\n  tag_60\n  jump\t// in\ntag_171:\n    /* \"#utility.yul\":9323:9397   */\n  swap2\n  pop\n    /* \"#utility.yul\":9406:9499   */\n  tag_172\n    /* \"#utility.yul\":9495:9498   */\n  dup3\n    /* \"#utility.yul\":9406:9499   */\n  tag_61\n  jump\t// in\ntag_172:\n    /* \"#utility.yul\":9524:9526   */\n  0x20\n    /* \"#utility.yul\":9519:9522   */\n  dup3\n    /* \"#utility.yul\":9515:9527   */\n  add\n    /* \"#utility.yul\":9508:9527   */\n  swap1\n  pop\n    /* \"#utility.yul\":9167:9533   */\n  swap2\n  swap1\n  pop\n  jump\t// out\n    /* \"#utility.yul\":9539:9958   */\ntag_23:\n    /* \"#utility.yul\":9705:9709   */\n  0x00\n    /* \"#utility.yul\":9743:9745   */\n  0x20\n    /* \"#utility.yul\":9732:9741   */\n  dup3\n    /* \"#utility.yul\":9728:9746   */\n  add\n    /* \"#utility.yul\":9720:9746   */\n  swap1\n  pop\n    /* \"#utility.yul\":9792:9801   */\n  dup2\n    /* \"#utility.yul\":9786:9790   */\n  dup2\n    /* \"#utility.yul\":9782:9802   */\n  sub\n    /* \"#utility.yul\":9778:9779   */\n  0x00\n    /* \"#utility.yul\":9767:9776   */\n  dup4\n    /* \"#utility.yul\":9763:9780   */\n  add\n    /* \"#utility.yul\":9756:9803   */\n  mstore\n    /* \"#utility.yul\":9820:9951   */\n  tag_174\n    /* \"#utility.yul\":9946:9950   */\n  dup2\n    /* \"#utility.yul\":9820:9951   */\n  tag_62\n  jump\t// in\ntag_174:\n    /* \"#utility.yul\":9812:9951   */\n  swap1\n  pop\n    /* \"#utility.yul\":9539:9958   */\n  swap2\n  swap1\n  pop\n  jump\t// out\n    /* \"contracts/Monkey.sol\":264:10203  contract Monkeys is ERC165, IERC721, IERC721Metadata, Ownable {... */\ntag_19:\n  dataSize(sub_0)\n  dup1\n  dataOffset(sub_0)\n  0x00\n  codecopy\n  0x00\n  return\nstop\n\nsub_0: assembly {\n        /* \"contracts/Monkey.sol\":264:10203  contract Monkeys is ERC165, IERC721, IERC721Metadata, Ownable {... */\n      mstore(0x40, 0x80)\n      callvalue\n      dup1\n      iszero\n      tag_1\n      jumpi\n      0x00\n      dup1\n      revert\n    tag_1:\n      pop\n      jumpi(tag_2, lt(calldatasize, 0x04))\n      shr(0xe0, calldataload(0x00))\n      dup1\n      0x8da5cb5b\n      gt\n      tag_23\n      jumpi\n      dup1\n      0xb7510da8\n      gt\n      tag_24\n      jumpi\n      dup1\n      0xb7510da8\n      eq\n      tag_18\n      jumpi\n      dup1\n      0xb88d4fde\n      eq\n      tag_19\n      jumpi\n      dup1\n      0xc87b56dd\n      eq\n      tag_20\n      jumpi\n      dup1\n      0xd33b6521\n      eq\n      tag_21\n      jumpi\n      dup1\n      0xe985e9c5\n      eq\n      tag_22\n      jumpi\n      jump(tag_2)\n    tag_24:\n      dup1\n      0x8da5cb5b\n      eq\n      tag_13\n      jumpi\n      dup1\n      0x8f32d59b\n      eq\n      tag_14\n      jumpi\n      dup1\n      0x95d89b41\n      eq\n      tag_15\n      jumpi\n      dup1\n      0x9d304e85\n      eq\n      tag_16\n      jumpi\n      dup1\n      0xa22cb465\n      eq\n      tag_17\n      jumpi\n      jump(tag_2)\n    tag_23:\n      dup1\n      0x23b872dd\n      gt\n      tag_25\n      jumpi\n      dup1\n      0x23b872dd\n      eq\n      tag_8\n      jumpi\n      dup1\n      0x42842e0e\n      eq\n      tag_9\n      jumpi\n      dup1\n      0x55f804b3\n      eq\n      tag_10\n      jumpi\n      dup1\n      0x6352211e\n      eq\n      tag_11\n      jumpi\n      dup1\n      0x70a08231\n      eq\n      tag_12\n      jumpi\n      jump(tag_2)\n    tag_25:\n      dup1\n      0x01ffc9a7\n      eq\n      tag_3\n      jumpi\n      dup1\n      0x06fdde03\n      eq\n      tag_4\n      jumpi\n      dup1\n      0x081812fc\n      eq\n      tag_5\n      jumpi\n      dup1\n      0x095ea7b3\n      eq\n      tag_6\n      jumpi\n      dup1\n      0x0d522f6e\n      eq\n      tag_7\n      jumpi\n    tag_2:\n      0x00\n      dup1\n      revert\n        /* \"contracts/ERC165/ERC165.sol\":451:657  function supportsInterface(bytes4 interfaceId) ... */\n    tag_3:\n      tag_26\n      0x04\n      dup1\n      calldatasize\n      sub\n      dup2\n      add\n      swap1\n      tag_27\n      swap2\n      swap1\n      tag_28\n      jump\t// in\n    tag_27:\n      tag_29\n      jump\t// in\n    tag_26:\n      mload(0x40)\n      tag_30\n      swap2\n      swap1\n      tag_31\n      jump\t// in\n    tag_30:\n      mload(0x40)\n      dup1\n      swap2\n      sub\n      swap1\n      return\n        /* \"contracts/Monkey.sol\":2148:2248  function name() public view virtual override returns (string memory) {... */\n    tag_4:\n      tag_32\n      tag_33\n      jump\t// in\n    tag_32:\n      mload(0x40)\n      tag_34\n      swap2\n      swap1\n      tag_35\n      jump\t// in\n    tag_34:\n      mload(0x40)\n      dup1\n      swap2\n      sub\n      swap1\n      return\n        /* \"contracts/Monkey.sol\":4506:4725  function getApproved(uint256 tokenId) public view virtual override returns (address) {... */\n    tag_5:\n      tag_36\n      0x04\n      dup1\n      calldatasize\n      sub\n      dup2\n      add\n      swap1\n      tag_37\n      swap2\n      swap1\n      tag_38\n      jump\t// in\n    tag_37:\n      tag_39\n      jump\t// in\n    tag_36:\n      mload(0x40)\n      tag_40\n      swap2\n      swap1\n      tag_41\n      jump\t// in\n    tag_40:\n      mload(0x40)\n      dup1\n      swap2\n      sub\n      swap1\n      return\n        /* \"contracts/Monkey.sol\":3750:4203  function approve(address to, uint256 tokenId) public virtual override {... */\n    tag_6:\n      tag_42\n      0x04\n      dup1\n      calldatasize\n      sub\n      dup2\n      add\n      swap1\n      tag_43\n      swap2\n      swap1\n      tag_44\n      jump\t// in\n    tag_43:\n      tag_45\n      jump\t// in\n    tag_42:\n      stop\n        /* \"contracts/Monkey.sol\":5765:6652  function mintMonkey(address to, string memory monkeyName, uint8 rarity, uint8 powerType, uint256 attack, uint256 health) external returns (uint256) {... */\n    tag_7:\n      tag_46\n      0x04\n      dup1\n      calldatasize\n      sub\n      dup2\n      add\n      swap1\n      tag_47\n      swap2\n      swap1\n      tag_48\n      jump\t// in\n    tag_47:\n      tag_49\n      jump\t// in\n    tag_46:\n      mload(0x40)\n      tag_50\n      swap2\n      swap1\n      tag_51\n      jump\t// in\n    tag_50:\n      mload(0x40)\n      dup1\n      swap2\n      sub\n      swap1\n      return\n        /* \"contracts/Monkey.sol\":4905:5149  function transferFrom(address from, address to, uint256 tokenId) public virtual override {... */\n    tag_8:\n      tag_52\n      0x04\n      dup1\n      calldatasize\n      sub\n      dup2\n      add\n      swap1\n      tag_53\n      swap2\n      swap1\n      tag_54\n      jump\t// in\n    tag_53:\n      tag_55\n      jump\t// in\n    tag_52:\n      stop\n        /* \"contracts/Monkey.sol\":5321:5472  function safeTransferFrom(address from, address to, uint256 tokenId) public virtual override {... */\n    tag_9:\n      tag_56\n      0x04\n      dup1\n      calldatasize\n      sub\n      dup2\n      add\n      swap1\n      tag_57\n      swap2\n      swap1\n      tag_54\n      jump\t// in\n    tag_57:\n      tag_58\n      jump\t// in\n    tag_56:\n      stop\n        /* \"contracts/Monkey.sol\":2716:2989  function setBaseURI(string memory newBaseURI) external onlyOwner {... */\n    tag_10:\n      tag_59\n      0x04\n      dup1\n      calldatasize\n      sub\n      dup2\n      add\n      swap1\n      tag_60\n      swap2\n      swap1\n      tag_61\n      jump\t// in\n    tag_60:\n      tag_62\n      jump\t// in\n    tag_59:\n      stop\n        /* \"contracts/Monkey.sol\":3520:3742  function ownerOf(uint256 tokenId) public view virtual override returns (address) {... */\n    tag_11:\n      tag_63\n      0x04\n      dup1\n      calldatasize\n      sub\n      dup2\n      add\n      swap1\n      tag_64\n      swap2\n      swap1\n      tag_38\n      jump\t// in\n    tag_64:\n      tag_65\n      jump\t// in\n    tag_63:\n      mload(0x40)\n      tag_66\n      swap2\n      swap1\n      tag_41\n      jump\t// in\n    tag_66:\n      mload(0x40)\n      dup1\n      swap2\n      sub\n      swap1\n      return\n        /* \"contracts/Monkey.sol\":3305:3512  function balanceOf(address owner) public view virtual override returns (uint256) {... */\n    tag_12:\n      tag_67\n      0x04\n      dup1\n      calldatasize\n      sub\n      dup2\n      add\n      swap1\n      tag_68\n      swap2\n      swap1\n      tag_69\n      jump\t// in\n    tag_68:\n      tag_70\n      jump\t// in\n    tag_67:\n      mload(0x40)\n      tag_71\n      swap2\n      swap1\n      tag_51\n      jump\t// in\n    tag_71:\n      mload(0x40)\n      dup1\n      swap2\n      sub\n      swap1\n      return\n        /* \"contracts/Ownable.sol\":353:432  function owner() public view returns(address)  ... */\n    tag_13:\n      tag_72\n      tag_73\n      jump\t// in\n    tag_72:\n      mload(0x40)\n      tag_74\n      swap2\n      swap1\n      tag_41\n      jump\t// in\n    tag_74:\n      mload(0x40)\n      dup1\n      swap2\n      sub\n      swap1\n      return\n        /* \"contracts/Ownable.sol\":763:855  function isOwner() public view returns(bool)  ... */\n    tag_14:\n      tag_75\n      tag_76\n      jump\t// in\n    tag_75:\n      mload(0x40)\n      tag_77\n      swap2\n      swap1\n      tag_31\n      jump\t// in\n    tag_77:\n      mload(0x40)\n      dup1\n      swap2\n      sub\n      swap1\n      return\n        /* \"contracts/Monkey.sol\":2256:2360  function symbol() public view virtual override returns (string memory) {... */\n    tag_15:\n      tag_78\n      tag_79\n      jump\t// in\n    tag_78:\n      mload(0x40)\n      tag_80\n      swap2\n      swap1\n      tag_35\n      jump\t// in\n    tag_80:\n      mload(0x40)\n      dup1\n      swap2\n      sub\n      swap1\n      return\n        /* \"contracts/Monkey.sol\":521:549  address public gachaContract */\n    tag_16:\n      tag_81\n      tag_82\n      jump\t// in\n    tag_81:\n      mload(0x40)\n      tag_83\n      swap2\n      swap1\n      tag_41\n      jump\t// in\n    tag_83:\n      mload(0x40)\n      dup1\n      swap2\n      sub\n      swap1\n      return\n        /* \"contracts/Monkey.sol\":4211:4498  function setApprovalForAll(address operator, bool approved) public virtual override {... */\n    tag_17:\n      tag_84\n      0x04\n      dup1\n      calldatasize\n      sub\n      dup2\n      add\n      swap1\n      tag_85\n      swap2\n      swap1\n      tag_86\n      jump\t// in\n    tag_85:\n      tag_87\n      jump\t// in\n    tag_84:\n      stop\n        /* \"contracts/Monkey.sol\":10024:10200  function getMonkey(uint256 tokenId) public view returns (Monkey memory) {... */\n    tag_18:\n      tag_88\n      0x04\n      dup1\n      calldatasize\n      sub\n      dup2\n      add\n      swap1\n      tag_89\n      swap2\n      swap1\n      tag_38\n      jump\t// in\n    tag_89:\n      tag_90\n      jump\t// in\n    tag_88:\n      mload(0x40)\n      tag_91\n      swap2\n      swap1\n      tag_92\n      jump\t// in\n    tag_91:\n      mload(0x40)\n      dup1\n      swap2\n      sub\n      swap1\n      return\n        /* \"contracts/Monkey.sol\":5480:5757  function safeTransferFrom(address from, address to, uint256 tokenId, bytes memory data) public virtual override {... */\n    tag_19:\n      tag_93\n      0x04\n      dup1\n      calldatasize\n      sub\n      dup2\n      add\n      swap1\n      tag_94\n      swap2\n      swap1\n      tag_95\n      jump\t// in\n    tag_94:\n      tag_96\n      jump\t// in\n    tag_93:\n      stop\n        /* \"contracts/Monkey.sol\":2368:2708  function tokenURI(uint256 tokenId) public view virtual override returns (string memory) {... */\n    tag_20:\n      tag_97\n      0x04\n      dup1\n      calldatasize\n      sub\n      dup2\n      add\n      swap1\n      tag_98\n      swap2\n      swap1\n      tag_38\n      jump\t// in\n    tag_98:\n      tag_99\n      jump\t// in\n    tag_97:\n      mload(0x40)\n      tag_100\n      swap2\n      swap1\n      tag_35\n      jump\t// in\n    tag_100:\n      mload(0x40)\n      dup1\n      swap2\n      sub\n      swap1\n      return\n        /* \"contracts/Monkey.sol\":2997:3267  function setGachaContract(address _newGachaContract) external onlyOwner {... */\n    tag_21:\n      tag_101\n      0x04\n      dup1\n      calldatasize\n      sub\n      dup2\n      add\n      swap1\n      tag_102\n      swap2\n      swap1\n      tag_69\n      jump\t// in\n    tag_102:\n      tag_103\n      jump\t// in\n    tag_101:\n      stop\n        /* \"contracts/Monkey.sol\":4733:4897  function isApprovedForAll(address owner, address operator) public view virtual override returns (bool) {... */\n    tag_22:\n      tag_104\n      0x04\n      dup1\n      calldatasize\n      sub\n      dup2\n      add\n      swap1\n      tag_105\n      swap2\n      swap1\n      tag_106\n      jump\t// in\n    tag_105:\n      tag_107\n      jump\t// in\n    tag_104:\n      mload(0x40)\n      tag_108\n      swap2\n      swap1\n      tag_31\n      jump\t// in\n    tag_108:\n      mload(0x40)\n      dup1\n      swap2\n      sub\n      swap1\n      return\n        /* \"contracts/ERC165/ERC165.sol\":451:657  function supportsInterface(bytes4 interfaceId) ... */\n    tag_29:\n        /* \"contracts/ERC165/ERC165.sol\":586:590  bool */\n      0x00\n        /* \"contracts/ERC165/ERC165.sol\":616:636  _supportedInterfaces */\n      dup1\n        /* \"contracts/ERC165/ERC165.sol\":616:649  _supportedInterfaces[interfaceId] */\n      0x00\n        /* \"contracts/ERC165/ERC165.sol\":637:648  interfaceId */\n      dup4\n        /* \"contracts/ERC165/ERC165.sol\":616:649  _supportedInterfaces[interfaceId] */\n      not(0xffffffffffffffffffffffffffffffffffffffffffffffffffffffff)\n      and\n      not(0xffffffffffffffffffffffffffffffffffffffffffffffffffffffff)\n      and\n      dup2\n      mstore\n      0x20\n      add\n      swap1\n      dup2\n      mstore\n      0x20\n      add\n      0x00\n      keccak256\n      0x00\n      swap1\n      sload\n      swap1\n      0x0100\n      exp\n      swap1\n      div\n      0xff\n      and\n        /* \"contracts/ERC165/ERC165.sol\":609:649  return _supportedInterfaces[interfaceId] */\n      swap1\n      pop\n        /* \"contracts/ERC165/ERC165.sol\":451:657  function supportsInterface(bytes4 interfaceId) ... */\n      swap2\n      swap1\n      pop\n      jump\t// out\n        /* \"contracts/Monkey.sol\":2148:2248  function name() public view virtual override returns (string memory) {... */\n    tag_33:\n        /* \"contracts/Monkey.sol\":2202:2215  string memory */\n      0x60\n        /* \"contracts/Monkey.sol\":2235:2240  _name */\n      0x02\n        /* \"contracts/Monkey.sol\":2228:2240  return _name */\n      dup1\n      sload\n      tag_111\n      swap1\n      tag_112\n      jump\t// in\n    tag_111:\n      dup1\n      0x1f\n      add\n      0x20\n      dup1\n      swap2\n      div\n      mul\n      0x20\n      add\n      mload(0x40)\n      swap1\n      dup2\n      add\n      0x40\n      mstore\n      dup1\n      swap3\n      swap2\n      swap1\n      dup2\n      dup2\n      mstore\n      0x20\n      add\n      dup3\n      dup1\n      sload\n      tag_113\n      swap1\n      tag_112\n      jump\t// in\n    tag_113:\n      dup1\n      iszero\n      tag_114\n      jumpi\n      dup1\n      0x1f\n      lt\n      tag_115\n      jumpi\n      0x0100\n      dup1\n      dup4\n      sload\n      div\n      mul\n      dup4\n      mstore\n      swap2\n      0x20\n      add\n      swap2\n      jump(tag_114)\n    tag_115:\n      dup3\n      add\n      swap2\n      swap1\n      0x00\n      mstore\n      keccak256(0x00, 0x20)\n      swap1\n    tag_116:\n      dup2\n      sload\n      dup2\n      mstore\n      swap1\n      0x01\n      add\n      swap1\n      0x20\n      add\n      dup1\n      dup4\n      gt\n      tag_116\n      jumpi\n      dup3\n      swap1\n      sub\n      0x1f\n      and\n      dup3\n      add\n      swap2\n    tag_114:\n      pop\n      pop\n      pop\n      pop\n      pop\n      swap1\n      pop\n        /* \"contracts/Monkey.sol\":2148:2248  function name() public view virtual override returns (string memory) {... */\n      swap1\n      jump\t// out\n        /* \"contracts/Monkey.sol\":4506:4725  function getApproved(uint256 tokenId) public view virtual override returns (address) {... */\n    tag_39:\n        /* \"contracts/Monkey.sol\":4582:4589  address */\n      0x00\n        /* \"contracts/Monkey.sol\":4610:4626  _exists(tokenId) */\n      tag_118\n        /* \"contracts/Monkey.sol\":4618:4625  tokenId */\n      dup3\n        /* \"contracts/Monkey.sol\":4610:4617  _exists */\n      tag_119\n        /* \"contracts/Monkey.sol\":4610:4626  _exists(tokenId) */\n      jump\t// in\n    tag_118:\n        /* \"contracts/Monkey.sol\":4602:4675  require(_exists(tokenId), \"ERC721: Approved query for nonexistent token\") */\n      tag_120\n      jumpi\n      mload(0x40)\n      0x08c379a000000000000000000000000000000000000000000000000000000000\n      dup2\n      mstore\n      0x04\n      add\n      tag_121\n      swap1\n      tag_122\n      jump\t// in\n    tag_121:\n      mload(0x40)\n      dup1\n      swap2\n      sub\n      swap1\n      revert\n    tag_120:\n        /* \"contracts/Monkey.sol\":4693:4708  _tokenApprovals */\n      0x09\n        /* \"contracts/Monkey.sol\":4693:4717  _tokenApprovals[tokenId] */\n      0x00\n        /* \"contracts/Monkey.sol\":4709:4716  tokenId */\n      dup4\n        /* \"contracts/Monkey.sol\":4693:4717  _tokenApprovals[tokenId] */\n      dup2\n      mstore\n      0x20\n      add\n      swap1\n      dup2\n      mstore\n      0x20\n      add\n      0x00\n      keccak256\n      0x00\n      swap1\n      sload\n      swap1\n      0x0100\n      exp\n      swap1\n      div\n      0xffffffffffffffffffffffffffffffffffffffff\n      and\n        /* \"contracts/Monkey.sol\":4686:4717  return _tokenApprovals[tokenId] */\n      swap1\n      pop\n        /* \"contracts/Monkey.sol\":4506:4725  function getApproved(uint256 tokenId) public view virtual override returns (address) {... */\n      swap2\n      swap1\n      pop\n      jump\t// out\n        /* \"contracts/Monkey.sol\":3750:4203  function approve(address to, uint256 tokenId) public virtual override {... */\n    tag_45:\n        /* \"contracts/Monkey.sol\":3831:3844  address owner */\n      0x00\n        /* \"contracts/Monkey.sol\":3847:3863  ownerOf(tokenId) */\n      tag_124\n        /* \"contracts/Monkey.sol\":3855:3862  tokenId */\n      dup3\n        /* \"contracts/Monkey.sol\":3847:3854  ownerOf */\n      tag_65\n        /* \"contracts/Monkey.sol\":3847:3863  ownerOf(tokenId) */\n      jump\t// in\n    tag_124:\n        /* \"contracts/Monkey.sol\":3831:3863  address owner = ownerOf(tokenId) */\n      swap1\n      pop\n        /* \"contracts/Monkey.sol\":3888:3893  owner */\n      dup1\n        /* \"contracts/Monkey.sol\":3882:3893  to != owner */\n      0xffffffffffffffffffffffffffffffffffffffff\n      and\n        /* \"contracts/Monkey.sol\":3882:3884  to */\n      dup4\n        /* \"contracts/Monkey.sol\":3882:3893  to != owner */\n      0xffffffffffffffffffffffffffffffffffffffff\n      and\n      sub\n        /* \"contracts/Monkey.sol\":3874:3931  require(to != owner, \"ERC721: Approval to current owner\") */\n      tag_125\n      jumpi\n      mload(0x40)\n      0x08c379a000000000000000000000000000000000000000000000000000000000\n      dup2\n      mstore\n      0x04\n      add\n      tag_126\n      swap1\n      tag_127\n      jump\t// in\n    tag_126:\n      mload(0x40)\n      dup1\n      swap2\n      sub\n      swap1\n      revert\n    tag_125:\n        /* \"contracts/Monkey.sol\":3978:3983  owner */\n      dup1\n        /* \"contracts/Monkey.sol\":3964:3983  msg.sender == owner */\n      0xffffffffffffffffffffffffffffffffffffffff\n      and\n        /* \"contracts/Monkey.sol\":3964:3974  msg.sender */\n      caller\n        /* \"contracts/Monkey.sol\":3964:3983  msg.sender == owner */\n      0xffffffffffffffffffffffffffffffffffffffff\n      and\n      eq\n        /* \"contracts/Monkey.sol\":3964:4022  msg.sender == owner || isApprovedForAll(owner, msg.sender) */\n      dup1\n      tag_128\n      jumpi\n      pop\n        /* \"contracts/Monkey.sol\":3987:4022  isApprovedForAll(owner, msg.sender) */\n      tag_129\n        /* \"contracts/Monkey.sol\":4004:4009  owner */\n      dup2\n        /* \"contracts/Monkey.sol\":4011:4021  msg.sender */\n      caller\n        /* \"contracts/Monkey.sol\":3987:4003  isApprovedForAll */\n      tag_107\n        /* \"contracts/Monkey.sol\":3987:4022  isApprovedForAll(owner, msg.sender) */\n      jump\t// in\n    tag_129:\n        /* \"contracts/Monkey.sol\":3964:4022  msg.sender == owner || isApprovedForAll(owner, msg.sender) */\n    tag_128:\n        /* \"contracts/Monkey.sol\":3942:4111  require(... */\n      tag_130\n      jumpi\n      mload(0x40)\n      0x08c379a000000000000000000000000000000000000000000000000000000000\n      dup2\n      mstore\n      0x04\n      add\n      tag_131\n      swap1\n      tag_132\n      jump\t// in\n    tag_131:\n      mload(0x40)\n      dup1\n      swap2\n      sub\n      swap1\n      revert\n    tag_130:\n        /* \"contracts/Monkey.sol\":4149:4151  to */\n      dup3\n        /* \"contracts/Monkey.sol\":4122:4137  _tokenApprovals */\n      0x09\n        /* \"contracts/Monkey.sol\":4122:4146  _tokenApprovals[tokenId] */\n      0x00\n        /* \"contracts/Monkey.sol\":4138:4145  tokenId */\n      dup5\n        /* \"contracts/Monkey.sol\":4122:4146  _tokenApprovals[tokenId] */\n      dup2\n      mstore\n      0x20\n      add\n      swap1\n      dup2\n      mstore\n      0x20\n      add\n      0x00\n      keccak256\n      0x00\n        /* \"contracts/Monkey.sol\":4122:4151  _tokenApprovals[tokenId] = to */\n      0x0100\n      exp\n      dup2\n      sload\n      dup2\n      0xffffffffffffffffffffffffffffffffffffffff\n      mul\n      not\n      and\n      swap1\n      dup4\n      0xffffffffffffffffffffffffffffffffffffffff\n      and\n      mul\n      or\n      swap1\n      sstore\n      pop\n        /* \"contracts/Monkey.sol\":4187:4194  tokenId */\n      dup2\n        /* \"contracts/Monkey.sol\":4183:4185  to */\n      dup4\n        /* \"contracts/Monkey.sol\":4167:4195  Approval(owner, to, tokenId) */\n      0xffffffffffffffffffffffffffffffffffffffff\n      and\n        /* \"contracts/Monkey.sol\":4176:4181  owner */\n      dup3\n        /* \"contracts/Monkey.sol\":4167:4195  Approval(owner, to, tokenId) */\n      0xffffffffffffffffffffffffffffffffffffffff\n      and\n      0x8c5be1e5ebec7d5bd14f71427d1e84f3dd0314c0f7b2291e5b200ac8c7c3b925\n      mload(0x40)\n      mload(0x40)\n      dup1\n      swap2\n      sub\n      swap1\n      log4\n        /* \"contracts/Monkey.sol\":3820:4203  {... */\n      pop\n        /* \"contracts/Monkey.sol\":3750:4203  function approve(address to, uint256 tokenId) public virtual override {... */\n      pop\n      pop\n      jump\t// out\n        /* \"contracts/Monkey.sol\":5765:6652  function mintMonkey(address to, string memory monkeyName, uint8 rarity, uint8 powerType, uint256 attack, uint256 health) external returns (uint256) {... */\n    tag_49:\n        /* \"contracts/Monkey.sol\":5904:5911  uint256 */\n      0x00\n        /* \"contracts/Monkey.sol\":5946:5959  gachaContract */\n      0x05\n      0x00\n      swap1\n      sload\n      swap1\n      0x0100\n      exp\n      swap1\n      div\n      0xffffffffffffffffffffffffffffffffffffffff\n      and\n        /* \"contracts/Monkey.sol\":5932:5959  msg.sender == gachaContract */\n      0xffffffffffffffffffffffffffffffffffffffff\n      and\n        /* \"contracts/Monkey.sol\":5932:5942  msg.sender */\n      caller\n        /* \"contracts/Monkey.sol\":5932:5959  msg.sender == gachaContract */\n      0xffffffffffffffffffffffffffffffffffffffff\n      and\n      eq\n        /* \"contracts/Monkey.sol\":5924:5960  require(msg.sender == gachaContract) */\n      tag_134\n      jumpi\n      0x00\n      dup1\n      revert\n    tag_134:\n        /* \"contracts/Monkey.sol\":5993:5994  0 */\n      0x00\n        /* \"contracts/Monkey.sol\":5979:5995  to != address(0) */\n      0xffffffffffffffffffffffffffffffffffffffff\n      and\n        /* \"contracts/Monkey.sol\":5979:5981  to */\n      dup8\n        /* \"contracts/Monkey.sol\":5979:5995  to != address(0) */\n      0xffffffffffffffffffffffffffffffffffffffff\n      and\n      sub\n        /* \"contracts/Monkey.sol\":5971:6027  require(to != address(0), \"Cannot mint to zero address\") */\n      tag_135\n      jumpi\n      mload(0x40)\n      0x08c379a000000000000000000000000000000000000000000000000000000000\n      dup2\n      mstore\n      0x04\n      add\n      tag_136\n      swap1\n      tag_137\n      jump\t// in\n    tag_136:\n      mload(0x40)\n      dup1\n      swap2\n      sub\n      swap1\n      revert\n    tag_135:\n        /* \"contracts/Monkey.sol\":6062:6078  Rarity.Legendary */\n      0x03\n        /* \"contracts/Monkey.sol\":6056:6079  uint8(Rarity.Legendary) */\n      dup1\n      dup2\n      gt\n      iszero\n      tag_138\n      jumpi\n      tag_139\n      tag_140\n      jump\t// in\n    tag_139:\n    tag_138:\n        /* \"contracts/Monkey.sol\":6046:6079  rarity <= uint8(Rarity.Legendary) */\n      0xff\n      and\n        /* \"contracts/Monkey.sol\":6046:6052  rarity */\n      dup6\n        /* \"contracts/Monkey.sol\":6046:6079  rarity <= uint8(Rarity.Legendary) */\n      0xff\n      and\n      gt\n      iszero\n        /* \"contracts/Monkey.sol\":6038:6098  require(rarity <= uint8(Rarity.Legendary), \"Invalid rarity\") */\n      tag_141\n      jumpi\n      mload(0x40)\n      0x08c379a000000000000000000000000000000000000000000000000000000000\n      dup2\n      mstore\n      0x04\n      add\n      tag_142\n      swap1\n      tag_143\n      jump\t// in\n    tag_142:\n      mload(0x40)\n      dup1\n      swap2\n      sub\n      swap1\n      revert\n    tag_141:\n        /* \"contracts/Monkey.sol\":6136:6151  PowerType.Earth */\n      0x02\n        /* \"contracts/Monkey.sol\":6130:6152  uint8(PowerType.Earth) */\n      dup1\n      dup2\n      gt\n      iszero\n      tag_144\n      jumpi\n      tag_145\n      tag_140\n      jump\t// in\n    tag_145:\n    tag_144:\n        /* \"contracts/Monkey.sol\":6117:6152  powerType <= uint8(PowerType.Earth) */\n      0xff\n      and\n        /* \"contracts/Monkey.sol\":6117:6126  powerType */\n      dup5\n        /* \"contracts/Monkey.sol\":6117:6152  powerType <= uint8(PowerType.Earth) */\n      0xff\n      and\n      gt\n      iszero\n        /* \"contracts/Monkey.sol\":6109:6175  require(powerType <= uint8(PowerType.Earth), \"Invalid power type\") */\n      tag_146\n      jumpi\n      mload(0x40)\n      0x08c379a000000000000000000000000000000000000000000000000000000000\n      dup2\n      mstore\n      0x04\n      add\n      tag_147\n      swap1\n      tag_148\n      jump\t// in\n    tag_147:\n      mload(0x40)\n      dup1\n      swap2\n      sub\n      swap1\n      revert\n    tag_146:\n        /* \"contracts/Monkey.sol\":6188:6203  uint256 tokenId */\n      0x00\n        /* \"contracts/Monkey.sol\":6206:6221  _tokenIdCounter */\n      sload(0x06)\n        /* \"contracts/Monkey.sol\":6188:6221  uint256 tokenId = _tokenIdCounter */\n      swap1\n      pop\n        /* \"contracts/Monkey.sol\":6232:6250  _mint(to, tokenId) */\n      tag_149\n        /* \"contracts/Monkey.sol\":6238:6240  to */\n      dup9\n        /* \"contracts/Monkey.sol\":6242:6249  tokenId */\n      dup3\n        /* \"contracts/Monkey.sol\":6232:6237  _mint */\n      tag_150\n        /* \"contracts/Monkey.sol\":6232:6250  _mint(to, tokenId) */\n      jump\t// in\n    tag_149:\n        /* \"contracts/Monkey.sol\":6283:6501  Monkey({... */\n      mload(0x40)\n      dup1\n      0xc0\n      add\n      0x40\n      mstore\n      dup1\n        /* \"contracts/Monkey.sol\":6309:6316  tokenId */\n      dup3\n        /* \"contracts/Monkey.sol\":6283:6501  Monkey({... */\n      dup2\n      mstore\n      0x20\n      add\n        /* \"contracts/Monkey.sol\":6338:6348  monkeyName */\n      dup9\n        /* \"contracts/Monkey.sol\":6283:6501  Monkey({... */\n      dup2\n      mstore\n      0x20\n      add\n        /* \"contracts/Monkey.sol\":6378:6384  rarity */\n      dup8\n        /* \"contracts/Monkey.sol\":6371:6385  Rarity(rarity) */\n      0xff\n      and\n      0x03\n      dup2\n      gt\n      iszero\n      tag_151\n      jumpi\n      tag_152\n      tag_140\n      jump\t// in\n    tag_152:\n    tag_151:\n        /* \"contracts/Monkey.sol\":6283:6501  Monkey({... */\n      0x03\n      dup2\n      gt\n      iszero\n      tag_153\n      jumpi\n      tag_154\n      tag_140\n      jump\t// in\n    tag_154:\n    tag_153:\n      dup2\n      mstore\n      0x20\n      add\n        /* \"contracts/Monkey.sol\":6421:6430  powerType */\n      dup7\n        /* \"contracts/Monkey.sol\":6411:6431  PowerType(powerType) */\n      0xff\n      and\n      0x02\n      dup2\n      gt\n      iszero\n      tag_155\n      jumpi\n      tag_156\n      tag_140\n      jump\t// in\n    tag_156:\n    tag_155:\n        /* \"contracts/Monkey.sol\":6283:6501  Monkey({... */\n      0x02\n      dup2\n      gt\n      iszero\n      tag_157\n      jumpi\n      tag_158\n      tag_140\n      jump\t// in\n    tag_158:\n    tag_157:\n      dup2\n      mstore\n      0x20\n      add\n        /* \"contracts/Monkey.sol\":6454:6460  attack */\n      dup6\n        /* \"contracts/Monkey.sol\":6283:6501  Monkey({... */\n      dup2\n      mstore\n      0x20\n      add\n        /* \"contracts/Monkey.sol\":6483:6489  health */\n      dup5\n        /* \"contracts/Monkey.sol\":6283:6501  Monkey({... */\n      dup2\n      mstore\n      pop\n        /* \"contracts/Monkey.sol\":6263:6271  _monkeys */\n      0x0b\n        /* \"contracts/Monkey.sol\":6263:6280  _monkeys[tokenId] */\n      0x00\n        /* \"contracts/Monkey.sol\":6272:6279  tokenId */\n      dup4\n        /* \"contracts/Monkey.sol\":6263:6280  _monkeys[tokenId] */\n      dup2\n      mstore\n      0x20\n      add\n      swap1\n      dup2\n      mstore\n      0x20\n      add\n      0x00\n      keccak256\n        /* \"contracts/Monkey.sol\":6263:6501  _monkeys[tokenId] = Monkey({... */\n      0x00\n      dup3\n      add\n      mload\n      dup2\n      0x00\n      add\n      sstore\n      0x20\n      dup3\n      add\n      mload\n      dup2\n      0x01\n      add\n      swap1\n      dup2\n      tag_159\n      swap2\n      swap1\n      tag_160\n      jump\t// in\n    tag_159:\n      pop\n      0x40\n      dup3\n      add\n      mload\n      dup2\n      0x02\n      add\n      exp(0x0100, 0x00)\n      dup2\n      sload\n      dup2\n      0xff\n      mul\n      not\n      and\n      swap1\n      dup4\n      0x03\n      dup2\n      gt\n      iszero\n      tag_161\n      jumpi\n      tag_162\n      tag_140\n      jump\t// in\n    tag_162:\n    tag_161:\n      mul\n      or\n      swap1\n      sstore\n      pop\n      0x60\n      dup3\n      add\n      mload\n      dup2\n      0x02\n      add\n      exp(0x0100, 0x01)\n      dup2\n      sload\n      dup2\n      0xff\n      mul\n      not\n      and\n      swap1\n      dup4\n      0x02\n      dup2\n      gt\n      iszero\n      tag_163\n      jumpi\n      tag_164\n      tag_140\n      jump\t// in\n    tag_164:\n    tag_163:\n      mul\n      or\n      swap1\n      sstore\n      pop\n      0x80\n      dup3\n      add\n      mload\n      dup2\n      0x03\n      add\n      sstore\n      0xa0\n      dup3\n      add\n      mload\n      dup2\n      0x04\n      add\n      sstore\n      swap1\n      pop\n      pop\n        /* \"contracts/Monkey.sol\":6514:6529  _tokenIdCounter */\n      0x06\n      0x00\n        /* \"contracts/Monkey.sol\":6514:6531  _tokenIdCounter++ */\n      dup2\n      sload\n      dup1\n      swap3\n      swap2\n      swap1\n      tag_165\n      swap1\n      tag_166\n      jump\t// in\n    tag_165:\n      swap2\n      swap1\n      pop\n      sstore\n      pop\n        /* \"contracts/Monkey.sol\":6561:6568  tokenId */\n      dup1\n        /* \"contracts/Monkey.sol\":6547:6619  MonkeyCreated(tokenId, monkeyName, Rarity(rarity), PowerType(powerType)) */\n      0x6a8e7fd37da999fc1925f460fe0c050176f4c334d0455d03ab25beab51ed0264\n        /* \"contracts/Monkey.sol\":6570:6580  monkeyName */\n      dup9\n        /* \"contracts/Monkey.sol\":6589:6595  rarity */\n      dup9\n        /* \"contracts/Monkey.sol\":6582:6596  Rarity(rarity) */\n      0xff\n      and\n      0x03\n      dup2\n      gt\n      iszero\n      tag_167\n      jumpi\n      tag_168\n      tag_140\n      jump\t// in\n    tag_168:\n    tag_167:\n        /* \"contracts/Monkey.sol\":6608:6617  powerType */\n      dup9\n        /* \"contracts/Monkey.sol\":6598:6618  PowerType(powerType) */\n      0xff\n      and\n      0x02\n      dup2\n      gt\n      iszero\n      tag_169\n      jumpi\n      tag_170\n      tag_140\n      jump\t// in\n    tag_170:\n    tag_169:\n        /* \"contracts/Monkey.sol\":6547:6619  MonkeyCreated(tokenId, monkeyName, Rarity(rarity), PowerType(powerType)) */\n      mload(0x40)\n      tag_171\n      swap4\n      swap3\n      swap2\n      swap1\n      tag_172\n      jump\t// in\n    tag_171:\n      mload(0x40)\n      dup1\n      swap2\n      sub\n      swap1\n      log2\n        /* \"contracts/Monkey.sol\":6637:6644  tokenId */\n      dup1\n        /* \"contracts/Monkey.sol\":6630:6644  return tokenId */\n      swap2\n      pop\n      pop\n        /* \"contracts/Monkey.sol\":5765:6652  function mintMonkey(address to, string memory monkeyName, uint8 rarity, uint8 powerType, uint256 attack, uint256 health) external returns (uint256) {... */\n      swap7\n      swap6\n      pop\n      pop\n      pop\n      pop\n      pop\n      pop\n      jump\t// out\n        /* \"contracts/Monkey.sol\":4905:5149  function transferFrom(address from, address to, uint256 tokenId) public virtual override {... */\n    tag_55:\n        /* \"contracts/Monkey.sol\":5013:5052  _isApprovedOrOwner(msg.sender, tokenId) */\n      tag_174\n        /* \"contracts/Monkey.sol\":5032:5042  msg.sender */\n      caller\n        /* \"contracts/Monkey.sol\":5044:5051  tokenId */\n      dup3\n        /* \"contracts/Monkey.sol\":5013:5031  _isApprovedOrOwner */\n      tag_175\n        /* \"contracts/Monkey.sol\":5013:5052  _isApprovedOrOwner(msg.sender, tokenId) */\n      jump\t// in\n    tag_174:\n        /* \"contracts/Monkey.sol\":5005:5102  require(_isApprovedOrOwner(msg.sender, tokenId), \"ERC721: Caller is not token owner or approved\") */\n      tag_176\n      jumpi\n      mload(0x40)\n      0x08c379a000000000000000000000000000000000000000000000000000000000\n      dup2\n      mstore\n      0x04\n      add\n      tag_177\n      swap1\n      tag_178\n      jump\t// in\n    tag_177:\n      mload(0x40)\n      dup1\n      swap2\n      sub\n      swap1\n      revert\n    tag_176:\n        /* \"contracts/Monkey.sol\":5113:5141  _transfer(from, to, tokenId) */\n      tag_179\n        /* \"contracts/Monkey.sol\":5123:5127  from */\n      dup4\n        /* \"contracts/Monkey.sol\":5129:5131  to */\n      dup4\n        /* \"contracts/Monkey.sol\":5133:5140  tokenId */\n      dup4\n        /* \"contracts/Monkey.sol\":5113:5122  _transfer */\n      tag_180\n        /* \"contracts/Monkey.sol\":5113:5141  _transfer(from, to, tokenId) */\n      jump\t// in\n    tag_179:\n        /* \"contracts/Monkey.sol\":4905:5149  function transferFrom(address from, address to, uint256 tokenId) public virtual override {... */\n      pop\n      pop\n      pop\n      jump\t// out\n        /* \"contracts/Monkey.sol\":5321:5472  function safeTransferFrom(address from, address to, uint256 tokenId) public virtual override {... */\n    tag_58:\n        /* \"contracts/Monkey.sol\":5425:5464  safeTransferFrom(from, to, tokenId, \"\") */\n      tag_182\n        /* \"contracts/Monkey.sol\":5442:5446  from */\n      dup4\n        /* \"contracts/Monkey.sol\":5448:5450  to */\n      dup4\n        /* \"contracts/Monkey.sol\":5452:5459  tokenId */\n      dup4\n        /* \"contracts/Monkey.sol\":5425:5464  safeTransferFrom(from, to, tokenId, \"\") */\n      mload(0x40)\n      dup1\n      0x20\n      add\n      0x40\n      mstore\n      dup1\n      0x00\n      dup2\n      mstore\n      pop\n        /* \"contracts/Monkey.sol\":5425:5441  safeTransferFrom */\n      tag_96\n        /* \"contracts/Monkey.sol\":5425:5464  safeTransferFrom(from, to, tokenId, \"\") */\n      jump\t// in\n    tag_182:\n        /* \"contracts/Monkey.sol\":5321:5472  function safeTransferFrom(address from, address to, uint256 tokenId) public virtual override {... */\n      pop\n      pop\n      pop\n      jump\t// out\n        /* \"contracts/Monkey.sol\":2716:2989  function setBaseURI(string memory newBaseURI) external onlyOwner {... */\n    tag_62:\n        /* \"contracts/Ownable.sol\":584:593  isOwner() */\n      tag_184\n        /* \"contracts/Ownable.sol\":584:591  isOwner */\n      tag_76\n        /* \"contracts/Ownable.sol\":584:593  isOwner() */\n      jump\t// in\n    tag_184:\n        /* \"contracts/Ownable.sol\":576:644  require(isOwner(), ... */\n      tag_185\n      jumpi\n      mload(0x40)\n      0x08c379a000000000000000000000000000000000000000000000000000000000\n      dup2\n      mstore\n      0x04\n      add\n      tag_186\n      swap1\n      tag_187\n      jump\t// in\n    tag_186:\n      mload(0x40)\n      dup1\n      swap2\n      sub\n      swap1\n      revert\n    tag_185:\n        /* \"contracts/Monkey.sol\":2827:2828  0 */\n      0x00\n        /* \"contracts/Monkey.sol\":2806:2816  newBaseURI */\n      dup2\n        /* \"contracts/Monkey.sol\":2800:2824  bytes(newBaseURI).length */\n      mload\n        /* \"contracts/Monkey.sol\":2800:2828  bytes(newBaseURI).length > 0 */\n      gt\n        /* \"contracts/Monkey.sol\":2792:2847  require(bytes(newBaseURI).length > 0, \"Empty base URI\") */\n      tag_189\n      jumpi\n      mload(0x40)\n      0x08c379a000000000000000000000000000000000000000000000000000000000\n      dup2\n      mstore\n      0x04\n      add\n      tag_190\n      swap1\n      tag_191\n      jump\t// in\n    tag_190:\n      mload(0x40)\n      dup1\n      swap2\n      sub\n      swap1\n      revert\n    tag_189:\n        /* \"contracts/Monkey.sol\":2858:2878  string memory oldURI */\n      0x00\n        /* \"contracts/Monkey.sol\":2881:2894  _baseTokenURI */\n      0x04\n        /* \"contracts/Monkey.sol\":2858:2894  string memory oldURI = _baseTokenURI */\n      dup1\n      sload\n      tag_192\n      swap1\n      tag_112\n      jump\t// in\n    tag_192:\n      dup1\n      0x1f\n      add\n      0x20\n      dup1\n      swap2\n      div\n      mul\n      0x20\n      add\n      mload(0x40)\n      swap1\n      dup2\n      add\n      0x40\n      mstore\n      dup1\n      swap3\n      swap2\n      swap1\n      dup2\n      dup2\n      mstore\n      0x20\n      add\n      dup3\n      dup1\n      sload\n      tag_193\n      swap1\n      tag_112\n      jump\t// in\n    tag_193:\n      dup1\n      iszero\n      tag_194\n      jumpi\n      dup1\n      0x1f\n      lt\n      tag_195\n      jumpi\n      0x0100\n      dup1\n      dup4\n      sload\n      div\n      mul\n      dup4\n      mstore\n      swap2\n      0x20\n      add\n      swap2\n      jump(tag_194)\n    tag_195:\n      dup3\n      add\n      swap2\n      swap1\n      0x00\n      mstore\n      keccak256(0x00, 0x20)\n      swap1\n    tag_196:\n      dup2\n      sload\n      dup2\n      mstore\n      swap1\n      0x01\n      add\n      swap1\n      0x20\n      add\n      dup1\n      dup4\n      gt\n      tag_196\n      jumpi\n      dup3\n      swap1\n      sub\n      0x1f\n      and\n      dup3\n      add\n      swap2\n    tag_194:\n      pop\n      pop\n      pop\n      pop\n      pop\n      swap1\n      pop\n        /* \"contracts/Monkey.sol\":2921:2931  newBaseURI */\n      dup2\n        /* \"contracts/Monkey.sol\":2905:2918  _baseTokenURI */\n      0x04\n        /* \"contracts/Monkey.sol\":2905:2931  _baseTokenURI = newBaseURI */\n      swap1\n      dup2\n      tag_197\n      swap2\n      swap1\n      tag_160\n      jump\t// in\n    tag_197:\n      pop\n        /* \"contracts/Monkey.sol\":2947:2981  BaseURIUpdated(oldURI, newBaseURI) */\n      0x309b29ded109b9e28fb9885757b3e0096eb75c51d23aa4635d68bcd569f6adc1\n        /* \"contracts/Monkey.sol\":2962:2968  oldURI */\n      dup2\n        /* \"contracts/Monkey.sol\":2970:2980  newBaseURI */\n      dup4\n        /* \"contracts/Monkey.sol\":2947:2981  BaseURIUpdated(oldURI, newBaseURI) */\n      mload(0x40)\n      tag_198\n      swap3\n      swap2\n      swap1\n      tag_199\n      jump\t// in\n    tag_198:\n      mload(0x40)\n      dup1\n      swap2\n      sub\n      swap1\n      log1\n        /* \"contracts/Monkey.sol\":2781:2989  {... */\n      pop\n        /* \"contracts/Monkey.sol\":2716:2989  function setBaseURI(string memory newBaseURI) external onlyOwner {... */\n      pop\n      jump\t// out\n        /* \"contracts/Monkey.sol\":3520:3742  function ownerOf(uint256 tokenId) public view virtual override returns (address) {... */\n    tag_65:\n        /* \"contracts/Monkey.sol\":3592:3599  address */\n      0x00\n        /* \"contracts/Monkey.sol\":3612:3625  address owner */\n      dup1\n        /* \"contracts/Monkey.sol\":3628:3635  _owners */\n      0x07\n        /* \"contracts/Monkey.sol\":3628:3644  _owners[tokenId] */\n      0x00\n        /* \"contracts/Monkey.sol\":3636:3643  tokenId */\n      dup5\n        /* \"contracts/Monkey.sol\":3628:3644  _owners[tokenId] */\n      dup2\n      mstore\n      0x20\n      add\n      swap1\n      dup2\n      mstore\n      0x20\n      add\n      0x00\n      keccak256\n      0x00\n      swap1\n      sload\n      swap1\n      0x0100\n      exp\n      swap1\n      div\n      0xffffffffffffffffffffffffffffffffffffffff\n      and\n        /* \"contracts/Monkey.sol\":3612:3644  address owner = _owners[tokenId] */\n      swap1\n      pop\n        /* \"contracts/Monkey.sol\":3680:3681  0 */\n      0x00\n        /* \"contracts/Monkey.sol\":3663:3682  owner != address(0) */\n      0xffffffffffffffffffffffffffffffffffffffff\n      and\n        /* \"contracts/Monkey.sol\":3663:3668  owner */\n      dup2\n        /* \"contracts/Monkey.sol\":3663:3682  owner != address(0) */\n      0xffffffffffffffffffffffffffffffffffffffff\n      and\n      sub\n        /* \"contracts/Monkey.sol\":3655:3711  require(owner != address(0), \"ERC721: Invalid token ID\") */\n      tag_201\n      jumpi\n      mload(0x40)\n      0x08c379a000000000000000000000000000000000000000000000000000000000\n      dup2\n      mstore\n      0x04\n      add\n      tag_202\n      swap1\n      tag_203\n      jump\t// in\n    tag_202:\n      mload(0x40)\n      dup1\n      swap2\n      sub\n      swap1\n      revert\n    tag_201:\n        /* \"contracts/Monkey.sol\":3729:3734  owner */\n      dup1\n        /* \"contracts/Monkey.sol\":3722:3734  return owner */\n      swap2\n      pop\n      pop\n        /* \"contracts/Monkey.sol\":3520:3742  function ownerOf(uint256 tokenId) public view virtual override returns (address) {... */\n      swap2\n      swap1\n      pop\n      jump\t// out\n        /* \"contracts/Monkey.sol\":3305:3512  function balanceOf(address owner) public view virtual override returns (uint256) {... */\n    tag_70:\n        /* \"contracts/Monkey.sol\":3377:3384  uint256 */\n      0x00\n        /* \"contracts/Monkey.sol\":3422:3423  0 */\n      dup1\n        /* \"contracts/Monkey.sol\":3405:3424  owner != address(0) */\n      0xffffffffffffffffffffffffffffffffffffffff\n      and\n        /* \"contracts/Monkey.sol\":3405:3410  owner */\n      dup3\n        /* \"contracts/Monkey.sol\":3405:3424  owner != address(0) */\n      0xffffffffffffffffffffffffffffffffffffffff\n      and\n      sub\n        /* \"contracts/Monkey.sol\":3397:3470  require(owner != address(0), \"ERC721: Address zero is not a valid owner\") */\n      tag_205\n      jumpi\n      mload(0x40)\n      0x08c379a000000000000000000000000000000000000000000000000000000000\n      dup2\n      mstore\n      0x04\n      add\n      tag_206\n      swap1\n      tag_207\n      jump\t// in\n    tag_206:\n      mload(0x40)\n      dup1\n      swap2\n      sub\n      swap1\n      revert\n    tag_205:\n        /* \"contracts/Monkey.sol\":3488:3497  _balances */\n      0x08\n        /* \"contracts/Monkey.sol\":3488:3504  _balances[owner] */\n      0x00\n        /* \"contracts/Monkey.sol\":3498:3503  owner */\n      dup4\n        /* \"contracts/Monkey.sol\":3488:3504  _balances[owner] */\n      0xffffffffffffffffffffffffffffffffffffffff\n      and\n      0xffffffffffffffffffffffffffffffffffffffff\n      and\n      dup2\n      mstore\n      0x20\n      add\n      swap1\n      dup2\n      mstore\n      0x20\n      add\n      0x00\n      keccak256\n      sload\n        /* \"contracts/Monkey.sol\":3481:3504  return _balances[owner] */\n      swap1\n      pop\n        /* \"contracts/Monkey.sol\":3305:3512  function balanceOf(address owner) public view virtual override returns (uint256) {... */\n      swap2\n      swap1\n      pop\n      jump\t// out\n        /* \"contracts/Ownable.sol\":353:432  function owner() public view returns(address)  ... */\n    tag_73:\n        /* \"contracts/Ownable.sol\":390:397  address */\n      0x00\n        /* \"contracts/Ownable.sol\":419:425  _owner */\n      0x01\n      0x00\n      swap1\n      sload\n      swap1\n      0x0100\n      exp\n      swap1\n      div\n      0xffffffffffffffffffffffffffffffffffffffff\n      and\n        /* \"contracts/Ownable.sol\":412:425  return _owner */\n      swap1\n      pop\n        /* \"contracts/Ownable.sol\":353:432  function owner() public view returns(address)  ... */\n      swap1\n      jump\t// out\n        /* \"contracts/Ownable.sol\":763:855  function isOwner() public view returns(bool)  ... */\n    tag_76:\n        /* \"contracts/Ownable.sol\":802:806  bool */\n      0x00\n        /* \"contracts/Ownable.sol\":842:848  _owner */\n      0x01\n      0x00\n      swap1\n      sload\n      swap1\n      0x0100\n      exp\n      swap1\n      div\n      0xffffffffffffffffffffffffffffffffffffffff\n      and\n        /* \"contracts/Ownable.sol\":828:848  msg.sender == _owner */\n      0xffffffffffffffffffffffffffffffffffffffff\n      and\n        /* \"contracts/Ownable.sol\":828:838  msg.sender */\n      caller\n        /* \"contracts/Ownable.sol\":828:848  msg.sender == _owner */\n      0xffffffffffffffffffffffffffffffffffffffff\n      and\n      eq\n        /* \"contracts/Ownable.sol\":821:848  return msg.sender == _owner */\n      swap1\n      pop\n        /* \"contracts/Ownable.sol\":763:855  function isOwner() public view returns(bool)  ... */\n      swap1\n      jump\t// out\n        /* \"contracts/Monkey.sol\":2256:2360  function symbol() public view virtual override returns (string memory) {... */\n    tag_79:\n        /* \"contracts/Monkey.sol\":2312:2325  string memory */\n      0x60\n        /* \"contracts/Monkey.sol\":2345:2352  _symbol */\n      0x03\n        /* \"contracts/Monkey.sol\":2338:2352  return _symbol */\n      dup1\n      sload\n      tag_211\n      swap1\n      tag_112\n      jump\t// in\n    tag_211:\n      dup1\n      0x1f\n      add\n      0x20\n      dup1\n      swap2\n      div\n      mul\n      0x20\n      add\n      mload(0x40)\n      swap1\n      dup2\n      add\n      0x40\n      mstore\n      dup1\n      swap3\n      swap2\n      swap1\n      dup2\n      dup2\n      mstore\n      0x20\n      add\n      dup3\n      dup1\n      sload\n      tag_212\n      swap1\n      tag_112\n      jump\t// in\n    tag_212:\n      dup1\n      iszero\n      tag_213\n      jumpi\n      dup1\n      0x1f\n      lt\n      tag_214\n      jumpi\n      0x0100\n      dup1\n      dup4\n      sload\n      div\n      mul\n      dup4\n      mstore\n      swap2\n      0x20\n      add\n      swap2\n      jump(tag_213)\n    tag_214:\n      dup3\n      add\n      swap2\n      swap1\n      0x00\n      mstore\n      keccak256(0x00, 0x20)\n      swap1\n    tag_215:\n      dup2\n      sload\n      dup2\n      mstore\n      swap1\n      0x01\n      add\n      swap1\n      0x20\n      add\n      dup1\n      dup4\n      gt\n      tag_215\n      jumpi\n      dup3\n      swap1\n      sub\n      0x1f\n      and\n      dup3\n      add\n      swap2\n    tag_213:\n      pop\n      pop\n      pop\n      pop\n      pop\n      swap1\n      pop\n        /* \"contracts/Monkey.sol\":2256:2360  function symbol() public view virtual override returns (string memory) {... */\n      swap1\n      jump\t// out\n        /* \"contracts/Monkey.sol\":521:549  address public gachaContract */\n    tag_82:\n      0x05\n      0x00\n      swap1\n      sload\n      swap1\n      0x0100\n      exp\n      swap1\n      div\n      0xffffffffffffffffffffffffffffffffffffffff\n      and\n      dup2\n      jump\t// out\n        /* \"contracts/Monkey.sol\":4211:4498  function setApprovalForAll(address operator, bool approved) public virtual override {... */\n    tag_87:\n        /* \"contracts/Monkey.sol\":4328:4336  operator */\n      dup2\n        /* \"contracts/Monkey.sol\":4314:4336  msg.sender != operator */\n      0xffffffffffffffffffffffffffffffffffffffff\n      and\n        /* \"contracts/Monkey.sol\":4314:4324  msg.sender */\n      caller\n        /* \"contracts/Monkey.sol\":4314:4336  msg.sender != operator */\n      0xffffffffffffffffffffffffffffffffffffffff\n      and\n      sub\n        /* \"contracts/Monkey.sol\":4306:4366  require(msg.sender != operator, \"ERC721: Approve to caller\") */\n      tag_217\n      jumpi\n      mload(0x40)\n      0x08c379a000000000000000000000000000000000000000000000000000000000\n      dup2\n      mstore\n      0x04\n      add\n      tag_218\n      swap1\n      tag_219\n      jump\t// in\n    tag_218:\n      mload(0x40)\n      dup1\n      swap2\n      sub\n      swap1\n      revert\n    tag_217:\n        /* \"contracts/Monkey.sol\":4420:4428  approved */\n      dup1\n        /* \"contracts/Monkey.sol\":4377:4395  _operatorApprovals */\n      0x0a\n        /* \"contracts/Monkey.sol\":4377:4407  _operatorApprovals[msg.sender] */\n      0x00\n        /* \"contracts/Monkey.sol\":4396:4406  msg.sender */\n      caller\n        /* \"contracts/Monkey.sol\":4377:4407  _operatorApprovals[msg.sender] */\n      0xffffffffffffffffffffffffffffffffffffffff\n      and\n      0xffffffffffffffffffffffffffffffffffffffff\n      and\n      dup2\n      mstore\n      0x20\n      add\n      swap1\n      dup2\n      mstore\n      0x20\n      add\n      0x00\n      keccak256\n        /* \"contracts/Monkey.sol\":4377:4417  _operatorApprovals[msg.sender][operator] */\n      0x00\n        /* \"contracts/Monkey.sol\":4408:4416  operator */\n      dup5\n        /* \"contracts/Monkey.sol\":4377:4417  _operatorApprovals[msg.sender][operator] */\n      0xffffffffffffffffffffffffffffffffffffffff\n      and\n      0xffffffffffffffffffffffffffffffffffffffff\n      and\n      dup2\n      mstore\n      0x20\n      add\n      swap1\n      dup2\n      mstore\n      0x20\n      add\n      0x00\n      keccak256\n      0x00\n        /* \"contracts/Monkey.sol\":4377:4428  _operatorApprovals[msg.sender][operator] = approved */\n      0x0100\n      exp\n      dup2\n      sload\n      dup2\n      0xff\n      mul\n      not\n      and\n      swap1\n      dup4\n      iszero\n      iszero\n      mul\n      or\n      swap1\n      sstore\n      pop\n        /* \"contracts/Monkey.sol\":4471:4479  operator */\n      dup2\n        /* \"contracts/Monkey.sol\":4444:4490  ApprovalForAll(msg.sender, operator, approved) */\n      0xffffffffffffffffffffffffffffffffffffffff\n      and\n        /* \"contracts/Monkey.sol\":4459:4469  msg.sender */\n      caller\n        /* \"contracts/Monkey.sol\":4444:4490  ApprovalForAll(msg.sender, operator, approved) */\n      0xffffffffffffffffffffffffffffffffffffffff\n      and\n      0x17307eab39ab6107e8899845ad3d59bd9653f200f220920489ca2b5937696c31\n        /* \"contracts/Monkey.sol\":4481:4489  approved */\n      dup4\n        /* \"contracts/Monkey.sol\":4444:4490  ApprovalForAll(msg.sender, operator, approved) */\n      mload(0x40)\n      tag_220\n      swap2\n      swap1\n      tag_31\n      jump\t// in\n    tag_220:\n      mload(0x40)\n      dup1\n      swap2\n      sub\n      swap1\n      log3\n        /* \"contracts/Monkey.sol\":4211:4498  function setApprovalForAll(address operator, bool approved) public virtual override {... */\n      pop\n      pop\n      jump\t// out\n        /* \"contracts/Monkey.sol\":10024:10200  function getMonkey(uint256 tokenId) public view returns (Monkey memory) {... */\n    tag_90:\n        /* \"contracts/Monkey.sol\":10081:10094  Monkey memory */\n      tag_221\n      tag_222\n      jump\t// in\n    tag_221:\n        /* \"contracts/Monkey.sol\":10115:10131  _exists(tokenId) */\n      tag_224\n        /* \"contracts/Monkey.sol\":10123:10130  tokenId */\n      dup3\n        /* \"contracts/Monkey.sol\":10115:10122  _exists */\n      tag_119\n        /* \"contracts/Monkey.sol\":10115:10131  _exists(tokenId) */\n      jump\t// in\n    tag_224:\n        /* \"contracts/Monkey.sol\":10107:10157  require(_exists(tokenId), \"Monkey does not exist\") */\n      tag_225\n      jumpi\n      mload(0x40)\n      0x08c379a000000000000000000000000000000000000000000000000000000000\n      dup2\n      mstore\n      0x04\n      add\n      tag_226\n      swap1\n      tag_227\n      jump\t// in\n    tag_226:\n      mload(0x40)\n      dup1\n      swap2\n      sub\n      swap1\n      revert\n    tag_225:\n        /* \"contracts/Monkey.sol\":10175:10183  _monkeys */\n      0x0b\n        /* \"contracts/Monkey.sol\":10175:10192  _monkeys[tokenId] */\n      0x00\n        /* \"contracts/Monkey.sol\":10184:10191  tokenId */\n      dup4\n        /* \"contracts/Monkey.sol\":10175:10192  _monkeys[tokenId] */\n      dup2\n      mstore\n      0x20\n      add\n      swap1\n      dup2\n      mstore\n      0x20\n      add\n      0x00\n      keccak256\n        /* \"contracts/Monkey.sol\":10168:10192  return _monkeys[tokenId] */\n      mload(0x40)\n      dup1\n      0xc0\n      add\n      0x40\n      mstore\n      swap1\n      dup2\n      0x00\n      dup3\n      add\n      sload\n      dup2\n      mstore\n      0x20\n      add\n      0x01\n      dup3\n      add\n      dup1\n      sload\n      tag_228\n      swap1\n      tag_112\n      jump\t// in\n    tag_228:\n      dup1\n      0x1f\n      add\n      0x20\n      dup1\n      swap2\n      div\n      mul\n      0x20\n      add\n      mload(0x40)\n      swap1\n      dup2\n      add\n      0x40\n      mstore\n      dup1\n      swap3\n      swap2\n      swap1\n      dup2\n      dup2\n      mstore\n      0x20\n      add\n      dup3\n      dup1\n      sload\n      tag_229\n      swap1\n      tag_112\n      jump\t// in\n    tag_229:\n      dup1\n      iszero\n      tag_230\n      jumpi\n      dup1\n      0x1f\n      lt\n      tag_231\n      jumpi\n      0x0100\n      dup1\n      dup4\n      sload\n      div\n      mul\n      dup4\n      mstore\n      swap2\n      0x20\n      add\n      swap2\n      jump(tag_230)\n    tag_231:\n      dup3\n      add\n      swap2\n      swap1\n      0x00\n      mstore\n      keccak256(0x00, 0x20)\n      swap1\n    tag_232:\n      dup2\n      sload\n      dup2\n      mstore\n      swap1\n      0x01\n      add\n      swap1\n      0x20\n      add\n      dup1\n      dup4\n      gt\n      tag_232\n      jumpi\n      dup3\n      swap1\n      sub\n      0x1f\n      and\n      dup3\n      add\n      swap2\n    tag_230:\n      pop\n      pop\n      pop\n      pop\n      pop\n      dup2\n      mstore\n      0x20\n      add\n      0x02\n      dup3\n      add\n      0x00\n      swap1\n      sload\n      swap1\n      0x0100\n      exp\n      swap1\n      div\n      0xff\n      and\n      0x03\n      dup2\n      gt\n      iszero\n      tag_233\n      jumpi\n      tag_234\n      tag_140\n      jump\t// in\n    tag_234:\n    tag_233:\n      0x03\n      dup2\n      gt\n      iszero\n      tag_235\n      jumpi\n      tag_236\n      tag_140\n      jump\t// in\n    tag_236:\n    tag_235:\n      dup2\n      mstore\n      0x20\n      add\n      0x02\n      dup3\n      add\n      0x01\n      swap1\n      sload\n      swap1\n      0x0100\n      exp\n      swap1\n      div\n      0xff\n      and\n      0x02\n      dup2\n      gt\n      iszero\n      tag_237\n      jumpi\n      tag_238\n      tag_140\n      jump\t// in\n    tag_238:\n    tag_237:\n      0x02\n      dup2\n      gt\n      iszero\n      tag_239\n      jumpi\n      tag_240\n      tag_140\n      jump\t// in\n    tag_240:\n    tag_239:\n      dup2\n      mstore\n      0x20\n      add\n      0x03\n      dup3\n      add\n      sload\n      dup2\n      mstore\n      0x20\n      add\n      0x04\n      dup3\n      add\n      sload\n      dup2\n      mstore\n      pop\n      pop\n      swap1\n      pop\n        /* \"contracts/Monkey.sol\":10024:10200  function getMonkey(uint256 tokenId) public view returns (Monkey memory) {... */\n      swap2\n      swap1\n      pop\n      jump\t// out\n        /* \"contracts/Monkey.sol\":5480:5757  function safeTransferFrom(address from, address to, uint256 tokenId, bytes memory data) public virtual override {... */\n    tag_96:\n        /* \"contracts/Monkey.sol\":5611:5650  _isApprovedOrOwner(msg.sender, tokenId) */\n      tag_242\n        /* \"contracts/Monkey.sol\":5630:5640  msg.sender */\n      caller\n        /* \"contracts/Monkey.sol\":5642:5649  tokenId */\n      dup4\n        /* \"contracts/Monkey.sol\":5611:5629  _isApprovedOrOwner */\n      tag_175\n        /* \"contracts/Monkey.sol\":5611:5650  _isApprovedOrOwner(msg.sender, tokenId) */\n      jump\t// in\n    tag_242:\n        /* \"contracts/Monkey.sol\":5603:5700  require(_isApprovedOrOwner(msg.sender, tokenId), \"ERC721: Caller is not token owner or approved\") */\n      tag_243\n      jumpi\n      mload(0x40)\n      0x08c379a000000000000000000000000000000000000000000000000000000000\n      dup2\n      mstore\n      0x04\n      add\n      tag_244\n      swap1\n      tag_178\n      jump\t// in\n    tag_244:\n      mload(0x40)\n      dup1\n      swap2\n      sub\n      swap1\n      revert\n    tag_243:\n        /* \"contracts/Monkey.sol\":5711:5749  _safeTransfer(from, to, tokenId, data) */\n      tag_245\n        /* \"contracts/Monkey.sol\":5725:5729  from */\n      dup5\n        /* \"contracts/Monkey.sol\":5731:5733  to */\n      dup5\n        /* \"contracts/Monkey.sol\":5735:5742  tokenId */\n      dup5\n        /* \"contracts/Monkey.sol\":5744:5748  data */\n      dup5\n        /* \"contracts/Monkey.sol\":5711:5724  _safeTransfer */\n      tag_246\n        /* \"contracts/Monkey.sol\":5711:5749  _safeTransfer(from, to, tokenId, data) */\n      jump\t// in\n    tag_245:\n        /* \"contracts/Monkey.sol\":5480:5757  function safeTransferFrom(address from, address to, uint256 tokenId, bytes memory data) public virtual override {... */\n      pop\n      pop\n      pop\n      pop\n      jump\t// out\n        /* \"contracts/Monkey.sol\":2368:2708  function tokenURI(uint256 tokenId) public view virtual override returns (string memory) {... */\n    tag_99:\n        /* \"contracts/Monkey.sol\":2441:2454  string memory */\n      0x60\n        /* \"contracts/Monkey.sol\":2475:2491  _exists(tokenId) */\n      tag_248\n        /* \"contracts/Monkey.sol\":2483:2490  tokenId */\n      dup3\n        /* \"contracts/Monkey.sol\":2475:2482  _exists */\n      tag_119\n        /* \"contracts/Monkey.sol\":2475:2491  _exists(tokenId) */\n      jump\t// in\n    tag_248:\n        /* \"contracts/Monkey.sol\":2467:2543  require(_exists(tokenId), \"ERC721Metadata: URI query for nonexistent token\") */\n      tag_249\n      jumpi\n      mload(0x40)\n      0x08c379a000000000000000000000000000000000000000000000000000000000\n      dup2\n      mstore\n      0x04\n      add\n      tag_250\n      swap1\n      tag_251\n      jump\t// in\n    tag_250:\n      mload(0x40)\n      dup1\n      swap2\n      sub\n      swap1\n      revert\n    tag_249:\n        /* \"contracts/Monkey.sol\":2554:2575  string memory baseURI */\n      0x00\n        /* \"contracts/Monkey.sol\":2578:2588  _baseURI() */\n      tag_252\n        /* \"contracts/Monkey.sol\":2578:2586  _baseURI */\n      tag_253\n        /* \"contracts/Monkey.sol\":2578:2588  _baseURI() */\n      jump\t// in\n    tag_252:\n        /* \"contracts/Monkey.sol\":2554:2588  string memory baseURI = _baseURI() */\n      swap1\n      pop\n        /* \"contracts/Monkey.sol\":2630:2631  0 */\n      0x00\n        /* \"contracts/Monkey.sol\":2612:2619  baseURI */\n      dup2\n        /* \"contracts/Monkey.sol\":2606:2627  bytes(baseURI).length */\n      mload\n        /* \"contracts/Monkey.sol\":2606:2631  bytes(baseURI).length > 0 */\n      gt\n        /* \"contracts/Monkey.sol\":2606:2700  bytes(baseURI).length > 0 ? string(abi.encodePacked(baseURI, toString(tokenId), \".json\")) : \"\" */\n      tag_254\n      jumpi\n      mload(0x40)\n      dup1\n      0x20\n      add\n      0x40\n      mstore\n      dup1\n      0x00\n      dup2\n      mstore\n      pop\n      jump(tag_255)\n    tag_254:\n        /* \"contracts/Monkey.sol\":2658:2665  baseURI */\n      dup1\n        /* \"contracts/Monkey.sol\":2667:2684  toString(tokenId) */\n      tag_256\n        /* \"contracts/Monkey.sol\":2676:2683  tokenId */\n      dup5\n        /* \"contracts/Monkey.sol\":2667:2675  toString */\n      tag_257\n        /* \"contracts/Monkey.sol\":2667:2684  toString(tokenId) */\n      jump\t// in\n    tag_256:\n        /* \"contracts/Monkey.sol\":2641:2694  abi.encodePacked(baseURI, toString(tokenId), \".json\") */\n      add(0x20, mload(0x40))\n      tag_258\n      swap3\n      swap2\n      swap1\n      tag_259\n      jump\t// in\n    tag_258:\n      mload(0x40)\n      0x20\n      dup2\n      dup4\n      sub\n      sub\n      dup2\n      mstore\n      swap1\n      0x40\n      mstore\n        /* \"contracts/Monkey.sol\":2606:2700  bytes(baseURI).length > 0 ? string(abi.encodePacked(baseURI, toString(tokenId), \".json\")) : \"\" */\n    tag_255:\n        /* \"contracts/Monkey.sol\":2599:2700  return bytes(baseURI).length > 0 ? string(abi.encodePacked(baseURI, toString(tokenId), \".json\")) : \"\" */\n      swap2\n      pop\n      pop\n        /* \"contracts/Monkey.sol\":2368:2708  function tokenURI(uint256 tokenId) public view virtual override returns (string memory) {... */\n      swap2\n      swap1\n      pop\n      jump\t// out\n        /* \"contracts/Monkey.sol\":2997:3267  function setGachaContract(address _newGachaContract) external onlyOwner {... */\n    tag_103:\n        /* \"contracts/Ownable.sol\":584:593  isOwner() */\n      tag_261\n        /* \"contracts/Ownable.sol\":584:591  isOwner */\n      tag_76\n        /* \"contracts/Ownable.sol\":584:593  isOwner() */\n      jump\t// in\n    tag_261:\n        /* \"contracts/Ownable.sol\":576:644  require(isOwner(), ... */\n      tag_262\n      jumpi\n      mload(0x40)\n      0x08c379a000000000000000000000000000000000000000000000000000000000\n      dup2\n      mstore\n      0x04\n      add\n      tag_263\n      swap1\n      tag_187\n      jump\t// in\n    tag_263:\n      mload(0x40)\n      dup1\n      swap2\n      sub\n      swap1\n      revert\n    tag_262:\n        /* \"contracts/Monkey.sol\":3117:3118  0 */\n      0x00\n        /* \"contracts/Monkey.sol\":3088:3119  _newGachaContract != address(0) */\n      0xffffffffffffffffffffffffffffffffffffffff\n      and\n        /* \"contracts/Monkey.sol\":3088:3105  _newGachaContract */\n      dup2\n        /* \"contracts/Monkey.sol\":3088:3119  _newGachaContract != address(0) */\n      0xffffffffffffffffffffffffffffffffffffffff\n      and\n      sub\n        /* \"contracts/Monkey.sol\":3080:3145  require(_newGachaContract != address(0), \"Invalid gacha address\") */\n      tag_265\n      jumpi\n      mload(0x40)\n      0x08c379a000000000000000000000000000000000000000000000000000000000\n      dup2\n      mstore\n      0x04\n      add\n      tag_266\n      swap1\n      tag_267\n      jump\t// in\n    tag_266:\n      mload(0x40)\n      dup1\n      swap2\n      sub\n      swap1\n      revert\n    tag_265:\n        /* \"contracts/Monkey.sol\":3197:3214  _newGachaContract */\n      dup1\n        /* \"contracts/Monkey.sol\":3161:3215  GachaContractUpdated(gachaContract, _newGachaContract) */\n      0xffffffffffffffffffffffffffffffffffffffff\n      and\n        /* \"contracts/Monkey.sol\":3182:3195  gachaContract */\n      0x05\n      0x00\n      swap1\n      sload\n      swap1\n      0x0100\n      exp\n      swap1\n      div\n      0xffffffffffffffffffffffffffffffffffffffff\n      and\n        /* \"contracts/Monkey.sol\":3161:3215  GachaContractUpdated(gachaContract, _newGachaContract) */\n      0xffffffffffffffffffffffffffffffffffffffff\n      and\n      0xab49b1935e5902470601ac7c9bcb853566dec7bca0e9a66b343c1d7f0fe6e40e\n      mload(0x40)\n      mload(0x40)\n      dup1\n      swap2\n      sub\n      swap1\n      log3\n        /* \"contracts/Monkey.sol\":3242:3259  _newGachaContract */\n      dup1\n        /* \"contracts/Monkey.sol\":3226:3239  gachaContract */\n      0x05\n      0x00\n        /* \"contracts/Monkey.sol\":3226:3259  gachaContract = _newGachaContract */\n      0x0100\n      exp\n      dup2\n      sload\n      dup2\n      0xffffffffffffffffffffffffffffffffffffffff\n      mul\n      not\n      and\n      swap1\n      dup4\n      0xffffffffffffffffffffffffffffffffffffffff\n      and\n      mul\n      or\n      swap1\n      sstore\n      pop\n        /* \"contracts/Monkey.sol\":2997:3267  function setGachaContract(address _newGachaContract) external onlyOwner {... */\n      pop\n      jump\t// out\n        /* \"contracts/Monkey.sol\":4733:4897  function isApprovedForAll(address owner, address operator) public view virtual override returns (bool) {... */\n    tag_107:\n        /* \"contracts/Monkey.sol\":4830:4834  bool */\n      0x00\n        /* \"contracts/Monkey.sol\":4854:4872  _operatorApprovals */\n      0x0a\n        /* \"contracts/Monkey.sol\":4854:4879  _operatorApprovals[owner] */\n      0x00\n        /* \"contracts/Monkey.sol\":4873:4878  owner */\n      dup5\n        /* \"contracts/Monkey.sol\":4854:4879  _operatorApprovals[owner] */\n      0xffffffffffffffffffffffffffffffffffffffff\n      and\n      0xffffffffffffffffffffffffffffffffffffffff\n      and\n      dup2\n      mstore\n      0x20\n      add\n      swap1\n      dup2\n      mstore\n      0x20\n      add\n      0x00\n      keccak256\n        /* \"contracts/Monkey.sol\":4854:4889  _operatorApprovals[owner][operator] */\n      0x00\n        /* \"contracts/Monkey.sol\":4880:4888  operator */\n      dup4\n        /* \"contracts/Monkey.sol\":4854:4889  _operatorApprovals[owner][operator] */\n      0xffffffffffffffffffffffffffffffffffffffff\n      and\n      0xffffffffffffffffffffffffffffffffffffffff\n      and\n      dup2\n      mstore\n      0x20\n      add\n      swap1\n      dup2\n      mstore\n      0x20\n      add\n      0x00\n      keccak256\n      0x00\n      swap1\n      sload\n      swap1\n      0x0100\n      exp\n      swap1\n      div\n      0xff\n      and\n        /* \"contracts/Monkey.sol\":4847:4889  return _operatorApprovals[owner][operator] */\n      swap1\n      pop\n        /* \"contracts/Monkey.sol\":4733:4897  function isApprovedForAll(address owner, address operator) public view virtual override returns (bool) {... */\n      swap3\n      swap2\n      pop\n      pop\n      jump\t// out\n        /* \"contracts/Monkey.sol\":6800:6927  function _exists(uint256 tokenId) internal view virtual returns (bool) {... */\n    tag_119:\n        /* \"contracts/Monkey.sol\":6865:6869  bool */\n      0x00\n        /* \"contracts/Monkey.sol\":6917:6918  0 */\n      dup1\n        /* \"contracts/Monkey.sol\":6889:6919  _owners[tokenId] != address(0) */\n      0xffffffffffffffffffffffffffffffffffffffff\n      and\n        /* \"contracts/Monkey.sol\":6889:6896  _owners */\n      0x07\n        /* \"contracts/Monkey.sol\":6889:6905  _owners[tokenId] */\n      0x00\n        /* \"contracts/Monkey.sol\":6897:6904  tokenId */\n      dup5\n        /* \"contracts/Monkey.sol\":6889:6905  _owners[tokenId] */\n      dup2\n      mstore\n      0x20\n      add\n      swap1\n      dup2\n      mstore\n      0x20\n      add\n      0x00\n      keccak256\n      0x00\n      swap1\n      sload\n      swap1\n      0x0100\n      exp\n      swap1\n      div\n      0xffffffffffffffffffffffffffffffffffffffff\n      and\n        /* \"contracts/Monkey.sol\":6889:6919  _owners[tokenId] != address(0) */\n      0xffffffffffffffffffffffffffffffffffffffff\n      and\n      eq\n      iszero\n        /* \"contracts/Monkey.sol\":6882:6919  return _owners[tokenId] != address(0) */\n      swap1\n      pop\n        /* \"contracts/Monkey.sol\":6800:6927  function _exists(uint256 tokenId) internal view virtual returns (bool) {... */\n      swap2\n      swap1\n      pop\n      jump\t// out\n        /* \"contracts/Monkey.sol\":7200:7644  function _mint(address to, uint256 tokenId) internal virtual {... */\n    tag_150:\n        /* \"contracts/Monkey.sol\":7294:7295  0 */\n      0x00\n        /* \"contracts/Monkey.sol\":7280:7296  to != address(0) */\n      0xffffffffffffffffffffffffffffffffffffffff\n      and\n        /* \"contracts/Monkey.sol\":7280:7282  to */\n      dup3\n        /* \"contracts/Monkey.sol\":7280:7296  to != address(0) */\n      0xffffffffffffffffffffffffffffffffffffffff\n      and\n      sub\n        /* \"contracts/Monkey.sol\":7272:7330  require(to != address(0), \"ERC 721: mint to zero address\") */\n      tag_271\n      jumpi\n      mload(0x40)\n      0x08c379a000000000000000000000000000000000000000000000000000000000\n      dup2\n      mstore\n      0x04\n      add\n      tag_272\n      swap1\n      tag_273\n      jump\t// in\n    tag_272:\n      mload(0x40)\n      dup1\n      swap2\n      sub\n      swap1\n      revert\n    tag_271:\n        /* \"contracts/Monkey.sol\":7350:7366  _exists(tokenId) */\n      tag_274\n        /* \"contracts/Monkey.sol\":7358:7365  tokenId */\n      dup2\n        /* \"contracts/Monkey.sol\":7350:7357  _exists */\n      tag_119\n        /* \"contracts/Monkey.sol\":7350:7366  _exists(tokenId) */\n      jump\t// in\n    tag_274:\n        /* \"contracts/Monkey.sol\":7349:7366  !_exists(tokenId) */\n      iszero\n        /* \"contracts/Monkey.sol\":7341:7399  require(!_exists(tokenId), \"ERC721: token already minted\") */\n      tag_275\n      jumpi\n      mload(0x40)\n      0x08c379a000000000000000000000000000000000000000000000000000000000\n      dup2\n      mstore\n      0x04\n      add\n      tag_276\n      swap1\n      tag_277\n      jump\t// in\n    tag_276:\n      mload(0x40)\n      dup1\n      swap2\n      sub\n      swap1\n      revert\n    tag_275:\n        /* \"contracts/Monkey.sol\":7412:7457  _beforeTokenTransfer(address(0), to, tokenId) */\n      tag_278\n        /* \"contracts/Monkey.sol\":7441:7442  0 */\n      0x00\n        /* \"contracts/Monkey.sol\":7445:7447  to */\n      dup4\n        /* \"contracts/Monkey.sol\":7449:7456  tokenId */\n      dup4\n        /* \"contracts/Monkey.sol\":7412:7432  _beforeTokenTransfer */\n      tag_279\n        /* \"contracts/Monkey.sol\":7412:7457  _beforeTokenTransfer(address(0), to, tokenId) */\n      jump\t// in\n    tag_278:\n        /* \"contracts/Monkey.sol\":7487:7488  1 */\n      0x01\n        /* \"contracts/Monkey.sol\":7470:7479  _balances */\n      0x08\n        /* \"contracts/Monkey.sol\":7470:7483  _balances[to] */\n      0x00\n        /* \"contracts/Monkey.sol\":7480:7482  to */\n      dup5\n        /* \"contracts/Monkey.sol\":7470:7483  _balances[to] */\n      0xffffffffffffffffffffffffffffffffffffffff\n      and\n      0xffffffffffffffffffffffffffffffffffffffff\n      and\n      dup2\n      mstore\n      0x20\n      add\n      swap1\n      dup2\n      mstore\n      0x20\n      add\n      0x00\n      keccak256\n      0x00\n        /* \"contracts/Monkey.sol\":7470:7488  _balances[to] += 1 */\n      dup3\n      dup3\n      sload\n      tag_280\n      swap2\n      swap1\n      tag_281\n      jump\t// in\n    tag_280:\n      swap3\n      pop\n      pop\n      dup2\n      swap1\n      sstore\n      pop\n        /* \"contracts/Monkey.sol\":7518:7520  to */\n      dup2\n        /* \"contracts/Monkey.sol\":7499:7506  _owners */\n      0x07\n        /* \"contracts/Monkey.sol\":7499:7515  _owners[tokenId] */\n      0x00\n        /* \"contracts/Monkey.sol\":7507:7514  tokenId */\n      dup4\n        /* \"contracts/Monkey.sol\":7499:7515  _owners[tokenId] */\n      dup2\n      mstore\n      0x20\n      add\n      swap1\n      dup2\n      mstore\n      0x20\n      add\n      0x00\n      keccak256\n      0x00\n        /* \"contracts/Monkey.sol\":7499:7520  _owners[tokenId] = to */\n      0x0100\n      exp\n      dup2\n      sload\n      dup2\n      0xffffffffffffffffffffffffffffffffffffffff\n      mul\n      not\n      and\n      swap1\n      dup4\n      0xffffffffffffffffffffffffffffffffffffffff\n      and\n      mul\n      or\n      swap1\n      sstore\n      pop\n        /* \"contracts/Monkey.sol\":7563:7570  tokenId */\n      dup1\n        /* \"contracts/Monkey.sol\":7559:7561  to */\n      dup3\n        /* \"contracts/Monkey.sol\":7538:7571  Transfer(address(0), to, tokenId) */\n      0xffffffffffffffffffffffffffffffffffffffff\n      and\n        /* \"contracts/Monkey.sol\":7555:7556  0 */\n      0x00\n        /* \"contracts/Monkey.sol\":7538:7571  Transfer(address(0), to, tokenId) */\n      0xffffffffffffffffffffffffffffffffffffffff\n      and\n      0xddf252ad1be2c89b69c2b068fc378daa952ba7f163c4a11628f55a4df523b3ef\n      mload(0x40)\n      mload(0x40)\n      dup1\n      swap2\n      sub\n      swap1\n      log4\n        /* \"contracts/Monkey.sol\":7584:7628  _afterTokenTransfer(address(0), to, tokenId) */\n      tag_282\n        /* \"contracts/Monkey.sol\":7612:7613  0 */\n      0x00\n        /* \"contracts/Monkey.sol\":7616:7618  to */\n      dup4\n        /* \"contracts/Monkey.sol\":7620:7627  tokenId */\n      dup4\n        /* \"contracts/Monkey.sol\":7584:7603  _afterTokenTransfer */\n      tag_283\n        /* \"contracts/Monkey.sol\":7584:7628  _afterTokenTransfer(address(0), to, tokenId) */\n      jump\t// in\n    tag_282:\n        /* \"contracts/Monkey.sol\":7200:7644  function _mint(address to, uint256 tokenId) internal virtual {... */\n      pop\n      pop\n      jump\t// out\n        /* \"contracts/Monkey.sol\":6935:7192  function _isApprovedOrOwner(address spender, uint256 tokenId) internal view virtual returns (bool) {... */\n    tag_175:\n        /* \"contracts/Monkey.sol\":7028:7032  bool */\n      0x00\n        /* \"contracts/Monkey.sol\":7045:7058  address owner */\n      dup1\n        /* \"contracts/Monkey.sol\":7061:7077  ownerOf(tokenId) */\n      tag_285\n        /* \"contracts/Monkey.sol\":7069:7076  tokenId */\n      dup4\n        /* \"contracts/Monkey.sol\":7061:7068  ownerOf */\n      tag_65\n        /* \"contracts/Monkey.sol\":7061:7077  ownerOf(tokenId) */\n      jump\t// in\n    tag_285:\n        /* \"contracts/Monkey.sol\":7045:7077  address owner = ownerOf(tokenId) */\n      swap1\n      pop\n        /* \"contracts/Monkey.sol\":7107:7112  owner */\n      dup1\n        /* \"contracts/Monkey.sol\":7096:7112  spender == owner */\n      0xffffffffffffffffffffffffffffffffffffffff\n      and\n        /* \"contracts/Monkey.sol\":7096:7103  spender */\n      dup5\n        /* \"contracts/Monkey.sol\":7096:7112  spender == owner */\n      0xffffffffffffffffffffffffffffffffffffffff\n      and\n      eq\n        /* \"contracts/Monkey.sol\":7096:7148  spender == owner || isApprovedForAll(owner, spender) */\n      dup1\n      tag_286\n      jumpi\n      pop\n        /* \"contracts/Monkey.sol\":7116:7148  isApprovedForAll(owner, spender) */\n      tag_287\n        /* \"contracts/Monkey.sol\":7133:7138  owner */\n      dup2\n        /* \"contracts/Monkey.sol\":7140:7147  spender */\n      dup6\n        /* \"contracts/Monkey.sol\":7116:7132  isApprovedForAll */\n      tag_107\n        /* \"contracts/Monkey.sol\":7116:7148  isApprovedForAll(owner, spender) */\n      jump\t// in\n    tag_287:\n        /* \"contracts/Monkey.sol\":7096:7148  spender == owner || isApprovedForAll(owner, spender) */\n    tag_286:\n        /* \"contracts/Monkey.sol\":7096:7183  spender == owner || isApprovedForAll(owner, spender) || getApproved(tokenId) == spender */\n      dup1\n      tag_288\n      jumpi\n      pop\n        /* \"contracts/Monkey.sol\":7176:7183  spender */\n      dup4\n        /* \"contracts/Monkey.sol\":7152:7183  getApproved(tokenId) == spender */\n      0xffffffffffffffffffffffffffffffffffffffff\n      and\n        /* \"contracts/Monkey.sol\":7152:7172  getApproved(tokenId) */\n      tag_289\n        /* \"contracts/Monkey.sol\":7164:7171  tokenId */\n      dup5\n        /* \"contracts/Monkey.sol\":7152:7163  getApproved */\n      tag_39\n        /* \"contracts/Monkey.sol\":7152:7172  getApproved(tokenId) */\n      jump\t// in\n    tag_289:\n        /* \"contracts/Monkey.sol\":7152:7183  getApproved(tokenId) == spender */\n      0xffffffffffffffffffffffffffffffffffffffff\n      and\n      eq\n        /* \"contracts/Monkey.sol\":7096:7183  spender == owner || isApprovedForAll(owner, spender) || getApproved(tokenId) == spender */\n    tag_288:\n        /* \"contracts/Monkey.sol\":7088:7184  return (spender == owner || isApprovedForAll(owner, spender) || getApproved(tokenId) == spender) */\n      swap2\n      pop\n      pop\n        /* \"contracts/Monkey.sol\":6935:7192  function _isApprovedOrOwner(address spender, uint256 tokenId) internal view virtual returns (bool) {... */\n      swap3\n      swap2\n      pop\n      pop\n      jump\t// out\n        /* \"contracts/Monkey.sol\":7652:8142  function _transfer(address from, address to, uint256 tokenId) internal virtual {... */\n    tag_180:\n        /* \"contracts/Monkey.sol\":7770:7774  from */\n      dup3\n        /* \"contracts/Monkey.sol\":7750:7774  ownerOf(tokenId) == from */\n      0xffffffffffffffffffffffffffffffffffffffff\n      and\n        /* \"contracts/Monkey.sol\":7750:7766  ownerOf(tokenId) */\n      tag_291\n        /* \"contracts/Monkey.sol\":7758:7765  tokenId */\n      dup3\n        /* \"contracts/Monkey.sol\":7750:7757  ownerOf */\n      tag_65\n        /* \"contracts/Monkey.sol\":7750:7766  ownerOf(tokenId) */\n      jump\t// in\n    tag_291:\n        /* \"contracts/Monkey.sol\":7750:7774  ownerOf(tokenId) == from */\n      0xffffffffffffffffffffffffffffffffffffffff\n      and\n      eq\n        /* \"contracts/Monkey.sol\":7742:7816  require(ownerOf(tokenId) == from, \"ERC721: transfer from incorrect owner\") */\n      tag_292\n      jumpi\n      mload(0x40)\n      0x08c379a000000000000000000000000000000000000000000000000000000000\n      dup2\n      mstore\n      0x04\n      add\n      tag_293\n      swap1\n      tag_294\n      jump\t// in\n    tag_293:\n      mload(0x40)\n      dup1\n      swap2\n      sub\n      swap1\n      revert\n    tag_292:\n        /* \"contracts/Monkey.sol\":7849:7850  0 */\n      0x00\n        /* \"contracts/Monkey.sol\":7835:7851  to != address(0) */\n      0xffffffffffffffffffffffffffffffffffffffff\n      and\n        /* \"contracts/Monkey.sol\":7835:7837  to */\n      dup3\n        /* \"contracts/Monkey.sol\":7835:7851  to != address(0) */\n      0xffffffffffffffffffffffffffffffffffffffff\n      and\n      sub\n        /* \"contracts/Monkey.sol\":7827:7892  require(to != address(0), \"ERC721: transfer to the zero address\") */\n      tag_295\n      jumpi\n      mload(0x40)\n      0x08c379a000000000000000000000000000000000000000000000000000000000\n      dup2\n      mstore\n      0x04\n      add\n      tag_296\n      swap1\n      tag_297\n      jump\t// in\n    tag_296:\n      mload(0x40)\n      dup1\n      swap2\n      sub\n      swap1\n      revert\n    tag_295:\n        /* \"contracts/Monkey.sol\":7905:7944  _beforeTokenTransfer(from, to, tokenId) */\n      tag_298\n        /* \"contracts/Monkey.sol\":7926:7930  from */\n      dup4\n        /* \"contracts/Monkey.sol\":7932:7934  to */\n      dup4\n        /* \"contracts/Monkey.sol\":7936:7943  tokenId */\n      dup4\n        /* \"contracts/Monkey.sol\":7905:7925  _beforeTokenTransfer */\n      tag_279\n        /* \"contracts/Monkey.sol\":7905:7944  _beforeTokenTransfer(from, to, tokenId) */\n      jump\t// in\n    tag_298:\n        /* \"contracts/Monkey.sol\":7976:7977  1 */\n      0x01\n        /* \"contracts/Monkey.sol\":7957:7966  _balances */\n      0x08\n        /* \"contracts/Monkey.sol\":7957:7972  _balances[from] */\n      0x00\n        /* \"contracts/Monkey.sol\":7967:7971  from */\n      dup6\n        /* \"contracts/Monkey.sol\":7957:7972  _balances[from] */\n      0xffffffffffffffffffffffffffffffffffffffff\n      and\n      0xffffffffffffffffffffffffffffffffffffffff\n      and\n      dup2\n      mstore\n      0x20\n      add\n      swap1\n      dup2\n      mstore\n      0x20\n      add\n      0x00\n      keccak256\n      0x00\n        /* \"contracts/Monkey.sol\":7957:7977  _balances[from] -= 1 */\n      dup3\n      dup3\n      sload\n      tag_299\n      swap2\n      swap1\n      tag_300\n      jump\t// in\n    tag_299:\n      swap3\n      pop\n      pop\n      dup2\n      swap1\n      sstore\n      pop\n        /* \"contracts/Monkey.sol\":8005:8006  1 */\n      0x01\n        /* \"contracts/Monkey.sol\":7988:7997  _balances */\n      0x08\n        /* \"contracts/Monkey.sol\":7988:8001  _balances[to] */\n      0x00\n        /* \"contracts/Monkey.sol\":7998:8000  to */\n      dup5\n        /* \"contracts/Monkey.sol\":7988:8001  _balances[to] */\n      0xffffffffffffffffffffffffffffffffffffffff\n      and\n      0xffffffffffffffffffffffffffffffffffffffff\n      and\n      dup2\n      mstore\n      0x20\n      add\n      swap1\n      dup2\n      mstore\n      0x20\n      add\n      0x00\n      keccak256\n      0x00\n        /* \"contracts/Monkey.sol\":7988:8006  _balances[to] += 1 */\n      dup3\n      dup3\n      sload\n      tag_301\n      swap2\n      swap1\n      tag_281\n      jump\t// in\n    tag_301:\n      swap3\n      pop\n      pop\n      dup2\n      swap1\n      sstore\n      pop\n        /* \"contracts/Monkey.sol\":8036:8038  to */\n      dup2\n        /* \"contracts/Monkey.sol\":8017:8024  _owners */\n      0x07\n        /* \"contracts/Monkey.sol\":8017:8033  _owners[tokenId] */\n      0x00\n        /* \"contracts/Monkey.sol\":8025:8032  tokenId */\n      dup4\n        /* \"contracts/Monkey.sol\":8017:8033  _owners[tokenId] */\n      dup2\n      mstore\n      0x20\n      add\n      swap1\n      dup2\n      mstore\n      0x20\n      add\n      0x00\n      keccak256\n      0x00\n        /* \"contracts/Monkey.sol\":8017:8038  _owners[tokenId] = to */\n      0x0100\n      exp\n      dup2\n      sload\n      dup2\n      0xffffffffffffffffffffffffffffffffffffffff\n      mul\n      not\n      and\n      swap1\n      dup4\n      0xffffffffffffffffffffffffffffffffffffffff\n      and\n      mul\n      or\n      swap1\n      sstore\n      pop\n        /* \"contracts/Monkey.sol\":8075:8082  tokenId */\n      dup1\n        /* \"contracts/Monkey.sol\":8071:8073  to */\n      dup3\n        /* \"contracts/Monkey.sol\":8056:8083  Transfer(from, to, tokenId) */\n      0xffffffffffffffffffffffffffffffffffffffff\n      and\n        /* \"contracts/Monkey.sol\":8065:8069  from */\n      dup5\n        /* \"contracts/Monkey.sol\":8056:8083  Transfer(from, to, tokenId) */\n      0xffffffffffffffffffffffffffffffffffffffff\n      and\n      0xddf252ad1be2c89b69c2b068fc378daa952ba7f163c4a11628f55a4df523b3ef\n      mload(0x40)\n      mload(0x40)\n      dup1\n      swap2\n      sub\n      swap1\n      log4\n        /* \"contracts/Monkey.sol\":8096:8134  _afterTokenTransfer(from, to, tokenId) */\n      tag_302\n        /* \"contracts/Monkey.sol\":8116:8120  from */\n      dup4\n        /* \"contracts/Monkey.sol\":8122:8124  to */\n      dup4\n        /* \"contracts/Monkey.sol\":8126:8133  tokenId */\n      dup4\n        /* \"contracts/Monkey.sol\":8096:8115  _afterTokenTransfer */\n      tag_283\n        /* \"contracts/Monkey.sol\":8096:8134  _afterTokenTransfer(from, to, tokenId) */\n      jump\t// in\n    tag_302:\n        /* \"contracts/Monkey.sol\":7652:8142  function _transfer(address from, address to, uint256 tokenId) internal virtual {... */\n      pop\n      pop\n      pop\n      jump\t// out\n        /* \"contracts/Monkey.sol\":8150:8420  function _safeTransfer(address from, address to, uint256 tokenId, bytes memory data) internal virtual {... */\n    tag_246:\n        /* \"contracts/Monkey.sol\":8263:8291  _transfer(from, to, tokenId) */\n      tag_304\n        /* \"contracts/Monkey.sol\":8273:8277  from */\n      dup5\n        /* \"contracts/Monkey.sol\":8279:8281  to */\n      dup5\n        /* \"contracts/Monkey.sol\":8283:8290  tokenId */\n      dup5\n        /* \"contracts/Monkey.sol\":8263:8272  _transfer */\n      tag_180\n        /* \"contracts/Monkey.sol\":8263:8291  _transfer(from, to, tokenId) */\n      jump\t// in\n    tag_304:\n        /* \"contracts/Monkey.sol\":8310:8357  _checkOnERC721Received(from, to, tokenId, data) */\n      tag_305\n        /* \"contracts/Monkey.sol\":8333:8337  from */\n      dup5\n        /* \"contracts/Monkey.sol\":8339:8341  to */\n      dup5\n        /* \"contracts/Monkey.sol\":8343:8350  tokenId */\n      dup5\n        /* \"contracts/Monkey.sol\":8352:8356  data */\n      dup5\n        /* \"contracts/Monkey.sol\":8310:8332  _checkOnERC721Received */\n      tag_306\n        /* \"contracts/Monkey.sol\":8310:8357  _checkOnERC721Received(from, to, tokenId, data) */\n      jump\t// in\n    tag_305:\n        /* \"contracts/Monkey.sol\":8302:8412  require(_checkOnERC721Received(from, to, tokenId, data), \"ERC721: transfer to non ERC721Receiver implementer\") */\n      tag_307\n      jumpi\n      mload(0x40)\n      0x08c379a000000000000000000000000000000000000000000000000000000000\n      dup2\n      mstore\n      0x04\n      add\n      tag_308\n      swap1\n      tag_309\n      jump\t// in\n    tag_308:\n      mload(0x40)\n      dup1\n      swap2\n      sub\n      swap1\n      revert\n    tag_307:\n        /* \"contracts/Monkey.sol\":8150:8420  function _safeTransfer(address from, address to, uint256 tokenId, bytes memory data) internal virtual {... */\n      pop\n      pop\n      pop\n      pop\n      jump\t// out\n        /* \"contracts/Monkey.sol\":6687:6792  function _baseURI() internal view virtual returns (string memory) {... */\n    tag_253:\n        /* \"contracts/Monkey.sol\":6738:6751  string memory */\n      0x60\n        /* \"contracts/Monkey.sol\":6771:6784  _baseTokenURI */\n      0x04\n        /* \"contracts/Monkey.sol\":6764:6784  return _baseTokenURI */\n      dup1\n      sload\n      tag_311\n      swap1\n      tag_112\n      jump\t// in\n    tag_311:\n      dup1\n      0x1f\n      add\n      0x20\n      dup1\n      swap2\n      div\n      mul\n      0x20\n      add\n      mload(0x40)\n      swap1\n      dup2\n      add\n      0x40\n      mstore\n      dup1\n      swap3\n      swap2\n      swap1\n      dup2\n      dup2\n      mstore\n      0x20\n      add\n      dup3\n      dup1\n      sload\n      tag_312\n      swap1\n      tag_112\n      jump\t// in\n    tag_312:\n      dup1\n      iszero\n      tag_313\n      jumpi\n      dup1\n      0x1f\n      lt\n      tag_314\n      jumpi\n      0x0100\n      dup1\n      dup4\n      sload\n      div\n      mul\n      dup4\n      mstore\n      swap2\n      0x20\n      add\n      swap2\n      jump(tag_313)\n    tag_314:\n      dup3\n      add\n      swap2\n      swap1\n      0x00\n      mstore\n      keccak256(0x00, 0x20)\n      swap1\n    tag_315:\n      dup2\n      sload\n      dup2\n      mstore\n      swap1\n      0x01\n      add\n      swap1\n      0x20\n      add\n      dup1\n      dup4\n      gt\n      tag_315\n      jumpi\n      dup3\n      swap1\n      sub\n      0x1f\n      and\n      dup3\n      add\n      swap2\n    tag_313:\n      pop\n      pop\n      pop\n      pop\n      pop\n      swap1\n      pop\n        /* \"contracts/Monkey.sol\":6687:6792  function _baseURI() internal view virtual returns (string memory) {... */\n      swap1\n      jump\t// out\n        /* \"contracts/Monkey.sol\":9484:10016  function toString(uint256 value) internal pure returns (string memory) {... */\n    tag_257:\n        /* \"contracts/Monkey.sol\":9540:9553  string memory */\n      0x60\n        /* \"contracts/Monkey.sol\":9579:9580  0 */\n      0x00\n        /* \"contracts/Monkey.sol\":9570:9575  value */\n      dup3\n        /* \"contracts/Monkey.sol\":9570:9580  value == 0 */\n      sub\n        /* \"contracts/Monkey.sol\":9566:9619  if (value == 0) {... */\n      tag_317\n      jumpi\n        /* \"contracts/Monkey.sol\":9597:9607  return \"0\" */\n      mload(0x40)\n      dup1\n      0x40\n      add\n      0x40\n      mstore\n      dup1\n      0x01\n      dup2\n      mstore\n      0x20\n      add\n      0x3000000000000000000000000000000000000000000000000000000000000000\n      dup2\n      mstore\n      pop\n      swap1\n      pop\n      jump(tag_316)\n        /* \"contracts/Monkey.sol\":9566:9619  if (value == 0) {... */\n    tag_317:\n        /* \"contracts/Monkey.sol\":9629:9641  uint256 temp */\n      0x00\n        /* \"contracts/Monkey.sol\":9644:9649  value */\n      dup3\n        /* \"contracts/Monkey.sol\":9629:9649  uint256 temp = value */\n      swap1\n      pop\n        /* \"contracts/Monkey.sol\":9660:9674  uint256 digits */\n      0x00\n        /* \"contracts/Monkey.sol\":9685:9763  while (temp != 0) {... */\n    tag_318:\n        /* \"contracts/Monkey.sol\":9700:9701  0 */\n      0x00\n        /* \"contracts/Monkey.sol\":9692:9696  temp */\n      dup3\n        /* \"contracts/Monkey.sol\":9692:9701  temp != 0 */\n      eq\n        /* \"contracts/Monkey.sol\":9685:9763  while (temp != 0) {... */\n      tag_319\n      jumpi\n        /* \"contracts/Monkey.sol\":9718:9726  digits++ */\n      dup1\n      dup1\n      tag_320\n      swap1\n      tag_166\n      jump\t// in\n    tag_320:\n      swap2\n      pop\n      pop\n        /* \"contracts/Monkey.sol\":9749:9751  10 */\n      0x0a\n        /* \"contracts/Monkey.sol\":9741:9751  temp /= 10 */\n      dup3\n      tag_321\n      swap2\n      swap1\n      tag_322\n      jump\t// in\n    tag_321:\n      swap2\n      pop\n        /* \"contracts/Monkey.sol\":9685:9763  while (temp != 0) {... */\n      jump(tag_318)\n    tag_319:\n        /* \"contracts/Monkey.sol\":9773:9792  bytes memory buffer */\n      0x00\n        /* \"contracts/Monkey.sol\":9805:9811  digits */\n      dup2\n        /* \"contracts/Monkey.sol\":9795:9812  new bytes(digits) */\n      0xffffffffffffffff\n      dup2\n      gt\n      iszero\n      tag_323\n      jumpi\n      tag_324\n      tag_325\n      jump\t// in\n    tag_324:\n    tag_323:\n      mload(0x40)\n      swap1\n      dup1\n      dup3\n      mstore\n      dup1\n      0x1f\n      add\n      not(0x1f)\n      and\n      0x20\n      add\n      dup3\n      add\n      0x40\n      mstore\n      dup1\n      iszero\n      tag_326\n      jumpi\n      dup2\n      0x20\n      add\n      0x01\n      dup3\n      mul\n      dup1\n      calldatasize\n      dup4\n      calldatacopy\n      dup1\n      dup3\n      add\n      swap2\n      pop\n      pop\n      swap1\n      pop\n    tag_326:\n      pop\n        /* \"contracts/Monkey.sol\":9773:9812  bytes memory buffer = new bytes(digits) */\n      swap1\n      pop\n        /* \"contracts/Monkey.sol\":9823:9977  while (value != 0) {... */\n    tag_327:\n        /* \"contracts/Monkey.sol\":9839:9840  0 */\n      0x00\n        /* \"contracts/Monkey.sol\":9830:9835  value */\n      dup6\n        /* \"contracts/Monkey.sol\":9830:9840  value != 0 */\n      eq\n        /* \"contracts/Monkey.sol\":9823:9977  while (value != 0) {... */\n      tag_328\n      jumpi\n        /* \"contracts/Monkey.sol\":9867:9868  1 */\n      0x01\n        /* \"contracts/Monkey.sol\":9857:9868  digits -= 1 */\n      dup3\n      tag_329\n      swap2\n      swap1\n      tag_300\n      jump\t// in\n    tag_329:\n      swap2\n      pop\n        /* \"contracts/Monkey.sol\":9934:9936  10 */\n      0x0a\n        /* \"contracts/Monkey.sol\":9926:9931  value */\n      dup6\n        /* \"contracts/Monkey.sol\":9926:9936  value % 10 */\n      tag_330\n      swap2\n      swap1\n      tag_331\n      jump\t// in\n    tag_330:\n        /* \"contracts/Monkey.sol\":9913:9915  48 */\n      0x30\n        /* \"contracts/Monkey.sol\":9913:9937  48 + uint256(value % 10) */\n      tag_332\n      swap2\n      swap1\n      tag_281\n      jump\t// in\n    tag_332:\n        /* \"contracts/Monkey.sol\":9900:9939  bytes1(uint8(48 + uint256(value % 10))) */\n      0xf8\n      shl\n        /* \"contracts/Monkey.sol\":9883:9889  buffer */\n      dup2\n        /* \"contracts/Monkey.sol\":9890:9896  digits */\n      dup4\n        /* \"contracts/Monkey.sol\":9883:9897  buffer[digits] */\n      dup2\n      mload\n      dup2\n      lt\n      tag_333\n      jumpi\n      tag_334\n      tag_335\n      jump\t// in\n    tag_334:\n    tag_333:\n      0x20\n      add\n      add\n        /* \"contracts/Monkey.sol\":9883:9939  buffer[digits] = bytes1(uint8(48 + uint256(value % 10))) */\n      swap1\n      not(0xffffffffffffffffffffffffffffffffffffffffffffffffffffffffffffff)\n      and\n      swap1\n      dup2\n      0x00\n      byte\n      swap1\n      mstore8\n      pop\n        /* \"contracts/Monkey.sol\":9963:9965  10 */\n      0x0a\n        /* \"contracts/Monkey.sol\":9954:9965  value /= 10 */\n      dup6\n      tag_336\n      swap2\n      swap1\n      tag_322\n      jump\t// in\n    tag_336:\n      swap5\n      pop\n        /* \"contracts/Monkey.sol\":9823:9977  while (value != 0) {... */\n      jump(tag_327)\n    tag_328:\n        /* \"contracts/Monkey.sol\":10001:10007  buffer */\n      dup1\n        /* \"contracts/Monkey.sol\":9987:10008  return string(buffer) */\n      swap4\n      pop\n      pop\n      pop\n      pop\n        /* \"contracts/Monkey.sol\":9484:10016  function toString(uint256 value) internal pure returns (string memory) {... */\n    tag_316:\n      swap2\n      swap1\n      pop\n      jump\t// out\n        /* \"contracts/Monkey.sol\":8428:8520  function _beforeTokenTransfer(address from, address to, uint256 tokenId) internal virtual {} */\n    tag_279:\n      pop\n      pop\n      pop\n      jump\t// out\n        /* \"contracts/Monkey.sol\":8528:8619  function _afterTokenTransfer(address from, address to, uint256 tokenId) internal virtual {} */\n    tag_283:\n      pop\n      pop\n      pop\n      jump\t// out\n        /* \"contracts/Monkey.sol\":8627:9425  function _checkOnERC721Received(... */\n    tag_306:\n        /* \"contracts/Monkey.sol\":8781:8785  bool */\n      0x00\n        /* \"contracts/Monkey.sol\":8819:8820  0 */\n      dup1\n        /* \"contracts/Monkey.sol\":8802:8804  to */\n      dup5\n        /* \"contracts/Monkey.sol\":8802:8816  to.code.length */\n      0xffffffffffffffffffffffffffffffffffffffff\n      and\n      extcodesize\n        /* \"contracts/Monkey.sol\":8802:8820  to.code.length > 0 */\n      gt\n        /* \"contracts/Monkey.sol\":8798:9418  if (to.code.length > 0) {... */\n      iszero\n      tag_340\n      jumpi\n        /* \"contracts/Monkey.sol\":8857:8859  to */\n      dup4\n        /* \"contracts/Monkey.sol\":8841:8877  IERC721Receiver(to).onERC721Received */\n      0xffffffffffffffffffffffffffffffffffffffff\n      and\n      0x150b7a02\n        /* \"contracts/Monkey.sol\":8878:8888  msg.sender */\n      caller\n        /* \"contracts/Monkey.sol\":8890:8894  from */\n      dup8\n        /* \"contracts/Monkey.sol\":8896:8903  tokenId */\n      dup7\n        /* \"contracts/Monkey.sol\":8905:8909  data */\n      dup7\n        /* \"contracts/Monkey.sol\":8841:8910  IERC721Receiver(to).onERC721Received(msg.sender, from, tokenId, data) */\n      mload(0x40)\n      dup6\n      0xffffffff\n      and\n      0xe0\n      shl\n      dup2\n      mstore\n      0x04\n      add\n      tag_341\n      swap5\n      swap4\n      swap3\n      swap2\n      swap1\n      tag_342\n      jump\t// in\n    tag_341:\n      0x20\n      mload(0x40)\n      dup1\n      dup4\n      sub\n      dup2\n      0x00\n      dup8\n      gas\n      call\n      swap3\n      pop\n      pop\n      pop\n      dup1\n      iszero\n      tag_343\n      jumpi\n      pop\n      mload(0x40)\n      returndatasize\n      not(0x1f)\n      0x1f\n      dup3\n      add\n      and\n      dup3\n      add\n      dup1\n      0x40\n      mstore\n      pop\n      dup2\n      add\n      swap1\n      tag_344\n      swap2\n      swap1\n      tag_345\n      jump\t// in\n    tag_344:\n      0x01\n    tag_343:\n        /* \"contracts/Monkey.sol\":8837:9363  try IERC721Receiver(to).onERC721Received(msg.sender, from, tokenId, data) returns (bytes4 retval) {... */\n      tag_346\n      jumpi\n      returndatasize\n      dup1\n      0x00\n      dup2\n      eq\n      tag_351\n      jumpi\n      mload(0x40)\n      swap2\n      pop\n      and(add(returndatasize, 0x3f), not(0x1f))\n      dup3\n      add\n      0x40\n      mstore\n      returndatasize\n      dup3\n      mstore\n      returndatasize\n      0x00\n      0x20\n      dup5\n      add\n      returndatacopy\n      jump(tag_350)\n    tag_351:\n      0x60\n      swap2\n      pop\n    tag_350:\n      pop\n        /* \"contracts/Monkey.sol\":9097:9098  0 */\n      0x00\n        /* \"contracts/Monkey.sol\":9080:9086  reason */\n      dup2\n        /* \"contracts/Monkey.sol\":9080:9093  reason.length */\n      mload\n        /* \"contracts/Monkey.sol\":9080:9098  reason.length == 0 */\n      sub\n        /* \"contracts/Monkey.sol\":9076:9348  if (reason.length == 0) {... */\n      tag_352\n      jumpi\n        /* \"contracts/Monkey.sol\":9123:9183  revert(\"ERC721: transfer to non ERC721Receiver implementer\") */\n      mload(0x40)\n      0x08c379a000000000000000000000000000000000000000000000000000000000\n      dup2\n      mstore\n      0x04\n      add\n      tag_353\n      swap1\n      tag_309\n      jump\t// in\n    tag_353:\n      mload(0x40)\n      dup1\n      swap2\n      sub\n      swap1\n      revert\n        /* \"contracts/Monkey.sol\":9076:9348  if (reason.length == 0) {... */\n    tag_352:\n        /* \"contracts/Monkey.sol\":9298:9304  reason */\n      dup1\n        /* \"contracts/Monkey.sol\":9292:9305  mload(reason) */\n      mload\n        /* \"contracts/Monkey.sol\":9283:9289  reason */\n      dup2\n        /* \"contracts/Monkey.sol\":9279:9281  32 */\n      0x20\n        /* \"contracts/Monkey.sol\":9275:9290  add(32, reason) */\n      add\n        /* \"contracts/Monkey.sol\":9268:9306  revert(add(32, reason), mload(reason)) */\n      revert\n        /* \"contracts/Monkey.sol\":8837:9363  try IERC721Receiver(to).onERC721Received(msg.sender, from, tokenId, data) returns (bytes4 retval) {... */\n    tag_346:\n        /* \"contracts/Monkey.sol\":8971:9012  IERC721Receiver.onERC721Received.selector */\n      shl(0xe0, 0x150b7a02)\n        /* \"contracts/Monkey.sol\":8961:9012  retval == IERC721Receiver.onERC721Received.selector */\n      not(0xffffffffffffffffffffffffffffffffffffffffffffffffffffffff)\n      and\n        /* \"contracts/Monkey.sol\":8961:8967  retval */\n      dup2\n        /* \"contracts/Monkey.sol\":8961:9012  retval == IERC721Receiver.onERC721Received.selector */\n      not(0xffffffffffffffffffffffffffffffffffffffffffffffffffffffff)\n      and\n      eq\n        /* \"contracts/Monkey.sol\":8954:9012  return retval == IERC721Receiver.onERC721Received.selector */\n      swap2\n      pop\n      pop\n      jump(tag_339)\n        /* \"contracts/Monkey.sol\":8798:9418  if (to.code.length > 0) {... */\n    tag_340:\n        /* \"contracts/Monkey.sol\":9402:9406  true */\n      0x01\n        /* \"contracts/Monkey.sol\":9395:9406  return true */\n      swap1\n      pop\n        /* \"contracts/Monkey.sol\":8627:9425  function _checkOnERC721Received(... */\n    tag_339:\n      swap5\n      swap4\n      pop\n      pop\n      pop\n      pop\n      jump\t// out\n    tag_222:\n      mload(0x40)\n      dup1\n      0xc0\n      add\n      0x40\n      mstore\n      dup1\n      0x00\n      dup2\n      mstore\n      0x20\n      add\n      0x60\n      dup2\n      mstore\n      0x20\n      add\n      0x00\n      0x03\n      dup2\n      gt\n      iszero\n      tag_357\n      jumpi\n      tag_358\n      tag_140\n      jump\t// in\n    tag_358:\n    tag_357:\n      dup2\n      mstore\n      0x20\n      add\n      0x00\n      0x02\n      dup2\n      gt\n      iszero\n      tag_359\n      jumpi\n      tag_360\n      tag_140\n      jump\t// in\n    tag_360:\n    tag_359:\n      dup2\n      mstore\n      0x20\n      add\n      0x00\n      dup2\n      mstore\n      0x20\n      add\n      0x00\n      dup2\n      mstore\n      pop\n      swap1\n      jump\t// out\n        /* \"#utility.yul\":7:82   */\n    tag_361:\n        /* \"#utility.yul\":40:46   */\n      0x00\n        /* \"#utility.yul\":73:75   */\n      0x40\n        /* \"#utility.yul\":67:76   */\n      mload\n        /* \"#utility.yul\":57:76   */\n      swap1\n      pop\n        /* \"#utility.yul\":7:82   */\n      swap1\n      jump\t// out\n        /* \"#utility.yul\":88:205   */\n    tag_362:\n        /* \"#utility.yul\":197:198   */\n      0x00\n        /* \"#utility.yul\":194:195   */\n      dup1\n        /* \"#utility.yul\":187:199   */\n      revert\n        /* \"#utility.yul\":211:328   */\n    tag_363:\n        /* \"#utility.yul\":320:321   */\n      0x00\n        /* \"#utility.yul\":317:318   */\n      dup1\n        /* \"#utility.yul\":310:322   */\n      revert\n        /* \"#utility.yul\":334:483   */\n    tag_364:\n        /* \"#utility.yul\":370:377   */\n      0x00\n        /* \"#utility.yul\":410:476   */\n      0xffffffff00000000000000000000000000000000000000000000000000000000\n        /* \"#utility.yul\":403:408   */\n      dup3\n        /* \"#utility.yul\":399:477   */\n      and\n        /* \"#utility.yul\":388:477   */\n      swap1\n      pop\n        /* \"#utility.yul\":334:483   */\n      swap2\n      swap1\n      pop\n      jump\t// out\n        /* \"#utility.yul\":489:609   */\n    tag_365:\n        /* \"#utility.yul\":561:584   */\n      tag_485\n        /* \"#utility.yul\":578:583   */\n      dup2\n        /* \"#utility.yul\":561:584   */\n      tag_364\n      jump\t// in\n    tag_485:\n        /* \"#utility.yul\":554:559   */\n      dup2\n        /* \"#utility.yul\":551:585   */\n      eq\n        /* \"#utility.yul\":541:603   */\n      tag_486\n      jumpi\n        /* \"#utility.yul\":599:600   */\n      0x00\n        /* \"#utility.yul\":596:597   */\n      dup1\n        /* \"#utility.yul\":589:601   */\n      revert\n        /* \"#utility.yul\":541:603   */\n    tag_486:\n        /* \"#utility.yul\":489:609   */\n      pop\n      jump\t// out\n        /* \"#utility.yul\":615:752   */\n    tag_366:\n        /* \"#utility.yul\":660:665   */\n      0x00\n        /* \"#utility.yul\":698:704   */\n      dup2\n        /* \"#utility.yul\":685:705   */\n      calldataload\n        /* \"#utility.yul\":676:705   */\n      swap1\n      pop\n        /* \"#utility.yul\":714:746   */\n      tag_488\n        /* \"#utility.yul\":740:745   */\n      dup2\n        /* \"#utility.yul\":714:746   */\n      tag_365\n      jump\t// in\n    tag_488:\n        /* \"#utility.yul\":615:752   */\n      swap3\n      swap2\n      pop\n      pop\n      jump\t// out\n        /* \"#utility.yul\":758:1085   */\n    tag_28:\n        /* \"#utility.yul\":816:822   */\n      0x00\n        /* \"#utility.yul\":865:867   */\n      0x20\n        /* \"#utility.yul\":853:862   */\n      dup3\n        /* \"#utility.yul\":844:851   */\n      dup5\n        /* \"#utility.yul\":840:863   */\n      sub\n        /* \"#utility.yul\":836:868   */\n      slt\n        /* \"#utility.yul\":833:952   */\n      iszero\n      tag_490\n      jumpi\n        /* \"#utility.yul\":871:950   */\n      tag_491\n      tag_362\n      jump\t// in\n    tag_491:\n        /* \"#utility.yul\":833:952   */\n    tag_490:\n        /* \"#utility.yul\":991:992   */\n      0x00\n        /* \"#utility.yul\":1016:1068   */\n      tag_492\n        /* \"#utility.yul\":1060:1067   */\n      dup5\n        /* \"#utility.yul\":1051:1057   */\n      dup3\n        /* \"#utility.yul\":1040:1049   */\n      dup6\n        /* \"#utility.yul\":1036:1058   */\n      add\n        /* \"#utility.yul\":1016:1068   */\n      tag_366\n      jump\t// in\n    tag_492:\n        /* \"#utility.yul\":1006:1068   */\n      swap2\n      pop\n        /* \"#utility.yul\":962:1078   */\n      pop\n        /* \"#utility.yul\":758:1085   */\n      swap3\n      swap2\n      pop\n      pop\n      jump\t// out\n        /* \"#utility.yul\":1091:1181   */\n    tag_367:\n        /* \"#utility.yul\":1125:1132   */\n      0x00\n        /* \"#utility.yul\":1168:1173   */\n      dup2\n        /* \"#utility.yul\":1161:1174   */\n      iszero\n        /* \"#utility.yul\":1154:1175   */\n      iszero\n        /* \"#utility.yul\":1143:1175   */\n      swap1\n      pop\n        /* \"#utility.yul\":1091:1181   */\n      swap2\n      swap1\n      pop\n      jump\t// out\n        /* \"#utility.yul\":1187:1296   */\n    tag_368:\n        /* \"#utility.yul\":1268:1289   */\n      tag_495\n        /* \"#utility.yul\":1283:1288   */\n      dup2\n        /* \"#utility.yul\":1268:1289   */\n      tag_367\n      jump\t// in\n    tag_495:\n        /* \"#utility.yul\":1263:1266   */\n      dup3\n        /* \"#utility.yul\":1256:1290   */\n      mstore\n        /* \"#utility.yul\":1187:1296   */\n      pop\n      pop\n      jump\t// out\n        /* \"#utility.yul\":1302:1512   */\n    tag_31:\n        /* \"#utility.yul\":1389:1393   */\n      0x00\n        /* \"#utility.yul\":1427:1429   */\n      0x20\n        /* \"#utility.yul\":1416:1425   */\n      dup3\n        /* \"#utility.yul\":1412:1430   */\n      add\n        /* \"#utility.yul\":1404:1430   */\n      swap1\n      pop\n        /* \"#utility.yul\":1440:1505   */\n      tag_497\n        /* \"#utility.yul\":1502:1503   */\n      0x00\n        /* \"#utility.yul\":1491:1500   */\n      dup4\n        /* \"#utility.yul\":1487:1504   */\n      add\n        /* \"#utility.yul\":1478:1484   */\n      dup5\n        /* \"#utility.yul\":1440:1505   */\n      tag_368\n      jump\t// in\n    tag_497:\n        /* \"#utility.yul\":1302:1512   */\n      swap3\n      swap2\n      pop\n      pop\n      jump\t// out\n        /* \"#utility.yul\":1518:1617   */\n    tag_369:\n        /* \"#utility.yul\":1570:1576   */\n      0x00\n        /* \"#utility.yul\":1604:1609   */\n      dup2\n        /* \"#utility.yul\":1598:1610   */\n      mload\n        /* \"#utility.yul\":1588:1610   */\n      swap1\n      pop\n        /* \"#utility.yul\":1518:1617   */\n      swap2\n      swap1\n      pop\n      jump\t// out\n        /* \"#utility.yul\":1623:1792   */\n    tag_370:\n        /* \"#utility.yul\":1707:1718   */\n      0x00\n        /* \"#utility.yul\":1741:1747   */\n      dup3\n        /* \"#utility.yul\":1736:1739   */\n      dup3\n        /* \"#utility.yul\":1729:1748   */\n      mstore\n        /* \"#utility.yul\":1781:1785   */\n      0x20\n        /* \"#utility.yul\":1776:1779   */\n      dup3\n        /* \"#utility.yul\":1772:1786   */\n      add\n        /* \"#utility.yul\":1757:1786   */\n      swap1\n      pop\n        /* \"#utility.yul\":1623:1792   */\n      swap3\n      swap2\n      pop\n      pop\n      jump\t// out\n        /* \"#utility.yul\":1798:1937   */\n    tag_371:\n        /* \"#utility.yul\":1887:1893   */\n      dup3\n        /* \"#utility.yul\":1882:1885   */\n      dup2\n        /* \"#utility.yul\":1877:1880   */\n      dup4\n        /* \"#utility.yul\":1871:1894   */\n      mcopy\n        /* \"#utility.yul\":1928:1929   */\n      0x00\n        /* \"#utility.yul\":1919:1925   */\n      dup4\n        /* \"#utility.yul\":1914:1917   */\n      dup4\n        /* \"#utility.yul\":1910:1926   */\n      add\n        /* \"#utility.yul\":1903:1930   */\n      mstore\n        /* \"#utility.yul\":1798:1937   */\n      pop\n      pop\n      pop\n      jump\t// out\n        /* \"#utility.yul\":1943:2045   */\n    tag_372:\n        /* \"#utility.yul\":1984:1990   */\n      0x00\n        /* \"#utility.yul\":2035:2037   */\n      0x1f\n        /* \"#utility.yul\":2031:2038   */\n      not\n        /* \"#utility.yul\":2026:2028   */\n      0x1f\n        /* \"#utility.yul\":2019:2024   */\n      dup4\n        /* \"#utility.yul\":2015:2029   */\n      add\n        /* \"#utility.yul\":2011:2039   */\n      and\n        /* \"#utility.yul\":2001:2039   */\n      swap1\n      pop\n        /* \"#utility.yul\":1943:2045   */\n      swap2\n      swap1\n      pop\n      jump\t// out\n        /* \"#utility.yul\":2051:2428   */\n    tag_373:\n        /* \"#utility.yul\":2139:2142   */\n      0x00\n        /* \"#utility.yul\":2167:2206   */\n      tag_503\n        /* \"#utility.yul\":2200:2205   */\n      dup3\n        /* \"#utility.yul\":2167:2206   */\n      tag_369\n      jump\t// in\n    tag_503:\n        /* \"#utility.yul\":2222:2293   */\n      tag_504\n        /* \"#utility.yul\":2286:2292   */\n      dup2\n        /* \"#utility.yul\":2281:2284   */\n      dup6\n        /* \"#utility.yul\":2222:2293   */\n      tag_370\n      jump\t// in\n    tag_504:\n        /* \"#utility.yul\":2215:2293   */\n      swap4\n      pop\n        /* \"#utility.yul\":2302:2367   */\n      tag_505\n        /* \"#utility.yul\":2360:2366   */\n      dup2\n        /* \"#utility.yul\":2355:2358   */\n      dup6\n        /* \"#utility.yul\":2348:2352   */\n      0x20\n        /* \"#utility.yul\":2341:2346   */\n      dup7\n        /* \"#utility.yul\":2337:2353   */\n      add\n        /* \"#utility.yul\":2302:2367   */\n      tag_371\n      jump\t// in\n    tag_505:\n        /* \"#utility.yul\":2392:2421   */\n      tag_506\n        /* \"#utility.yul\":2414:2420   */\n      dup2\n        /* \"#utility.yul\":2392:2421   */\n      tag_372\n      jump\t// in\n    tag_506:\n        /* \"#utility.yul\":2387:2390   */\n      dup5\n        /* \"#utility.yul\":2383:2422   */\n      add\n        /* \"#utility.yul\":2376:2422   */\n      swap2\n      pop\n        /* \"#utility.yul\":2143:2428   */\n      pop\n        /* \"#utility.yul\":2051:2428   */\n      swap3\n      swap2\n      pop\n      pop\n      jump\t// out\n        /* \"#utility.yul\":2434:2747   */\n    tag_35:\n        /* \"#utility.yul\":2547:2551   */\n      0x00\n        /* \"#utility.yul\":2585:2587   */\n      0x20\n        /* \"#utility.yul\":2574:2583   */\n      dup3\n        /* \"#utility.yul\":2570:2588   */\n      add\n        /* \"#utility.yul\":2562:2588   */\n      swap1\n      pop\n        /* \"#utility.yul\":2634:2643   */\n      dup2\n        /* \"#utility.yul\":2628:2632   */\n      dup2\n        /* \"#utility.yul\":2624:2644   */\n      sub\n        /* \"#utility.yul\":2620:2621   */\n      0x00\n        /* \"#utility.yul\":2609:2618   */\n      dup4\n        /* \"#utility.yul\":2605:2622   */\n      add\n        /* \"#utility.yul\":2598:2645   */\n      mstore\n        /* \"#utility.yul\":2662:2740   */\n      tag_508\n        /* \"#utility.yul\":2735:2739   */\n      dup2\n        /* \"#utility.yul\":2726:2732   */\n      dup5\n        /* \"#utility.yul\":2662:2740   */\n      tag_373\n      jump\t// in\n    tag_508:\n        /* \"#utility.yul\":2654:2740   */\n      swap1\n      pop\n        /* \"#utility.yul\":2434:2747   */\n      swap3\n      swap2\n      pop\n      pop\n      jump\t// out\n        /* \"#utility.yul\":2753:2830   */\n    tag_374:\n        /* \"#utility.yul\":2790:2797   */\n      0x00\n        /* \"#utility.yul\":2819:2824   */\n      dup2\n        /* \"#utility.yul\":2808:2824   */\n      swap1\n      pop\n        /* \"#utility.yul\":2753:2830   */\n      swap2\n      swap1\n      pop\n      jump\t// out\n        /* \"#utility.yul\":2836:2958   */\n    tag_375:\n        /* \"#utility.yul\":2909:2933   */\n      tag_511\n        /* \"#utility.yul\":2927:2932   */\n      dup2\n        /* \"#utility.yul\":2909:2933   */\n      tag_374\n      jump\t// in\n    tag_511:\n        /* \"#utility.yul\":2902:2907   */\n      dup2\n        /* \"#utility.yul\":2899:2934   */\n      eq\n        /* \"#utility.yul\":2889:2952   */\n      tag_512\n      jumpi\n        /* \"#utility.yul\":2948:2949   */\n      0x00\n        /* \"#utility.yul\":2945:2946   */\n      dup1\n        /* \"#utility.yul\":2938:2950   */\n      revert\n        /* \"#utility.yul\":2889:2952   */\n    tag_512:\n        /* \"#utility.yul\":2836:2958   */\n      pop\n      jump\t// out\n        /* \"#utility.yul\":2964:3103   */\n    tag_376:\n        /* \"#utility.yul\":3010:3015   */\n      0x00\n        /* \"#utility.yul\":3048:3054   */\n      dup2\n        /* \"#utility.yul\":3035:3055   */\n      calldataload\n        /* \"#utility.yul\":3026:3055   */\n      swap1\n      pop\n        /* \"#utility.yul\":3064:3097   */\n      tag_514\n        /* \"#utility.yul\":3091:3096   */\n      dup2\n        /* \"#utility.yul\":3064:3097   */\n      tag_375\n      jump\t// in\n    tag_514:\n        /* \"#utility.yul\":2964:3103   */\n      swap3\n      swap2\n      pop\n      pop\n      jump\t// out\n        /* \"#utility.yul\":3109:3438   */\n    tag_38:\n        /* \"#utility.yul\":3168:3174   */\n      0x00\n        /* \"#utility.yul\":3217:3219   */\n      0x20\n        /* \"#utility.yul\":3205:3214   */\n      dup3\n        /* \"#utility.yul\":3196:3203   */\n      dup5\n        /* \"#utility.yul\":3192:3215   */\n      sub\n        /* \"#utility.yul\":3188:3220   */\n      slt\n        /* \"#utility.yul\":3185:3304   */\n      iszero\n      tag_516\n      jumpi\n        /* \"#utility.yul\":3223:3302   */\n      tag_517\n      tag_362\n      jump\t// in\n    tag_517:\n        /* \"#utility.yul\":3185:3304   */\n    tag_516:\n        /* \"#utility.yul\":3343:3344   */\n      0x00\n        /* \"#utility.yul\":3368:3421   */\n      tag_518\n        /* \"#utility.yul\":3413:3420   */\n      dup5\n        /* \"#utility.yul\":3404:3410   */\n      dup3\n        /* \"#utility.yul\":3393:3402   */\n      dup6\n        /* \"#utility.yul\":3389:3411   */\n      add\n        /* \"#utility.yul\":3368:3421   */\n      tag_376\n      jump\t// in\n    tag_518:\n        /* \"#utility.yul\":3358:3421   */\n      swap2\n      pop\n        /* \"#utility.yul\":3314:3431   */\n      pop\n        /* \"#utility.yul\":3109:3438   */\n      swap3\n      swap2\n      pop\n      pop\n      jump\t// out\n        /* \"#utility.yul\":3444:3570   */\n    tag_377:\n        /* \"#utility.yul\":3481:3488   */\n      0x00\n        /* \"#utility.yul\":3521:3563   */\n      0xffffffffffffffffffffffffffffffffffffffff\n        /* \"#utility.yul\":3514:3519   */\n      dup3\n        /* \"#utility.yul\":3510:3564   */\n      and\n        /* \"#utility.yul\":3499:3564   */\n      swap1\n      pop\n        /* \"#utility.yul\":3444:3570   */\n      swap2\n      swap1\n      pop\n      jump\t// out\n        /* \"#utility.yul\":3576:3672   */\n    tag_378:\n        /* \"#utility.yul\":3613:3620   */\n      0x00\n        /* \"#utility.yul\":3642:3666   */\n      tag_521\n        /* \"#utility.yul\":3660:3665   */\n      dup3\n        /* \"#utility.yul\":3642:3666   */\n      tag_377\n      jump\t// in\n    tag_521:\n        /* \"#utility.yul\":3631:3666   */\n      swap1\n      pop\n        /* \"#utility.yul\":3576:3672   */\n      swap2\n      swap1\n      pop\n      jump\t// out\n        /* \"#utility.yul\":3678:3796   */\n    tag_379:\n        /* \"#utility.yul\":3765:3789   */\n      tag_523\n        /* \"#utility.yul\":3783:3788   */\n      dup2\n        /* \"#utility.yul\":3765:3789   */\n      tag_378\n      jump\t// in\n    tag_523:\n        /* \"#utility.yul\":3760:3763   */\n      dup3\n        /* \"#utility.yul\":3753:3790   */\n      mstore\n        /* \"#utility.yul\":3678:3796   */\n      pop\n      pop\n      jump\t// out\n        /* \"#utility.yul\":3802:4024   */\n    tag_41:\n        /* \"#utility.yul\":3895:3899   */\n      0x00\n        /* \"#utility.yul\":3933:3935   */\n      0x20\n        /* \"#utility.yul\":3922:3931   */\n      dup3\n        /* \"#utility.yul\":3918:3936   */\n      add\n        /* \"#utility.yul\":3910:3936   */\n      swap1\n      pop\n        /* \"#utility.yul\":3946:4017   */\n      tag_525\n        /* \"#utility.yul\":4014:4015   */\n      0x00\n        /* \"#utility.yul\":4003:4012   */\n      dup4\n        /* \"#utility.yul\":3999:4016   */\n      add\n        /* \"#utility.yul\":3990:3996   */\n      dup5\n        /* \"#utility.yul\":3946:4017   */\n      tag_379\n      jump\t// in\n    tag_525:\n        /* \"#utility.yul\":3802:4024   */\n      swap3\n      swap2\n      pop\n      pop\n      jump\t// out\n        /* \"#utility.yul\":4030:4152   */\n    tag_380:\n        /* \"#utility.yul\":4103:4127   */\n      tag_527\n        /* \"#utility.yul\":4121:4126   */\n      dup2\n        /* \"#utility.yul\":4103:4127   */\n      tag_378\n      jump\t// in\n    tag_527:\n        /* \"#utility.yul\":4096:4101   */\n      dup2\n        /* \"#utility.yul\":4093:4128   */\n      eq\n        /* \"#utility.yul\":4083:4146   */\n      tag_528\n      jumpi\n        /* \"#utility.yul\":4142:4143   */\n      0x00\n        /* \"#utility.yul\":4139:4140   */\n      dup1\n        /* \"#utility.yul\":4132:4144   */\n      revert\n        /* \"#utility.yul\":4083:4146   */\n    tag_528:\n        /* \"#utility.yul\":4030:4152   */\n      pop\n      jump\t// out\n        /* \"#utility.yul\":4158:4297   */\n    tag_381:\n        /* \"#utility.yul\":4204:4209   */\n      0x00\n        /* \"#utility.yul\":4242:4248   */\n      dup2\n        /* \"#utility.yul\":4229:4249   */\n      calldataload\n        /* \"#utility.yul\":4220:4249   */\n      swap1\n      pop\n        /* \"#utility.yul\":4258:4291   */\n      tag_530\n        /* \"#utility.yul\":4285:4290   */\n      dup2\n        /* \"#utility.yul\":4258:4291   */\n      tag_380\n      jump\t// in\n    tag_530:\n        /* \"#utility.yul\":4158:4297   */\n      swap3\n      swap2\n      pop\n      pop\n      jump\t// out\n        /* \"#utility.yul\":4303:4777   */\n    tag_44:\n        /* \"#utility.yul\":4371:4377   */\n      0x00\n        /* \"#utility.yul\":4379:4385   */\n      dup1\n        /* \"#utility.yul\":4428:4430   */\n      0x40\n        /* \"#utility.yul\":4416:4425   */\n      dup4\n        /* \"#utility.yul\":4407:4414   */\n      dup6\n        /* \"#utility.yul\":4403:4426   */\n      sub\n        /* \"#utility.yul\":4399:4431   */\n      slt\n        /* \"#utility.yul\":4396:4515   */\n      iszero\n      tag_532\n      jumpi\n        /* \"#utility.yul\":4434:4513   */\n      tag_533\n      tag_362\n      jump\t// in\n    tag_533:\n        /* \"#utility.yul\":4396:4515   */\n    tag_532:\n        /* \"#utility.yul\":4554:4555   */\n      0x00\n        /* \"#utility.yul\":4579:4632   */\n      tag_534\n        /* \"#utility.yul\":4624:4631   */\n      dup6\n        /* \"#utility.yul\":4615:4621   */\n      dup3\n        /* \"#utility.yul\":4604:4613   */\n      dup7\n        /* \"#utility.yul\":4600:4622   */\n      add\n        /* \"#utility.yul\":4579:4632   */\n      tag_381\n      jump\t// in\n    tag_534:\n        /* \"#utility.yul\":4569:4632   */\n      swap3\n      pop\n        /* \"#utility.yul\":4525:4642   */\n      pop\n        /* \"#utility.yul\":4681:4683   */\n      0x20\n        /* \"#utility.yul\":4707:4760   */\n      tag_535\n        /* \"#utility.yul\":4752:4759   */\n      dup6\n        /* \"#utility.yul\":4743:4749   */\n      dup3\n        /* \"#utility.yul\":4732:4741   */\n      dup7\n        /* \"#utility.yul\":4728:4750   */\n      add\n        /* \"#utility.yul\":4707:4760   */\n      tag_376\n      jump\t// in\n    tag_535:\n        /* \"#utility.yul\":4697:4760   */\n      swap2\n      pop\n        /* \"#utility.yul\":4652:4770   */\n      pop\n        /* \"#utility.yul\":4303:4777   */\n      swap3\n      pop\n      swap3\n      swap1\n      pop\n      jump\t// out\n        /* \"#utility.yul\":4783:4900   */\n    tag_382:\n        /* \"#utility.yul\":4892:4893   */\n      0x00\n        /* \"#utility.yul\":4889:4890   */\n      dup1\n        /* \"#utility.yul\":4882:4894   */\n      revert\n        /* \"#utility.yul\":4906:5023   */\n    tag_383:\n        /* \"#utility.yul\":5015:5016   */\n      0x00\n        /* \"#utility.yul\":5012:5013   */\n      dup1\n        /* \"#utility.yul\":5005:5017   */\n      revert\n        /* \"#utility.yul\":5029:5209   */\n    tag_325:\n        /* \"#utility.yul\":5077:5154   */\n      0x4e487b7100000000000000000000000000000000000000000000000000000000\n        /* \"#utility.yul\":5074:5075   */\n      0x00\n        /* \"#utility.yul\":5067:5155   */\n      mstore\n        /* \"#utility.yul\":5174:5178   */\n      0x41\n        /* \"#utility.yul\":5171:5172   */\n      0x04\n        /* \"#utility.yul\":5164:5179   */\n      mstore\n        /* \"#utility.yul\":5198:5202   */\n      0x24\n        /* \"#utility.yul\":5195:5196   */\n      0x00\n        /* \"#utility.yul\":5188:5203   */\n      revert\n        /* \"#utility.yul\":5215:5496   */\n    tag_384:\n        /* \"#utility.yul\":5298:5325   */\n      tag_540\n        /* \"#utility.yul\":5320:5324   */\n      dup3\n        /* \"#utility.yul\":5298:5325   */\n      tag_372\n      jump\t// in\n    tag_540:\n        /* \"#utility.yul\":5290:5296   */\n      dup2\n        /* \"#utility.yul\":5286:5326   */\n      add\n        /* \"#utility.yul\":5428:5434   */\n      dup2\n        /* \"#utility.yul\":5416:5426   */\n      dup2\n        /* \"#utility.yul\":5413:5435   */\n      lt\n        /* \"#utility.yul\":5392:5410   */\n      0xffffffffffffffff\n        /* \"#utility.yul\":5380:5390   */\n      dup3\n        /* \"#utility.yul\":5377:5411   */\n      gt\n        /* \"#utility.yul\":5374:5436   */\n      or\n        /* \"#utility.yul\":5371:5459   */\n      iszero\n      tag_541\n      jumpi\n        /* \"#utility.yul\":5439:5457   */\n      tag_542\n      tag_325\n      jump\t// in\n    tag_542:\n        /* \"#utility.yul\":5371:5459   */\n    tag_541:\n        /* \"#utility.yul\":5479:5489   */\n      dup1\n        /* \"#utility.yul\":5475:5477   */\n      0x40\n        /* \"#utility.yul\":5468:5490   */\n      mstore\n        /* \"#utility.yul\":5258:5496   */\n      pop\n        /* \"#utility.yul\":5215:5496   */\n      pop\n      pop\n      jump\t// out\n        /* \"#utility.yul\":5502:5631   */\n    tag_385:\n        /* \"#utility.yul\":5536:5542   */\n      0x00\n        /* \"#utility.yul\":5563:5583   */\n      tag_544\n      tag_361\n      jump\t// in\n    tag_544:\n        /* \"#utility.yul\":5553:5583   */\n      swap1\n      pop\n        /* \"#utility.yul\":5592:5625   */\n      tag_545\n        /* \"#utility.yul\":5620:5624   */\n      dup3\n        /* \"#utility.yul\":5612:5618   */\n      dup3\n        /* \"#utility.yul\":5592:5625   */\n      tag_384\n      jump\t// in\n    tag_545:\n        /* \"#utility.yul\":5502:5631   */\n      swap2\n      swap1\n      pop\n      jump\t// out\n        /* \"#utility.yul\":5637:5945   */\n    tag_386:\n        /* \"#utility.yul\":5699:5703   */\n      0x00\n        /* \"#utility.yul\":5789:5807   */\n      0xffffffffffffffff\n        /* \"#utility.yul\":5781:5787   */\n      dup3\n        /* \"#utility.yul\":5778:5808   */\n      gt\n        /* \"#utility.yul\":5775:5831   */\n      iszero\n      tag_547\n      jumpi\n        /* \"#utility.yul\":5811:5829   */\n      tag_548\n      tag_325\n      jump\t// in\n    tag_548:\n        /* \"#utility.yul\":5775:5831   */\n    tag_547:\n        /* \"#utility.yul\":5849:5878   */\n      tag_549\n        /* \"#utility.yul\":5871:5877   */\n      dup3\n        /* \"#utility.yul\":5849:5878   */\n      tag_372\n      jump\t// in\n    tag_549:\n        /* \"#utility.yul\":5841:5878   */\n      swap1\n      pop\n        /* \"#utility.yul\":5933:5937   */\n      0x20\n        /* \"#utility.yul\":5927:5931   */\n      dup2\n        /* \"#utility.yul\":5923:5938   */\n      add\n        /* \"#utility.yul\":5915:5938   */\n      swap1\n      pop\n        /* \"#utility.yul\":5637:5945   */\n      swap2\n      swap1\n      pop\n      jump\t// out\n        /* \"#utility.yul\":5951:6099   */\n    tag_387:\n        /* \"#utility.yul\":6049:6055   */\n      dup3\n        /* \"#utility.yul\":6044:6047   */\n      dup2\n        /* \"#utility.yul\":6039:6042   */\n      dup4\n        /* \"#utility.yul\":6026:6056   */\n      calldatacopy\n        /* \"#utility.yul\":6090:6091   */\n      0x00\n        /* \"#utility.yul\":6081:6087   */\n      dup4\n        /* \"#utility.yul\":6076:6079   */\n      dup4\n        /* \"#utility.yul\":6072:6088   */\n      add\n        /* \"#utility.yul\":6065:6092   */\n      mstore\n        /* \"#utility.yul\":5951:6099   */\n      pop\n      pop\n      pop\n      jump\t// out\n        /* \"#utility.yul\":6105:6530   */\n    tag_388:\n        /* \"#utility.yul\":6183:6188   */\n      0x00\n        /* \"#utility.yul\":6208:6274   */\n      tag_552\n        /* \"#utility.yul\":6224:6273   */\n      tag_553\n        /* \"#utility.yul\":6266:6272   */\n      dup5\n        /* \"#utility.yul\":6224:6273   */\n      tag_386\n      jump\t// in\n    tag_553:\n        /* \"#utility.yul\":6208:6274   */\n      tag_385\n      jump\t// in\n    tag_552:\n        /* \"#utility.yul\":6199:6274   */\n      swap1\n      pop\n        /* \"#utility.yul\":6297:6303   */\n      dup3\n        /* \"#utility.yul\":6290:6295   */\n      dup2\n        /* \"#utility.yul\":6283:6304   */\n      mstore\n        /* \"#utility.yul\":6335:6339   */\n      0x20\n        /* \"#utility.yul\":6328:6333   */\n      dup2\n        /* \"#utility.yul\":6324:6340   */\n      add\n        /* \"#utility.yul\":6373:6376   */\n      dup5\n        /* \"#utility.yul\":6364:6370   */\n      dup5\n        /* \"#utility.yul\":6359:6362   */\n      dup5\n        /* \"#utility.yul\":6355:6371   */\n      add\n        /* \"#utility.yul\":6352:6377   */\n      gt\n        /* \"#utility.yul\":6349:6461   */\n      iszero\n      tag_554\n      jumpi\n        /* \"#utility.yul\":6380:6459   */\n      tag_555\n      tag_383\n      jump\t// in\n    tag_555:\n        /* \"#utility.yul\":6349:6461   */\n    tag_554:\n        /* \"#utility.yul\":6470:6524   */\n      tag_556\n        /* \"#utility.yul\":6517:6523   */\n      dup5\n        /* \"#utility.yul\":6512:6515   */\n      dup3\n        /* \"#utility.yul\":6507:6510   */\n      dup6\n        /* \"#utility.yul\":6470:6524   */\n      tag_387\n      jump\t// in\n    tag_556:\n        /* \"#utility.yul\":6189:6530   */\n      pop\n        /* \"#utility.yul\":6105:6530   */\n      swap4\n      swap3\n      pop\n      pop\n      pop\n      jump\t// out\n        /* \"#utility.yul\":6550:6890   */\n    tag_389:\n        /* \"#utility.yul\":6606:6611   */\n      0x00\n        /* \"#utility.yul\":6655:6658   */\n      dup3\n        /* \"#utility.yul\":6648:6652   */\n      0x1f\n        /* \"#utility.yul\":6640:6646   */\n      dup4\n        /* \"#utility.yul\":6636:6653   */\n      add\n        /* \"#utility.yul\":6632:6659   */\n      slt\n        /* \"#utility.yul\":6622:6744   */\n      tag_558\n      jumpi\n        /* \"#utility.yul\":6663:6742   */\n      tag_559\n      tag_382\n      jump\t// in\n    tag_559:\n        /* \"#utility.yul\":6622:6744   */\n    tag_558:\n        /* \"#utility.yul\":6780:6786   */\n      dup2\n        /* \"#utility.yul\":6767:6787   */\n      calldataload\n        /* \"#utility.yul\":6805:6884   */\n      tag_560\n        /* \"#utility.yul\":6880:6883   */\n      dup5\n        /* \"#utility.yul\":6872:6878   */\n      dup3\n        /* \"#utility.yul\":6865:6869   */\n      0x20\n        /* \"#utility.yul\":6857:6863   */\n      dup7\n        /* \"#utility.yul\":6853:6870   */\n      add\n        /* \"#utility.yul\":6805:6884   */\n      tag_388\n      jump\t// in\n    tag_560:\n        /* \"#utility.yul\":6796:6884   */\n      swap2\n      pop\n        /* \"#utility.yul\":6612:6890   */\n      pop\n        /* \"#utility.yul\":6550:6890   */\n      swap3\n      swap2\n      pop\n      pop\n      jump\t// out\n        /* \"#utility.yul\":6896:6982   */\n    tag_390:\n        /* \"#utility.yul\":6931:6938   */\n      0x00\n        /* \"#utility.yul\":6971:6975   */\n      0xff\n        /* \"#utility.yul\":6964:6969   */\n      dup3\n        /* \"#utility.yul\":6960:6976   */\n      and\n        /* \"#utility.yul\":6949:6976   */\n      swap1\n      pop\n        /* \"#utility.yul\":6896:6982   */\n      swap2\n      swap1\n      pop\n      jump\t// out\n        /* \"#utility.yul\":6988:7106   */\n    tag_391:\n        /* \"#utility.yul\":7059:7081   */\n      tag_563\n        /* \"#utility.yul\":7075:7080   */\n      dup2\n        /* \"#utility.yul\":7059:7081   */\n      tag_390\n      jump\t// in\n    tag_563:\n        /* \"#utility.yul\":7052:7057   */\n      dup2\n        /* \"#utility.yul\":7049:7082   */\n      eq\n        /* \"#utility.yul\":7039:7100   */\n      tag_564\n      jumpi\n        /* \"#utility.yul\":7096:7097   */\n      0x00\n        /* \"#utility.yul\":7093:7094   */\n      dup1\n        /* \"#utility.yul\":7086:7098   */\n      revert\n        /* \"#utility.yul\":7039:7100   */\n    tag_564:\n        /* \"#utility.yul\":6988:7106   */\n      pop\n      jump\t// out\n        /* \"#utility.yul\":7112:7247   */\n    tag_392:\n        /* \"#utility.yul\":7156:7161   */\n      0x00\n        /* \"#utility.yul\":7194:7200   */\n      dup2\n        /* \"#utility.yul\":7181:7201   */\n      calldataload\n        /* \"#utility.yul\":7172:7201   */\n      swap1\n      pop\n        /* \"#utility.yul\":7210:7241   */\n      tag_566\n        /* \"#utility.yul\":7235:7240   */\n      dup2\n        /* \"#utility.yul\":7210:7241   */\n      tag_391\n      jump\t// in\n    tag_566:\n        /* \"#utility.yul\":7112:7247   */\n      swap3\n      swap2\n      pop\n      pop\n      jump\t// out\n        /* \"#utility.yul\":7253:8482   */\n    tag_48:\n        /* \"#utility.yul\":7363:7369   */\n      0x00\n        /* \"#utility.yul\":7371:7377   */\n      dup1\n        /* \"#utility.yul\":7379:7385   */\n      0x00\n        /* \"#utility.yul\":7387:7393   */\n      dup1\n        /* \"#utility.yul\":7395:7401   */\n      0x00\n        /* \"#utility.yul\":7403:7409   */\n      dup1\n        /* \"#utility.yul\":7452:7455   */\n      0xc0\n        /* \"#utility.yul\":7440:7449   */\n      dup8\n        /* \"#utility.yul\":7431:7438   */\n      dup10\n        /* \"#utility.yul\":7427:7450   */\n      sub\n        /* \"#utility.yul\":7423:7456   */\n      slt\n        /* \"#utility.yul\":7420:7540   */\n      iszero\n      tag_568\n      jumpi\n        /* \"#utility.yul\":7459:7538   */\n      tag_569\n      tag_362\n      jump\t// in\n    tag_569:\n        /* \"#utility.yul\":7420:7540   */\n    tag_568:\n        /* \"#utility.yul\":7579:7580   */\n      0x00\n        /* \"#utility.yul\":7604:7657   */\n      tag_570\n        /* \"#utility.yul\":7649:7656   */\n      dup10\n        /* \"#utility.yul\":7640:7646   */\n      dup3\n        /* \"#utility.yul\":7629:7638   */\n      dup11\n        /* \"#utility.yul\":7625:7647   */\n      add\n        /* \"#utility.yul\":7604:7657   */\n      tag_381\n      jump\t// in\n    tag_570:\n        /* \"#utility.yul\":7594:7657   */\n      swap7\n      pop\n        /* \"#utility.yul\":7550:7667   */\n      pop\n        /* \"#utility.yul\":7734:7736   */\n      0x20\n        /* \"#utility.yul\":7723:7732   */\n      dup8\n        /* \"#utility.yul\":7719:7737   */\n      add\n        /* \"#utility.yul\":7706:7738   */\n      calldataload\n        /* \"#utility.yul\":7765:7783   */\n      0xffffffffffffffff\n        /* \"#utility.yul\":7757:7763   */\n      dup2\n        /* \"#utility.yul\":7754:7784   */\n      gt\n        /* \"#utility.yul\":7751:7868   */\n      iszero\n      tag_571\n      jumpi\n        /* \"#utility.yul\":7787:7866   */\n      tag_572\n      tag_363\n      jump\t// in\n    tag_572:\n        /* \"#utility.yul\":7751:7868   */\n    tag_571:\n        /* \"#utility.yul\":7892:7955   */\n      tag_573\n        /* \"#utility.yul\":7947:7954   */\n      dup10\n        /* \"#utility.yul\":7938:7944   */\n      dup3\n        /* \"#utility.yul\":7927:7936   */\n      dup11\n        /* \"#utility.yul\":7923:7945   */\n      add\n        /* \"#utility.yul\":7892:7955   */\n      tag_389\n      jump\t// in\n    tag_573:\n        /* \"#utility.yul\":7882:7955   */\n      swap6\n      pop\n        /* \"#utility.yul\":7677:7965   */\n      pop\n        /* \"#utility.yul\":8004:8006   */\n      0x40\n        /* \"#utility.yul\":8030:8081   */\n      tag_574\n        /* \"#utility.yul\":8073:8080   */\n      dup10\n        /* \"#utility.yul\":8064:8070   */\n      dup3\n        /* \"#utility.yul\":8053:8062   */\n      dup11\n        /* \"#utility.yul\":8049:8071   */\n      add\n        /* \"#utility.yul\":8030:8081   */\n      tag_392\n      jump\t// in\n    tag_574:\n        /* \"#utility.yul\":8020:8081   */\n      swap5\n      pop\n        /* \"#utility.yul\":7975:8091   */\n      pop\n        /* \"#utility.yul\":8130:8132   */\n      0x60\n        /* \"#utility.yul\":8156:8207   */\n      tag_575\n        /* \"#utility.yul\":8199:8206   */\n      dup10\n        /* \"#utility.yul\":8190:8196   */\n      dup3\n        /* \"#utility.yul\":8179:8188   */\n      dup11\n        /* \"#utility.yul\":8175:8197   */\n      add\n        /* \"#utility.yul\":8156:8207   */\n      tag_392\n      jump\t// in\n    tag_575:\n        /* \"#utility.yul\":8146:8207   */\n      swap4\n      pop\n        /* \"#utility.yul\":8101:8217   */\n      pop\n        /* \"#utility.yul\":8256:8259   */\n      0x80\n        /* \"#utility.yul\":8283:8336   */\n      tag_576\n        /* \"#utility.yul\":8328:8335   */\n      dup10\n        /* \"#utility.yul\":8319:8325   */\n      dup3\n        /* \"#utility.yul\":8308:8317   */\n      dup11\n        /* \"#utility.yul\":8304:8326   */\n      add\n        /* \"#utility.yul\":8283:8336   */\n      tag_376\n      jump\t// in\n    tag_576:\n        /* \"#utility.yul\":8273:8336   */\n      swap3\n      pop\n        /* \"#utility.yul\":8227:8346   */\n      pop\n        /* \"#utility.yul\":8385:8388   */\n      0xa0\n        /* \"#utility.yul\":8412:8465   */\n      tag_577\n        /* \"#utility.yul\":8457:8464   */\n      dup10\n        /* \"#utility.yul\":8448:8454   */\n      dup3\n        /* \"#utility.yul\":8437:8446   */\n      dup11\n        /* \"#utility.yul\":8433:8455   */\n      add\n        /* \"#utility.yul\":8412:8465   */\n      tag_376\n      jump\t// in\n    tag_577:\n        /* \"#utility.yul\":8402:8465   */\n      swap2\n      pop\n        /* \"#utility.yul\":8356:8475   */\n      pop\n        /* \"#utility.yul\":7253:8482   */\n      swap3\n      swap6\n      pop\n      swap3\n      swap6\n      pop\n      swap3\n      swap6\n      jump\t// out\n        /* \"#utility.yul\":8488:8606   */\n    tag_393:\n        /* \"#utility.yul\":8575:8599   */\n      tag_579\n        /* \"#utility.yul\":8593:8598   */\n      dup2\n        /* \"#utility.yul\":8575:8599   */\n      tag_374\n      jump\t// in\n    tag_579:\n        /* \"#utility.yul\":8570:8573   */\n      dup3\n        /* \"#utility.yul\":8563:8600   */\n      mstore\n        /* \"#utility.yul\":8488:8606   */\n      pop\n      pop\n      jump\t// out\n        /* \"#utility.yul\":8612:8834   */\n    tag_51:\n        /* \"#utility.yul\":8705:8709   */\n      0x00\n        /* \"#utility.yul\":8743:8745   */\n      0x20\n        /* \"#utility.yul\":8732:8741   */\n      dup3\n        /* \"#utility.yul\":8728:8746   */\n      add\n        /* \"#utility.yul\":8720:8746   */\n      swap1\n      pop\n        /* \"#utility.yul\":8756:8827   */\n      tag_581\n        /* \"#utility.yul\":8824:8825   */\n      0x00\n        /* \"#utility.yul\":8813:8822   */\n      dup4\n        /* \"#utility.yul\":8809:8826   */\n      add\n        /* \"#utility.yul\":8800:8806   */\n      dup5\n        /* \"#utility.yul\":8756:8827   */\n      tag_393\n      jump\t// in\n    tag_581:\n        /* \"#utility.yul\":8612:8834   */\n      swap3\n      swap2\n      pop\n      pop\n      jump\t// out\n        /* \"#utility.yul\":8840:9459   */\n    tag_54:\n        /* \"#utility.yul\":8917:8923   */\n      0x00\n        /* \"#utility.yul\":8925:8931   */\n      dup1\n        /* \"#utility.yul\":8933:8939   */\n      0x00\n        /* \"#utility.yul\":8982:8984   */\n      0x60\n        /* \"#utility.yul\":8970:8979   */\n      dup5\n        /* \"#utility.yul\":8961:8968   */\n      dup7\n        /* \"#utility.yul\":8957:8980   */\n      sub\n        /* \"#utility.yul\":8953:8985   */\n      slt\n        /* \"#utility.yul\":8950:9069   */\n      iszero\n      tag_583\n      jumpi\n        /* \"#utility.yul\":8988:9067   */\n      tag_584\n      tag_362\n      jump\t// in\n    tag_584:\n        /* \"#utility.yul\":8950:9069   */\n    tag_583:\n        /* \"#utility.yul\":9108:9109   */\n      0x00\n        /* \"#utility.yul\":9133:9186   */\n      tag_585\n        /* \"#utility.yul\":9178:9185   */\n      dup7\n        /* \"#utility.yul\":9169:9175   */\n      dup3\n        /* \"#utility.yul\":9158:9167   */\n      dup8\n        /* \"#utility.yul\":9154:9176   */\n      add\n        /* \"#utility.yul\":9133:9186   */\n      tag_381\n      jump\t// in\n    tag_585:\n        /* \"#utility.yul\":9123:9186   */\n      swap4\n      pop\n        /* \"#utility.yul\":9079:9196   */\n      pop\n        /* \"#utility.yul\":9235:9237   */\n      0x20\n        /* \"#utility.yul\":9261:9314   */\n      tag_586\n        /* \"#utility.yul\":9306:9313   */\n      dup7\n        /* \"#utility.yul\":9297:9303   */\n      dup3\n        /* \"#utility.yul\":9286:9295   */\n      dup8\n        /* \"#utility.yul\":9282:9304   */\n      add\n        /* \"#utility.yul\":9261:9314   */\n      tag_381\n      jump\t// in\n    tag_586:\n        /* \"#utility.yul\":9251:9314   */\n      swap3\n      pop\n        /* \"#utility.yul\":9206:9324   */\n      pop\n        /* \"#utility.yul\":9363:9365   */\n      0x40\n        /* \"#utility.yul\":9389:9442   */\n      tag_587\n        /* \"#utility.yul\":9434:9441   */\n      dup7\n        /* \"#utility.yul\":9425:9431   */\n      dup3\n        /* \"#utility.yul\":9414:9423   */\n      dup8\n        /* \"#utility.yul\":9410:9432   */\n      add\n        /* \"#utility.yul\":9389:9442   */\n      tag_376\n      jump\t// in\n    tag_587:\n        /* \"#utility.yul\":9379:9442   */\n      swap2\n      pop\n        /* \"#utility.yul\":9334:9452   */\n      pop\n        /* \"#utility.yul\":8840:9459   */\n      swap3\n      pop\n      swap3\n      pop\n      swap3\n      jump\t// out\n        /* \"#utility.yul\":9465:9974   */\n    tag_61:\n        /* \"#utility.yul\":9534:9540   */\n      0x00\n        /* \"#utility.yul\":9583:9585   */\n      0x20\n        /* \"#utility.yul\":9571:9580   */\n      dup3\n        /* \"#utility.yul\":9562:9569   */\n      dup5\n        /* \"#utility.yul\":9558:9581   */\n      sub\n        /* \"#utility.yul\":9554:9586   */\n      slt\n        /* \"#utility.yul\":9551:9670   */\n      iszero\n      tag_589\n      jumpi\n        /* \"#utility.yul\":9589:9668   */\n      tag_590\n      tag_362\n      jump\t// in\n    tag_590:\n        /* \"#utility.yul\":9551:9670   */\n    tag_589:\n        /* \"#utility.yul\":9737:9738   */\n      0x00\n        /* \"#utility.yul\":9726:9735   */\n      dup3\n        /* \"#utility.yul\":9722:9739   */\n      add\n        /* \"#utility.yul\":9709:9740   */\n      calldataload\n        /* \"#utility.yul\":9767:9785   */\n      0xffffffffffffffff\n        /* \"#utility.yul\":9759:9765   */\n      dup2\n        /* \"#utility.yul\":9756:9786   */\n      gt\n        /* \"#utility.yul\":9753:9870   */\n      iszero\n      tag_591\n      jumpi\n        /* \"#utility.yul\":9789:9868   */\n      tag_592\n      tag_363\n      jump\t// in\n    tag_592:\n        /* \"#utility.yul\":9753:9870   */\n    tag_591:\n        /* \"#utility.yul\":9894:9957   */\n      tag_593\n        /* \"#utility.yul\":9949:9956   */\n      dup5\n        /* \"#utility.yul\":9940:9946   */\n      dup3\n        /* \"#utility.yul\":9929:9938   */\n      dup6\n        /* \"#utility.yul\":9925:9947   */\n      add\n        /* \"#utility.yul\":9894:9957   */\n      tag_389\n      jump\t// in\n    tag_593:\n        /* \"#utility.yul\":9884:9957   */\n      swap2\n      pop\n        /* \"#utility.yul\":9680:9967   */\n      pop\n        /* \"#utility.yul\":9465:9974   */\n      swap3\n      swap2\n      pop\n      pop\n      jump\t// out\n        /* \"#utility.yul\":9980:10309   */\n    tag_69:\n        /* \"#utility.yul\":10039:10045   */\n      0x00\n        /* \"#utility.yul\":10088:10090   */\n      0x20\n        /* \"#utility.yul\":10076:10085   */\n      dup3\n        /* \"#utility.yul\":10067:10074   */\n      dup5\n        /* \"#utility.yul\":10063:10086   */\n      sub\n        /* \"#utility.yul\":10059:10091   */\n      slt\n        /* \"#utility.yul\":10056:10175   */\n      iszero\n      tag_595\n      jumpi\n        /* \"#utility.yul\":10094:10173   */\n      tag_596\n      tag_362\n      jump\t// in\n    tag_596:\n        /* \"#utility.yul\":10056:10175   */\n    tag_595:\n        /* \"#utility.yul\":10214:10215   */\n      0x00\n        /* \"#utility.yul\":10239:10292   */\n      tag_597\n        /* \"#utility.yul\":10284:10291   */\n      dup5\n        /* \"#utility.yul\":10275:10281   */\n      dup3\n        /* \"#utility.yul\":10264:10273   */\n      dup6\n        /* \"#utility.yul\":10260:10282   */\n      add\n        /* \"#utility.yul\":10239:10292   */\n      tag_381\n      jump\t// in\n    tag_597:\n        /* \"#utility.yul\":10229:10292   */\n      swap2\n      pop\n        /* \"#utility.yul\":10185:10302   */\n      pop\n        /* \"#utility.yul\":9980:10309   */\n      swap3\n      swap2\n      pop\n      pop\n      jump\t// out\n        /* \"#utility.yul\":10315:10431   */\n    tag_394:\n        /* \"#utility.yul\":10385:10406   */\n      tag_599\n        /* \"#utility.yul\":10400:10405   */\n      dup2\n        /* \"#utility.yul\":10385:10406   */\n      tag_367\n      jump\t// in\n    tag_599:\n        /* \"#utility.yul\":10378:10383   */\n      dup2\n        /* \"#utility.yul\":10375:10407   */\n      eq\n        /* \"#utility.yul\":10365:10425   */\n      tag_600\n      jumpi\n        /* \"#utility.yul\":10421:10422   */\n      0x00\n        /* \"#utility.yul\":10418:10419   */\n      dup1\n        /* \"#utility.yul\":10411:10423   */\n      revert\n        /* \"#utility.yul\":10365:10425   */\n    tag_600:\n        /* \"#utility.yul\":10315:10431   */\n      pop\n      jump\t// out\n        /* \"#utility.yul\":10437:10570   */\n    tag_395:\n        /* \"#utility.yul\":10480:10485   */\n      0x00\n        /* \"#utility.yul\":10518:10524   */\n      dup2\n        /* \"#utility.yul\":10505:10525   */\n      calldataload\n        /* \"#utility.yul\":10496:10525   */\n      swap1\n      pop\n        /* \"#utility.yul\":10534:10564   */\n      tag_602\n        /* \"#utility.yul\":10558:10563   */\n      dup2\n        /* \"#utility.yul\":10534:10564   */\n      tag_394\n      jump\t// in\n    tag_602:\n        /* \"#utility.yul\":10437:10570   */\n      swap3\n      swap2\n      pop\n      pop\n      jump\t// out\n        /* \"#utility.yul\":10576:11044   */\n    tag_86:\n        /* \"#utility.yul\":10641:10647   */\n      0x00\n        /* \"#utility.yul\":10649:10655   */\n      dup1\n        /* \"#utility.yul\":10698:10700   */\n      0x40\n        /* \"#utility.yul\":10686:10695   */\n      dup4\n        /* \"#utility.yul\":10677:10684   */\n      dup6\n        /* \"#utility.yul\":10673:10696   */\n      sub\n        /* \"#utility.yul\":10669:10701   */\n      slt\n        /* \"#utility.yul\":10666:10785   */\n      iszero\n      tag_604\n      jumpi\n        /* \"#utility.yul\":10704:10783   */\n      tag_605\n      tag_362\n      jump\t// in\n    tag_605:\n        /* \"#utility.yul\":10666:10785   */\n    tag_604:\n        /* \"#utility.yul\":10824:10825   */\n      0x00\n        /* \"#utility.yul\":10849:10902   */\n      tag_606\n        /* \"#utility.yul\":10894:10901   */\n      dup6\n        /* \"#utility.yul\":10885:10891   */\n      dup3\n        /* \"#utility.yul\":10874:10883   */\n      dup7\n        /* \"#utility.yul\":10870:10892   */\n      add\n        /* \"#utility.yul\":10849:10902   */\n      tag_381\n      jump\t// in\n    tag_606:\n        /* \"#utility.yul\":10839:10902   */\n      swap3\n      pop\n        /* \"#utility.yul\":10795:10912   */\n      pop\n        /* \"#utility.yul\":10951:10953   */\n      0x20\n        /* \"#utility.yul\":10977:11027   */\n      tag_607\n        /* \"#utility.yul\":11019:11026   */\n      dup6\n        /* \"#utility.yul\":11010:11016   */\n      dup3\n        /* \"#utility.yul\":10999:11008   */\n      dup7\n        /* \"#utility.yul\":10995:11017   */\n      add\n        /* \"#utility.yul\":10977:11027   */\n      tag_395\n      jump\t// in\n    tag_607:\n        /* \"#utility.yul\":10967:11027   */\n      swap2\n      pop\n        /* \"#utility.yul\":10922:11037   */\n      pop\n        /* \"#utility.yul\":10576:11044   */\n      swap3\n      pop\n      swap3\n      swap1\n      pop\n      jump\t// out\n        /* \"#utility.yul\":11050:11158   */\n    tag_396:\n        /* \"#utility.yul\":11127:11151   */\n      tag_609\n        /* \"#utility.yul\":11145:11150   */\n      dup2\n        /* \"#utility.yul\":11127:11151   */\n      tag_374\n      jump\t// in\n    tag_609:\n        /* \"#utility.yul\":11122:11125   */\n      dup3\n        /* \"#utility.yul\":11115:11152   */\n      mstore\n        /* \"#utility.yul\":11050:11158   */\n      pop\n      pop\n      jump\t// out\n        /* \"#utility.yul\":11164:11323   */\n    tag_397:\n        /* \"#utility.yul\":11238:11249   */\n      0x00\n        /* \"#utility.yul\":11272:11278   */\n      dup3\n        /* \"#utility.yul\":11267:11270   */\n      dup3\n        /* \"#utility.yul\":11260:11279   */\n      mstore\n        /* \"#utility.yul\":11312:11316   */\n      0x20\n        /* \"#utility.yul\":11307:11310   */\n      dup3\n        /* \"#utility.yul\":11303:11317   */\n      add\n        /* \"#utility.yul\":11288:11317   */\n      swap1\n      pop\n        /* \"#utility.yul\":11164:11323   */\n      swap3\n      swap2\n      pop\n      pop\n      jump\t// out\n        /* \"#utility.yul\":11329:11686   */\n    tag_398:\n        /* \"#utility.yul\":11407:11410   */\n      0x00\n        /* \"#utility.yul\":11435:11474   */\n      tag_612\n        /* \"#utility.yul\":11468:11473   */\n      dup3\n        /* \"#utility.yul\":11435:11474   */\n      tag_369\n      jump\t// in\n    tag_612:\n        /* \"#utility.yul\":11490:11551   */\n      tag_613\n        /* \"#utility.yul\":11544:11550   */\n      dup2\n        /* \"#utility.yul\":11539:11542   */\n      dup6\n        /* \"#utility.yul\":11490:11551   */\n      tag_397\n      jump\t// in\n    tag_613:\n        /* \"#utility.yul\":11483:11551   */\n      swap4\n      pop\n        /* \"#utility.yul\":11560:11625   */\n      tag_614\n        /* \"#utility.yul\":11618:11624   */\n      dup2\n        /* \"#utility.yul\":11613:11616   */\n      dup6\n        /* \"#utility.yul\":11606:11610   */\n      0x20\n        /* \"#utility.yul\":11599:11604   */\n      dup7\n        /* \"#utility.yul\":11595:11611   */\n      add\n        /* \"#utility.yul\":11560:11625   */\n      tag_371\n      jump\t// in\n    tag_614:\n        /* \"#utility.yul\":11650:11679   */\n      tag_615\n        /* \"#utility.yul\":11672:11678   */\n      dup2\n        /* \"#utility.yul\":11650:11679   */\n      tag_372\n      jump\t// in\n    tag_615:\n        /* \"#utility.yul\":11645:11648   */\n      dup5\n        /* \"#utility.yul\":11641:11680   */\n      add\n        /* \"#utility.yul\":11634:11680   */\n      swap2\n      pop\n        /* \"#utility.yul\":11411:11686   */\n      pop\n        /* \"#utility.yul\":11329:11686   */\n      swap3\n      swap2\n      pop\n      pop\n      jump\t// out\n        /* \"#utility.yul\":11692:11872   */\n    tag_140:\n        /* \"#utility.yul\":11740:11817   */\n      0x4e487b7100000000000000000000000000000000000000000000000000000000\n        /* \"#utility.yul\":11737:11738   */\n      0x00\n        /* \"#utility.yul\":11730:11818   */\n      mstore\n        /* \"#utility.yul\":11837:11841   */\n      0x21\n        /* \"#utility.yul\":11834:11835   */\n      0x04\n        /* \"#utility.yul\":11827:11842   */\n      mstore\n        /* \"#utility.yul\":11861:11865   */\n      0x24\n        /* \"#utility.yul\":11858:11859   */\n      0x00\n        /* \"#utility.yul\":11851:11866   */\n      revert\n        /* \"#utility.yul\":11878:11993   */\n    tag_399:\n        /* \"#utility.yul\":11961:11962   */\n      0x04\n        /* \"#utility.yul\":11954:11959   */\n      dup2\n        /* \"#utility.yul\":11951:11963   */\n      lt\n        /* \"#utility.yul\":11941:11987   */\n      tag_618\n      jumpi\n        /* \"#utility.yul\":11967:11985   */\n      tag_619\n      tag_140\n      jump\t// in\n    tag_619:\n        /* \"#utility.yul\":11941:11987   */\n    tag_618:\n        /* \"#utility.yul\":11878:11993   */\n      pop\n      jump\t// out\n        /* \"#utility.yul\":11999:12130   */\n    tag_400:\n        /* \"#utility.yul\":12046:12053   */\n      0x00\n        /* \"#utility.yul\":12075:12080   */\n      dup2\n        /* \"#utility.yul\":12064:12080   */\n      swap1\n      pop\n        /* \"#utility.yul\":12081:12124   */\n      tag_621\n        /* \"#utility.yul\":12118:12123   */\n      dup3\n        /* \"#utility.yul\":12081:12124   */\n      tag_399\n      jump\t// in\n    tag_621:\n        /* \"#utility.yul\":11999:12130   */\n      swap2\n      swap1\n      pop\n      jump\t// out\n        /* \"#utility.yul\":12136:12267   */\n    tag_401:\n        /* \"#utility.yul\":12194:12203   */\n      0x00\n        /* \"#utility.yul\":12227:12261   */\n      tag_623\n        /* \"#utility.yul\":12255:12260   */\n      dup3\n        /* \"#utility.yul\":12227:12261   */\n      tag_400\n      jump\t// in\n    tag_623:\n        /* \"#utility.yul\":12214:12261   */\n      swap1\n      pop\n        /* \"#utility.yul\":12136:12267   */\n      swap2\n      swap1\n      pop\n      jump\t// out\n        /* \"#utility.yul\":12273:12410   */\n    tag_402:\n        /* \"#utility.yul\":12358:12403   */\n      tag_625\n        /* \"#utility.yul\":12397:12402   */\n      dup2\n        /* \"#utility.yul\":12358:12403   */\n      tag_401\n      jump\t// in\n    tag_625:\n        /* \"#utility.yul\":12353:12356   */\n      dup3\n        /* \"#utility.yul\":12346:12404   */\n      mstore\n        /* \"#utility.yul\":12273:12410   */\n      pop\n      pop\n      jump\t// out\n        /* \"#utility.yul\":12416:12534   */\n    tag_403:\n        /* \"#utility.yul\":12502:12503   */\n      0x03\n        /* \"#utility.yul\":12495:12500   */\n      dup2\n        /* \"#utility.yul\":12492:12504   */\n      lt\n        /* \"#utility.yul\":12482:12528   */\n      tag_627\n      jumpi\n        /* \"#utility.yul\":12508:12526   */\n      tag_628\n      tag_140\n      jump\t// in\n    tag_628:\n        /* \"#utility.yul\":12482:12528   */\n    tag_627:\n        /* \"#utility.yul\":12416:12534   */\n      pop\n      jump\t// out\n        /* \"#utility.yul\":12540:12677   */\n    tag_404:\n        /* \"#utility.yul\":12590:12597   */\n      0x00\n        /* \"#utility.yul\":12619:12624   */\n      dup2\n        /* \"#utility.yul\":12608:12624   */\n      swap1\n      pop\n        /* \"#utility.yul\":12625:12671   */\n      tag_630\n        /* \"#utility.yul\":12665:12670   */\n      dup3\n        /* \"#utility.yul\":12625:12671   */\n      tag_403\n      jump\t// in\n    tag_630:\n        /* \"#utility.yul\":12540:12677   */\n      swap2\n      swap1\n      pop\n      jump\t// out\n        /* \"#utility.yul\":12683:12820   */\n    tag_405:\n        /* \"#utility.yul\":12744:12753   */\n      0x00\n        /* \"#utility.yul\":12777:12814   */\n      tag_632\n        /* \"#utility.yul\":12808:12813   */\n      dup3\n        /* \"#utility.yul\":12777:12814   */\n      tag_404\n      jump\t// in\n    tag_632:\n        /* \"#utility.yul\":12764:12814   */\n      swap1\n      pop\n        /* \"#utility.yul\":12683:12820   */\n      swap2\n      swap1\n      pop\n      jump\t// out\n        /* \"#utility.yul\":12826:12969   */\n    tag_406:\n        /* \"#utility.yul\":12914:12962   */\n      tag_634\n        /* \"#utility.yul\":12956:12961   */\n      dup2\n        /* \"#utility.yul\":12914:12962   */\n      tag_405\n      jump\t// in\n    tag_634:\n        /* \"#utility.yul\":12909:12912   */\n      dup3\n        /* \"#utility.yul\":12902:12963   */\n      mstore\n        /* \"#utility.yul\":12826:12969   */\n      pop\n      pop\n      jump\t// out\n        /* \"#utility.yul\":13029:14355   */\n    tag_407:\n        /* \"#utility.yul\":13144:13147   */\n      0x00\n        /* \"#utility.yul\":13180:13184   */\n      0xc0\n        /* \"#utility.yul\":13175:13178   */\n      dup4\n        /* \"#utility.yul\":13171:13185   */\n      add\n        /* \"#utility.yul\":13265:13269   */\n      0x00\n        /* \"#utility.yul\":13258:13263   */\n      dup4\n        /* \"#utility.yul\":13254:13270   */\n      add\n        /* \"#utility.yul\":13248:13271   */\n      mload\n        /* \"#utility.yul\":13284:13347   */\n      tag_636\n        /* \"#utility.yul\":13341:13345   */\n      0x00\n        /* \"#utility.yul\":13336:13339   */\n      dup7\n        /* \"#utility.yul\":13332:13346   */\n      add\n        /* \"#utility.yul\":13318:13330   */\n      dup3\n        /* \"#utility.yul\":13284:13347   */\n      tag_396\n      jump\t// in\n    tag_636:\n        /* \"#utility.yul\":13195:13357   */\n      pop\n        /* \"#utility.yul\":13439:13443   */\n      0x20\n        /* \"#utility.yul\":13432:13437   */\n      dup4\n        /* \"#utility.yul\":13428:13444   */\n      add\n        /* \"#utility.yul\":13422:13445   */\n      mload\n        /* \"#utility.yul\":13492:13495   */\n      dup5\n        /* \"#utility.yul\":13486:13490   */\n      dup3\n        /* \"#utility.yul\":13482:13496   */\n      sub\n        /* \"#utility.yul\":13475:13479   */\n      0x20\n        /* \"#utility.yul\":13470:13473   */\n      dup7\n        /* \"#utility.yul\":13466:13480   */\n      add\n        /* \"#utility.yul\":13459:13497   */\n      mstore\n        /* \"#utility.yul\":13518:13591   */\n      tag_637\n        /* \"#utility.yul\":13586:13590   */\n      dup3\n        /* \"#utility.yul\":13572:13584   */\n      dup3\n        /* \"#utility.yul\":13518:13591   */\n      tag_398\n      jump\t// in\n    tag_637:\n        /* \"#utility.yul\":13510:13591   */\n      swap2\n      pop\n        /* \"#utility.yul\":13367:13602   */\n      pop\n        /* \"#utility.yul\":13686:13690   */\n      0x40\n        /* \"#utility.yul\":13679:13684   */\n      dup4\n        /* \"#utility.yul\":13675:13691   */\n      add\n        /* \"#utility.yul\":13669:13692   */\n      mload\n        /* \"#utility.yul\":13705:13776   */\n      tag_638\n        /* \"#utility.yul\":13770:13774   */\n      0x40\n        /* \"#utility.yul\":13765:13768   */\n      dup7\n        /* \"#utility.yul\":13761:13775   */\n      add\n        /* \"#utility.yul\":13747:13759   */\n      dup3\n        /* \"#utility.yul\":13705:13776   */\n      tag_402\n      jump\t// in\n    tag_638:\n        /* \"#utility.yul\":13612:13786   */\n      pop\n        /* \"#utility.yul\":13873:13877   */\n      0x60\n        /* \"#utility.yul\":13866:13871   */\n      dup4\n        /* \"#utility.yul\":13862:13878   */\n      add\n        /* \"#utility.yul\":13856:13879   */\n      mload\n        /* \"#utility.yul\":13892:13966   */\n      tag_639\n        /* \"#utility.yul\":13960:13964   */\n      0x60\n        /* \"#utility.yul\":13955:13958   */\n      dup7\n        /* \"#utility.yul\":13951:13965   */\n      add\n        /* \"#utility.yul\":13937:13949   */\n      dup3\n        /* \"#utility.yul\":13892:13966   */\n      tag_406\n      jump\t// in\n    tag_639:\n        /* \"#utility.yul\":13796:13976   */\n      pop\n        /* \"#utility.yul\":14060:14064   */\n      0x80\n        /* \"#utility.yul\":14053:14058   */\n      dup4\n        /* \"#utility.yul\":14049:14065   */\n      add\n        /* \"#utility.yul\":14043:14066   */\n      mload\n        /* \"#utility.yul\":14079:14142   */\n      tag_640\n        /* \"#utility.yul\":14136:14140   */\n      0x80\n        /* \"#utility.yul\":14131:14134   */\n      dup7\n        /* \"#utility.yul\":14127:14141   */\n      add\n        /* \"#utility.yul\":14113:14125   */\n      dup3\n        /* \"#utility.yul\":14079:14142   */\n      tag_396\n      jump\t// in\n    tag_640:\n        /* \"#utility.yul\":13986:14152   */\n      pop\n        /* \"#utility.yul\":14236:14240   */\n      0xa0\n        /* \"#utility.yul\":14229:14234   */\n      dup4\n        /* \"#utility.yul\":14225:14241   */\n      add\n        /* \"#utility.yul\":14219:14242   */\n      mload\n        /* \"#utility.yul\":14255:14318   */\n      tag_641\n        /* \"#utility.yul\":14312:14316   */\n      0xa0\n        /* \"#utility.yul\":14307:14310   */\n      dup7\n        /* \"#utility.yul\":14303:14317   */\n      add\n        /* \"#utility.yul\":14289:14301   */\n      dup3\n        /* \"#utility.yul\":14255:14318   */\n      tag_396\n      jump\t// in\n    tag_641:\n        /* \"#utility.yul\":14162:14328   */\n      pop\n        /* \"#utility.yul\":14345:14349   */\n      dup1\n        /* \"#utility.yul\":14338:14349   */\n      swap2\n      pop\n        /* \"#utility.yul\":13149:14355   */\n      pop\n        /* \"#utility.yul\":13029:14355   */\n      swap3\n      swap2\n      pop\n      pop\n      jump\t// out\n        /* \"#utility.yul\":14361:14726   */\n    tag_92:\n        /* \"#utility.yul\":14500:14504   */\n      0x00\n        /* \"#utility.yul\":14538:14540   */\n      0x20\n        /* \"#utility.yul\":14527:14536   */\n      dup3\n        /* \"#utility.yul\":14523:14541   */\n      add\n        /* \"#utility.yul\":14515:14541   */\n      swap1\n      pop\n        /* \"#utility.yul\":14587:14596   */\n      dup2\n        /* \"#utility.yul\":14581:14585   */\n      dup2\n        /* \"#utility.yul\":14577:14597   */\n      sub\n        /* \"#utility.yul\":14573:14574   */\n      0x00\n        /* \"#utility.yul\":14562:14571   */\n      dup4\n        /* \"#utility.yul\":14558:14575   */\n      add\n        /* \"#utility.yul\":14551:14598   */\n      mstore\n        /* \"#utility.yul\":14615:14719   */\n      tag_643\n        /* \"#utility.yul\":14714:14718   */\n      dup2\n        /* \"#utility.yul\":14705:14711   */\n      dup5\n        /* \"#utility.yul\":14615:14719   */\n      tag_407\n      jump\t// in\n    tag_643:\n        /* \"#utility.yul\":14607:14719   */\n      swap1\n      pop\n        /* \"#utility.yul\":14361:14726   */\n      swap3\n      swap2\n      pop\n      pop\n      jump\t// out\n        /* \"#utility.yul\":14732:15039   */\n    tag_408:\n        /* \"#utility.yul\":14793:14797   */\n      0x00\n        /* \"#utility.yul\":14883:14901   */\n      0xffffffffffffffff\n        /* \"#utility.yul\":14875:14881   */\n      dup3\n        /* \"#utility.yul\":14872:14902   */\n      gt\n        /* \"#utility.yul\":14869:14925   */\n      iszero\n      tag_645\n      jumpi\n        /* \"#utility.yul\":14905:14923   */\n      tag_646\n      tag_325\n      jump\t// in\n    tag_646:\n        /* \"#utility.yul\":14869:14925   */\n    tag_645:\n        /* \"#utility.yul\":14943:14972   */\n      tag_647\n        /* \"#utility.yul\":14965:14971   */\n      dup3\n        /* \"#utility.yul\":14943:14972   */\n      tag_372\n      jump\t// in\n    tag_647:\n        /* \"#utility.yul\":14935:14972   */\n      swap1\n      pop\n        /* \"#utility.yul\":15027:15031   */\n      0x20\n        /* \"#utility.yul\":15021:15025   */\n      dup2\n        /* \"#utility.yul\":15017:15032   */\n      add\n        /* \"#utility.yul\":15009:15032   */\n      swap1\n      pop\n        /* \"#utility.yul\":14732:15039   */\n      swap2\n      swap1\n      pop\n      jump\t// out\n        /* \"#utility.yul\":15045:15468   */\n    tag_409:\n        /* \"#utility.yul\":15122:15127   */\n      0x00\n        /* \"#utility.yul\":15147:15212   */\n      tag_649\n        /* \"#utility.yul\":15163:15211   */\n      tag_650\n        /* \"#utility.yul\":15204:15210   */\n      dup5\n        /* \"#utility.yul\":15163:15211   */\n      tag_408\n      jump\t// in\n    tag_650:\n        /* \"#utility.yul\":15147:15212   */\n      tag_385\n      jump\t// in\n    tag_649:\n        /* \"#utility.yul\":15138:15212   */\n      swap1\n      pop\n        /* \"#utility.yul\":15235:15241   */\n      dup3\n        /* \"#utility.yul\":15228:15233   */\n      dup2\n        /* \"#utility.yul\":15221:15242   */\n      mstore\n        /* \"#utility.yul\":15273:15277   */\n      0x20\n        /* \"#utility.yul\":15266:15271   */\n      dup2\n        /* \"#utility.yul\":15262:15278   */\n      add\n        /* \"#utility.yul\":15311:15314   */\n      dup5\n        /* \"#utility.yul\":15302:15308   */\n      dup5\n        /* \"#utility.yul\":15297:15300   */\n      dup5\n        /* \"#utility.yul\":15293:15309   */\n      add\n        /* \"#utility.yul\":15290:15315   */\n      gt\n        /* \"#utility.yul\":15287:15399   */\n      iszero\n      tag_651\n      jumpi\n        /* \"#utility.yul\":15318:15397   */\n      tag_652\n      tag_383\n      jump\t// in\n    tag_652:\n        /* \"#utility.yul\":15287:15399   */\n    tag_651:\n        /* \"#utility.yul\":15408:15462   */\n      tag_653\n        /* \"#utility.yul\":15455:15461   */\n      dup5\n        /* \"#utility.yul\":15450:15453   */\n      dup3\n        /* \"#utility.yul\":15445:15448   */\n      dup6\n        /* \"#utility.yul\":15408:15462   */\n      tag_387\n      jump\t// in\n    tag_653:\n        /* \"#utility.yul\":15128:15468   */\n      pop\n        /* \"#utility.yul\":15045:15468   */\n      swap4\n      swap3\n      pop\n      pop\n      pop\n      jump\t// out\n        /* \"#utility.yul\":15487:15825   */\n    tag_410:\n        /* \"#utility.yul\":15542:15547   */\n      0x00\n        /* \"#utility.yul\":15591:15594   */\n      dup3\n        /* \"#utility.yul\":15584:15588   */\n      0x1f\n        /* \"#utility.yul\":15576:15582   */\n      dup4\n        /* \"#utility.yul\":15572:15589   */\n      add\n        /* \"#utility.yul\":15568:15595   */\n      slt\n        /* \"#utility.yul\":15558:15680   */\n      tag_655\n      jumpi\n        /* \"#utility.yul\":15599:15678   */\n      tag_656\n      tag_382\n      jump\t// in\n    tag_656:\n        /* \"#utility.yul\":15558:15680   */\n    tag_655:\n        /* \"#utility.yul\":15716:15722   */\n      dup2\n        /* \"#utility.yul\":15703:15723   */\n      calldataload\n        /* \"#utility.yul\":15741:15819   */\n      tag_657\n        /* \"#utility.yul\":15815:15818   */\n      dup5\n        /* \"#utility.yul\":15807:15813   */\n      dup3\n        /* \"#utility.yul\":15800:15804   */\n      0x20\n        /* \"#utility.yul\":15792:15798   */\n      dup7\n        /* \"#utility.yul\":15788:15805   */\n      add\n        /* \"#utility.yul\":15741:15819   */\n      tag_409\n      jump\t// in\n    tag_657:\n        /* \"#utility.yul\":15732:15819   */\n      swap2\n      pop\n        /* \"#utility.yul\":15548:15825   */\n      pop\n        /* \"#utility.yul\":15487:15825   */\n      swap3\n      swap2\n      pop\n      pop\n      jump\t// out\n        /* \"#utility.yul\":15831:16774   */\n    tag_95:\n        /* \"#utility.yul\":15926:15932   */\n      0x00\n        /* \"#utility.yul\":15934:15940   */\n      dup1\n        /* \"#utility.yul\":15942:15948   */\n      0x00\n        /* \"#utility.yul\":15950:15956   */\n      dup1\n        /* \"#utility.yul\":15999:16002   */\n      0x80\n        /* \"#utility.yul\":15987:15996   */\n      dup6\n        /* \"#utility.yul\":15978:15985   */\n      dup8\n        /* \"#utility.yul\":15974:15997   */\n      sub\n        /* \"#utility.yul\":15970:16003   */\n      slt\n        /* \"#utility.yul\":15967:16087   */\n      iszero\n      tag_659\n      jumpi\n        /* \"#utility.yul\":16006:16085   */\n      tag_660\n      tag_362\n      jump\t// in\n    tag_660:\n        /* \"#utility.yul\":15967:16087   */\n    tag_659:\n        /* \"#utility.yul\":16126:16127   */\n      0x00\n        /* \"#utility.yul\":16151:16204   */\n      tag_661\n        /* \"#utility.yul\":16196:16203   */\n      dup8\n        /* \"#utility.yul\":16187:16193   */\n      dup3\n        /* \"#utility.yul\":16176:16185   */\n      dup9\n        /* \"#utility.yul\":16172:16194   */\n      add\n        /* \"#utility.yul\":16151:16204   */\n      tag_381\n      jump\t// in\n    tag_661:\n        /* \"#utility.yul\":16141:16204   */\n      swap5\n      pop\n        /* \"#utility.yul\":16097:16214   */\n      pop\n        /* \"#utility.yul\":16253:16255   */\n      0x20\n        /* \"#utility.yul\":16279:16332   */\n      tag_662\n        /* \"#utility.yul\":16324:16331   */\n      dup8\n        /* \"#utility.yul\":16315:16321   */\n      dup3\n        /* \"#utility.yul\":16304:16313   */\n      dup9\n        /* \"#utility.yul\":16300:16322   */\n      add\n        /* \"#utility.yul\":16279:16332   */\n      tag_381\n      jump\t// in\n    tag_662:\n        /* \"#utility.yul\":16269:16332   */\n      swap4\n      pop\n        /* \"#utility.yul\":16224:16342   */\n      pop\n        /* \"#utility.yul\":16381:16383   */\n      0x40\n        /* \"#utility.yul\":16407:16460   */\n      tag_663\n        /* \"#utility.yul\":16452:16459   */\n      dup8\n        /* \"#utility.yul\":16443:16449   */\n      dup3\n        /* \"#utility.yul\":16432:16441   */\n      dup9\n        /* \"#utility.yul\":16428:16450   */\n      add\n        /* \"#utility.yul\":16407:16460   */\n      tag_376\n      jump\t// in\n    tag_663:\n        /* \"#utility.yul\":16397:16460   */\n      swap3\n      pop\n        /* \"#utility.yul\":16352:16470   */\n      pop\n        /* \"#utility.yul\":16537:16539   */\n      0x60\n        /* \"#utility.yul\":16526:16535   */\n      dup6\n        /* \"#utility.yul\":16522:16540   */\n      add\n        /* \"#utility.yul\":16509:16541   */\n      calldataload\n        /* \"#utility.yul\":16568:16586   */\n      0xffffffffffffffff\n        /* \"#utility.yul\":16560:16566   */\n      dup2\n        /* \"#utility.yul\":16557:16587   */\n      gt\n        /* \"#utility.yul\":16554:16671   */\n      iszero\n      tag_664\n      jumpi\n        /* \"#utility.yul\":16590:16669   */\n      tag_665\n      tag_363\n      jump\t// in\n    tag_665:\n        /* \"#utility.yul\":16554:16671   */\n    tag_664:\n        /* \"#utility.yul\":16695:16757   */\n      tag_666\n        /* \"#utility.yul\":16749:16756   */\n      dup8\n        /* \"#utility.yul\":16740:16746   */\n      dup3\n        /* \"#utility.yul\":16729:16738   */\n      dup9\n        /* \"#utility.yul\":16725:16747   */\n      add\n        /* \"#utility.yul\":16695:16757   */\n      tag_410\n      jump\t// in\n    tag_666:\n        /* \"#utility.yul\":16685:16757   */\n      swap2\n      pop\n        /* \"#utility.yul\":16480:16767   */\n      pop\n        /* \"#utility.yul\":15831:16774   */\n      swap3\n      swap6\n      swap2\n      swap5\n      pop\n      swap3\n      pop\n      jump\t// out\n        /* \"#utility.yul\":16780:17254   */\n    tag_106:\n        /* \"#utility.yul\":16848:16854   */\n      0x00\n        /* \"#utility.yul\":16856:16862   */\n      dup1\n        /* \"#utility.yul\":16905:16907   */\n      0x40\n        /* \"#utility.yul\":16893:16902   */\n      dup4\n        /* \"#utility.yul\":16884:16891   */\n      dup6\n        /* \"#utility.yul\":16880:16903   */\n      sub\n        /* \"#utility.yul\":16876:16908   */\n      slt\n        /* \"#utility.yul\":16873:16992   */\n      iszero\n      tag_668\n      jumpi\n        /* \"#utility.yul\":16911:16990   */\n      tag_669\n      tag_362\n      jump\t// in\n    tag_669:\n        /* \"#utility.yul\":16873:16992   */\n    tag_668:\n        /* \"#utility.yul\":17031:17032   */\n      0x00\n        /* \"#utility.yul\":17056:17109   */\n      tag_670\n        /* \"#utility.yul\":17101:17108   */\n      dup6\n        /* \"#utility.yul\":17092:17098   */\n      dup3\n        /* \"#utility.yul\":17081:17090   */\n      dup7\n        /* \"#utility.yul\":17077:17099   */\n      add\n        /* \"#utility.yul\":17056:17109   */\n      tag_381\n      jump\t// in\n    tag_670:\n        /* \"#utility.yul\":17046:17109   */\n      swap3\n      pop\n        /* \"#utility.yul\":17002:17119   */\n      pop\n        /* \"#utility.yul\":17158:17160   */\n      0x20\n        /* \"#utility.yul\":17184:17237   */\n      tag_671\n        /* \"#utility.yul\":17229:17236   */\n      dup6\n        /* \"#utility.yul\":17220:17226   */\n      dup3\n        /* \"#utility.yul\":17209:17218   */\n      dup7\n        /* \"#utility.yul\":17205:17227   */\n      add\n        /* \"#utility.yul\":17184:17237   */\n      tag_381\n      jump\t// in\n    tag_671:\n        /* \"#utility.yul\":17174:17237   */\n      swap2\n      pop\n        /* \"#utility.yul\":17129:17247   */\n      pop\n        /* \"#utility.yul\":16780:17254   */\n      swap3\n      pop\n      swap3\n      swap1\n      pop\n      jump\t// out\n        /* \"#utility.yul\":17260:17440   */\n    tag_411:\n        /* \"#utility.yul\":17308:17385   */\n      0x4e487b7100000000000000000000000000000000000000000000000000000000\n        /* \"#utility.yul\":17305:17306   */\n      0x00\n        /* \"#utility.yul\":17298:17386   */\n      mstore\n        /* \"#utility.yul\":17405:17409   */\n      0x22\n        /* \"#utility.yul\":17402:17403   */\n      0x04\n        /* \"#utility.yul\":17395:17410   */\n      mstore\n        /* \"#utility.yul\":17429:17433   */\n      0x24\n        /* \"#utility.yul\":17426:17427   */\n      0x00\n        /* \"#utility.yul\":17419:17434   */\n      revert\n        /* \"#utility.yul\":17446:17766   */\n    tag_112:\n        /* \"#utility.yul\":17490:17496   */\n      0x00\n        /* \"#utility.yul\":17527:17528   */\n      0x02\n        /* \"#utility.yul\":17521:17525   */\n      dup3\n        /* \"#utility.yul\":17517:17529   */\n      div\n        /* \"#utility.yul\":17507:17529   */\n      swap1\n      pop\n        /* \"#utility.yul\":17574:17575   */\n      0x01\n        /* \"#utility.yul\":17568:17572   */\n      dup3\n        /* \"#utility.yul\":17564:17576   */\n      and\n        /* \"#utility.yul\":17595:17613   */\n      dup1\n        /* \"#utility.yul\":17585:17666   */\n      tag_674\n      jumpi\n        /* \"#utility.yul\":17651:17655   */\n      0x7f\n        /* \"#utility.yul\":17643:17649   */\n      dup3\n        /* \"#utility.yul\":17639:17656   */\n      and\n        /* \"#utility.yul\":17629:17656   */\n      swap2\n      pop\n        /* \"#utility.yul\":17585:17666   */\n    tag_674:\n        /* \"#utility.yul\":17713:17715   */\n      0x20\n        /* \"#utility.yul\":17705:17711   */\n      dup3\n        /* \"#utility.yul\":17702:17716   */\n      lt\n        /* \"#utility.yul\":17682:17700   */\n      dup2\n        /* \"#utility.yul\":17679:17717   */\n      sub\n        /* \"#utility.yul\":17676:17760   */\n      tag_675\n      jumpi\n        /* \"#utility.yul\":17732:17750   */\n      tag_676\n      tag_411\n      jump\t// in\n    tag_676:\n        /* \"#utility.yul\":17676:17760   */\n    tag_675:\n        /* \"#utility.yul\":17497:17766   */\n      pop\n        /* \"#utility.yul\":17446:17766   */\n      swap2\n      swap1\n      pop\n      jump\t// out\n        /* \"#utility.yul\":17772:18003   */\n    tag_412:\n        /* \"#utility.yul\":17912:17946   */\n      0x4552433732313a20417070726f76656420717565727920666f72206e6f6e6578\n        /* \"#utility.yul\":17908:17909   */\n      0x00\n        /* \"#utility.yul\":17900:17906   */\n      dup3\n        /* \"#utility.yul\":17896:17910   */\n      add\n        /* \"#utility.yul\":17889:17947   */\n      mstore\n        /* \"#utility.yul\":17981:17995   */\n      0x697374656e7420746f6b656e0000000000000000000000000000000000000000\n        /* \"#utility.yul\":17976:17978   */\n      0x20\n        /* \"#utility.yul\":17968:17974   */\n      dup3\n        /* \"#utility.yul\":17964:17979   */\n      add\n        /* \"#utility.yul\":17957:17996   */\n      mstore\n        /* \"#utility.yul\":17772:18003   */\n      pop\n      jump\t// out\n        /* \"#utility.yul\":18009:18375   */\n    tag_413:\n        /* \"#utility.yul\":18151:18154   */\n      0x00\n        /* \"#utility.yul\":18172:18239   */\n      tag_679\n        /* \"#utility.yul\":18236:18238   */\n      0x2c\n        /* \"#utility.yul\":18231:18234   */\n      dup4\n        /* \"#utility.yul\":18172:18239   */\n      tag_370\n      jump\t// in\n    tag_679:\n        /* \"#utility.yul\":18165:18239   */\n      swap2\n      pop\n        /* \"#utility.yul\":18248:18341   */\n      tag_680\n        /* \"#utility.yul\":18337:18340   */\n      dup3\n        /* \"#utility.yul\":18248:18341   */\n      tag_412\n      jump\t// in\n    tag_680:\n        /* \"#utility.yul\":18366:18368   */\n      0x40\n        /* \"#utility.yul\":18361:18364   */\n      dup3\n        /* \"#utility.yul\":18357:18369   */\n      add\n        /* \"#utility.yul\":18350:18369   */\n      swap1\n      pop\n        /* \"#utility.yul\":18009:18375   */\n      swap2\n      swap1\n      pop\n      jump\t// out\n        /* \"#utility.yul\":18381:18800   */\n    tag_122:\n        /* \"#utility.yul\":18547:18551   */\n      0x00\n        /* \"#utility.yul\":18585:18587   */\n      0x20\n        /* \"#utility.yul\":18574:18583   */\n      dup3\n        /* \"#utility.yul\":18570:18588   */\n      add\n        /* \"#utility.yul\":18562:18588   */\n      swap1\n      pop\n        /* \"#utility.yul\":18634:18643   */\n      dup2\n        /* \"#utility.yul\":18628:18632   */\n      dup2\n        /* \"#utility.yul\":18624:18644   */\n      sub\n        /* \"#utility.yul\":18620:18621   */\n      0x00\n        /* \"#utility.yul\":18609:18618   */\n      dup4\n        /* \"#utility.yul\":18605:18622   */\n      add\n        /* \"#utility.yul\":18598:18645   */\n      mstore\n        /* \"#utility.yul\":18662:18793   */\n      tag_682\n        /* \"#utility.yul\":18788:18792   */\n      dup2\n        /* \"#utility.yul\":18662:18793   */\n      tag_413\n      jump\t// in\n    tag_682:\n        /* \"#utility.yul\":18654:18793   */\n      swap1\n      pop\n        /* \"#utility.yul\":18381:18800   */\n      swap2\n      swap1\n      pop\n      jump\t// out\n        /* \"#utility.yul\":18806:19026   */\n    tag_414:\n        /* \"#utility.yul\":18946:18980   */\n      0x4552433732313a20417070726f76616c20746f2063757272656e74206f776e65\n        /* \"#utility.yul\":18942:18943   */\n      0x00\n        /* \"#utility.yul\":18934:18940   */\n      dup3\n        /* \"#utility.yul\":18930:18944   */\n      add\n        /* \"#utility.yul\":18923:18981   */\n      mstore\n        /* \"#utility.yul\":19015:19018   */\n      0x7200000000000000000000000000000000000000000000000000000000000000\n        /* \"#utility.yul\":19010:19012   */\n      0x20\n        /* \"#utility.yul\":19002:19008   */\n      dup3\n        /* \"#utility.yul\":18998:19013   */\n      add\n        /* \"#utility.yul\":18991:19019   */\n      mstore\n        /* \"#utility.yul\":18806:19026   */\n      pop\n      jump\t// out\n        /* \"#utility.yul\":19032:19398   */\n    tag_415:\n        /* \"#utility.yul\":19174:19177   */\n      0x00\n        /* \"#utility.yul\":19195:19262   */\n      tag_685\n        /* \"#utility.yul\":19259:19261   */\n      0x21\n        /* \"#utility.yul\":19254:19257   */\n      dup4\n        /* \"#utility.yul\":19195:19262   */\n      tag_370\n      jump\t// in\n    tag_685:\n        /* \"#utility.yul\":19188:19262   */\n      swap2\n      pop\n        /* \"#utility.yul\":19271:19364   */\n      tag_686\n        /* \"#utility.yul\":19360:19363   */\n      dup3\n        /* \"#utility.yul\":19271:19364   */\n      tag_414\n      jump\t// in\n    tag_686:\n        /* \"#utility.yul\":19389:19391   */\n      0x40\n        /* \"#utility.yul\":19384:19387   */\n      dup3\n        /* \"#utility.yul\":19380:19392   */\n      add\n        /* \"#utility.yul\":19373:19392   */\n      swap1\n      pop\n        /* \"#utility.yul\":19032:19398   */\n      swap2\n      swap1\n      pop\n      jump\t// out\n        /* \"#utility.yul\":19404:19823   */\n    tag_127:\n        /* \"#utility.yul\":19570:19574   */\n      0x00\n        /* \"#utility.yul\":19608:19610   */\n      0x20\n        /* \"#utility.yul\":19597:19606   */\n      dup3\n        /* \"#utility.yul\":19593:19611   */\n      add\n        /* \"#utility.yul\":19585:19611   */\n      swap1\n      pop\n        /* \"#utility.yul\":19657:19666   */\n      dup2\n        /* \"#utility.yul\":19651:19655   */\n      dup2\n        /* \"#utility.yul\":19647:19667   */\n      sub\n        /* \"#utility.yul\":19643:19644   */\n      0x00\n        /* \"#utility.yul\":19632:19641   */\n      dup4\n        /* \"#utility.yul\":19628:19645   */\n      add\n        /* \"#utility.yul\":19621:19668   */\n      mstore\n        /* \"#utility.yul\":19685:19816   */\n      tag_688\n        /* \"#utility.yul\":19811:19815   */\n      dup2\n        /* \"#utility.yul\":19685:19816   */\n      tag_415\n      jump\t// in\n    tag_688:\n        /* \"#utility.yul\":19677:19816   */\n      swap1\n      pop\n        /* \"#utility.yul\":19404:19823   */\n      swap2\n      swap1\n      pop\n      jump\t// out\n        /* \"#utility.yul\":19829:20077   */\n    tag_416:\n        /* \"#utility.yul\":19969:20003   */\n      0x4552433732313a20417070726f76652063616c6c6572206973206e6f7420746f\n        /* \"#utility.yul\":19965:19966   */\n      0x00\n        /* \"#utility.yul\":19957:19963   */\n      dup3\n        /* \"#utility.yul\":19953:19967   */\n      add\n        /* \"#utility.yul\":19946:20004   */\n      mstore\n        /* \"#utility.yul\":20038:20069   */\n      0x6b656e206f776e6572206f7220617070726f76656420666f7220616c6c000000\n        /* \"#utility.yul\":20033:20035   */\n      0x20\n        /* \"#utility.yul\":20025:20031   */\n      dup3\n        /* \"#utility.yul\":20021:20036   */\n      add\n        /* \"#utility.yul\":20014:20070   */\n      mstore\n        /* \"#utility.yul\":19829:20077   */\n      pop\n      jump\t// out\n        /* \"#utility.yul\":20083:20449   */\n    tag_417:\n        /* \"#utility.yul\":20225:20228   */\n      0x00\n        /* \"#utility.yul\":20246:20313   */\n      tag_691\n        /* \"#utility.yul\":20310:20312   */\n      0x3d\n        /* \"#utility.yul\":20305:20308   */\n      dup4\n        /* \"#utility.yul\":20246:20313   */\n      tag_370\n      jump\t// in\n    tag_691:\n        /* \"#utility.yul\":20239:20313   */\n      swap2\n      pop\n        /* \"#utility.yul\":20322:20415   */\n      tag_692\n        /* \"#utility.yul\":20411:20414   */\n      dup3\n        /* \"#utility.yul\":20322:20415   */\n      tag_416\n      jump\t// in\n    tag_692:\n        /* \"#utility.yul\":20440:20442   */\n      0x40\n        /* \"#utility.yul\":20435:20438   */\n      dup3\n        /* \"#utility.yul\":20431:20443   */\n      add\n        /* \"#utility.yul\":20424:20443   */\n      swap1\n      pop\n        /* \"#utility.yul\":20083:20449   */\n      swap2\n      swap1\n      pop\n      jump\t// out\n        /* \"#utility.yul\":20455:20874   */\n    tag_132:\n        /* \"#utility.yul\":20621:20625   */\n      0x00\n        /* \"#utility.yul\":20659:20661   */\n      0x20\n        /* \"#utility.yul\":20648:20657   */\n      dup3\n        /* \"#utility.yul\":20644:20662   */\n      add\n        /* \"#utility.yul\":20636:20662   */\n      swap1\n      pop\n        /* \"#utility.yul\":20708:20717   */\n      dup2\n        /* \"#utility.yul\":20702:20706   */\n      dup2\n        /* \"#utility.yul\":20698:20718   */\n      sub\n        /* \"#utility.yul\":20694:20695   */\n      0x00\n        /* \"#utility.yul\":20683:20692   */\n      dup4\n        /* \"#utility.yul\":20679:20696   */\n      add\n        /* \"#utility.yul\":20672:20719   */\n      mstore\n        /* \"#utility.yul\":20736:20867   */\n      tag_694\n        /* \"#utility.yul\":20862:20866   */\n      dup2\n        /* \"#utility.yul\":20736:20867   */\n      tag_417\n      jump\t// in\n    tag_694:\n        /* \"#utility.yul\":20728:20867   */\n      swap1\n      pop\n        /* \"#utility.yul\":20455:20874   */\n      swap2\n      swap1\n      pop\n      jump\t// out\n        /* \"#utility.yul\":20880:21057   */\n    tag_418:\n        /* \"#utility.yul\":21020:21049   */\n      0x43616e6e6f74206d696e7420746f207a65726f20616464726573730000000000\n        /* \"#utility.yul\":21016:21017   */\n      0x00\n        /* \"#utility.yul\":21008:21014   */\n      dup3\n        /* \"#utility.yul\":21004:21018   */\n      add\n        /* \"#utility.yul\":20997:21050   */\n      mstore\n        /* \"#utility.yul\":20880:21057   */\n      pop\n      jump\t// out\n        /* \"#utility.yul\":21063:21429   */\n    tag_419:\n        /* \"#utility.yul\":21205:21208   */\n      0x00\n        /* \"#utility.yul\":21226:21293   */\n      tag_697\n        /* \"#utility.yul\":21290:21292   */\n      0x1b\n        /* \"#utility.yul\":21285:21288   */\n      dup4\n        /* \"#utility.yul\":21226:21293   */\n      tag_370\n      jump\t// in\n    tag_697:\n        /* \"#utility.yul\":21219:21293   */\n      swap2\n      pop\n        /* \"#utility.yul\":21302:21395   */\n      tag_698\n        /* \"#utility.yul\":21391:21394   */\n      dup3\n        /* \"#utility.yul\":21302:21395   */\n      tag_418\n      jump\t// in\n    tag_698:\n        /* \"#utility.yul\":21420:21422   */\n      0x20\n        /* \"#utility.yul\":21415:21418   */\n      dup3\n        /* \"#utility.yul\":21411:21423   */\n      add\n        /* \"#utility.yul\":21404:21423   */\n      swap1\n      pop\n        /* \"#utility.yul\":21063:21429   */\n      swap2\n      swap1\n      pop\n      jump\t// out\n        /* \"#utility.yul\":21435:21854   */\n    tag_137:\n        /* \"#utility.yul\":21601:21605   */\n      0x00\n        /* \"#utility.yul\":21639:21641   */\n      0x20\n        /* \"#utility.yul\":21628:21637   */\n      dup3\n        /* \"#utility.yul\":21624:21642   */\n      add\n        /* \"#utility.yul\":21616:21642   */\n      swap1\n      pop\n        /* \"#utility.yul\":21688:21697   */\n      dup2\n        /* \"#utility.yul\":21682:21686   */\n      dup2\n        /* \"#utility.yul\":21678:21698   */\n      sub\n        /* \"#utility.yul\":21674:21675   */\n      0x00\n        /* \"#utility.yul\":21663:21672   */\n      dup4\n        /* \"#utility.yul\":21659:21676   */\n      add\n        /* \"#utility.yul\":21652:21699   */\n      mstore\n        /* \"#utility.yul\":21716:21847   */\n      tag_700\n        /* \"#utility.yul\":21842:21846   */\n      dup2\n        /* \"#utility.yul\":21716:21847   */\n      tag_419\n      jump\t// in\n    tag_700:\n        /* \"#utility.yul\":21708:21847   */\n      swap1\n      pop\n        /* \"#utility.yul\":21435:21854   */\n      swap2\n      swap1\n      pop\n      jump\t// out\n        /* \"#utility.yul\":21860:22024   */\n    tag_420:\n        /* \"#utility.yul\":22000:22016   */\n      0x496e76616c696420726172697479000000000000000000000000000000000000\n        /* \"#utility.yul\":21996:21997   */\n      0x00\n        /* \"#utility.yul\":21988:21994   */\n      dup3\n        /* \"#utility.yul\":21984:21998   */\n      add\n        /* \"#utility.yul\":21977:22017   */\n      mstore\n        /* \"#utility.yul\":21860:22024   */\n      pop\n      jump\t// out\n        /* \"#utility.yul\":22030:22396   */\n    tag_421:\n        /* \"#utility.yul\":22172:22175   */\n      0x00\n        /* \"#utility.yul\":22193:22260   */\n      tag_703\n        /* \"#utility.yul\":22257:22259   */\n      0x0e\n        /* \"#utility.yul\":22252:22255   */\n      dup4\n        /* \"#utility.yul\":22193:22260   */\n      tag_370\n      jump\t// in\n    tag_703:\n        /* \"#utility.yul\":22186:22260   */\n      swap2\n      pop\n        /* \"#utility.yul\":22269:22362   */\n      tag_704\n        /* \"#utility.yul\":22358:22361   */\n      dup3\n        /* \"#utility.yul\":22269:22362   */\n      tag_420\n      jump\t// in\n    tag_704:\n        /* \"#utility.yul\":22387:22389   */\n      0x20\n        /* \"#utility.yul\":22382:22385   */\n      dup3\n        /* \"#utility.yul\":22378:22390   */\n      add\n        /* \"#utility.yul\":22371:22390   */\n      swap1\n      pop\n        /* \"#utility.yul\":22030:22396   */\n      swap2\n      swap1\n      pop\n      jump\t// out\n        /* \"#utility.yul\":22402:22821   */\n    tag_143:\n        /* \"#utility.yul\":22568:22572   */\n      0x00\n        /* \"#utility.yul\":22606:22608   */\n      0x20\n        /* \"#utility.yul\":22595:22604   */\n      dup3\n        /* \"#utility.yul\":22591:22609   */\n      add\n        /* \"#utility.yul\":22583:22609   */\n      swap1\n      pop\n        /* \"#utility.yul\":22655:22664   */\n      dup2\n        /* \"#utility.yul\":22649:22653   */\n      dup2\n        /* \"#utility.yul\":22645:22665   */\n      sub\n        /* \"#utility.yul\":22641:22642   */\n      0x00\n        /* \"#utility.yul\":22630:22639   */\n      dup4\n        /* \"#utility.yul\":22626:22643   */\n      add\n        /* \"#utility.yul\":22619:22666   */\n      mstore\n        /* \"#utility.yul\":22683:22814   */\n      tag_706\n        /* \"#utility.yul\":22809:22813   */\n      dup2\n        /* \"#utility.yul\":22683:22814   */\n      tag_421\n      jump\t// in\n    tag_706:\n        /* \"#utility.yul\":22675:22814   */\n      swap1\n      pop\n        /* \"#utility.yul\":22402:22821   */\n      swap2\n      swap1\n      pop\n      jump\t// out\n        /* \"#utility.yul\":22827:22995   */\n    tag_422:\n        /* \"#utility.yul\":22967:22987   */\n      0x496e76616c696420706f77657220747970650000000000000000000000000000\n        /* \"#utility.yul\":22963:22964   */\n      0x00\n        /* \"#utility.yul\":22955:22961   */\n      dup3\n        /* \"#utility.yul\":22951:22965   */\n      add\n        /* \"#utility.yul\":22944:22988   */\n      mstore\n        /* \"#utility.yul\":22827:22995   */\n      pop\n      jump\t// out\n        /* \"#utility.yul\":23001:23367   */\n    tag_423:\n        /* \"#utility.yul\":23143:23146   */\n      0x00\n        /* \"#utility.yul\":23164:23231   */\n      tag_709\n        /* \"#utility.yul\":23228:23230   */\n      0x12\n        /* \"#utility.yul\":23223:23226   */\n      dup4\n        /* \"#utility.yul\":23164:23231   */\n      tag_370\n      jump\t// in\n    tag_709:\n        /* \"#utility.yul\":23157:23231   */\n      swap2\n      pop\n        /* \"#utility.yul\":23240:23333   */\n      tag_710\n        /* \"#utility.yul\":23329:23332   */\n      dup3\n        /* \"#utility.yul\":23240:23333   */\n      tag_422\n      jump\t// in\n    tag_710:\n        /* \"#utility.yul\":23358:23360   */\n      0x20\n        /* \"#utility.yul\":23353:23356   */\n      dup3\n        /* \"#utility.yul\":23349:23361   */\n      add\n        /* \"#utility.yul\":23342:23361   */\n      swap1\n      pop\n        /* \"#utility.yul\":23001:23367   */\n      swap2\n      swap1\n      pop\n      jump\t// out\n        /* \"#utility.yul\":23373:23792   */\n    tag_148:\n        /* \"#utility.yul\":23539:23543   */\n      0x00\n        /* \"#utility.yul\":23577:23579   */\n      0x20\n        /* \"#utility.yul\":23566:23575   */\n      dup3\n        /* \"#utility.yul\":23562:23580   */\n      add\n        /* \"#utility.yul\":23554:23580   */\n      swap1\n      pop\n        /* \"#utility.yul\":23626:23635   */\n      dup2\n        /* \"#utility.yul\":23620:23624   */\n      dup2\n        /* \"#utility.yul\":23616:23636   */\n      sub\n        /* \"#utility.yul\":23612:23613   */\n      0x00\n        /* \"#utility.yul\":23601:23610   */\n      dup4\n        /* \"#utility.yul\":23597:23614   */\n      add\n        /* \"#utility.yul\":23590:23637   */\n      mstore\n        /* \"#utility.yul\":23654:23785   */\n      tag_712\n        /* \"#utility.yul\":23780:23784   */\n      dup2\n        /* \"#utility.yul\":23654:23785   */\n      tag_423\n      jump\t// in\n    tag_712:\n        /* \"#utility.yul\":23646:23785   */\n      swap1\n      pop\n        /* \"#utility.yul\":23373:23792   */\n      swap2\n      swap1\n      pop\n      jump\t// out\n        /* \"#utility.yul\":23798:23939   */\n    tag_424:\n        /* \"#utility.yul\":23847:23851   */\n      0x00\n        /* \"#utility.yul\":23870:23873   */\n      dup2\n        /* \"#utility.yul\":23862:23873   */\n      swap1\n      pop\n        /* \"#utility.yul\":23893:23896   */\n      dup2\n        /* \"#utility.yul\":23890:23891   */\n      0x00\n        /* \"#utility.yul\":23883:23897   */\n      mstore\n        /* \"#utility.yul\":23927:23931   */\n      0x20\n        /* \"#utility.yul\":23924:23925   */\n      0x00\n        /* \"#utility.yul\":23914:23932   */\n      keccak256\n        /* \"#utility.yul\":23906:23932   */\n      swap1\n      pop\n        /* \"#utility.yul\":23798:23939   */\n      swap2\n      swap1\n      pop\n      jump\t// out\n        /* \"#utility.yul\":23945:24038   */\n    tag_425:\n        /* \"#utility.yul\":23982:23988   */\n      0x00\n        /* \"#utility.yul\":24029:24031   */\n      0x20\n        /* \"#utility.yul\":24024:24026   */\n      0x1f\n        /* \"#utility.yul\":24017:24022   */\n      dup4\n        /* \"#utility.yul\":24013:24027   */\n      add\n        /* \"#utility.yul\":24009:24032   */\n      div\n        /* \"#utility.yul\":23999:24032   */\n      swap1\n      pop\n        /* \"#utility.yul\":23945:24038   */\n      swap2\n      swap1\n      pop\n      jump\t// out\n        /* \"#utility.yul\":24044:24151   */\n    tag_426:\n        /* \"#utility.yul\":24088:24096   */\n      0x00\n        /* \"#utility.yul\":24138:24143   */\n      dup3\n        /* \"#utility.yul\":24132:24136   */\n      dup3\n        /* \"#utility.yul\":24128:24144   */\n      shl\n        /* \"#utility.yul\":24107:24144   */\n      swap1\n      pop\n        /* \"#utility.yul\":24044:24151   */\n      swap3\n      swap2\n      pop\n      pop\n      jump\t// out\n        /* \"#utility.yul\":24157:24550   */\n    tag_427:\n        /* \"#utility.yul\":24226:24232   */\n      0x00\n        /* \"#utility.yul\":24276:24277   */\n      0x08\n        /* \"#utility.yul\":24264:24274   */\n      dup4\n        /* \"#utility.yul\":24260:24278   */\n      mul\n        /* \"#utility.yul\":24299:24396   */\n      tag_717\n        /* \"#utility.yul\":24329:24395   */\n      0xffffffffffffffffffffffffffffffffffffffffffffffffffffffffffffffff\n        /* \"#utility.yul\":24318:24327   */\n      dup3\n        /* \"#utility.yul\":24299:24396   */\n      tag_426\n      jump\t// in\n    tag_717:\n        /* \"#utility.yul\":24417:24456   */\n      tag_718\n        /* \"#utility.yul\":24447:24455   */\n      dup7\n        /* \"#utility.yul\":24436:24445   */\n      dup4\n        /* \"#utility.yul\":24417:24456   */\n      tag_426\n      jump\t// in\n    tag_718:\n        /* \"#utility.yul\":24405:24456   */\n      swap6\n      pop\n        /* \"#utility.yul\":24489:24493   */\n      dup1\n        /* \"#utility.yul\":24485:24494   */\n      not\n        /* \"#utility.yul\":24478:24483   */\n      dup5\n        /* \"#utility.yul\":24474:24495   */\n      and\n        /* \"#utility.yul\":24465:24495   */\n      swap4\n      pop\n        /* \"#utility.yul\":24538:24542   */\n      dup1\n        /* \"#utility.yul\":24528:24536   */\n      dup7\n        /* \"#utility.yul\":24524:24543   */\n      and\n        /* \"#utility.yul\":24517:24522   */\n      dup5\n        /* \"#utility.yul\":24514:24544   */\n      or\n        /* \"#utility.yul\":24504:24544   */\n      swap3\n      pop\n        /* \"#utility.yul\":24233:24550   */\n      pop\n      pop\n        /* \"#utility.yul\":24157:24550   */\n      swap4\n      swap3\n      pop\n      pop\n      pop\n      jump\t// out\n        /* \"#utility.yul\":24556:24616   */\n    tag_428:\n        /* \"#utility.yul\":24584:24587   */\n      0x00\n        /* \"#utility.yul\":24605:24610   */\n      dup2\n        /* \"#utility.yul\":24598:24610   */\n      swap1\n      pop\n        /* \"#utility.yul\":24556:24616   */\n      swap2\n      swap1\n      pop\n      jump\t// out\n        /* \"#utility.yul\":24622:24764   */\n    tag_429:\n        /* \"#utility.yul\":24672:24681   */\n      0x00\n        /* \"#utility.yul\":24705:24758   */\n      tag_721\n        /* \"#utility.yul\":24723:24757   */\n      tag_722\n        /* \"#utility.yul\":24732:24756   */\n      tag_723\n        /* \"#utility.yul\":24750:24755   */\n      dup5\n        /* \"#utility.yul\":24732:24756   */\n      tag_374\n      jump\t// in\n    tag_723:\n        /* \"#utility.yul\":24723:24757   */\n      tag_428\n      jump\t// in\n    tag_722:\n        /* \"#utility.yul\":24705:24758   */\n      tag_374\n      jump\t// in\n    tag_721:\n        /* \"#utility.yul\":24692:24758   */\n      swap1\n      pop\n        /* \"#utility.yul\":24622:24764   */\n      swap2\n      swap1\n      pop\n      jump\t// out\n        /* \"#utility.yul\":24770:24845   */\n    tag_430:\n        /* \"#utility.yul\":24813:24816   */\n      0x00\n        /* \"#utility.yul\":24834:24839   */\n      dup2\n        /* \"#utility.yul\":24827:24839   */\n      swap1\n      pop\n        /* \"#utility.yul\":24770:24845   */\n      swap2\n      swap1\n      pop\n      jump\t// out\n        /* \"#utility.yul\":24851:25120   */\n    tag_431:\n        /* \"#utility.yul\":24961:25000   */\n      tag_726\n        /* \"#utility.yul\":24992:24999   */\n      dup4\n        /* \"#utility.yul\":24961:25000   */\n      tag_429\n      jump\t// in\n    tag_726:\n        /* \"#utility.yul\":25022:25113   */\n      tag_727\n        /* \"#utility.yul\":25071:25112   */\n      tag_728\n        /* \"#utility.yul\":25095:25111   */\n      dup3\n        /* \"#utility.yul\":25071:25112   */\n      tag_430\n      jump\t// in\n    tag_728:\n        /* \"#utility.yul\":25063:25069   */\n      dup5\n        /* \"#utility.yul\":25056:25060   */\n      dup5\n        /* \"#utility.yul\":25050:25061   */\n      sload\n        /* \"#utility.yul\":25022:25113   */\n      tag_427\n      jump\t// in\n    tag_727:\n        /* \"#utility.yul\":25016:25020   */\n      dup3\n        /* \"#utility.yul\":25009:25114   */\n      sstore\n        /* \"#utility.yul\":24927:25120   */\n      pop\n        /* \"#utility.yul\":24851:25120   */\n      pop\n      pop\n      pop\n      jump\t// out\n        /* \"#utility.yul\":25126:25199   */\n    tag_432:\n        /* \"#utility.yul\":25171:25174   */\n      0x00\n        /* \"#utility.yul\":25126:25199   */\n      swap1\n      jump\t// out\n        /* \"#utility.yul\":25205:25394   */\n    tag_433:\n        /* \"#utility.yul\":25282:25314   */\n      tag_731\n      tag_432\n      jump\t// in\n    tag_731:\n        /* \"#utility.yul\":25323:25388   */\n      tag_732\n        /* \"#utility.yul\":25381:25387   */\n      dup2\n        /* \"#utility.yul\":25373:25379   */\n      dup5\n        /* \"#utility.yul\":25367:25371   */\n      dup5\n        /* \"#utility.yul\":25323:25388   */\n      tag_431\n      jump\t// in\n    tag_732:\n        /* \"#utility.yul\":25258:25394   */\n      pop\n        /* \"#utility.yul\":25205:25394   */\n      pop\n      pop\n      jump\t// out\n        /* \"#utility.yul\":25400:25586   */\n    tag_434:\n        /* \"#utility.yul\":25460:25580   */\n    tag_734:\n        /* \"#utility.yul\":25477:25480   */\n      dup2\n        /* \"#utility.yul\":25470:25475   */\n      dup2\n        /* \"#utility.yul\":25467:25481   */\n      lt\n        /* \"#utility.yul\":25460:25580   */\n      iszero\n      tag_736\n      jumpi\n        /* \"#utility.yul\":25531:25570   */\n      tag_737\n        /* \"#utility.yul\":25568:25569   */\n      0x00\n        /* \"#utility.yul\":25561:25566   */\n      dup3\n        /* \"#utility.yul\":25531:25570   */\n      tag_433\n      jump\t// in\n    tag_737:\n        /* \"#utility.yul\":25504:25505   */\n      0x01\n        /* \"#utility.yul\":25497:25502   */\n      dup2\n        /* \"#utility.yul\":25493:25506   */\n      add\n        /* \"#utility.yul\":25484:25506   */\n      swap1\n      pop\n        /* \"#utility.yul\":25460:25580   */\n      jump(tag_734)\n    tag_736:\n        /* \"#utility.yul\":25400:25586   */\n      pop\n      pop\n      jump\t// out\n        /* \"#utility.yul\":25592:26135   */\n    tag_435:\n        /* \"#utility.yul\":25693:25695   */\n      0x1f\n        /* \"#utility.yul\":25688:25691   */\n      dup3\n        /* \"#utility.yul\":25685:25696   */\n      gt\n        /* \"#utility.yul\":25682:26128   */\n      iszero\n      tag_739\n      jumpi\n        /* \"#utility.yul\":25727:25765   */\n      tag_740\n        /* \"#utility.yul\":25759:25764   */\n      dup2\n        /* \"#utility.yul\":25727:25765   */\n      tag_424\n      jump\t// in\n    tag_740:\n        /* \"#utility.yul\":25811:25840   */\n      tag_741\n        /* \"#utility.yul\":25829:25839   */\n      dup5\n        /* \"#utility.yul\":25811:25840   */\n      tag_425\n      jump\t// in\n    tag_741:\n        /* \"#utility.yul\":25801:25809   */\n      dup2\n        /* \"#utility.yul\":25797:25841   */\n      add\n        /* \"#utility.yul\":25994:25996   */\n      0x20\n        /* \"#utility.yul\":25982:25992   */\n      dup6\n        /* \"#utility.yul\":25979:25997   */\n      lt\n        /* \"#utility.yul\":25976:26025   */\n      iszero\n      tag_742\n      jumpi\n        /* \"#utility.yul\":26015:26023   */\n      dup2\n        /* \"#utility.yul\":26000:26023   */\n      swap1\n      pop\n        /* \"#utility.yul\":25976:26025   */\n    tag_742:\n        /* \"#utility.yul\":26038:26118   */\n      tag_743\n        /* \"#utility.yul\":26094:26116   */\n      tag_744\n        /* \"#utility.yul\":26112:26115   */\n      dup6\n        /* \"#utility.yul\":26094:26116   */\n      tag_425\n      jump\t// in\n    tag_744:\n        /* \"#utility.yul\":26084:26092   */\n      dup4\n        /* \"#utility.yul\":26080:26117   */\n      add\n        /* \"#utility.yul\":26067:26078   */\n      dup3\n        /* \"#utility.yul\":26038:26118   */\n      tag_434\n      jump\t// in\n    tag_743:\n        /* \"#utility.yul\":25697:26128   */\n      pop\n      pop\n        /* \"#utility.yul\":25682:26128   */\n    tag_739:\n        /* \"#utility.yul\":25592:26135   */\n      pop\n      pop\n      pop\n      jump\t// out\n        /* \"#utility.yul\":26141:26258   */\n    tag_436:\n        /* \"#utility.yul\":26195:26203   */\n      0x00\n        /* \"#utility.yul\":26245:26250   */\n      dup3\n        /* \"#utility.yul\":26239:26243   */\n      dup3\n        /* \"#utility.yul\":26235:26251   */\n      shr\n        /* \"#utility.yul\":26214:26251   */\n      swap1\n      pop\n        /* \"#utility.yul\":26141:26258   */\n      swap3\n      swap2\n      pop\n      pop\n      jump\t// out\n        /* \"#utility.yul\":26264:26433   */\n    tag_437:\n        /* \"#utility.yul\":26308:26314   */\n      0x00\n        /* \"#utility.yul\":26341:26392   */\n      tag_747\n        /* \"#utility.yul\":26389:26390   */\n      0x00\n        /* \"#utility.yul\":26385:26391   */\n      not\n        /* \"#utility.yul\":26377:26382   */\n      dup5\n        /* \"#utility.yul\":26374:26375   */\n      0x08\n        /* \"#utility.yul\":26370:26383   */\n      mul\n        /* \"#utility.yul\":26341:26392   */\n      tag_436\n      jump\t// in\n    tag_747:\n        /* \"#utility.yul\":26337:26393   */\n      not\n        /* \"#utility.yul\":26422:26426   */\n      dup1\n        /* \"#utility.yul\":26416:26420   */\n      dup4\n        /* \"#utility.yul\":26412:26427   */\n      and\n        /* \"#utility.yul\":26402:26427   */\n      swap2\n      pop\n        /* \"#utility.yul\":26315:26433   */\n      pop\n        /* \"#utility.yul\":26264:26433   */\n      swap3\n      swap2\n      pop\n      pop\n      jump\t// out\n        /* \"#utility.yul\":26438:26733   */\n    tag_438:\n        /* \"#utility.yul\":26514:26518   */\n      0x00\n        /* \"#utility.yul\":26660:26689   */\n      tag_749\n        /* \"#utility.yul\":26685:26688   */\n      dup4\n        /* \"#utility.yul\":26679:26683   */\n      dup4\n        /* \"#utility.yul\":26660:26689   */\n      tag_437\n      jump\t// in\n    tag_749:\n        /* \"#utility.yul\":26652:26689   */\n      swap2\n      pop\n        /* \"#utility.yul\":26722:26725   */\n      dup3\n        /* \"#utility.yul\":26719:26720   */\n      0x02\n        /* \"#utility.yul\":26715:26726   */\n      mul\n        /* \"#utility.yul\":26709:26713   */\n      dup3\n        /* \"#utility.yul\":26706:26727   */\n      or\n        /* \"#utility.yul\":26698:26727   */\n      swap1\n      pop\n        /* \"#utility.yul\":26438:26733   */\n      swap3\n      swap2\n      pop\n      pop\n      jump\t// out\n        /* \"#utility.yul\":26738:28133   */\n    tag_160:\n        /* \"#utility.yul\":26855:26892   */\n      tag_751\n        /* \"#utility.yul\":26888:26891   */\n      dup3\n        /* \"#utility.yul\":26855:26892   */\n      tag_369\n      jump\t// in\n    tag_751:\n        /* \"#utility.yul\":26957:26975   */\n      0xffffffffffffffff\n        /* \"#utility.yul\":26949:26955   */\n      dup2\n        /* \"#utility.yul\":26946:26976   */\n      gt\n        /* \"#utility.yul\":26943:26999   */\n      iszero\n      tag_752\n      jumpi\n        /* \"#utility.yul\":26979:26997   */\n      tag_753\n      tag_325\n      jump\t// in\n    tag_753:\n        /* \"#utility.yul\":26943:26999   */\n    tag_752:\n        /* \"#utility.yul\":27023:27061   */\n      tag_754\n        /* \"#utility.yul\":27055:27059   */\n      dup3\n        /* \"#utility.yul\":27049:27060   */\n      sload\n        /* \"#utility.yul\":27023:27061   */\n      tag_112\n      jump\t// in\n    tag_754:\n        /* \"#utility.yul\":27108:27175   */\n      tag_755\n        /* \"#utility.yul\":27168:27174   */\n      dup3\n        /* \"#utility.yul\":27160:27166   */\n      dup3\n        /* \"#utility.yul\":27154:27158   */\n      dup6\n        /* \"#utility.yul\":27108:27175   */\n      tag_435\n      jump\t// in\n    tag_755:\n        /* \"#utility.yul\":27202:27203   */\n      0x00\n        /* \"#utility.yul\":27226:27230   */\n      0x20\n        /* \"#utility.yul\":27213:27230   */\n      swap1\n      pop\n        /* \"#utility.yul\":27258:27260   */\n      0x1f\n        /* \"#utility.yul\":27250:27256   */\n      dup4\n        /* \"#utility.yul\":27247:27261   */\n      gt\n        /* \"#utility.yul\":27275:27276   */\n      0x01\n        /* \"#utility.yul\":27270:27888   */\n      dup2\n      eq\n      tag_757\n      jumpi\n        /* \"#utility.yul\":27932:27933   */\n      0x00\n        /* \"#utility.yul\":27949:27955   */\n      dup5\n        /* \"#utility.yul\":27946:28023   */\n      iszero\n      tag_758\n      jumpi\n        /* \"#utility.yul\":27998:28007   */\n      dup3\n        /* \"#utility.yul\":27993:27996   */\n      dup8\n        /* \"#utility.yul\":27989:28008   */\n      add\n        /* \"#utility.yul\":27983:28009   */\n      mload\n        /* \"#utility.yul\":27974:28009   */\n      swap1\n      pop\n        /* \"#utility.yul\":27946:28023   */\n    tag_758:\n        /* \"#utility.yul\":28049:28116   */\n      tag_759\n        /* \"#utility.yul\":28109:28115   */\n      dup6\n        /* \"#utility.yul\":28102:28107   */\n      dup3\n        /* \"#utility.yul\":28049:28116   */\n      tag_438\n      jump\t// in\n    tag_759:\n        /* \"#utility.yul\":28043:28047   */\n      dup7\n        /* \"#utility.yul\":28036:28117   */\n      sstore\n        /* \"#utility.yul\":27905:28127   */\n      pop\n        /* \"#utility.yul\":27240:28127   */\n      jump(tag_756)\n        /* \"#utility.yul\":27270:27888   */\n    tag_757:\n        /* \"#utility.yul\":27322:27326   */\n      0x1f\n        /* \"#utility.yul\":27318:27327   */\n      not\n        /* \"#utility.yul\":27310:27316   */\n      dup5\n        /* \"#utility.yul\":27306:27328   */\n      and\n        /* \"#utility.yul\":27356:27393   */\n      tag_760\n        /* \"#utility.yul\":27388:27392   */\n      dup7\n        /* \"#utility.yul\":27356:27393   */\n      tag_424\n      jump\t// in\n    tag_760:\n        /* \"#utility.yul\":27415:27416   */\n      0x00\n        /* \"#utility.yul\":27429:27637   */\n    tag_761:\n        /* \"#utility.yul\":27443:27450   */\n      dup3\n        /* \"#utility.yul\":27440:27441   */\n      dup2\n        /* \"#utility.yul\":27437:27451   */\n      lt\n        /* \"#utility.yul\":27429:27637   */\n      iszero\n      tag_763\n      jumpi\n        /* \"#utility.yul\":27522:27531   */\n      dup5\n        /* \"#utility.yul\":27517:27520   */\n      dup10\n        /* \"#utility.yul\":27513:27532   */\n      add\n        /* \"#utility.yul\":27507:27533   */\n      mload\n        /* \"#utility.yul\":27499:27505   */\n      dup3\n        /* \"#utility.yul\":27492:27534   */\n      sstore\n        /* \"#utility.yul\":27573:27574   */\n      0x01\n        /* \"#utility.yul\":27565:27571   */\n      dup3\n        /* \"#utility.yul\":27561:27575   */\n      add\n        /* \"#utility.yul\":27551:27575   */\n      swap2\n      pop\n        /* \"#utility.yul\":27620:27622   */\n      0x20\n        /* \"#utility.yul\":27609:27618   */\n      dup6\n        /* \"#utility.yul\":27605:27623   */\n      add\n        /* \"#utility.yul\":27592:27623   */\n      swap5\n      pop\n        /* \"#utility.yul\":27466:27470   */\n      0x20\n        /* \"#utility.yul\":27463:27464   */\n      dup2\n        /* \"#utility.yul\":27459:27471   */\n      add\n        /* \"#utility.yul\":27454:27471   */\n      swap1\n      pop\n        /* \"#utility.yul\":27429:27637   */\n      jump(tag_761)\n    tag_763:\n        /* \"#utility.yul\":27665:27671   */\n      dup7\n        /* \"#utility.yul\":27656:27663   */\n      dup4\n        /* \"#utility.yul\":27653:27672   */\n      lt\n        /* \"#utility.yul\":27650:27829   */\n      iszero\n      tag_764\n      jumpi\n        /* \"#utility.yul\":27723:27732   */\n      dup5\n        /* \"#utility.yul\":27718:27721   */\n      dup10\n        /* \"#utility.yul\":27714:27733   */\n      add\n        /* \"#utility.yul\":27708:27734   */\n      mload\n        /* \"#utility.yul\":27766:27814   */\n      tag_765\n        /* \"#utility.yul\":27808:27812   */\n      0x1f\n        /* \"#utility.yul\":27800:27806   */\n      dup10\n        /* \"#utility.yul\":27796:27813   */\n      and\n        /* \"#utility.yul\":27785:27794   */\n      dup3\n        /* \"#utility.yul\":27766:27814   */\n      tag_437\n      jump\t// in\n    tag_765:\n        /* \"#utility.yul\":27758:27764   */\n      dup4\n        /* \"#utility.yul\":27751:27815   */\n      sstore\n        /* \"#utility.yul\":27673:27829   */\n      pop\n        /* \"#utility.yul\":27650:27829   */\n    tag_764:\n        /* \"#utility.yul\":27875:27876   */\n      0x01\n        /* \"#utility.yul\":27871:27872   */\n      0x02\n        /* \"#utility.yul\":27863:27869   */\n      dup9\n        /* \"#utility.yul\":27859:27873   */\n      mul\n        /* \"#utility.yul\":27855:27877   */\n      add\n        /* \"#utility.yul\":27849:27853   */\n      dup9\n        /* \"#utility.yul\":27842:27878   */\n      sstore\n        /* \"#utility.yul\":27277:27888   */\n      pop\n      pop\n      pop\n        /* \"#utility.yul\":27240:28127   */\n    tag_756:\n      pop\n        /* \"#utility.yul\":26830:28133   */\n      pop\n      pop\n      pop\n        /* \"#utility.yul\":26738:28133   */\n      pop\n      pop\n      jump\t// out\n        /* \"#utility.yul\":28139:28319   */\n    tag_439:\n        /* \"#utility.yul\":28187:28264   */\n      0x4e487b7100000000000000000000000000000000000000000000000000000000\n        /* \"#utility.yul\":28184:28185   */\n      0x00\n        /* \"#utility.yul\":28177:28265   */\n      mstore\n        /* \"#utility.yul\":28284:28288   */\n      0x11\n        /* \"#utility.yul\":28281:28282   */\n      0x04\n        /* \"#utility.yul\":28274:28289   */\n      mstore\n        /* \"#utility.yul\":28308:28312   */\n      0x24\n        /* \"#utility.yul\":28305:28306   */\n      0x00\n        /* \"#utility.yul\":28298:28313   */\n      revert\n        /* \"#utility.yul\":28325:28558   */\n    tag_166:\n        /* \"#utility.yul\":28364:28367   */\n      0x00\n        /* \"#utility.yul\":28387:28411   */\n      tag_768\n        /* \"#utility.yul\":28405:28410   */\n      dup3\n        /* \"#utility.yul\":28387:28411   */\n      tag_374\n      jump\t// in\n    tag_768:\n        /* \"#utility.yul\":28378:28411   */\n      swap2\n      pop\n        /* \"#utility.yul\":28433:28499   */\n      0xffffffffffffffffffffffffffffffffffffffffffffffffffffffffffffffff\n        /* \"#utility.yul\":28426:28431   */\n      dup3\n        /* \"#utility.yul\":28423:28500   */\n      sub\n        /* \"#utility.yul\":28420:28523   */\n      tag_769\n      jumpi\n        /* \"#utility.yul\":28503:28521   */\n      tag_770\n      tag_439\n      jump\t// in\n    tag_770:\n        /* \"#utility.yul\":28420:28523   */\n    tag_769:\n        /* \"#utility.yul\":28550:28551   */\n      0x01\n        /* \"#utility.yul\":28543:28548   */\n      dup3\n        /* \"#utility.yul\":28539:28552   */\n      add\n        /* \"#utility.yul\":28532:28552   */\n      swap1\n      pop\n        /* \"#utility.yul\":28325:28558   */\n      swap2\n      swap1\n      pop\n      jump\t// out\n        /* \"#utility.yul\":28564:28711   */\n    tag_440:\n        /* \"#utility.yul\":28659:28704   */\n      tag_772\n        /* \"#utility.yul\":28698:28703   */\n      dup2\n        /* \"#utility.yul\":28659:28704   */\n      tag_401\n      jump\t// in\n    tag_772:\n        /* \"#utility.yul\":28654:28657   */\n      dup3\n        /* \"#utility.yul\":28647:28705   */\n      mstore\n        /* \"#utility.yul\":28564:28711   */\n      pop\n      pop\n      jump\t// out\n        /* \"#utility.yul\":28717:28870   */\n    tag_441:\n        /* \"#utility.yul\":28815:28863   */\n      tag_774\n        /* \"#utility.yul\":28857:28862   */\n      dup2\n        /* \"#utility.yul\":28815:28863   */\n      tag_405\n      jump\t// in\n    tag_774:\n        /* \"#utility.yul\":28810:28813   */\n      dup3\n        /* \"#utility.yul\":28803:28864   */\n      mstore\n        /* \"#utility.yul\":28717:28870   */\n      pop\n      pop\n      jump\t// out\n        /* \"#utility.yul\":28876:29447   */\n    tag_172:\n        /* \"#utility.yul\":29064:29068   */\n      0x00\n        /* \"#utility.yul\":29102:29104   */\n      0x60\n        /* \"#utility.yul\":29091:29100   */\n      dup3\n        /* \"#utility.yul\":29087:29105   */\n      add\n        /* \"#utility.yul\":29079:29105   */\n      swap1\n      pop\n        /* \"#utility.yul\":29151:29160   */\n      dup2\n        /* \"#utility.yul\":29145:29149   */\n      dup2\n        /* \"#utility.yul\":29141:29161   */\n      sub\n        /* \"#utility.yul\":29137:29138   */\n      0x00\n        /* \"#utility.yul\":29126:29135   */\n      dup4\n        /* \"#utility.yul\":29122:29139   */\n      add\n        /* \"#utility.yul\":29115:29162   */\n      mstore\n        /* \"#utility.yul\":29179:29257   */\n      tag_776\n        /* \"#utility.yul\":29252:29256   */\n      dup2\n        /* \"#utility.yul\":29243:29249   */\n      dup7\n        /* \"#utility.yul\":29179:29257   */\n      tag_373\n      jump\t// in\n    tag_776:\n        /* \"#utility.yul\":29171:29257   */\n      swap1\n      pop\n        /* \"#utility.yul\":29267:29347   */\n      tag_777\n        /* \"#utility.yul\":29343:29345   */\n      0x20\n        /* \"#utility.yul\":29332:29341   */\n      dup4\n        /* \"#utility.yul\":29328:29346   */\n      add\n        /* \"#utility.yul\":29319:29325   */\n      dup6\n        /* \"#utility.yul\":29267:29347   */\n      tag_440\n      jump\t// in\n    tag_777:\n        /* \"#utility.yul\":29357:29440   */\n      tag_778\n        /* \"#utility.yul\":29436:29438   */\n      0x40\n        /* \"#utility.yul\":29425:29434   */\n      dup4\n        /* \"#utility.yul\":29421:29439   */\n      add\n        /* \"#utility.yul\":29412:29418   */\n      dup5\n        /* \"#utility.yul\":29357:29440   */\n      tag_441\n      jump\t// in\n    tag_778:\n        /* \"#utility.yul\":28876:29447   */\n      swap5\n      swap4\n      pop\n      pop\n      pop\n      pop\n      jump\t// out\n        /* \"#utility.yul\":29453:29685   */\n    tag_442:\n        /* \"#utility.yul\":29593:29627   */\n      0x4552433732313a2043616c6c6572206973206e6f7420746f6b656e206f776e65\n        /* \"#utility.yul\":29589:29590   */\n      0x00\n        /* \"#utility.yul\":29581:29587   */\n      dup3\n        /* \"#utility.yul\":29577:29591   */\n      add\n        /* \"#utility.yul\":29570:29628   */\n      mstore\n        /* \"#utility.yul\":29662:29677   */\n      0x72206f7220617070726f76656400000000000000000000000000000000000000\n        /* \"#utility.yul\":29657:29659   */\n      0x20\n        /* \"#utility.yul\":29649:29655   */\n      dup3\n        /* \"#utility.yul\":29645:29660   */\n      add\n        /* \"#utility.yul\":29638:29678   */\n      mstore\n        /* \"#utility.yul\":29453:29685   */\n      pop\n      jump\t// out\n        /* \"#utility.yul\":29691:30057   */\n    tag_443:\n        /* \"#utility.yul\":29833:29836   */\n      0x00\n        /* \"#utility.yul\":29854:29921   */\n      tag_781\n        /* \"#utility.yul\":29918:29920   */\n      0x2d\n        /* \"#utility.yul\":29913:29916   */\n      dup4\n        /* \"#utility.yul\":29854:29921   */\n      tag_370\n      jump\t// in\n    tag_781:\n        /* \"#utility.yul\":29847:29921   */\n      swap2\n      pop\n        /* \"#utility.yul\":29930:30023   */\n      tag_782\n        /* \"#utility.yul\":30019:30022   */\n      dup3\n        /* \"#utility.yul\":29930:30023   */\n      tag_442\n      jump\t// in\n    tag_782:\n        /* \"#utility.yul\":30048:30050   */\n      0x40\n        /* \"#utility.yul\":30043:30046   */\n      dup3\n        /* \"#utility.yul\":30039:30051   */\n      add\n        /* \"#utility.yul\":30032:30051   */\n      swap1\n      pop\n        /* \"#utility.yul\":29691:30057   */\n      swap2\n      swap1\n      pop\n      jump\t// out\n        /* \"#utility.yul\":30063:30482   */\n    tag_178:\n        /* \"#utility.yul\":30229:30233   */\n      0x00\n        /* \"#utility.yul\":30267:30269   */\n      0x20\n        /* \"#utility.yul\":30256:30265   */\n      dup3\n        /* \"#utility.yul\":30252:30270   */\n      add\n        /* \"#utility.yul\":30244:30270   */\n      swap1\n      pop\n        /* \"#utility.yul\":30316:30325   */\n      dup2\n        /* \"#utility.yul\":30310:30314   */\n      dup2\n        /* \"#utility.yul\":30306:30326   */\n      sub\n        /* \"#utility.yul\":30302:30303   */\n      0x00\n        /* \"#utility.yul\":30291:30300   */\n      dup4\n        /* \"#utility.yul\":30287:30304   */\n      add\n        /* \"#utility.yul\":30280:30327   */\n      mstore\n        /* \"#utility.yul\":30344:30475   */\n      tag_784\n        /* \"#utility.yul\":30470:30474   */\n      dup2\n        /* \"#utility.yul\":30344:30475   */\n      tag_443\n      jump\t// in\n    tag_784:\n        /* \"#utility.yul\":30336:30475   */\n      swap1\n      pop\n        /* \"#utility.yul\":30063:30482   */\n      swap2\n      swap1\n      pop\n      jump\t// out\n        /* \"#utility.yul\":30488:30715   */\n    tag_444:\n        /* \"#utility.yul\":30628:30662   */\n      0x46756e6374696f6e2061636365737369626c65206f6e6c792062792074686520\n        /* \"#utility.yul\":30624:30625   */\n      0x00\n        /* \"#utility.yul\":30616:30622   */\n      dup3\n        /* \"#utility.yul\":30612:30626   */\n      add\n        /* \"#utility.yul\":30605:30663   */\n      mstore\n        /* \"#utility.yul\":30697:30707   */\n      0x6f776e6572202121000000000000000000000000000000000000000000000000\n        /* \"#utility.yul\":30692:30694   */\n      0x20\n        /* \"#utility.yul\":30684:30690   */\n      dup3\n        /* \"#utility.yul\":30680:30695   */\n      add\n        /* \"#utility.yul\":30673:30708   */\n      mstore\n        /* \"#utility.yul\":30488:30715   */\n      pop\n      jump\t// out\n        /* \"#utility.yul\":30721:31087   */\n    tag_445:\n        /* \"#utility.yul\":30863:30866   */\n      0x00\n        /* \"#utility.yul\":30884:30951   */\n      tag_787\n        /* \"#utility.yul\":30948:30950   */\n      0x28\n        /* \"#utility.yul\":30943:30946   */\n      dup4\n        /* \"#utility.yul\":30884:30951   */\n      tag_370\n      jump\t// in\n    tag_787:\n        /* \"#utility.yul\":30877:30951   */\n      swap2\n      pop\n        /* \"#utility.yul\":30960:31053   */\n      tag_788\n        /* \"#utility.yul\":31049:31052   */\n      dup3\n        /* \"#utility.yul\":30960:31053   */\n      tag_444\n      jump\t// in\n    tag_788:\n        /* \"#utility.yul\":31078:31080   */\n      0x40\n        /* \"#utility.yul\":31073:31076   */\n      dup3\n        /* \"#utility.yul\":31069:31081   */\n      add\n        /* \"#utility.yul\":31062:31081   */\n      swap1\n      pop\n        /* \"#utility.yul\":30721:31087   */\n      swap2\n      swap1\n      pop\n      jump\t// out\n        /* \"#utility.yul\":31093:31512   */\n    tag_187:\n        /* \"#utility.yul\":31259:31263   */\n      0x00\n        /* \"#utility.yul\":31297:31299   */\n      0x20\n        /* \"#utility.yul\":31286:31295   */\n      dup3\n        /* \"#utility.yul\":31282:31300   */\n      add\n        /* \"#utility.yul\":31274:31300   */\n      swap1\n      pop\n        /* \"#utility.yul\":31346:31355   */\n      dup2\n        /* \"#utility.yul\":31340:31344   */\n      dup2\n        /* \"#utility.yul\":31336:31356   */\n      sub\n        /* \"#utility.yul\":31332:31333   */\n      0x00\n        /* \"#utility.yul\":31321:31330   */\n      dup4\n        /* \"#utility.yul\":31317:31334   */\n      add\n        /* \"#utility.yul\":31310:31357   */\n      mstore\n        /* \"#utility.yul\":31374:31505   */\n      tag_790\n        /* \"#utility.yul\":31500:31504   */\n      dup2\n        /* \"#utility.yul\":31374:31505   */\n      tag_445\n      jump\t// in\n    tag_790:\n        /* \"#utility.yul\":31366:31505   */\n      swap1\n      pop\n        /* \"#utility.yul\":31093:31512   */\n      swap2\n      swap1\n      pop\n      jump\t// out\n        /* \"#utility.yul\":31518:31682   */\n    tag_446:\n        /* \"#utility.yul\":31658:31674   */\n      0x456d707479206261736520555249000000000000000000000000000000000000\n        /* \"#utility.yul\":31654:31655   */\n      0x00\n        /* \"#utility.yul\":31646:31652   */\n      dup3\n        /* \"#utility.yul\":31642:31656   */\n      add\n        /* \"#utility.yul\":31635:31675   */\n      mstore\n        /* \"#utility.yul\":31518:31682   */\n      pop\n      jump\t// out\n        /* \"#utility.yul\":31688:32054   */\n    tag_447:\n        /* \"#utility.yul\":31830:31833   */\n      0x00\n        /* \"#utility.yul\":31851:31918   */\n      tag_793\n        /* \"#utility.yul\":31915:31917   */\n      0x0e\n        /* \"#utility.yul\":31910:31913   */\n      dup4\n        /* \"#utility.yul\":31851:31918   */\n      tag_370\n      jump\t// in\n    tag_793:\n        /* \"#utility.yul\":31844:31918   */\n      swap2\n      pop\n        /* \"#utility.yul\":31927:32020   */\n      tag_794\n        /* \"#utility.yul\":32016:32019   */\n      dup3\n        /* \"#utility.yul\":31927:32020   */\n      tag_446\n      jump\t// in\n    tag_794:\n        /* \"#utility.yul\":32045:32047   */\n      0x20\n        /* \"#utility.yul\":32040:32043   */\n      dup3\n        /* \"#utility.yul\":32036:32048   */\n      add\n        /* \"#utility.yul\":32029:32048   */\n      swap1\n      pop\n        /* \"#utility.yul\":31688:32054   */\n      swap2\n      swap1\n      pop\n      jump\t// out\n        /* \"#utility.yul\":32060:32479   */\n    tag_191:\n        /* \"#utility.yul\":32226:32230   */\n      0x00\n        /* \"#utility.yul\":32264:32266   */\n      0x20\n        /* \"#utility.yul\":32253:32262   */\n      dup3\n        /* \"#utility.yul\":32249:32267   */\n      add\n        /* \"#utility.yul\":32241:32267   */\n      swap1\n      pop\n        /* \"#utility.yul\":32313:32322   */\n      dup2\n        /* \"#utility.yul\":32307:32311   */\n      dup2\n        /* \"#utility.yul\":32303:32323   */\n      sub\n        /* \"#utility.yul\":32299:32300   */\n      0x00\n        /* \"#utility.yul\":32288:32297   */\n      dup4\n        /* \"#utility.yul\":32284:32301   */\n      add\n        /* \"#utility.yul\":32277:32324   */\n      mstore\n        /* \"#utility.yul\":32341:32472   */\n      tag_796\n        /* \"#utility.yul\":32467:32471   */\n      dup2\n        /* \"#utility.yul\":32341:32472   */\n      tag_447\n      jump\t// in\n    tag_796:\n        /* \"#utility.yul\":32333:32472   */\n      swap1\n      pop\n        /* \"#utility.yul\":32060:32479   */\n      swap2\n      swap1\n      pop\n      jump\t// out\n        /* \"#utility.yul\":32485:32999   */\n    tag_199:\n        /* \"#utility.yul\":32646:32650   */\n      0x00\n        /* \"#utility.yul\":32684:32686   */\n      0x40\n        /* \"#utility.yul\":32673:32682   */\n      dup3\n        /* \"#utility.yul\":32669:32687   */\n      add\n        /* \"#utility.yul\":32661:32687   */\n      swap1\n      pop\n        /* \"#utility.yul\":32733:32742   */\n      dup2\n        /* \"#utility.yul\":32727:32731   */\n      dup2\n        /* \"#utility.yul\":32723:32743   */\n      sub\n        /* \"#utility.yul\":32719:32720   */\n      0x00\n        /* \"#utility.yul\":32708:32717   */\n      dup4\n        /* \"#utility.yul\":32704:32721   */\n      add\n        /* \"#utility.yul\":32697:32744   */\n      mstore\n        /* \"#utility.yul\":32761:32839   */\n      tag_798\n        /* \"#utility.yul\":32834:32838   */\n      dup2\n        /* \"#utility.yul\":32825:32831   */\n      dup6\n        /* \"#utility.yul\":32761:32839   */\n      tag_373\n      jump\t// in\n    tag_798:\n        /* \"#utility.yul\":32753:32839   */\n      swap1\n      pop\n        /* \"#utility.yul\":32886:32895   */\n      dup2\n        /* \"#utility.yul\":32880:32884   */\n      dup2\n        /* \"#utility.yul\":32876:32896   */\n      sub\n        /* \"#utility.yul\":32871:32873   */\n      0x20\n        /* \"#utility.yul\":32860:32869   */\n      dup4\n        /* \"#utility.yul\":32856:32874   */\n      add\n        /* \"#utility.yul\":32849:32897   */\n      mstore\n        /* \"#utility.yul\":32914:32992   */\n      tag_799\n        /* \"#utility.yul\":32987:32991   */\n      dup2\n        /* \"#utility.yul\":32978:32984   */\n      dup5\n        /* \"#utility.yul\":32914:32992   */\n      tag_373\n      jump\t// in\n    tag_799:\n        /* \"#utility.yul\":32906:32992   */\n      swap1\n      pop\n        /* \"#utility.yul\":32485:32999   */\n      swap4\n      swap3\n      pop\n      pop\n      pop\n      jump\t// out\n        /* \"#utility.yul\":33005:33179   */\n    tag_448:\n        /* \"#utility.yul\":33145:33171   */\n      0x4552433732313a20496e76616c696420746f6b656e2049440000000000000000\n        /* \"#utility.yul\":33141:33142   */\n      0x00\n        /* \"#utility.yul\":33133:33139   */\n      dup3\n        /* \"#utility.yul\":33129:33143   */\n      add\n        /* \"#utility.yul\":33122:33172   */\n      mstore\n        /* \"#utility.yul\":33005:33179   */\n      pop\n      jump\t// out\n        /* \"#utility.yul\":33185:33551   */\n    tag_449:\n        /* \"#utility.yul\":33327:33330   */\n      0x00\n        /* \"#utility.yul\":33348:33415   */\n      tag_802\n        /* \"#utility.yul\":33412:33414   */\n      0x18\n        /* \"#utility.yul\":33407:33410   */\n      dup4\n        /* \"#utility.yul\":33348:33415   */\n      tag_370\n      jump\t// in\n    tag_802:\n        /* \"#utility.yul\":33341:33415   */\n      swap2\n      pop\n        /* \"#utility.yul\":33424:33517   */\n      tag_803\n        /* \"#utility.yul\":33513:33516   */\n      dup3\n        /* \"#utility.yul\":33424:33517   */\n      tag_448\n      jump\t// in\n    tag_803:\n        /* \"#utility.yul\":33542:33544   */\n      0x20\n        /* \"#utility.yul\":33537:33540   */\n      dup3\n        /* \"#utility.yul\":33533:33545   */\n      add\n        /* \"#utility.yul\":33526:33545   */\n      swap1\n      pop\n        /* \"#utility.yul\":33185:33551   */\n      swap2\n      swap1\n      pop\n      jump\t// out\n        /* \"#utility.yul\":33557:33976   */\n    tag_203:\n        /* \"#utility.yul\":33723:33727   */\n      0x00\n        /* \"#utility.yul\":33761:33763   */\n      0x20\n        /* \"#utility.yul\":33750:33759   */\n      dup3\n        /* \"#utility.yul\":33746:33764   */\n      add\n        /* \"#utility.yul\":33738:33764   */\n      swap1\n      pop\n        /* \"#utility.yul\":33810:33819   */\n      dup2\n        /* \"#utility.yul\":33804:33808   */\n      dup2\n        /* \"#utility.yul\":33800:33820   */\n      sub\n        /* \"#utility.yul\":33796:33797   */\n      0x00\n        /* \"#utility.yul\":33785:33794   */\n      dup4\n        /* \"#utility.yul\":33781:33798   */\n      add\n        /* \"#utility.yul\":33774:33821   */\n      mstore\n        /* \"#utility.yul\":33838:33969   */\n      tag_805\n        /* \"#utility.yul\":33964:33968   */\n      dup2\n        /* \"#utility.yul\":33838:33969   */\n      tag_449\n      jump\t// in\n    tag_805:\n        /* \"#utility.yul\":33830:33969   */\n      swap1\n      pop\n        /* \"#utility.yul\":33557:33976   */\n      swap2\n      swap1\n      pop\n      jump\t// out\n        /* \"#utility.yul\":33982:34210   */\n    tag_450:\n        /* \"#utility.yul\":34122:34156   */\n      0x4552433732313a2041646472657373207a65726f206973206e6f742061207661\n        /* \"#utility.yul\":34118:34119   */\n      0x00\n        /* \"#utility.yul\":34110:34116   */\n      dup3\n        /* \"#utility.yul\":34106:34120   */\n      add\n        /* \"#utility.yul\":34099:34157   */\n      mstore\n        /* \"#utility.yul\":34191:34202   */\n      0x6c6964206f776e65720000000000000000000000000000000000000000000000\n        /* \"#utility.yul\":34186:34188   */\n      0x20\n        /* \"#utility.yul\":34178:34184   */\n      dup3\n        /* \"#utility.yul\":34174:34189   */\n      add\n        /* \"#utility.yul\":34167:34203   */\n      mstore\n        /* \"#utility.yul\":33982:34210   */\n      pop\n      jump\t// out\n        /* \"#utility.yul\":34216:34582   */\n    tag_451:\n        /* \"#utility.yul\":34358:34361   */\n      0x00\n        /* \"#utility.yul\":34379:34446   */\n      tag_808\n        /* \"#utility.yul\":34443:34445   */\n      0x29\n        /* \"#utility.yul\":34438:34441   */\n      dup4\n        /* \"#utility.yul\":34379:34446   */\n      tag_370\n      jump\t// in\n    tag_808:\n        /* \"#utility.yul\":34372:34446   */\n      swap2\n      pop\n        /* \"#utility.yul\":34455:34548   */\n      tag_809\n        /* \"#utility.yul\":34544:34547   */\n      dup3\n        /* \"#utility.yul\":34455:34548   */\n      tag_450\n      jump\t// in\n    tag_809:\n        /* \"#utility.yul\":34573:34575   */\n      0x40\n        /* \"#utility.yul\":34568:34571   */\n      dup3\n        /* \"#utility.yul\":34564:34576   */\n      add\n        /* \"#utility.yul\":34557:34576   */\n      swap1\n      pop\n        /* \"#utility.yul\":34216:34582   */\n      swap2\n      swap1\n      pop\n      jump\t// out\n        /* \"#utility.yul\":34588:35007   */\n    tag_207:\n        /* \"#utility.yul\":34754:34758   */\n      0x00\n        /* \"#utility.yul\":34792:34794   */\n      0x20\n        /* \"#utility.yul\":34781:34790   */\n      dup3\n        /* \"#utility.yul\":34777:34795   */\n      add\n        /* \"#utility.yul\":34769:34795   */\n      swap1\n      pop\n        /* \"#utility.yul\":34841:34850   */\n      dup2\n        /* \"#utility.yul\":34835:34839   */\n      dup2\n        /* \"#utility.yul\":34831:34851   */\n      sub\n        /* \"#utility.yul\":34827:34828   */\n      0x00\n        /* \"#utility.yul\":34816:34825   */\n      dup4\n        /* \"#utility.yul\":34812:34829   */\n      add\n        /* \"#utility.yul\":34805:34852   */\n      mstore\n        /* \"#utility.yul\":34869:35000   */\n      tag_811\n        /* \"#utility.yul\":34995:34999   */\n      dup2\n        /* \"#utility.yul\":34869:35000   */\n      tag_451\n      jump\t// in\n    tag_811:\n        /* \"#utility.yul\":34861:35000   */\n      swap1\n      pop\n        /* \"#utility.yul\":34588:35007   */\n      swap2\n      swap1\n      pop\n      jump\t// out\n        /* \"#utility.yul\":35013:35188   */\n    tag_452:\n        /* \"#utility.yul\":35153:35180   */\n      0x4552433732313a20417070726f766520746f2063616c6c657200000000000000\n        /* \"#utility.yul\":35149:35150   */\n      0x00\n        /* \"#utility.yul\":35141:35147   */\n      dup3\n        /* \"#utility.yul\":35137:35151   */\n      add\n        /* \"#utility.yul\":35130:35181   */\n      mstore\n        /* \"#utility.yul\":35013:35188   */\n      pop\n      jump\t// out\n        /* \"#utility.yul\":35194:35560   */\n    tag_453:\n        /* \"#utility.yul\":35336:35339   */\n      0x00\n        /* \"#utility.yul\":35357:35424   */\n      tag_814\n        /* \"#utility.yul\":35421:35423   */\n      0x19\n        /* \"#utility.yul\":35416:35419   */\n      dup4\n        /* \"#utility.yul\":35357:35424   */\n      tag_370\n      jump\t// in\n    tag_814:\n        /* \"#utility.yul\":35350:35424   */\n      swap2\n      pop\n        /* \"#utility.yul\":35433:35526   */\n      tag_815\n        /* \"#utility.yul\":35522:35525   */\n      dup3\n        /* \"#utility.yul\":35433:35526   */\n      tag_452\n      jump\t// in\n    tag_815:\n        /* \"#utility.yul\":35551:35553   */\n      0x20\n        /* \"#utility.yul\":35546:35549   */\n      dup3\n        /* \"#utility.yul\":35542:35554   */\n      add\n        /* \"#utility.yul\":35535:35554   */\n      swap1\n      pop\n        /* \"#utility.yul\":35194:35560   */\n      swap2\n      swap1\n      pop\n      jump\t// out\n        /* \"#utility.yul\":35566:35985   */\n    tag_219:\n        /* \"#utility.yul\":35732:35736   */\n      0x00\n        /* \"#utility.yul\":35770:35772   */\n      0x20\n        /* \"#utility.yul\":35759:35768   */\n      dup3\n        /* \"#utility.yul\":35755:35773   */\n      add\n        /* \"#utility.yul\":35747:35773   */\n      swap1\n      pop\n        /* \"#utility.yul\":35819:35828   */\n      dup2\n        /* \"#utility.yul\":35813:35817   */\n      dup2\n        /* \"#utility.yul\":35809:35829   */\n      sub\n        /* \"#utility.yul\":35805:35806   */\n      0x00\n        /* \"#utility.yul\":35794:35803   */\n      dup4\n        /* \"#utility.yul\":35790:35807   */\n      add\n        /* \"#utility.yul\":35783:35830   */\n      mstore\n        /* \"#utility.yul\":35847:35978   */\n      tag_817\n        /* \"#utility.yul\":35973:35977   */\n      dup2\n        /* \"#utility.yul\":35847:35978   */\n      tag_453\n      jump\t// in\n    tag_817:\n        /* \"#utility.yul\":35839:35978   */\n      swap1\n      pop\n        /* \"#utility.yul\":35566:35985   */\n      swap2\n      swap1\n      pop\n      jump\t// out\n        /* \"#utility.yul\":35991:36162   */\n    tag_454:\n        /* \"#utility.yul\":36131:36154   */\n      0x4d6f6e6b657920646f6573206e6f742065786973740000000000000000000000\n        /* \"#utility.yul\":36127:36128   */\n      0x00\n        /* \"#utility.yul\":36119:36125   */\n      dup3\n        /* \"#utility.yul\":36115:36129   */\n      add\n        /* \"#utility.yul\":36108:36155   */\n      mstore\n        /* \"#utility.yul\":35991:36162   */\n      pop\n      jump\t// out\n        /* \"#utility.yul\":36168:36534   */\n    tag_455:\n        /* \"#utility.yul\":36310:36313   */\n      0x00\n        /* \"#utility.yul\":36331:36398   */\n      tag_820\n        /* \"#utility.yul\":36395:36397   */\n      0x15\n        /* \"#utility.yul\":36390:36393   */\n      dup4\n        /* \"#utility.yul\":36331:36398   */\n      tag_370\n      jump\t// in\n    tag_820:\n        /* \"#utility.yul\":36324:36398   */\n      swap2\n      pop\n        /* \"#utility.yul\":36407:36500   */\n      tag_821\n        /* \"#utility.yul\":36496:36499   */\n      dup3\n        /* \"#utility.yul\":36407:36500   */\n      tag_454\n      jump\t// in\n    tag_821:\n        /* \"#utility.yul\":36525:36527   */\n      0x20\n        /* \"#utility.yul\":36520:36523   */\n      dup3\n        /* \"#utility.yul\":36516:36528   */\n      add\n        /* \"#utility.yul\":36509:36528   */\n      swap1\n      pop\n        /* \"#utility.yul\":36168:36534   */\n      swap2\n      swap1\n      pop\n      jump\t// out\n        /* \"#utility.yul\":36540:36959   */\n    tag_227:\n        /* \"#utility.yul\":36706:36710   */\n      0x00\n        /* \"#utility.yul\":36744:36746   */\n      0x20\n        /* \"#utility.yul\":36733:36742   */\n      dup3\n        /* \"#utility.yul\":36729:36747   */\n      add\n        /* \"#utility.yul\":36721:36747   */\n      swap1\n      pop\n        /* \"#utility.yul\":36793:36802   */\n      dup2\n        /* \"#utility.yul\":36787:36791   */\n      dup2\n        /* \"#utility.yul\":36783:36803   */\n      sub\n        /* \"#utility.yul\":36779:36780   */\n      0x00\n        /* \"#utility.yul\":36768:36777   */\n      dup4\n        /* \"#utility.yul\":36764:36781   */\n      add\n        /* \"#utility.yul\":36757:36804   */\n      mstore\n        /* \"#utility.yul\":36821:36952   */\n      tag_823\n        /* \"#utility.yul\":36947:36951   */\n      dup2\n        /* \"#utility.yul\":36821:36952   */\n      tag_455\n      jump\t// in\n    tag_823:\n        /* \"#utility.yul\":36813:36952   */\n      swap1\n      pop\n        /* \"#utility.yul\":36540:36959   */\n      swap2\n      swap1\n      pop\n      jump\t// out\n        /* \"#utility.yul\":36965:37199   */\n    tag_456:\n        /* \"#utility.yul\":37105:37139   */\n      0x4552433732314d657461646174613a2055524920717565727920666f72206e6f\n        /* \"#utility.yul\":37101:37102   */\n      0x00\n        /* \"#utility.yul\":37093:37099   */\n      dup3\n        /* \"#utility.yul\":37089:37103   */\n      add\n        /* \"#utility.yul\":37082:37140   */\n      mstore\n        /* \"#utility.yul\":37174:37191   */\n      0x6e6578697374656e7420746f6b656e0000000000000000000000000000000000\n        /* \"#utility.yul\":37169:37171   */\n      0x20\n        /* \"#utility.yul\":37161:37167   */\n      dup3\n        /* \"#utility.yul\":37157:37172   */\n      add\n        /* \"#utility.yul\":37150:37192   */\n      mstore\n        /* \"#utility.yul\":36965:37199   */\n      pop\n      jump\t// out\n        /* \"#utility.yul\":37205:37571   */\n    tag_457:\n        /* \"#utility.yul\":37347:37350   */\n      0x00\n        /* \"#utility.yul\":37368:37435   */\n      tag_826\n        /* \"#utility.yul\":37432:37434   */\n      0x2f\n        /* \"#utility.yul\":37427:37430   */\n      dup4\n        /* \"#utility.yul\":37368:37435   */\n      tag_370\n      jump\t// in\n    tag_826:\n        /* \"#utility.yul\":37361:37435   */\n      swap2\n      pop\n        /* \"#utility.yul\":37444:37537   */\n      tag_827\n        /* \"#utility.yul\":37533:37536   */\n      dup3\n        /* \"#utility.yul\":37444:37537   */\n      tag_456\n      jump\t// in\n    tag_827:\n        /* \"#utility.yul\":37562:37564   */\n      0x40\n        /* \"#utility.yul\":37557:37560   */\n      dup3\n        /* \"#utility.yul\":37553:37565   */\n      add\n        /* \"#utility.yul\":37546:37565   */\n      swap1\n      pop\n        /* \"#utility.yul\":37205:37571   */\n      swap2\n      swap1\n      pop\n      jump\t// out\n        /* \"#utility.yul\":37577:37996   */\n    tag_251:\n        /* \"#utility.yul\":37743:37747   */\n      0x00\n        /* \"#utility.yul\":37781:37783   */\n      0x20\n        /* \"#utility.yul\":37770:37779   */\n      dup3\n        /* \"#utility.yul\":37766:37784   */\n      add\n        /* \"#utility.yul\":37758:37784   */\n      swap1\n      pop\n        /* \"#utility.yul\":37830:37839   */\n      dup2\n        /* \"#utility.yul\":37824:37828   */\n      dup2\n        /* \"#utility.yul\":37820:37840   */\n      sub\n        /* \"#utility.yul\":37816:37817   */\n      0x00\n        /* \"#utility.yul\":37805:37814   */\n      dup4\n        /* \"#utility.yul\":37801:37818   */\n      add\n        /* \"#utility.yul\":37794:37841   */\n      mstore\n        /* \"#utility.yul\":37858:37989   */\n      tag_829\n        /* \"#utility.yul\":37984:37988   */\n      dup2\n        /* \"#utility.yul\":37858:37989   */\n      tag_457\n      jump\t// in\n    tag_829:\n        /* \"#utility.yul\":37850:37989   */\n      swap1\n      pop\n        /* \"#utility.yul\":37577:37996   */\n      swap2\n      swap1\n      pop\n      jump\t// out\n        /* \"#utility.yul\":38002:38150   */\n    tag_458:\n        /* \"#utility.yul\":38104:38115   */\n      0x00\n        /* \"#utility.yul\":38141:38144   */\n      dup2\n        /* \"#utility.yul\":38126:38144   */\n      swap1\n      pop\n        /* \"#utility.yul\":38002:38150   */\n      swap3\n      swap2\n      pop\n      pop\n      jump\t// out\n        /* \"#utility.yul\":38156:38546   */\n    tag_459:\n        /* \"#utility.yul\":38262:38265   */\n      0x00\n        /* \"#utility.yul\":38290:38329   */\n      tag_832\n        /* \"#utility.yul\":38323:38328   */\n      dup3\n        /* \"#utility.yul\":38290:38329   */\n      tag_369\n      jump\t// in\n    tag_832:\n        /* \"#utility.yul\":38345:38434   */\n      tag_833\n        /* \"#utility.yul\":38427:38433   */\n      dup2\n        /* \"#utility.yul\":38422:38425   */\n      dup6\n        /* \"#utility.yul\":38345:38434   */\n      tag_458\n      jump\t// in\n    tag_833:\n        /* \"#utility.yul\":38338:38434   */\n      swap4\n      pop\n        /* \"#utility.yul\":38443:38508   */\n      tag_834\n        /* \"#utility.yul\":38501:38507   */\n      dup2\n        /* \"#utility.yul\":38496:38499   */\n      dup6\n        /* \"#utility.yul\":38489:38493   */\n      0x20\n        /* \"#utility.yul\":38482:38487   */\n      dup7\n        /* \"#utility.yul\":38478:38494   */\n      add\n        /* \"#utility.yul\":38443:38508   */\n      tag_371\n      jump\t// in\n    tag_834:\n        /* \"#utility.yul\":38533:38539   */\n      dup1\n        /* \"#utility.yul\":38528:38531   */\n      dup5\n        /* \"#utility.yul\":38524:38540   */\n      add\n        /* \"#utility.yul\":38517:38540   */\n      swap2\n      pop\n        /* \"#utility.yul\":38266:38546   */\n      pop\n        /* \"#utility.yul\":38156:38546   */\n      swap3\n      swap2\n      pop\n      pop\n      jump\t// out\n        /* \"#utility.yul\":38552:38707   */\n    tag_460:\n        /* \"#utility.yul\":38692:38699   */\n      0x2e6a736f6e000000000000000000000000000000000000000000000000000000\n        /* \"#utility.yul\":38688:38689   */\n      0x00\n        /* \"#utility.yul\":38680:38686   */\n      dup3\n        /* \"#utility.yul\":38676:38690   */\n      add\n        /* \"#utility.yul\":38669:38700   */\n      mstore\n        /* \"#utility.yul\":38552:38707   */\n      pop\n      jump\t// out\n        /* \"#utility.yul\":38713:39113   */\n    tag_461:\n        /* \"#utility.yul\":38873:38876   */\n      0x00\n        /* \"#utility.yul\":38894:38978   */\n      tag_837\n        /* \"#utility.yul\":38976:38977   */\n      0x05\n        /* \"#utility.yul\":38971:38974   */\n      dup4\n        /* \"#utility.yul\":38894:38978   */\n      tag_458\n      jump\t// in\n    tag_837:\n        /* \"#utility.yul\":38887:38978   */\n      swap2\n      pop\n        /* \"#utility.yul\":38987:39080   */\n      tag_838\n        /* \"#utility.yul\":39076:39079   */\n      dup3\n        /* \"#utility.yul\":38987:39080   */\n      tag_460\n      jump\t// in\n    tag_838:\n        /* \"#utility.yul\":39105:39106   */\n      0x05\n        /* \"#utility.yul\":39100:39103   */\n      dup3\n        /* \"#utility.yul\":39096:39107   */\n      add\n        /* \"#utility.yul\":39089:39107   */\n      swap1\n      pop\n        /* \"#utility.yul\":38713:39113   */\n      swap2\n      swap1\n      pop\n      jump\t// out\n        /* \"#utility.yul\":39119:39820   */\n    tag_259:\n        /* \"#utility.yul\":39400:39403   */\n      0x00\n        /* \"#utility.yul\":39422:39517   */\n      tag_840\n        /* \"#utility.yul\":39513:39516   */\n      dup3\n        /* \"#utility.yul\":39504:39510   */\n      dup6\n        /* \"#utility.yul\":39422:39517   */\n      tag_459\n      jump\t// in\n    tag_840:\n        /* \"#utility.yul\":39415:39517   */\n      swap2\n      pop\n        /* \"#utility.yul\":39534:39629   */\n      tag_841\n        /* \"#utility.yul\":39625:39628   */\n      dup3\n        /* \"#utility.yul\":39616:39622   */\n      dup5\n        /* \"#utility.yul\":39534:39629   */\n      tag_459\n      jump\t// in\n    tag_841:\n        /* \"#utility.yul\":39527:39629   */\n      swap2\n      pop\n        /* \"#utility.yul\":39646:39794   */\n      tag_842\n        /* \"#utility.yul\":39790:39793   */\n      dup3\n        /* \"#utility.yul\":39646:39794   */\n      tag_461\n      jump\t// in\n    tag_842:\n        /* \"#utility.yul\":39639:39794   */\n      swap2\n      pop\n        /* \"#utility.yul\":39811:39814   */\n      dup2\n        /* \"#utility.yul\":39804:39814   */\n      swap1\n      pop\n        /* \"#utility.yul\":39119:39820   */\n      swap4\n      swap3\n      pop\n      pop\n      pop\n      jump\t// out\n        /* \"#utility.yul\":39826:39997   */\n    tag_462:\n        /* \"#utility.yul\":39966:39989   */\n      0x496e76616c696420676163686120616464726573730000000000000000000000\n        /* \"#utility.yul\":39962:39963   */\n      0x00\n        /* \"#utility.yul\":39954:39960   */\n      dup3\n        /* \"#utility.yul\":39950:39964   */\n      add\n        /* \"#utility.yul\":39943:39990   */\n      mstore\n        /* \"#utility.yul\":39826:39997   */\n      pop\n      jump\t// out\n        /* \"#utility.yul\":40003:40369   */\n    tag_463:\n        /* \"#utility.yul\":40145:40148   */\n      0x00\n        /* \"#utility.yul\":40166:40233   */\n      tag_845\n        /* \"#utility.yul\":40230:40232   */\n      0x15\n        /* \"#utility.yul\":40225:40228   */\n      dup4\n        /* \"#utility.yul\":40166:40233   */\n      tag_370\n      jump\t// in\n    tag_845:\n        /* \"#utility.yul\":40159:40233   */\n      swap2\n      pop\n        /* \"#utility.yul\":40242:40335   */\n      tag_846\n        /* \"#utility.yul\":40331:40334   */\n      dup3\n        /* \"#utility.yul\":40242:40335   */\n      tag_462\n      jump\t// in\n    tag_846:\n        /* \"#utility.yul\":40360:40362   */\n      0x20\n        /* \"#utility.yul\":40355:40358   */\n      dup3\n        /* \"#utility.yul\":40351:40363   */\n      add\n        /* \"#utility.yul\":40344:40363   */\n      swap1\n      pop\n        /* \"#utility.yul\":40003:40369   */\n      swap2\n      swap1\n      pop\n      jump\t// out\n        /* \"#utility.yul\":40375:40794   */\n    tag_267:\n        /* \"#utility.yul\":40541:40545   */\n      0x00\n        /* \"#utility.yul\":40579:40581   */\n      0x20\n        /* \"#utility.yul\":40568:40577   */\n      dup3\n        /* \"#utility.yul\":40564:40582   */\n      add\n        /* \"#utility.yul\":40556:40582   */\n      swap1\n      pop\n        /* \"#utility.yul\":40628:40637   */\n      dup2\n        /* \"#utility.yul\":40622:40626   */\n      dup2\n        /* \"#utility.yul\":40618:40638   */\n      sub\n        /* \"#utility.yul\":40614:40615   */\n      0x00\n        /* \"#utility.yul\":40603:40612   */\n      dup4\n        /* \"#utility.yul\":40599:40616   */\n      add\n        /* \"#utility.yul\":40592:40639   */\n      mstore\n        /* \"#utility.yul\":40656:40787   */\n      tag_848\n        /* \"#utility.yul\":40782:40786   */\n      dup2\n        /* \"#utility.yul\":40656:40787   */\n      tag_463\n      jump\t// in\n    tag_848:\n        /* \"#utility.yul\":40648:40787   */\n      swap1\n      pop\n        /* \"#utility.yul\":40375:40794   */\n      swap2\n      swap1\n      pop\n      jump\t// out\n        /* \"#utility.yul\":40800:40979   */\n    tag_464:\n        /* \"#utility.yul\":40940:40971   */\n      0x455243203732313a206d696e7420746f207a65726f2061646472657373000000\n        /* \"#utility.yul\":40936:40937   */\n      0x00\n        /* \"#utility.yul\":40928:40934   */\n      dup3\n        /* \"#utility.yul\":40924:40938   */\n      add\n        /* \"#utility.yul\":40917:40972   */\n      mstore\n        /* \"#utility.yul\":40800:40979   */\n      pop\n      jump\t// out\n        /* \"#utility.yul\":40985:41351   */\n    tag_465:\n        /* \"#utility.yul\":41127:41130   */\n      0x00\n        /* \"#utility.yul\":41148:41215   */\n      tag_851\n        /* \"#utility.yul\":41212:41214   */\n      0x1d\n        /* \"#utility.yul\":41207:41210   */\n      dup4\n        /* \"#utility.yul\":41148:41215   */\n      tag_370\n      jump\t// in\n    tag_851:\n        /* \"#utility.yul\":41141:41215   */\n      swap2\n      pop\n        /* \"#utility.yul\":41224:41317   */\n      tag_852\n        /* \"#utility.yul\":41313:41316   */\n      dup3\n        /* \"#utility.yul\":41224:41317   */\n      tag_464\n      jump\t// in\n    tag_852:\n        /* \"#utility.yul\":41342:41344   */\n      0x20\n        /* \"#utility.yul\":41337:41340   */\n      dup3\n        /* \"#utility.yul\":41333:41345   */\n      add\n        /* \"#utility.yul\":41326:41345   */\n      swap1\n      pop\n        /* \"#utility.yul\":40985:41351   */\n      swap2\n      swap1\n      pop\n      jump\t// out\n        /* \"#utility.yul\":41357:41776   */\n    tag_273:\n        /* \"#utility.yul\":41523:41527   */\n      0x00\n        /* \"#utility.yul\":41561:41563   */\n      0x20\n        /* \"#utility.yul\":41550:41559   */\n      dup3\n        /* \"#utility.yul\":41546:41564   */\n      add\n        /* \"#utility.yul\":41538:41564   */\n      swap1\n      pop\n        /* \"#utility.yul\":41610:41619   */\n      dup2\n        /* \"#utility.yul\":41604:41608   */\n      dup2\n        /* \"#utility.yul\":41600:41620   */\n      sub\n        /* \"#utility.yul\":41596:41597   */\n      0x00\n        /* \"#utility.yul\":41585:41594   */\n      dup4\n        /* \"#utility.yul\":41581:41598   */\n      add\n        /* \"#utility.yul\":41574:41621   */\n      mstore\n        /* \"#utility.yul\":41638:41769   */\n      tag_854\n        /* \"#utility.yul\":41764:41768   */\n      dup2\n        /* \"#utility.yul\":41638:41769   */\n      tag_465\n      jump\t// in\n    tag_854:\n        /* \"#utility.yul\":41630:41769   */\n      swap1\n      pop\n        /* \"#utility.yul\":41357:41776   */\n      swap2\n      swap1\n      pop\n      jump\t// out\n        /* \"#utility.yul\":41782:41960   */\n    tag_466:\n        /* \"#utility.yul\":41922:41952   */\n      0x4552433732313a20746f6b656e20616c7265616479206d696e74656400000000\n        /* \"#utility.yul\":41918:41919   */\n      0x00\n        /* \"#utility.yul\":41910:41916   */\n      dup3\n        /* \"#utility.yul\":41906:41920   */\n      add\n        /* \"#utility.yul\":41899:41953   */\n      mstore\n        /* \"#utility.yul\":41782:41960   */\n      pop\n      jump\t// out\n        /* \"#utility.yul\":41966:42332   */\n    tag_467:\n        /* \"#utility.yul\":42108:42111   */\n      0x00\n        /* \"#utility.yul\":42129:42196   */\n      tag_857\n        /* \"#utility.yul\":42193:42195   */\n      0x1c\n        /* \"#utility.yul\":42188:42191   */\n      dup4\n        /* \"#utility.yul\":42129:42196   */\n      tag_370\n      jump\t// in\n    tag_857:\n        /* \"#utility.yul\":42122:42196   */\n      swap2\n      pop\n        /* \"#utility.yul\":42205:42298   */\n      tag_858\n        /* \"#utility.yul\":42294:42297   */\n      dup3\n        /* \"#utility.yul\":42205:42298   */\n      tag_466\n      jump\t// in\n    tag_858:\n        /* \"#utility.yul\":42323:42325   */\n      0x20\n        /* \"#utility.yul\":42318:42321   */\n      dup3\n        /* \"#utility.yul\":42314:42326   */\n      add\n        /* \"#utility.yul\":42307:42326   */\n      swap1\n      pop\n        /* \"#utility.yul\":41966:42332   */\n      swap2\n      swap1\n      pop\n      jump\t// out\n        /* \"#utility.yul\":42338:42757   */\n    tag_277:\n        /* \"#utility.yul\":42504:42508   */\n      0x00\n        /* \"#utility.yul\":42542:42544   */\n      0x20\n        /* \"#utility.yul\":42531:42540   */\n      dup3\n        /* \"#utility.yul\":42527:42545   */\n      add\n        /* \"#utility.yul\":42519:42545   */\n      swap1\n      pop\n        /* \"#utility.yul\":42591:42600   */\n      dup2\n        /* \"#utility.yul\":42585:42589   */\n      dup2\n        /* \"#utility.yul\":42581:42601   */\n      sub\n        /* \"#utility.yul\":42577:42578   */\n      0x00\n        /* \"#utility.yul\":42566:42575   */\n      dup4\n        /* \"#utility.yul\":42562:42579   */\n      add\n        /* \"#utility.yul\":42555:42602   */\n      mstore\n        /* \"#utility.yul\":42619:42750   */\n      tag_860\n        /* \"#utility.yul\":42745:42749   */\n      dup2\n        /* \"#utility.yul\":42619:42750   */\n      tag_467\n      jump\t// in\n    tag_860:\n        /* \"#utility.yul\":42611:42750   */\n      swap1\n      pop\n        /* \"#utility.yul\":42338:42757   */\n      swap2\n      swap1\n      pop\n      jump\t// out\n        /* \"#utility.yul\":42763:42954   */\n    tag_281:\n        /* \"#utility.yul\":42803:42806   */\n      0x00\n        /* \"#utility.yul\":42822:42842   */\n      tag_862\n        /* \"#utility.yul\":42840:42841   */\n      dup3\n        /* \"#utility.yul\":42822:42842   */\n      tag_374\n      jump\t// in\n    tag_862:\n        /* \"#utility.yul\":42817:42842   */\n      swap2\n      pop\n        /* \"#utility.yul\":42856:42876   */\n      tag_863\n        /* \"#utility.yul\":42874:42875   */\n      dup4\n        /* \"#utility.yul\":42856:42876   */\n      tag_374\n      jump\t// in\n    tag_863:\n        /* \"#utility.yul\":42851:42876   */\n      swap3\n      pop\n        /* \"#utility.yul\":42899:42900   */\n      dup3\n        /* \"#utility.yul\":42896:42897   */\n      dup3\n        /* \"#utility.yul\":42892:42901   */\n      add\n        /* \"#utility.yul\":42885:42901   */\n      swap1\n      pop\n        /* \"#utility.yul\":42920:42923   */\n      dup1\n        /* \"#utility.yul\":42917:42918   */\n      dup3\n        /* \"#utility.yul\":42914:42924   */\n      gt\n        /* \"#utility.yul\":42911:42947   */\n      iszero\n      tag_864\n      jumpi\n        /* \"#utility.yul\":42927:42945   */\n      tag_865\n      tag_439\n      jump\t// in\n    tag_865:\n        /* \"#utility.yul\":42911:42947   */\n    tag_864:\n        /* \"#utility.yul\":42763:42954   */\n      swap3\n      swap2\n      pop\n      pop\n      jump\t// out\n        /* \"#utility.yul\":42960:43184   */\n    tag_468:\n        /* \"#utility.yul\":43100:43134   */\n      0x4552433732313a207472616e736665722066726f6d20696e636f727265637420\n        /* \"#utility.yul\":43096:43097   */\n      0x00\n        /* \"#utility.yul\":43088:43094   */\n      dup3\n        /* \"#utility.yul\":43084:43098   */\n      add\n        /* \"#utility.yul\":43077:43135   */\n      mstore\n        /* \"#utility.yul\":43169:43176   */\n      0x6f776e6572000000000000000000000000000000000000000000000000000000\n        /* \"#utility.yul\":43164:43166   */\n      0x20\n        /* \"#utility.yul\":43156:43162   */\n      dup3\n        /* \"#utility.yul\":43152:43167   */\n      add\n        /* \"#utility.yul\":43145:43177   */\n      mstore\n        /* \"#utility.yul\":42960:43184   */\n      pop\n      jump\t// out\n        /* \"#utility.yul\":43190:43556   */\n    tag_469:\n        /* \"#utility.yul\":43332:43335   */\n      0x00\n        /* \"#utility.yul\":43353:43420   */\n      tag_868\n        /* \"#utility.yul\":43417:43419   */\n      0x25\n        /* \"#utility.yul\":43412:43415   */\n      dup4\n        /* \"#utility.yul\":43353:43420   */\n      tag_370\n      jump\t// in\n    tag_868:\n        /* \"#utility.yul\":43346:43420   */\n      swap2\n      pop\n        /* \"#utility.yul\":43429:43522   */\n      tag_869\n        /* \"#utility.yul\":43518:43521   */\n      dup3\n        /* \"#utility.yul\":43429:43522   */\n      tag_468\n      jump\t// in\n    tag_869:\n        /* \"#utility.yul\":43547:43549   */\n      0x40\n        /* \"#utility.yul\":43542:43545   */\n      dup3\n        /* \"#utility.yul\":43538:43550   */\n      add\n        /* \"#utility.yul\":43531:43550   */\n      swap1\n      pop\n        /* \"#utility.yul\":43190:43556   */\n      swap2\n      swap1\n      pop\n      jump\t// out\n        /* \"#utility.yul\":43562:43981   */\n    tag_294:\n        /* \"#utility.yul\":43728:43732   */\n      0x00\n        /* \"#utility.yul\":43766:43768   */\n      0x20\n        /* \"#utility.yul\":43755:43764   */\n      dup3\n        /* \"#utility.yul\":43751:43769   */\n      add\n        /* \"#utility.yul\":43743:43769   */\n      swap1\n      pop\n        /* \"#utility.yul\":43815:43824   */\n      dup2\n        /* \"#utility.yul\":43809:43813   */\n      dup2\n        /* \"#utility.yul\":43805:43825   */\n      sub\n        /* \"#utility.yul\":43801:43802   */\n      0x00\n        /* \"#utility.yul\":43790:43799   */\n      dup4\n        /* \"#utility.yul\":43786:43803   */\n      add\n        /* \"#utility.yul\":43779:43826   */\n      mstore\n        /* \"#utility.yul\":43843:43974   */\n      tag_871\n        /* \"#utility.yul\":43969:43973   */\n      dup2\n        /* \"#utility.yul\":43843:43974   */\n      tag_469\n      jump\t// in\n    tag_871:\n        /* \"#utility.yul\":43835:43974   */\n      swap1\n      pop\n        /* \"#utility.yul\":43562:43981   */\n      swap2\n      swap1\n      pop\n      jump\t// out\n        /* \"#utility.yul\":43987:44210   */\n    tag_470:\n        /* \"#utility.yul\":44127:44161   */\n      0x4552433732313a207472616e7366657220746f20746865207a65726f20616464\n        /* \"#utility.yul\":44123:44124   */\n      0x00\n        /* \"#utility.yul\":44115:44121   */\n      dup3\n        /* \"#utility.yul\":44111:44125   */\n      add\n        /* \"#utility.yul\":44104:44162   */\n      mstore\n        /* \"#utility.yul\":44196:44202   */\n      0x7265737300000000000000000000000000000000000000000000000000000000\n        /* \"#utility.yul\":44191:44193   */\n      0x20\n        /* \"#utility.yul\":44183:44189   */\n      dup3\n        /* \"#utility.yul\":44179:44194   */\n      add\n        /* \"#utility.yul\":44172:44203   */\n      mstore\n        /* \"#utility.yul\":43987:44210   */\n      pop\n      jump\t// out\n        /* \"#utility.yul\":44216:44582   */\n    tag_471:\n        /* \"#utility.yul\":44358:44361   */\n      0x00\n        /* \"#utility.yul\":44379:44446   */\n      tag_874\n        /* \"#utility.yul\":44443:44445   */\n      0x24\n        /* \"#utility.yul\":44438:44441   */\n      dup4\n        /* \"#utility.yul\":44379:44446   */\n      tag_370\n      jump\t// in\n    tag_874:\n        /* \"#utility.yul\":44372:44446   */\n      swap2\n      pop\n        /* \"#utility.yul\":44455:44548   */\n      tag_875\n        /* \"#utility.yul\":44544:44547   */\n      dup3\n        /* \"#utility.yul\":44455:44548   */\n      tag_470\n      jump\t// in\n    tag_875:\n        /* \"#utility.yul\":44573:44575   */\n      0x40\n        /* \"#utility.yul\":44568:44571   */\n      dup3\n        /* \"#utility.yul\":44564:44576   */\n      add\n        /* \"#utility.yul\":44557:44576   */\n      swap1\n      pop\n        /* \"#utility.yul\":44216:44582   */\n      swap2\n      swap1\n      pop\n      jump\t// out\n        /* \"#utility.yul\":44588:45007   */\n    tag_297:\n        /* \"#utility.yul\":44754:44758   */\n      0x00\n        /* \"#utility.yul\":44792:44794   */\n      0x20\n        /* \"#utility.yul\":44781:44790   */\n      dup3\n        /* \"#utility.yul\":44777:44795   */\n      add\n        /* \"#utility.yul\":44769:44795   */\n      swap1\n      pop\n        /* \"#utility.yul\":44841:44850   */\n      dup2\n        /* \"#utility.yul\":44835:44839   */\n      dup2\n        /* \"#utility.yul\":44831:44851   */\n      sub\n        /* \"#utility.yul\":44827:44828   */\n      0x00\n        /* \"#utility.yul\":44816:44825   */\n      dup4\n        /* \"#utility.yul\":44812:44829   */\n      add\n        /* \"#utility.yul\":44805:44852   */\n      mstore\n        /* \"#utility.yul\":44869:45000   */\n      tag_877\n        /* \"#utility.yul\":44995:44999   */\n      dup2\n        /* \"#utility.yul\":44869:45000   */\n      tag_471\n      jump\t// in\n    tag_877:\n        /* \"#utility.yul\":44861:45000   */\n      swap1\n      pop\n        /* \"#utility.yul\":44588:45007   */\n      swap2\n      swap1\n      pop\n      jump\t// out\n        /* \"#utility.yul\":45013:45207   */\n    tag_300:\n        /* \"#utility.yul\":45053:45057   */\n      0x00\n        /* \"#utility.yul\":45073:45093   */\n      tag_879\n        /* \"#utility.yul\":45091:45092   */\n      dup3\n        /* \"#utility.yul\":45073:45093   */\n      tag_374\n      jump\t// in\n    tag_879:\n        /* \"#utility.yul\":45068:45093   */\n      swap2\n      pop\n        /* \"#utility.yul\":45107:45127   */\n      tag_880\n        /* \"#utility.yul\":45125:45126   */\n      dup4\n        /* \"#utility.yul\":45107:45127   */\n      tag_374\n      jump\t// in\n    tag_880:\n        /* \"#utility.yul\":45102:45127   */\n      swap3\n      pop\n        /* \"#utility.yul\":45151:45152   */\n      dup3\n        /* \"#utility.yul\":45148:45149   */\n      dup3\n        /* \"#utility.yul\":45144:45153   */\n      sub\n        /* \"#utility.yul\":45136:45153   */\n      swap1\n      pop\n        /* \"#utility.yul\":45175:45176   */\n      dup2\n        /* \"#utility.yul\":45169:45173   */\n      dup2\n        /* \"#utility.yul\":45166:45177   */\n      gt\n        /* \"#utility.yul\":45163:45200   */\n      iszero\n      tag_881\n      jumpi\n        /* \"#utility.yul\":45180:45198   */\n      tag_882\n      tag_439\n      jump\t// in\n    tag_882:\n        /* \"#utility.yul\":45163:45200   */\n    tag_881:\n        /* \"#utility.yul\":45013:45207   */\n      swap3\n      swap2\n      pop\n      pop\n      jump\t// out\n        /* \"#utility.yul\":45213:45450   */\n    tag_472:\n        /* \"#utility.yul\":45353:45387   */\n      0x4552433732313a207472616e7366657220746f206e6f6e204552433732315265\n        /* \"#utility.yul\":45349:45350   */\n      0x00\n        /* \"#utility.yul\":45341:45347   */\n      dup3\n        /* \"#utility.yul\":45337:45351   */\n      add\n        /* \"#utility.yul\":45330:45388   */\n      mstore\n        /* \"#utility.yul\":45422:45442   */\n      0x63656976657220696d706c656d656e7465720000000000000000000000000000\n        /* \"#utility.yul\":45417:45419   */\n      0x20\n        /* \"#utility.yul\":45409:45415   */\n      dup3\n        /* \"#utility.yul\":45405:45420   */\n      add\n        /* \"#utility.yul\":45398:45443   */\n      mstore\n        /* \"#utility.yul\":45213:45450   */\n      pop\n      jump\t// out\n        /* \"#utility.yul\":45456:45822   */\n    tag_473:\n        /* \"#utility.yul\":45598:45601   */\n      0x00\n        /* \"#utility.yul\":45619:45686   */\n      tag_885\n        /* \"#utility.yul\":45683:45685   */\n      0x32\n        /* \"#utility.yul\":45678:45681   */\n      dup4\n        /* \"#utility.yul\":45619:45686   */\n      tag_370\n      jump\t// in\n    tag_885:\n        /* \"#utility.yul\":45612:45686   */\n      swap2\n      pop\n        /* \"#utility.yul\":45695:45788   */\n      tag_886\n        /* \"#utility.yul\":45784:45787   */\n      dup3\n        /* \"#utility.yul\":45695:45788   */\n      tag_472\n      jump\t// in\n    tag_886:\n        /* \"#utility.yul\":45813:45815   */\n      0x40\n        /* \"#utility.yul\":45808:45811   */\n      dup3\n        /* \"#utility.yul\":45804:45816   */\n      add\n        /* \"#utility.yul\":45797:45816   */\n      swap1\n      pop\n        /* \"#utility.yul\":45456:45822   */\n      swap2\n      swap1\n      pop\n      jump\t// out\n        /* \"#utility.yul\":45828:46247   */\n    tag_309:\n        /* \"#utility.yul\":45994:45998   */\n      0x00\n        /* \"#utility.yul\":46032:46034   */\n      0x20\n        /* \"#utility.yul\":46021:46030   */\n      dup3\n        /* \"#utility.yul\":46017:46035   */\n      add\n        /* \"#utility.yul\":46009:46035   */\n      swap1\n      pop\n        /* \"#utility.yul\":46081:46090   */\n      dup2\n        /* \"#utility.yul\":46075:46079   */\n      dup2\n        /* \"#utility.yul\":46071:46091   */\n      sub\n        /* \"#utility.yul\":46067:46068   */\n      0x00\n        /* \"#utility.yul\":46056:46065   */\n      dup4\n        /* \"#utility.yul\":46052:46069   */\n      add\n        /* \"#utility.yul\":46045:46092   */\n      mstore\n        /* \"#utility.yul\":46109:46240   */\n      tag_888\n        /* \"#utility.yul\":46235:46239   */\n      dup2\n        /* \"#utility.yul\":46109:46240   */\n      tag_473\n      jump\t// in\n    tag_888:\n        /* \"#utility.yul\":46101:46240   */\n      swap1\n      pop\n        /* \"#utility.yul\":45828:46247   */\n      swap2\n      swap1\n      pop\n      jump\t// out\n        /* \"#utility.yul\":46253:46433   */\n    tag_474:\n        /* \"#utility.yul\":46301:46378   */\n      0x4e487b7100000000000000000000000000000000000000000000000000000000\n        /* \"#utility.yul\":46298:46299   */\n      0x00\n        /* \"#utility.yul\":46291:46379   */\n      mstore\n        /* \"#utility.yul\":46398:46402   */\n      0x12\n        /* \"#utility.yul\":46395:46396   */\n      0x04\n        /* \"#utility.yul\":46388:46403   */\n      mstore\n        /* \"#utility.yul\":46422:46426   */\n      0x24\n        /* \"#utility.yul\":46419:46420   */\n      0x00\n        /* \"#utility.yul\":46412:46427   */\n      revert\n        /* \"#utility.yul\":46439:46624   */\n    tag_322:\n        /* \"#utility.yul\":46479:46480   */\n      0x00\n        /* \"#utility.yul\":46496:46516   */\n      tag_891\n        /* \"#utility.yul\":46514:46515   */\n      dup3\n        /* \"#utility.yul\":46496:46516   */\n      tag_374\n      jump\t// in\n    tag_891:\n        /* \"#utility.yul\":46491:46516   */\n      swap2\n      pop\n        /* \"#utility.yul\":46530:46550   */\n      tag_892\n        /* \"#utility.yul\":46548:46549   */\n      dup4\n        /* \"#utility.yul\":46530:46550   */\n      tag_374\n      jump\t// in\n    tag_892:\n        /* \"#utility.yul\":46525:46550   */\n      swap3\n      pop\n        /* \"#utility.yul\":46569:46570   */\n      dup3\n        /* \"#utility.yul\":46559:46594   */\n      tag_893\n      jumpi\n        /* \"#utility.yul\":46574:46592   */\n      tag_894\n      tag_474\n      jump\t// in\n    tag_894:\n        /* \"#utility.yul\":46559:46594   */\n    tag_893:\n        /* \"#utility.yul\":46616:46617   */\n      dup3\n        /* \"#utility.yul\":46613:46614   */\n      dup3\n        /* \"#utility.yul\":46609:46618   */\n      div\n        /* \"#utility.yul\":46604:46618   */\n      swap1\n      pop\n        /* \"#utility.yul\":46439:46624   */\n      swap3\n      swap2\n      pop\n      pop\n      jump\t// out\n        /* \"#utility.yul\":46630:46806   */\n    tag_331:\n        /* \"#utility.yul\":46662:46663   */\n      0x00\n        /* \"#utility.yul\":46679:46699   */\n      tag_896\n        /* \"#utility.yul\":46697:46698   */\n      dup3\n        /* \"#utility.yul\":46679:46699   */\n      tag_374\n      jump\t// in\n    tag_896:\n        /* \"#utility.yul\":46674:46699   */\n      swap2\n      pop\n        /* \"#utility.yul\":46713:46733   */\n      tag_897\n        /* \"#utility.yul\":46731:46732   */\n      dup4\n        /* \"#utility.yul\":46713:46733   */\n      tag_374\n      jump\t// in\n    tag_897:\n        /* \"#utility.yul\":46708:46733   */\n      swap3\n      pop\n        /* \"#utility.yul\":46752:46753   */\n      dup3\n        /* \"#utility.yul\":46742:46777   */\n      tag_898\n      jumpi\n        /* \"#utility.yul\":46757:46775   */\n      tag_899\n      tag_474\n      jump\t// in\n    tag_899:\n        /* \"#utility.yul\":46742:46777   */\n    tag_898:\n        /* \"#utility.yul\":46798:46799   */\n      dup3\n        /* \"#utility.yul\":46795:46796   */\n      dup3\n        /* \"#utility.yul\":46791:46800   */\n      mod\n        /* \"#utility.yul\":46786:46800   */\n      swap1\n      pop\n        /* \"#utility.yul\":46630:46806   */\n      swap3\n      swap2\n      pop\n      pop\n      jump\t// out\n        /* \"#utility.yul\":46812:46992   */\n    tag_335:\n        /* \"#utility.yul\":46860:46937   */\n      0x4e487b7100000000000000000000000000000000000000000000000000000000\n        /* \"#utility.yul\":46857:46858   */\n      0x00\n        /* \"#utility.yul\":46850:46938   */\n      mstore\n        /* \"#utility.yul\":46957:46961   */\n      0x32\n        /* \"#utility.yul\":46954:46955   */\n      0x04\n        /* \"#utility.yul\":46947:46962   */\n      mstore\n        /* \"#utility.yul\":46981:46985   */\n      0x24\n        /* \"#utility.yul\":46978:46979   */\n      0x00\n        /* \"#utility.yul\":46971:46986   */\n      revert\n        /* \"#utility.yul\":46998:47096   */\n    tag_475:\n        /* \"#utility.yul\":47049:47055   */\n      0x00\n        /* \"#utility.yul\":47083:47088   */\n      dup2\n        /* \"#utility.yul\":47077:47089   */\n      mload\n        /* \"#utility.yul\":47067:47089   */\n      swap1\n      pop\n        /* \"#utility.yul\":46998:47096   */\n      swap2\n      swap1\n      pop\n      jump\t// out\n        /* \"#utility.yul\":47102:47270   */\n    tag_476:\n        /* \"#utility.yul\":47185:47196   */\n      0x00\n        /* \"#utility.yul\":47219:47225   */\n      dup3\n        /* \"#utility.yul\":47214:47217   */\n      dup3\n        /* \"#utility.yul\":47207:47226   */\n      mstore\n        /* \"#utility.yul\":47259:47263   */\n      0x20\n        /* \"#utility.yul\":47254:47257   */\n      dup3\n        /* \"#utility.yul\":47250:47264   */\n      add\n        /* \"#utility.yul\":47235:47264   */\n      swap1\n      pop\n        /* \"#utility.yul\":47102:47270   */\n      swap3\n      swap2\n      pop\n      pop\n      jump\t// out\n        /* \"#utility.yul\":47276:47649   */\n    tag_477:\n        /* \"#utility.yul\":47362:47365   */\n      0x00\n        /* \"#utility.yul\":47390:47428   */\n      tag_904\n        /* \"#utility.yul\":47422:47427   */\n      dup3\n        /* \"#utility.yul\":47390:47428   */\n      tag_475\n      jump\t// in\n    tag_904:\n        /* \"#utility.yul\":47444:47514   */\n      tag_905\n        /* \"#utility.yul\":47507:47513   */\n      dup2\n        /* \"#utility.yul\":47502:47505   */\n      dup6\n        /* \"#utility.yul\":47444:47514   */\n      tag_476\n      jump\t// in\n    tag_905:\n        /* \"#utility.yul\":47437:47514   */\n      swap4\n      pop\n        /* \"#utility.yul\":47523:47588   */\n      tag_906\n        /* \"#utility.yul\":47581:47587   */\n      dup2\n        /* \"#utility.yul\":47576:47579   */\n      dup6\n        /* \"#utility.yul\":47569:47573   */\n      0x20\n        /* \"#utility.yul\":47562:47567   */\n      dup7\n        /* \"#utility.yul\":47558:47574   */\n      add\n        /* \"#utility.yul\":47523:47588   */\n      tag_371\n      jump\t// in\n    tag_906:\n        /* \"#utility.yul\":47613:47642   */\n      tag_907\n        /* \"#utility.yul\":47635:47641   */\n      dup2\n        /* \"#utility.yul\":47613:47642   */\n      tag_372\n      jump\t// in\n    tag_907:\n        /* \"#utility.yul\":47608:47611   */\n      dup5\n        /* \"#utility.yul\":47604:47643   */\n      add\n        /* \"#utility.yul\":47597:47643   */\n      swap2\n      pop\n        /* \"#utility.yul\":47366:47649   */\n      pop\n        /* \"#utility.yul\":47276:47649   */\n      swap3\n      swap2\n      pop\n      pop\n      jump\t// out\n        /* \"#utility.yul\":47655:48295   */\n    tag_342:\n        /* \"#utility.yul\":47850:47854   */\n      0x00\n        /* \"#utility.yul\":47888:47891   */\n      0x80\n        /* \"#utility.yul\":47877:47886   */\n      dup3\n        /* \"#utility.yul\":47873:47892   */\n      add\n        /* \"#utility.yul\":47865:47892   */\n      swap1\n      pop\n        /* \"#utility.yul\":47902:47973   */\n      tag_909\n        /* \"#utility.yul\":47970:47971   */\n      0x00\n        /* \"#utility.yul\":47959:47968   */\n      dup4\n        /* \"#utility.yul\":47955:47972   */\n      add\n        /* \"#utility.yul\":47946:47952   */\n      dup8\n        /* \"#utility.yul\":47902:47973   */\n      tag_379\n      jump\t// in\n    tag_909:\n        /* \"#utility.yul\":47983:48055   */\n      tag_910\n        /* \"#utility.yul\":48051:48053   */\n      0x20\n        /* \"#utility.yul\":48040:48049   */\n      dup4\n        /* \"#utility.yul\":48036:48054   */\n      add\n        /* \"#utility.yul\":48027:48033   */\n      dup7\n        /* \"#utility.yul\":47983:48055   */\n      tag_379\n      jump\t// in\n    tag_910:\n        /* \"#utility.yul\":48065:48137   */\n      tag_911\n        /* \"#utility.yul\":48133:48135   */\n      0x40\n        /* \"#utility.yul\":48122:48131   */\n      dup4\n        /* \"#utility.yul\":48118:48136   */\n      add\n        /* \"#utility.yul\":48109:48115   */\n      dup6\n        /* \"#utility.yul\":48065:48137   */\n      tag_393\n      jump\t// in\n    tag_911:\n        /* \"#utility.yul\":48184:48193   */\n      dup2\n        /* \"#utility.yul\":48178:48182   */\n      dup2\n        /* \"#utility.yul\":48174:48194   */\n      sub\n        /* \"#utility.yul\":48169:48171   */\n      0x60\n        /* \"#utility.yul\":48158:48167   */\n      dup4\n        /* \"#utility.yul\":48154:48172   */\n      add\n        /* \"#utility.yul\":48147:48195   */\n      mstore\n        /* \"#utility.yul\":48212:48288   */\n      tag_912\n        /* \"#utility.yul\":48283:48287   */\n      dup2\n        /* \"#utility.yul\":48274:48280   */\n      dup5\n        /* \"#utility.yul\":48212:48288   */\n      tag_477\n      jump\t// in\n    tag_912:\n        /* \"#utility.yul\":48204:48288   */\n      swap1\n      pop\n        /* \"#utility.yul\":47655:48295   */\n      swap6\n      swap5\n      pop\n      pop\n      pop\n      pop\n      pop\n      jump\t// out\n        /* \"#utility.yul\":48301:48442   */\n    tag_478:\n        /* \"#utility.yul\":48357:48362   */\n      0x00\n        /* \"#utility.yul\":48388:48394   */\n      dup2\n        /* \"#utility.yul\":48382:48395   */\n      mload\n        /* \"#utility.yul\":48373:48395   */\n      swap1\n      pop\n        /* \"#utility.yul\":48404:48436   */\n      tag_914\n        /* \"#utility.yul\":48430:48435   */\n      dup2\n        /* \"#utility.yul\":48404:48436   */\n      tag_365\n      jump\t// in\n    tag_914:\n        /* \"#utility.yul\":48301:48442   */\n      swap3\n      swap2\n      pop\n      pop\n      jump\t// out\n        /* \"#utility.yul\":48448:48797   */\n    tag_345:\n        /* \"#utility.yul\":48517:48523   */\n      0x00\n        /* \"#utility.yul\":48566:48568   */\n      0x20\n        /* \"#utility.yul\":48554:48563   */\n      dup3\n        /* \"#utility.yul\":48545:48552   */\n      dup5\n        /* \"#utility.yul\":48541:48564   */\n      sub\n        /* \"#utility.yul\":48537:48569   */\n      slt\n        /* \"#utility.yul\":48534:48653   */\n      iszero\n      tag_916\n      jumpi\n        /* \"#utility.yul\":48572:48651   */\n      tag_917\n      tag_362\n      jump\t// in\n    tag_917:\n        /* \"#utility.yul\":48534:48653   */\n    tag_916:\n        /* \"#utility.yul\":48692:48693   */\n      0x00\n        /* \"#utility.yul\":48717:48780   */\n      tag_918\n        /* \"#utility.yul\":48772:48779   */\n      dup5\n        /* \"#utility.yul\":48763:48769   */\n      dup3\n        /* \"#utility.yul\":48752:48761   */\n      dup6\n        /* \"#utility.yul\":48748:48770   */\n      add\n        /* \"#utility.yul\":48717:48780   */\n      tag_478\n      jump\t// in\n    tag_918:\n        /* \"#utility.yul\":48707:48780   */\n      swap2\n      pop\n        /* \"#utility.yul\":48663:48790   */\n      pop\n        /* \"#utility.yul\":48448:48797   */\n      swap3\n      swap2\n      pop\n      pop\n      jump\t// out\n\n    auxdata: 0xa264697066735822122040b5fa5d7a9bad3fba2ffbeb333e6523a63107af7ad1fad568e9b8ed8745108964736f6c634300081a0033\n}\n",
				"bytecode": {
					"linkReferences": {},
					"object": "608060405234801561000f575f80fd5b50604051613f69380380613f698339818101604052810190610031919061048b565b6100607f01ffc9a70000000000000000000000000000000000000000000000000000000061021360201b60201c565b3360015f6101000a81548173ffffffffffffffffffffffffffffffffffffffff021916908373ffffffffffffffffffffffffffffffffffffffff1602179055506040518060400160405280600f81526020017f4d6f6e6b65792042726f74686572730000000000000000000000000000000000815250600290816100e491906106f2565b506040518060400160405280600781526020017f4d4f4e4b42524f000000000000000000000000000000000000000000000000008152506003908161012991906106f2565b50806004908161013991906106f2565b505f73ffffffffffffffffffffffffffffffffffffffff168273ffffffffffffffffffffffffffffffffffffffff16146101ae578160055f6101000a81548173ffffffffffffffffffffffffffffffffffffffff021916908373ffffffffffffffffffffffffffffffffffffffff1602179055505b6101dd7f80ac58cd0000000000000000000000000000000000000000000000000000000061021360201b60201c565b61020c7f5b5e139f0000000000000000000000000000000000000000000000000000000061021360201b60201c565b5050610839565b63ffffffff60e01b817bffffffffffffffffffffffffffffffffffffffffffffffffffffffff19160361027b576040517f08c379a00000000000000000000000000000000000000000000000000000000081526004016102729061081b565b60405180910390fd5b60015f80837bffffffffffffffffffffffffffffffffffffffffffffffffffffffff19167bffffffffffffffffffffffffffffffffffffffffffffffffffffffff191681526020019081526020015f205f6101000a81548160ff02191690831515021790555050565b5f604051905090565b5f80fd5b5f80fd5b5f73ffffffffffffffffffffffffffffffffffffffff82169050919050565b5f61031e826102f5565b9050919050565b61032e81610314565b8114610338575f80fd5b50565b5f8151905061034981610325565b92915050565b5f80fd5b5f80fd5b5f601f19601f8301169050919050565b7f4e487b71000000000000000000000000000000000000000000000000000000005f52604160045260245ffd5b61039d82610357565b810181811067ffffffffffffffff821117156103bc576103bb610367565b5b80604052505050565b5f6103ce6102e4565b90506103da8282610394565b919050565b5f67ffffffffffffffff8211156103f9576103f8610367565b5b61040282610357565b9050602081019050919050565b8281835e5f83830152505050565b5f61042f61042a846103df565b6103c5565b90508281526020810184848401111561044b5761044a610353565b5b61045684828561040f565b509392505050565b5f82601f8301126104725761047161034f565b5b815161048284826020860161041d565b91505092915050565b5f80604083850312156104a1576104a06102ed565b5b5f6104ae8582860161033b565b925050602083015167ffffffffffffffff8111156104cf576104ce6102f1565b5b6104db8582860161045e565b9150509250929050565b5f81519050919050565b7f4e487b71000000000000000000000000000000000000000000000000000000005f52602260045260245ffd5b5f600282049050600182168061053357607f821691505b602082108103610546576105456104ef565b5b50919050565b5f819050815f5260205f209050919050565b5f6020601f8301049050919050565b5f82821b905092915050565b5f600883026105a87fffffffffffffffffffffffffffffffffffffffffffffffffffffffffffffffff8261056d565b6105b2868361056d565b95508019841693508086168417925050509392505050565b5f819050919050565b5f819050919050565b5f6105f66105f16105ec846105ca565b6105d3565b6105ca565b9050919050565b5f819050919050565b61060f836105dc565b61062361061b826105fd565b848454610579565b825550505050565b5f90565b61063761062b565b610642818484610606565b505050565b5b818110156106655761065a5f8261062f565b600181019050610648565b5050565b601f8211156106aa5761067b8161054c565b6106848461055e565b81016020851015610693578190505b6106a761069f8561055e565b830182610647565b50505b505050565b5f82821c905092915050565b5f6106ca5f19846008026106af565b1980831691505092915050565b5f6106e283836106bb565b9150826002028217905092915050565b6106fb826104e5565b67ffffffffffffffff81111561071457610713610367565b5b61071e825461051c565b610729828285610669565b5f60209050601f83116001811461075a575f8415610748578287015190505b61075285826106d7565b8655506107b9565b601f1984166107688661054c565b5f5b8281101561078f5784890151825560018201915060208501945060208101905061076a565b868310156107ac57848901516107a8601f8916826106bb565b8355505b6001600288020188555050505b505050505050565b5f82825260208201905092915050565b7f4552433136353a20696e76616c696420696e74657266616365206964000000005f82015250565b5f610805601c836107c1565b9150610810826107d1565b602082019050919050565b5f6020820190508181035f830152610832816107f9565b9050919050565b613723806108465f395ff3fe608060405234801561000f575f80fd5b506004361061012a575f3560e01c80638da5cb5b116100ab578063b7510da81161006f578063b7510da814610340578063b88d4fde14610370578063c87b56dd1461038c578063d33b6521146103bc578063e985e9c5146103d85761012a565b80638da5cb5b146102ac5780638f32d59b146102ca57806395d89b41146102e85780639d304e8514610306578063a22cb465146103245761012a565b806323b872dd116100f257806323b872dd146101f857806342842e0e1461021457806355f804b3146102305780636352211e1461024c57806370a082311461027c5761012a565b806301ffc9a71461012e57806306fdde031461015e578063081812fc1461017c578063095ea7b3146101ac5780630d522f6e146101c8575b5f80fd5b61014860048036038101906101439190611e61565b610408565b6040516101559190611ea6565b60405180910390f35b61016661046b565b6040516101739190611f2f565b60405180910390f35b61019660048036038101906101919190611f82565b6104fb565b6040516101a39190611fec565b60405180910390f35b6101c660048036038101906101c1919061202f565b61057c565b005b6101e260048036038101906101dd91906121cf565b610724565b6040516101ef9190612283565b60405180910390f35b610212600480360381019061020d919061229c565b610a5c565b005b61022e6004803603810190610229919061229c565b610ab5565b005b61024a600480360381019061024591906122ec565b610ad4565b005b61026660048036038101906102619190611f82565b610c37565b6040516102739190611fec565b60405180910390f35b61029660048036038101906102919190612333565b610ce3565b6040516102a39190612283565b60405180910390f35b6102b4610d97565b6040516102c19190611fec565b60405180910390f35b6102d2610dbf565b6040516102df9190611ea6565b60405180910390f35b6102f0610e15565b6040516102fd9190611f2f565b60405180910390f35b61030e610ea5565b60405161031b9190611fec565b60405180910390f35b61033e60048036038101906103399190612388565b610eca565b005b61035a60048036038101906103559190611f82565b611030565b604051610367919061255c565b60405180910390f35b61038a6004803603810190610385919061261a565b6111c5565b005b6103a660048036038101906103a19190611f82565b611220565b6040516103b39190611f2f565b60405180910390f35b6103d660048036038101906103d19190612333565b6112c4565b005b6103f260048036038101906103ed919061269a565b611437565b6040516103ff9190611ea6565b60405180910390f35b5f805f837bffffffffffffffffffffffffffffffffffffffffffffffffffffffff19167bffffffffffffffffffffffffffffffffffffffffffffffffffffffff191681526020019081526020015f205f9054906101000a900460ff169050919050565b60606002805461047a90612705565b80601f01602080910402602001604051908101604052809291908181526020018280546104a690612705565b80156104f15780601f106104c8576101008083540402835291602001916104f1565b820191905f5260205f20905b8154815290600101906020018083116104d457829003601f168201915b5050505050905090565b5f610505826114c5565b610544576040517f08c379a000000000000000000000000000000000000000000000000000000000815260040161053b906127a5565b60405180910390fd5b60095f8381526020019081526020015f205f9054906101000a900473ffffffffffffffffffffffffffffffffffffffff169050919050565b5f61058682610c37565b90508073ffffffffffffffffffffffffffffffffffffffff168373ffffffffffffffffffffffffffffffffffffffff16036105f6576040517f08c379a00000000000000000000000000000000000000000000000000000000081526004016105ed90612833565b60405180910390fd5b8073ffffffffffffffffffffffffffffffffffffffff163373ffffffffffffffffffffffffffffffffffffffff16148061063657506106358133611437565b5b610675576040517f08c379a000000000000000000000000000000000000000000000000000000000815260040161066c906128c1565b60405180910390fd5b8260095f8481526020019081526020015f205f6101000a81548173ffffffffffffffffffffffffffffffffffffffff021916908373ffffffffffffffffffffffffffffffffffffffff160217905550818373ffffffffffffffffffffffffffffffffffffffff168273ffffffffffffffffffffffffffffffffffffffff167f8c5be1e5ebec7d5bd14f71427d1e84f3dd0314c0f7b2291e5b200ac8c7c3b92560405160405180910390a4505050565b5f60055f9054906101000a900473ffffffffffffffffffffffffffffffffffffffff1673ffffffffffffffffffffffffffffffffffffffff163373ffffffffffffffffffffffffffffffffffffffff161461077d575f80fd5b5f73ffffffffffffffffffffffffffffffffffffffff168773ffffffffffffffffffffffffffffffffffffffff16036107eb576040517f08c379a00000000000000000000000000000000000000000000000000000000081526004016107e290612929565b60405180910390fd5b6003808111156107fe576107fd61241d565b5b60ff168560ff161115610846576040517f08c379a000000000000000000000000000000000000000000000000000000000815260040161083d90612991565b60405180910390fd5b6002808111156108595761085861241d565b5b60ff168460ff1611156108a1576040517f08c379a0000000000000000000000000000000000000000000000000000000008152600401610898906129f9565b60405180910390fd5b5f60065490506108b1888261152d565b6040518060c001604052808281526020018881526020018760ff1660038111156108de576108dd61241d565b5b60038111156108f0576108ef61241d565b5b81526020018660ff16600281111561090b5761090a61241d565b5b600281111561091d5761091c61241d565b5b815260200185815260200184815250600b5f8381526020019081526020015f205f820151815f0155602082015181600101908161095a9190612bb4565b506040820151816002015f6101000a81548160ff021916908360038111156109855761098461241d565b5b021790555060608201518160020160016101000a81548160ff021916908360028111156109b5576109b461241d565b5b02179055506080820151816003015560a0820151816004015590505060065f8154809291906109e390612cb0565b9190505550807f6a8e7fd37da999fc1925f460fe0c050176f4c334d0455d03ab25beab51ed0264888860ff166003811115610a2157610a2061241d565b5b8860ff166002811115610a3757610a3661241d565b5b604051610a4693929190612d15565b60405180910390a2809150509695505050505050565b610a6633826116fc565b610aa5576040517f08c379a0000000000000000000000000000000000000000000000000000000008152600401610a9c90612dc1565b60405180910390fd5b610ab0838383611790565b505050565b610acf83838360405180602001604052805f8152506111c5565b505050565b610adc610dbf565b610b1b576040517f08c379a0000000000000000000000000000000000000000000000000000000008152600401610b1290612e4f565b60405180910390fd5b5f815111610b5e576040517f08c379a0000000000000000000000000000000000000000000000000000000008152600401610b5590612eb7565b60405180910390fd5b5f60048054610b6c90612705565b80601f0160208091040260200160405190810160405280929190818152602001828054610b9890612705565b8015610be35780601f10610bba57610100808354040283529160200191610be3565b820191905f5260205f20905b815481529060010190602001808311610bc657829003601f168201915b505050505090508160049081610bf99190612bb4565b507f309b29ded109b9e28fb9885757b3e0096eb75c51d23aa4635d68bcd569f6adc18183604051610c2b929190612ed5565b60405180910390a15050565b5f8060075f8481526020019081526020015f205f9054906101000a900473ffffffffffffffffffffffffffffffffffffffff1690505f73ffffffffffffffffffffffffffffffffffffffff168173ffffffffffffffffffffffffffffffffffffffff1603610cda576040517f08c379a0000000000000000000000000000000000000000000000000000000008152600401610cd190612f54565b60405180910390fd5b80915050919050565b5f8073ffffffffffffffffffffffffffffffffffffffff168273ffffffffffffffffffffffffffffffffffffffff1603610d52576040517f08c379a0000000000000000000000000000000000000000000000000000000008152600401610d4990612fe2565b60405180910390fd5b60085f8373ffffffffffffffffffffffffffffffffffffffff1673ffffffffffffffffffffffffffffffffffffffff1681526020019081526020015f20549050919050565b5f60015f9054906101000a900473ffffffffffffffffffffffffffffffffffffffff16905090565b5f60015f9054906101000a900473ffffffffffffffffffffffffffffffffffffffff1673ffffffffffffffffffffffffffffffffffffffff163373ffffffffffffffffffffffffffffffffffffffff1614905090565b606060038054610e2490612705565b80601f0160208091040260200160405190810160405280929190818152602001828054610e5090612705565b8015610e9b5780601f10610e7257610100808354040283529160200191610e9b565b820191905f5260205f20905b815481529060010190602001808311610e7e57829003601f168201915b5050505050905090565b60055f9054906101000a900473ffffffffffffffffffffffffffffffffffffffff1681565b8173ffffffffffffffffffffffffffffffffffffffff163373ffffffffffffffffffffffffffffffffffffffff1603610f38576040517f08c379a0000000000000000000000000000000000000000000000000000000008152600401610f2f9061304a565b60405180910390fd5b80600a5f3373ffffffffffffffffffffffffffffffffffffffff1673ffffffffffffffffffffffffffffffffffffffff1681526020019081526020015f205f8473ffffffffffffffffffffffffffffffffffffffff1673ffffffffffffffffffffffffffffffffffffffff1681526020019081526020015f205f6101000a81548160ff0219169083151502179055508173ffffffffffffffffffffffffffffffffffffffff163373ffffffffffffffffffffffffffffffffffffffff167f17307eab39ab6107e8899845ad3d59bd9653f200f220920489ca2b5937696c31836040516110249190611ea6565b60405180910390a35050565b611038611da6565b611041826114c5565b611080576040517f08c379a0000000000000000000000000000000000000000000000000000000008152600401611077906130b2565b60405180910390fd5b600b5f8381526020019081526020015f206040518060c00160405290815f82015481526020016001820180546110b590612705565b80601f01602080910402602001604051908101604052809291908181526020018280546110e190612705565b801561112c5780601f106111035761010080835404028352916020019161112c565b820191905f5260205f20905b81548152906001019060200180831161110f57829003601f168201915b50505050508152602001600282015f9054906101000a900460ff1660038111156111595761115861241d565b5b600381111561116b5761116a61241d565b5b81526020016002820160019054906101000a900460ff1660028111156111945761119361241d565b5b60028111156111a6576111a561241d565b5b8152602001600382015481526020016004820154815250509050919050565b6111cf33836116fc565b61120e576040517f08c379a000000000000000000000000000000000000000000000000000000000815260040161120590612dc1565b60405180910390fd5b61121a848484846119e1565b50505050565b606061122b826114c5565b61126a576040517f08c379a000000000000000000000000000000000000000000000000000000000815260040161126190613140565b60405180910390fd5b5f611273611a3d565b90505f8151116112915760405180602001604052805f8152506112bc565b8061129b84611acd565b6040516020016112ac9291906131e2565b6040516020818303038152906040525b915050919050565b6112cc610dbf565b61130b576040517f08c379a000000000000000000000000000000000000000000000000000000000815260040161130290612e4f565b60405180910390fd5b5f73ffffffffffffffffffffffffffffffffffffffff168173ffffffffffffffffffffffffffffffffffffffff1603611379576040517f08c379a00000000000000000000000000000000000000000000000000000000081526004016113709061325a565b60405180910390fd5b8073ffffffffffffffffffffffffffffffffffffffff1660055f9054906101000a900473ffffffffffffffffffffffffffffffffffffffff1673ffffffffffffffffffffffffffffffffffffffff167fab49b1935e5902470601ac7c9bcb853566dec7bca0e9a66b343c1d7f0fe6e40e60405160405180910390a38060055f6101000a81548173ffffffffffffffffffffffffffffffffffffffff021916908373ffffffffffffffffffffffffffffffffffffffff16021790555050565b5f600a5f8473ffffffffffffffffffffffffffffffffffffffff1673ffffffffffffffffffffffffffffffffffffffff1681526020019081526020015f205f8373ffffffffffffffffffffffffffffffffffffffff1673ffffffffffffffffffffffffffffffffffffffff1681526020019081526020015f205f9054906101000a900460ff16905092915050565b5f8073ffffffffffffffffffffffffffffffffffffffff1660075f8481526020019081526020015f205f9054906101000a900473ffffffffffffffffffffffffffffffffffffffff1673ffffffffffffffffffffffffffffffffffffffff1614159050919050565b5f73ffffffffffffffffffffffffffffffffffffffff168273ffffffffffffffffffffffffffffffffffffffff160361159b576040517f08c379a0000000000000000000000000000000000000000000000000000000008152600401611592906132c2565b60405180910390fd5b6115a4816114c5565b156115e4576040517f08c379a00000000000000000000000000000000000000000000000000000000081526004016115db9061332a565b60405180910390fd5b6115ef5f8383611c26565b600160085f8473ffffffffffffffffffffffffffffffffffffffff1673ffffffffffffffffffffffffffffffffffffffff1681526020019081526020015f205f82825461163c9190613348565b925050819055508160075f8381526020019081526020015f205f6101000a81548173ffffffffffffffffffffffffffffffffffffffff021916908373ffffffffffffffffffffffffffffffffffffffff160217905550808273ffffffffffffffffffffffffffffffffffffffff165f73ffffffffffffffffffffffffffffffffffffffff167fddf252ad1be2c89b69c2b068fc378daa952ba7f163c4a11628f55a4df523b3ef60405160405180910390a46116f85f8383611c2b565b5050565b5f8061170783610c37565b90508073ffffffffffffffffffffffffffffffffffffffff168473ffffffffffffffffffffffffffffffffffffffff16148061174957506117488185611437565b5b8061178757508373ffffffffffffffffffffffffffffffffffffffff1661176f846104fb565b73ffffffffffffffffffffffffffffffffffffffff16145b91505092915050565b8273ffffffffffffffffffffffffffffffffffffffff166117b082610c37565b73ffffffffffffffffffffffffffffffffffffffff1614611806576040517f08c379a00000000000000000000000000000000000000000000000000000000081526004016117fd906133eb565b60405180910390fd5b5f73ffffffffffffffffffffffffffffffffffffffff168273ffffffffffffffffffffffffffffffffffffffff1603611874576040517f08c379a000000000000000000000000000000000000000000000000000000000815260040161186b90613479565b60405180910390fd5b61187f838383611c26565b600160085f8573ffffffffffffffffffffffffffffffffffffffff1673ffffffffffffffffffffffffffffffffffffffff1681526020019081526020015f205f8282546118cc9190613497565b92505081905550600160085f8473ffffffffffffffffffffffffffffffffffffffff1673ffffffffffffffffffffffffffffffffffffffff1681526020019081526020015f205f8282546119209190613348565b925050819055508160075f8381526020019081526020015f205f6101000a81548173ffffffffffffffffffffffffffffffffffffffff021916908373ffffffffffffffffffffffffffffffffffffffff160217905550808273ffffffffffffffffffffffffffffffffffffffff168473ffffffffffffffffffffffffffffffffffffffff167fddf252ad1be2c89b69c2b068fc378daa952ba7f163c4a11628f55a4df523b3ef60405160405180910390a46119dc838383611c2b565b505050565b6119ec848484611790565b6119f884848484611c30565b611a37576040517f08c379a0000000000000000000000000000000000000000000000000000000008152600401611a2e9061353a565b60405180910390fd5b50505050565b606060048054611a4c90612705565b80601f0160208091040260200160405190810160405280929190818152602001828054611a7890612705565b8015611ac35780601f10611a9a57610100808354040283529160200191611ac3565b820191905f5260205f20905b815481529060010190602001808311611aa657829003601f168201915b5050505050905090565b60605f8203611b13576040518060400160405280600181526020017f30000000000000000000000000000000000000000000000000000000000000008152509050611c21565b5f8290505f5b5f8214611b42578080611b2b90612cb0565b915050600a82611b3b9190613585565b9150611b19565b5f8167ffffffffffffffff811115611b5d57611b5c612075565b5b6040519080825280601f01601f191660200182016040528015611b8f5781602001600182028036833780820191505090505b5090505b5f8514611c1a57600182611ba79190613497565b9150600a85611bb691906135b5565b6030611bc29190613348565b60f81b818381518110611bd857611bd76135e5565b5b60200101907effffffffffffffffffffffffffffffffffffffffffffffffffffffffffffff191690815f1a905350600a85611c139190613585565b9450611b93565b8093505050505b919050565b505050565b505050565b5f808473ffffffffffffffffffffffffffffffffffffffff163b1115611d99578373ffffffffffffffffffffffffffffffffffffffff1663150b7a02338786866040518563ffffffff1660e01b8152600401611c8f9493929190613664565b6020604051808303815f875af1925050508015611cca57506040513d601f19601f82011682018060405250810190611cc791906136c2565b60015b611d49573d805f8114611cf8576040519150601f19603f3d011682016040523d82523d5f602084013e611cfd565b606091505b505f815103611d41576040517f08c379a0000000000000000000000000000000000000000000000000000000008152600401611d389061353a565b60405180910390fd5b805181602001fd5b63150b7a0260e01b7bffffffffffffffffffffffffffffffffffffffffffffffffffffffff1916817bffffffffffffffffffffffffffffffffffffffffffffffffffffffff191614915050611d9e565b600190505b949350505050565b6040518060c001604052805f8152602001606081526020015f6003811115611dd157611dd061241d565b5b81526020015f6002811115611de957611de861241d565b5b81526020015f81526020015f81525090565b5f604051905090565b5f80fd5b5f80fd5b5f7fffffffff0000000000000000000000000000000000000000000000000000000082169050919050565b611e4081611e0c565b8114611e4a575f80fd5b50565b5f81359050611e5b81611e37565b92915050565b5f60208284031215611e7657611e75611e04565b5b5f611e8384828501611e4d565b91505092915050565b5f8115159050919050565b611ea081611e8c565b82525050565b5f602082019050611eb95f830184611e97565b92915050565b5f81519050919050565b5f82825260208201905092915050565b8281835e5f83830152505050565b5f601f19601f8301169050919050565b5f611f0182611ebf565b611f0b8185611ec9565b9350611f1b818560208601611ed9565b611f2481611ee7565b840191505092915050565b5f6020820190508181035f830152611f478184611ef7565b905092915050565b5f819050919050565b611f6181611f4f565b8114611f6b575f80fd5b50565b5f81359050611f7c81611f58565b92915050565b5f60208284031215611f9757611f96611e04565b5b5f611fa484828501611f6e565b91505092915050565b5f73ffffffffffffffffffffffffffffffffffffffff82169050919050565b5f611fd682611fad565b9050919050565b611fe681611fcc565b82525050565b5f602082019050611fff5f830184611fdd565b92915050565b61200e81611fcc565b8114612018575f80fd5b50565b5f8135905061202981612005565b92915050565b5f806040838503121561204557612044611e04565b5b5f6120528582860161201b565b925050602061206385828601611f6e565b9150509250929050565b5f80fd5b5f80fd5b7f4e487b71000000000000000000000000000000000000000000000000000000005f52604160045260245ffd5b6120ab82611ee7565b810181811067ffffffffffffffff821117156120ca576120c9612075565b5b80604052505050565b5f6120dc611dfb565b90506120e882826120a2565b919050565b5f67ffffffffffffffff82111561210757612106612075565b5b61211082611ee7565b9050602081019050919050565b828183375f83830152505050565b5f61213d612138846120ed565b6120d3565b90508281526020810184848401111561215957612158612071565b5b61216484828561211d565b509392505050565b5f82601f8301126121805761217f61206d565b5b813561219084826020860161212b565b91505092915050565b5f60ff82169050919050565b6121ae81612199565b81146121b8575f80fd5b50565b5f813590506121c9816121a5565b92915050565b5f805f805f8060c087890312156121e9576121e8611e04565b5b5f6121f689828a0161201b565b965050602087013567ffffffffffffffff81111561221757612216611e08565b5b61222389828a0161216c565b955050604061223489828a016121bb565b945050606061224589828a016121bb565b935050608061225689828a01611f6e565b92505060a061226789828a01611f6e565b9150509295509295509295565b61227d81611f4f565b82525050565b5f6020820190506122965f830184612274565b92915050565b5f805f606084860312156122b3576122b2611e04565b5b5f6122c08682870161201b565b93505060206122d18682870161201b565b92505060406122e286828701611f6e565b9150509250925092565b5f6020828403121561230157612300611e04565b5b5f82013567ffffffffffffffff81111561231e5761231d611e08565b5b61232a8482850161216c565b91505092915050565b5f6020828403121561234857612347611e04565b5b5f6123558482850161201b565b91505092915050565b61236781611e8c565b8114612371575f80fd5b50565b5f813590506123828161235e565b92915050565b5f806040838503121561239e5761239d611e04565b5b5f6123ab8582860161201b565b92505060206123bc85828601612374565b9150509250929050565b6123cf81611f4f565b82525050565b5f82825260208201905092915050565b5f6123ef82611ebf565b6123f981856123d5565b9350612409818560208601611ed9565b61241281611ee7565b840191505092915050565b7f4e487b71000000000000000000000000000000000000000000000000000000005f52602160045260245ffd5b6004811061245b5761245a61241d565b5b50565b5f81905061246b8261244a565b919050565b5f61247a8261245e565b9050919050565b61248a81612470565b82525050565b600381106124a1576124a061241d565b5b50565b5f8190506124b182612490565b919050565b5f6124c0826124a4565b9050919050565b6124d0816124b6565b82525050565b5f60c083015f8301516124eb5f8601826123c6565b506020830151848203602086015261250382826123e5565b91505060408301516125186040860182612481565b50606083015161252b60608601826124c7565b50608083015161253e60808601826123c6565b5060a083015161255160a08601826123c6565b508091505092915050565b5f6020820190508181035f83015261257481846124d6565b905092915050565b5f67ffffffffffffffff82111561259657612595612075565b5b61259f82611ee7565b9050602081019050919050565b5f6125be6125b98461257c565b6120d3565b9050828152602081018484840111156125da576125d9612071565b5b6125e584828561211d565b509392505050565b5f82601f8301126126015761260061206d565b5b81356126118482602086016125ac565b91505092915050565b5f805f806080858703121561263257612631611e04565b5b5f61263f8782880161201b565b94505060206126508782880161201b565b935050604061266187828801611f6e565b925050606085013567ffffffffffffffff81111561268257612681611e08565b5b61268e878288016125ed565b91505092959194509250565b5f80604083850312156126b0576126af611e04565b5b5f6126bd8582860161201b565b92505060206126ce8582860161201b565b9150509250929050565b7f4e487b71000000000000000000000000000000000000000000000000000000005f52602260045260245ffd5b5f600282049050600182168061271c57607f821691505b60208210810361272f5761272e6126d8565b5b50919050565b7f4552433732313a20417070726f76656420717565727920666f72206e6f6e65785f8201527f697374656e7420746f6b656e0000000000000000000000000000000000000000602082015250565b5f61278f602c83611ec9565b915061279a82612735565b604082019050919050565b5f6020820190508181035f8301526127bc81612783565b9050919050565b7f4552433732313a20417070726f76616c20746f2063757272656e74206f776e655f8201527f7200000000000000000000000000000000000000000000000000000000000000602082015250565b5f61281d602183611ec9565b9150612828826127c3565b604082019050919050565b5f6020820190508181035f83015261284a81612811565b9050919050565b7f4552433732313a20417070726f76652063616c6c6572206973206e6f7420746f5f8201527f6b656e206f776e6572206f7220617070726f76656420666f7220616c6c000000602082015250565b5f6128ab603d83611ec9565b91506128b682612851565b604082019050919050565b5f6020820190508181035f8301526128d88161289f565b9050919050565b7f43616e6e6f74206d696e7420746f207a65726f206164647265737300000000005f82015250565b5f612913601b83611ec9565b915061291e826128df565b602082019050919050565b5f6020820190508181035f83015261294081612907565b9050919050565b7f496e76616c6964207261726974790000000000000000000000000000000000005f82015250565b5f61297b600e83611ec9565b915061298682612947565b602082019050919050565b5f6020820190508181035f8301526129a88161296f565b9050919050565b7f496e76616c696420706f776572207479706500000000000000000000000000005f82015250565b5f6129e3601283611ec9565b91506129ee826129af565b602082019050919050565b5f6020820190508181035f830152612a10816129d7565b9050919050565b5f819050815f5260205f209050919050565b5f6020601f8301049050919050565b5f82821b905092915050565b5f60088302612a737fffffffffffffffffffffffffffffffffffffffffffffffffffffffffffffffff82612a38565b612a7d8683612a38565b95508019841693508086168417925050509392505050565b5f819050919050565b5f612ab8612ab3612aae84611f4f565b612a95565b611f4f565b9050919050565b5f819050919050565b612ad183612a9e565b612ae5612add82612abf565b848454612a44565b825550505050565b5f90565b612af9612aed565b612b04818484612ac8565b505050565b5b81811015612b2757612b1c5f82612af1565b600181019050612b0a565b5050565b601f821115612b6c57612b3d81612a17565b612b4684612a29565b81016020851015612b55578190505b612b69612b6185612a29565b830182612b09565b50505b505050565b5f82821c905092915050565b5f612b8c5f1984600802612b71565b1980831691505092915050565b5f612ba48383612b7d565b9150826002028217905092915050565b612bbd82611ebf565b67ffffffffffffffff811115612bd657612bd5612075565b5b612be08254612705565b612beb828285612b2b565b5f60209050601f831160018114612c1c575f8415612c0a578287015190505b612c148582612b99565b865550612c7b565b601f198416612c2a86612a17565b5f5b82811015612c5157848901518255600182019150602085019450602081019050612c2c565b86831015612c6e5784890151612c6a601f891682612b7d565b8355505b6001600288020188555050505b505050505050565b7f4e487b71000000000000000000000000000000000000000000000000000000005f52601160045260245ffd5b5f612cba82611f4f565b91507fffffffffffffffffffffffffffffffffffffffffffffffffffffffffffffffff8203612cec57612ceb612c83565b5b600182019050919050565b612d0081612470565b82525050565b612d0f816124b6565b82525050565b5f6060820190508181035f830152612d2d8186611ef7565b9050612d3c6020830185612cf7565b612d496040830184612d06565b949350505050565b7f4552433732313a2043616c6c6572206973206e6f7420746f6b656e206f776e655f8201527f72206f7220617070726f76656400000000000000000000000000000000000000602082015250565b5f612dab602d83611ec9565b9150612db682612d51565b604082019050919050565b5f6020820190508181035f830152612dd881612d9f565b9050919050565b7f46756e6374696f6e2061636365737369626c65206f6e6c7920627920746865205f8201527f6f776e6572202121000000000000000000000000000000000000000000000000602082015250565b5f612e39602883611ec9565b9150612e4482612ddf565b604082019050919050565b5f6020820190508181035f830152612e6681612e2d565b9050919050565b7f456d7074792062617365205552490000000000000000000000000000000000005f82015250565b5f612ea1600e83611ec9565b9150612eac82612e6d565b602082019050919050565b5f6020820190508181035f830152612ece81612e95565b9050919050565b5f6040820190508181035f830152612eed8185611ef7565b90508181036020830152612f018184611ef7565b90509392505050565b7f4552433732313a20496e76616c696420746f6b656e20494400000000000000005f82015250565b5f612f3e601883611ec9565b9150612f4982612f0a565b602082019050919050565b5f6020820190508181035f830152612f6b81612f32565b9050919050565b7f4552433732313a2041646472657373207a65726f206973206e6f7420612076615f8201527f6c6964206f776e65720000000000000000000000000000000000000000000000602082015250565b5f612fcc602983611ec9565b9150612fd782612f72565b604082019050919050565b5f6020820190508181035f830152612ff981612fc0565b9050919050565b7f4552433732313a20417070726f766520746f2063616c6c6572000000000000005f82015250565b5f613034601983611ec9565b915061303f82613000565b602082019050919050565b5f6020820190508181035f83015261306181613028565b9050919050565b7f4d6f6e6b657920646f6573206e6f7420657869737400000000000000000000005f82015250565b5f61309c601583611ec9565b91506130a782613068565b602082019050919050565b5f6020820190508181035f8301526130c981613090565b9050919050565b7f4552433732314d657461646174613a2055524920717565727920666f72206e6f5f8201527f6e6578697374656e7420746f6b656e0000000000000000000000000000000000602082015250565b5f61312a602f83611ec9565b9150613135826130d0565b604082019050919050565b5f6020820190508181035f8301526131578161311e565b9050919050565b5f81905092915050565b5f61317282611ebf565b61317c818561315e565b935061318c818560208601611ed9565b80840191505092915050565b7f2e6a736f6e0000000000000000000000000000000000000000000000000000005f82015250565b5f6131cc60058361315e565b91506131d782613198565b600582019050919050565b5f6131ed8285613168565b91506131f98284613168565b9150613204826131c0565b91508190509392505050565b7f496e76616c6964206761636861206164647265737300000000000000000000005f82015250565b5f613244601583611ec9565b915061324f82613210565b602082019050919050565b5f6020820190508181035f83015261327181613238565b9050919050565b7f455243203732313a206d696e7420746f207a65726f20616464726573730000005f82015250565b5f6132ac601d83611ec9565b91506132b782613278565b602082019050919050565b5f6020820190508181035f8301526132d9816132a0565b9050919050565b7f4552433732313a20746f6b656e20616c7265616479206d696e746564000000005f82015250565b5f613314601c83611ec9565b915061331f826132e0565b602082019050919050565b5f6020820190508181035f83015261334181613308565b9050919050565b5f61335282611f4f565b915061335d83611f4f565b925082820190508082111561337557613374612c83565b5b92915050565b7f4552433732313a207472616e736665722066726f6d20696e636f7272656374205f8201527f6f776e6572000000000000000000000000000000000000000000000000000000602082015250565b5f6133d5602583611ec9565b91506133e08261337b565b604082019050919050565b5f6020820190508181035f830152613402816133c9565b9050919050565b7f4552433732313a207472616e7366657220746f20746865207a65726f206164645f8201527f7265737300000000000000000000000000000000000000000000000000000000602082015250565b5f613463602483611ec9565b915061346e82613409565b604082019050919050565b5f6020820190508181035f83015261349081613457565b9050919050565b5f6134a182611f4f565b91506134ac83611f4f565b92508282039050818111156134c4576134c3612c83565b5b92915050565b7f4552433732313a207472616e7366657220746f206e6f6e2045524337323152655f8201527f63656976657220696d706c656d656e7465720000000000000000000000000000602082015250565b5f613524603283611ec9565b915061352f826134ca565b604082019050919050565b5f6020820190508181035f83015261355181613518565b9050919050565b7f4e487b71000000000000000000000000000000000000000000000000000000005f52601260045260245ffd5b5f61358f82611f4f565b915061359a83611f4f565b9250826135aa576135a9613558565b5b828204905092915050565b5f6135bf82611f4f565b91506135ca83611f4f565b9250826135da576135d9613558565b5b828206905092915050565b7f4e487b71000000000000000000000000000000000000000000000000000000005f52603260045260245ffd5b5f81519050919050565b5f82825260208201905092915050565b5f61363682613612565b613640818561361c565b9350613650818560208601611ed9565b61365981611ee7565b840191505092915050565b5f6080820190506136775f830187611fdd565b6136846020830186611fdd565b6136916040830185612274565b81810360608301526136a3818461362c565b905095945050505050565b5f815190506136bc81611e37565b92915050565b5f602082840312156136d7576136d6611e04565b5b5f6136e4848285016136ae565b9150509291505056fea264697066735822122040b5fa5d7a9bad3fba2ffbeb333e6523a63107af7ad1fad568e9b8ed8745108964736f6c634300081a0033",
					"opcodes": "PUSH1 0x80 PUSH1 0x40 MSTORE CALLVALUE DUP1 ISZERO PUSH2 0xF JUMPI PUSH0 DUP1 REVERT JUMPDEST POP PUSH1 0x40 MLOAD PUSH2 0x3F69 CODESIZE SUB DUP1 PUSH2 0x3F69 DUP4 CODECOPY DUP2 DUP2 ADD PUSH1 0x40 MSTORE DUP2 ADD SWAP1 PUSH2 0x31 SWAP2 SWAP1 PUSH2 0x48B JUMP JUMPDEST PUSH2 0x60 PUSH32 0x1FFC9A700000000000000000000000000000000000000000000000000000000 PUSH2 0x213 PUSH1 0x20 SHL PUSH1 0x20 SHR JUMP JUMPDEST CALLER PUSH1 0x1 PUSH0 PUSH2 0x100 EXP DUP2 SLOAD DUP2 PUSH20 0xFFFFFFFFFFFFFFFFFFFFFFFFFFFFFFFFFFFFFFFF MUL NOT AND SWAP1 DUP4 PUSH20 0xFFFFFFFFFFFFFFFFFFFFFFFFFFFFFFFFFFFFFFFF AND MUL OR SWAP1 SSTORE POP PUSH1 0x40 MLOAD DUP1 PUSH1 0x40 ADD PUSH1 0x40 MSTORE DUP1 PUSH1 0xF DUP2 MSTORE PUSH1 0x20 ADD PUSH32 0x4D6F6E6B65792042726F74686572730000000000000000000000000000000000 DUP2 MSTORE POP PUSH1 0x2 SWAP1 DUP2 PUSH2 0xE4 SWAP2 SWAP1 PUSH2 0x6F2 JUMP JUMPDEST POP PUSH1 0x40 MLOAD DUP1 PUSH1 0x40 ADD PUSH1 0x40 MSTORE DUP1 PUSH1 0x7 DUP2 MSTORE PUSH1 0x20 ADD PUSH32 0x4D4F4E4B42524F00000000000000000000000000000000000000000000000000 DUP2 MSTORE POP PUSH1 0x3 SWAP1 DUP2 PUSH2 0x129 SWAP2 SWAP1 PUSH2 0x6F2 JUMP JUMPDEST POP DUP1 PUSH1 0x4 SWAP1 DUP2 PUSH2 0x139 SWAP2 SWAP1 PUSH2 0x6F2 JUMP JUMPDEST POP PUSH0 PUSH20 0xFFFFFFFFFFFFFFFFFFFFFFFFFFFFFFFFFFFFFFFF AND DUP3 PUSH20 0xFFFFFFFFFFFFFFFFFFFFFFFFFFFFFFFFFFFFFFFF AND EQ PUSH2 0x1AE JUMPI DUP2 PUSH1 0x5 PUSH0 PUSH2 0x100 EXP DUP2 SLOAD DUP2 PUSH20 0xFFFFFFFFFFFFFFFFFFFFFFFFFFFFFFFFFFFFFFFF MUL NOT AND SWAP1 DUP4 PUSH20 0xFFFFFFFFFFFFFFFFFFFFFFFFFFFFFFFFFFFFFFFF AND MUL OR SWAP1 SSTORE POP JUMPDEST PUSH2 0x1DD PUSH32 0x80AC58CD00000000000000000000000000000000000000000000000000000000 PUSH2 0x213 PUSH1 0x20 SHL PUSH1 0x20 SHR JUMP JUMPDEST PUSH2 0x20C PUSH32 0x5B5E139F00000000000000000000000000000000000000000000000000000000 PUSH2 0x213 PUSH1 0x20 SHL PUSH1 0x20 SHR JUMP JUMPDEST POP POP PUSH2 0x839 JUMP JUMPDEST PUSH4 0xFFFFFFFF PUSH1 0xE0 SHL DUP2 PUSH28 0xFFFFFFFFFFFFFFFFFFFFFFFFFFFFFFFFFFFFFFFFFFFFFFFFFFFFFFFF NOT AND SUB PUSH2 0x27B JUMPI PUSH1 0x40 MLOAD PUSH32 0x8C379A000000000000000000000000000000000000000000000000000000000 DUP2 MSTORE PUSH1 0x4 ADD PUSH2 0x272 SWAP1 PUSH2 0x81B JUMP JUMPDEST PUSH1 0x40 MLOAD DUP1 SWAP2 SUB SWAP1 REVERT JUMPDEST PUSH1 0x1 PUSH0 DUP1 DUP4 PUSH28 0xFFFFFFFFFFFFFFFFFFFFFFFFFFFFFFFFFFFFFFFFFFFFFFFFFFFFFFFF NOT AND PUSH28 0xFFFFFFFFFFFFFFFFFFFFFFFFFFFFFFFFFFFFFFFFFFFFFFFFFFFFFFFF NOT AND DUP2 MSTORE PUSH1 0x20 ADD SWAP1 DUP2 MSTORE PUSH1 0x20 ADD PUSH0 KECCAK256 PUSH0 PUSH2 0x100 EXP DUP2 SLOAD DUP2 PUSH1 0xFF MUL NOT AND SWAP1 DUP4 ISZERO ISZERO MUL OR SWAP1 SSTORE POP POP JUMP JUMPDEST PUSH0 PUSH1 0x40 MLOAD SWAP1 POP SWAP1 JUMP JUMPDEST PUSH0 DUP1 REVERT JUMPDEST PUSH0 DUP1 REVERT JUMPDEST PUSH0 PUSH20 0xFFFFFFFFFFFFFFFFFFFFFFFFFFFFFFFFFFFFFFFF DUP3 AND SWAP1 POP SWAP2 SWAP1 POP JUMP JUMPDEST PUSH0 PUSH2 0x31E DUP3 PUSH2 0x2F5 JUMP JUMPDEST SWAP1 POP SWAP2 SWAP1 POP JUMP JUMPDEST PUSH2 0x32E DUP2 PUSH2 0x314 JUMP JUMPDEST DUP2 EQ PUSH2 0x338 JUMPI PUSH0 DUP1 REVERT JUMPDEST POP JUMP JUMPDEST PUSH0 DUP2 MLOAD SWAP1 POP PUSH2 0x349 DUP2 PUSH2 0x325 JUMP JUMPDEST SWAP3 SWAP2 POP POP JUMP JUMPDEST PUSH0 DUP1 REVERT JUMPDEST PUSH0 DUP1 REVERT JUMPDEST PUSH0 PUSH1 0x1F NOT PUSH1 0x1F DUP4 ADD AND SWAP1 POP SWAP2 SWAP1 POP JUMP JUMPDEST PUSH32 0x4E487B7100000000000000000000000000000000000000000000000000000000 PUSH0 MSTORE PUSH1 0x41 PUSH1 0x4 MSTORE PUSH1 0x24 PUSH0 REVERT JUMPDEST PUSH2 0x39D DUP3 PUSH2 0x357 JUMP JUMPDEST DUP2 ADD DUP2 DUP2 LT PUSH8 0xFFFFFFFFFFFFFFFF DUP3 GT OR ISZERO PUSH2 0x3BC JUMPI PUSH2 0x3BB PUSH2 0x367 JUMP JUMPDEST JUMPDEST DUP1 PUSH1 0x40 MSTORE POP POP POP JUMP JUMPDEST PUSH0 PUSH2 0x3CE PUSH2 0x2E4 JUMP JUMPDEST SWAP1 POP PUSH2 0x3DA DUP3 DUP3 PUSH2 0x394 JUMP JUMPDEST SWAP2 SWAP1 POP JUMP JUMPDEST PUSH0 PUSH8 0xFFFFFFFFFFFFFFFF DUP3 GT ISZERO PUSH2 0x3F9 JUMPI PUSH2 0x3F8 PUSH2 0x367 JUMP JUMPDEST JUMPDEST PUSH2 0x402 DUP3 PUSH2 0x357 JUMP JUMPDEST SWAP1 POP PUSH1 0x20 DUP2 ADD SWAP1 POP SWAP2 SWAP1 POP JUMP JUMPDEST DUP3 DUP2 DUP4 MCOPY PUSH0 DUP4 DUP4 ADD MSTORE POP POP POP JUMP JUMPDEST PUSH0 PUSH2 0x42F PUSH2 0x42A DUP5 PUSH2 0x3DF JUMP JUMPDEST PUSH2 0x3C5 JUMP JUMPDEST SWAP1 POP DUP3 DUP2 MSTORE PUSH1 0x20 DUP2 ADD DUP5 DUP5 DUP5 ADD GT ISZERO PUSH2 0x44B JUMPI PUSH2 0x44A PUSH2 0x353 JUMP JUMPDEST JUMPDEST PUSH2 0x456 DUP5 DUP3 DUP6 PUSH2 0x40F JUMP JUMPDEST POP SWAP4 SWAP3 POP POP POP JUMP JUMPDEST PUSH0 DUP3 PUSH1 0x1F DUP4 ADD SLT PUSH2 0x472 JUMPI PUSH2 0x471 PUSH2 0x34F JUMP JUMPDEST JUMPDEST DUP2 MLOAD PUSH2 0x482 DUP5 DUP3 PUSH1 0x20 DUP7 ADD PUSH2 0x41D JUMP JUMPDEST SWAP2 POP POP SWAP3 SWAP2 POP POP JUMP JUMPDEST PUSH0 DUP1 PUSH1 0x40 DUP4 DUP6 SUB SLT ISZERO PUSH2 0x4A1 JUMPI PUSH2 0x4A0 PUSH2 0x2ED JUMP JUMPDEST JUMPDEST PUSH0 PUSH2 0x4AE DUP6 DUP3 DUP7 ADD PUSH2 0x33B JUMP JUMPDEST SWAP3 POP POP PUSH1 0x20 DUP4 ADD MLOAD PUSH8 0xFFFFFFFFFFFFFFFF DUP2 GT ISZERO PUSH2 0x4CF JUMPI PUSH2 0x4CE PUSH2 0x2F1 JUMP JUMPDEST JUMPDEST PUSH2 0x4DB DUP6 DUP3 DUP7 ADD PUSH2 0x45E JUMP JUMPDEST SWAP2 POP POP SWAP3 POP SWAP3 SWAP1 POP JUMP JUMPDEST PUSH0 DUP2 MLOAD SWAP1 POP SWAP2 SWAP1 POP JUMP JUMPDEST PUSH32 0x4E487B7100000000000000000000000000000000000000000000000000000000 PUSH0 MSTORE PUSH1 0x22 PUSH1 0x4 MSTORE PUSH1 0x24 PUSH0 REVERT JUMPDEST PUSH0 PUSH1 0x2 DUP3 DIV SWAP1 POP PUSH1 0x1 DUP3 AND DUP1 PUSH2 0x533 JUMPI PUSH1 0x7F DUP3 AND SWAP2 POP JUMPDEST PUSH1 0x20 DUP3 LT DUP2 SUB PUSH2 0x546 JUMPI PUSH2 0x545 PUSH2 0x4EF JUMP JUMPDEST JUMPDEST POP SWAP2 SWAP1 POP JUMP JUMPDEST PUSH0 DUP2 SWAP1 POP DUP2 PUSH0 MSTORE PUSH1 0x20 PUSH0 KECCAK256 SWAP1 POP SWAP2 SWAP1 POP JUMP JUMPDEST PUSH0 PUSH1 0x20 PUSH1 0x1F DUP4 ADD DIV SWAP1 POP SWAP2 SWAP1 POP JUMP JUMPDEST PUSH0 DUP3 DUP3 SHL SWAP1 POP SWAP3 SWAP2 POP POP JUMP JUMPDEST PUSH0 PUSH1 0x8 DUP4 MUL PUSH2 0x5A8 PUSH32 0xFFFFFFFFFFFFFFFFFFFFFFFFFFFFFFFFFFFFFFFFFFFFFFFFFFFFFFFFFFFFFFFF DUP3 PUSH2 0x56D JUMP JUMPDEST PUSH2 0x5B2 DUP7 DUP4 PUSH2 0x56D JUMP JUMPDEST SWAP6 POP DUP1 NOT DUP5 AND SWAP4 POP DUP1 DUP7 AND DUP5 OR SWAP3 POP POP POP SWAP4 SWAP3 POP POP POP JUMP JUMPDEST PUSH0 DUP2 SWAP1 POP SWAP2 SWAP1 POP JUMP JUMPDEST PUSH0 DUP2 SWAP1 POP SWAP2 SWAP1 POP JUMP JUMPDEST PUSH0 PUSH2 0x5F6 PUSH2 0x5F1 PUSH2 0x5EC DUP5 PUSH2 0x5CA JUMP JUMPDEST PUSH2 0x5D3 JUMP JUMPDEST PUSH2 0x5CA JUMP JUMPDEST SWAP1 POP SWAP2 SWAP1 POP JUMP JUMPDEST PUSH0 DUP2 SWAP1 POP SWAP2 SWAP1 POP JUMP JUMPDEST PUSH2 0x60F DUP4 PUSH2 0x5DC JUMP JUMPDEST PUSH2 0x623 PUSH2 0x61B DUP3 PUSH2 0x5FD JUMP JUMPDEST DUP5 DUP5 SLOAD PUSH2 0x579 JUMP JUMPDEST DUP3 SSTORE POP POP POP POP JUMP JUMPDEST PUSH0 SWAP1 JUMP JUMPDEST PUSH2 0x637 PUSH2 0x62B JUMP JUMPDEST PUSH2 0x642 DUP2 DUP5 DUP5 PUSH2 0x606 JUMP JUMPDEST POP POP POP JUMP JUMPDEST JUMPDEST DUP2 DUP2 LT ISZERO PUSH2 0x665 JUMPI PUSH2 0x65A PUSH0 DUP3 PUSH2 0x62F JUMP JUMPDEST PUSH1 0x1 DUP2 ADD SWAP1 POP PUSH2 0x648 JUMP JUMPDEST POP POP JUMP JUMPDEST PUSH1 0x1F DUP3 GT ISZERO PUSH2 0x6AA JUMPI PUSH2 0x67B DUP2 PUSH2 0x54C JUMP JUMPDEST PUSH2 0x684 DUP5 PUSH2 0x55E JUMP JUMPDEST DUP2 ADD PUSH1 0x20 DUP6 LT ISZERO PUSH2 0x693 JUMPI DUP2 SWAP1 POP JUMPDEST PUSH2 0x6A7 PUSH2 0x69F DUP6 PUSH2 0x55E JUMP JUMPDEST DUP4 ADD DUP3 PUSH2 0x647 JUMP JUMPDEST POP POP JUMPDEST POP POP POP JUMP JUMPDEST PUSH0 DUP3 DUP3 SHR SWAP1 POP SWAP3 SWAP2 POP POP JUMP JUMPDEST PUSH0 PUSH2 0x6CA PUSH0 NOT DUP5 PUSH1 0x8 MUL PUSH2 0x6AF JUMP JUMPDEST NOT DUP1 DUP4 AND SWAP2 POP POP SWAP3 SWAP2 POP POP JUMP JUMPDEST PUSH0 PUSH2 0x6E2 DUP4 DUP4 PUSH2 0x6BB JUMP JUMPDEST SWAP2 POP DUP3 PUSH1 0x2 MUL DUP3 OR SWAP1 POP SWAP3 SWAP2 POP POP JUMP JUMPDEST PUSH2 0x6FB DUP3 PUSH2 0x4E5 JUMP JUMPDEST PUSH8 0xFFFFFFFFFFFFFFFF DUP2 GT ISZERO PUSH2 0x714 JUMPI PUSH2 0x713 PUSH2 0x367 JUMP JUMPDEST JUMPDEST PUSH2 0x71E DUP3 SLOAD PUSH2 0x51C JUMP JUMPDEST PUSH2 0x729 DUP3 DUP3 DUP6 PUSH2 0x669 JUMP JUMPDEST PUSH0 PUSH1 0x20 SWAP1 POP PUSH1 0x1F DUP4 GT PUSH1 0x1 DUP2 EQ PUSH2 0x75A JUMPI PUSH0 DUP5 ISZERO PUSH2 0x748 JUMPI DUP3 DUP8 ADD MLOAD SWAP1 POP JUMPDEST PUSH2 0x752 DUP6 DUP3 PUSH2 0x6D7 JUMP JUMPDEST DUP7 SSTORE POP PUSH2 0x7B9 JUMP JUMPDEST PUSH1 0x1F NOT DUP5 AND PUSH2 0x768 DUP7 PUSH2 0x54C JUMP JUMPDEST PUSH0 JUMPDEST DUP3 DUP2 LT ISZERO PUSH2 0x78F JUMPI DUP5 DUP10 ADD MLOAD DUP3 SSTORE PUSH1 0x1 DUP3 ADD SWAP2 POP PUSH1 0x20 DUP6 ADD SWAP5 POP PUSH1 0x20 DUP2 ADD SWAP1 POP PUSH2 0x76A JUMP JUMPDEST DUP7 DUP4 LT ISZERO PUSH2 0x7AC JUMPI DUP5 DUP10 ADD MLOAD PUSH2 0x7A8 PUSH1 0x1F DUP10 AND DUP3 PUSH2 0x6BB JUMP JUMPDEST DUP4 SSTORE POP JUMPDEST PUSH1 0x1 PUSH1 0x2 DUP9 MUL ADD DUP9 SSTORE POP POP POP JUMPDEST POP POP POP POP POP POP JUMP JUMPDEST PUSH0 DUP3 DUP3 MSTORE PUSH1 0x20 DUP3 ADD SWAP1 POP SWAP3 SWAP2 POP POP JUMP JUMPDEST PUSH32 0x4552433136353A20696E76616C696420696E7465726661636520696400000000 PUSH0 DUP3 ADD MSTORE POP JUMP JUMPDEST PUSH0 PUSH2 0x805 PUSH1 0x1C DUP4 PUSH2 0x7C1 JUMP JUMPDEST SWAP2 POP PUSH2 0x810 DUP3 PUSH2 0x7D1 JUMP JUMPDEST PUSH1 0x20 DUP3 ADD SWAP1 POP SWAP2 SWAP1 POP JUMP JUMPDEST PUSH0 PUSH1 0x20 DUP3 ADD SWAP1 POP DUP2 DUP2 SUB PUSH0 DUP4 ADD MSTORE PUSH2 0x832 DUP2 PUSH2 0x7F9 JUMP JUMPDEST SWAP1 POP SWAP2 SWAP1 POP JUMP JUMPDEST PUSH2 0x3723 DUP1 PUSH2 0x846 PUSH0 CODECOPY PUSH0 RETURN INVALID PUSH1 0x80 PUSH1 0x40 MSTORE CALLVALUE DUP1 ISZERO PUSH2 0xF JUMPI PUSH0 DUP1 REVERT JUMPDEST POP PUSH1 0x4 CALLDATASIZE LT PUSH2 0x12A JUMPI PUSH0 CALLDATALOAD PUSH1 0xE0 SHR DUP1 PUSH4 0x8DA5CB5B GT PUSH2 0xAB JUMPI DUP1 PUSH4 0xB7510DA8 GT PUSH2 0x6F JUMPI DUP1 PUSH4 0xB7510DA8 EQ PUSH2 0x340 JUMPI DUP1 PUSH4 0xB88D4FDE EQ PUSH2 0x370 JUMPI DUP1 PUSH4 0xC87B56DD EQ PUSH2 0x38C JUMPI DUP1 PUSH4 0xD33B6521 EQ PUSH2 0x3BC JUMPI DUP1 PUSH4 0xE985E9C5 EQ PUSH2 0x3D8 JUMPI PUSH2 0x12A JUMP JUMPDEST DUP1 PUSH4 0x8DA5CB5B EQ PUSH2 0x2AC JUMPI DUP1 PUSH4 0x8F32D59B EQ PUSH2 0x2CA JUMPI DUP1 PUSH4 0x95D89B41 EQ PUSH2 0x2E8 JUMPI DUP1 PUSH4 0x9D304E85 EQ PUSH2 0x306 JUMPI DUP1 PUSH4 0xA22CB465 EQ PUSH2 0x324 JUMPI PUSH2 0x12A JUMP JUMPDEST DUP1 PUSH4 0x23B872DD GT PUSH2 0xF2 JUMPI DUP1 PUSH4 0x23B872DD EQ PUSH2 0x1F8 JUMPI DUP1 PUSH4 0x42842E0E EQ PUSH2 0x214 JUMPI DUP1 PUSH4 0x55F804B3 EQ PUSH2 0x230 JUMPI DUP1 PUSH4 0x6352211E EQ PUSH2 0x24C JUMPI DUP1 PUSH4 0x70A08231 EQ PUSH2 0x27C JUMPI PUSH2 0x12A JUMP JUMPDEST DUP1 PUSH4 0x1FFC9A7 EQ PUSH2 0x12E JUMPI DUP1 PUSH4 0x6FDDE03 EQ PUSH2 0x15E JUMPI DUP1 PUSH4 0x81812FC EQ PUSH2 0x17C JUMPI DUP1 PUSH4 0x95EA7B3 EQ PUSH2 0x1AC JUMPI DUP1 PUSH4 0xD522F6E EQ PUSH2 0x1C8 JUMPI JUMPDEST PUSH0 DUP1 REVERT JUMPDEST PUSH2 0x148 PUSH1 0x4 DUP1 CALLDATASIZE SUB DUP2 ADD SWAP1 PUSH2 0x143 SWAP2 SWAP1 PUSH2 0x1E61 JUMP JUMPDEST PUSH2 0x408 JUMP JUMPDEST PUSH1 0x40 MLOAD PUSH2 0x155 SWAP2 SWAP1 PUSH2 0x1EA6 JUMP JUMPDEST PUSH1 0x40 MLOAD DUP1 SWAP2 SUB SWAP1 RETURN JUMPDEST PUSH2 0x166 PUSH2 0x46B JUMP JUMPDEST PUSH1 0x40 MLOAD PUSH2 0x173 SWAP2 SWAP1 PUSH2 0x1F2F JUMP JUMPDEST PUSH1 0x40 MLOAD DUP1 SWAP2 SUB SWAP1 RETURN JUMPDEST PUSH2 0x196 PUSH1 0x4 DUP1 CALLDATASIZE SUB DUP2 ADD SWAP1 PUSH2 0x191 SWAP2 SWAP1 PUSH2 0x1F82 JUMP JUMPDEST PUSH2 0x4FB JUMP JUMPDEST PUSH1 0x40 MLOAD PUSH2 0x1A3 SWAP2 SWAP1 PUSH2 0x1FEC JUMP JUMPDEST PUSH1 0x40 MLOAD DUP1 SWAP2 SUB SWAP1 RETURN JUMPDEST PUSH2 0x1C6 PUSH1 0x4 DUP1 CALLDATASIZE SUB DUP2 ADD SWAP1 PUSH2 0x1C1 SWAP2 SWAP1 PUSH2 0x202F JUMP JUMPDEST PUSH2 0x57C JUMP JUMPDEST STOP JUMPDEST PUSH2 0x1E2 PUSH1 0x4 DUP1 CALLDATASIZE SUB DUP2 ADD SWAP1 PUSH2 0x1DD SWAP2 SWAP1 PUSH2 0x21CF JUMP JUMPDEST PUSH2 0x724 JUMP JUMPDEST PUSH1 0x40 MLOAD PUSH2 0x1EF SWAP2 SWAP1 PUSH2 0x2283 JUMP JUMPDEST PUSH1 0x40 MLOAD DUP1 SWAP2 SUB SWAP1 RETURN JUMPDEST PUSH2 0x212 PUSH1 0x4 DUP1 CALLDATASIZE SUB DUP2 ADD SWAP1 PUSH2 0x20D SWAP2 SWAP1 PUSH2 0x229C JUMP JUMPDEST PUSH2 0xA5C JUMP JUMPDEST STOP JUMPDEST PUSH2 0x22E PUSH1 0x4 DUP1 CALLDATASIZE SUB DUP2 ADD SWAP1 PUSH2 0x229 SWAP2 SWAP1 PUSH2 0x229C JUMP JUMPDEST PUSH2 0xAB5 JUMP JUMPDEST STOP JUMPDEST PUSH2 0x24A PUSH1 0x4 DUP1 CALLDATASIZE SUB DUP2 ADD SWAP1 PUSH2 0x245 SWAP2 SWAP1 PUSH2 0x22EC JUMP JUMPDEST PUSH2 0xAD4 JUMP JUMPDEST STOP JUMPDEST PUSH2 0x266 PUSH1 0x4 DUP1 CALLDATASIZE SUB DUP2 ADD SWAP1 PUSH2 0x261 SWAP2 SWAP1 PUSH2 0x1F82 JUMP JUMPDEST PUSH2 0xC37 JUMP JUMPDEST PUSH1 0x40 MLOAD PUSH2 0x273 SWAP2 SWAP1 PUSH2 0x1FEC JUMP JUMPDEST PUSH1 0x40 MLOAD DUP1 SWAP2 SUB SWAP1 RETURN JUMPDEST PUSH2 0x296 PUSH1 0x4 DUP1 CALLDATASIZE SUB DUP2 ADD SWAP1 PUSH2 0x291 SWAP2 SWAP1 PUSH2 0x2333 JUMP JUMPDEST PUSH2 0xCE3 JUMP JUMPDEST PUSH1 0x40 MLOAD PUSH2 0x2A3 SWAP2 SWAP1 PUSH2 0x2283 JUMP JUMPDEST PUSH1 0x40 MLOAD DUP1 SWAP2 SUB SWAP1 RETURN JUMPDEST PUSH2 0x2B4 PUSH2 0xD97 JUMP JUMPDEST PUSH1 0x40 MLOAD PUSH2 0x2C1 SWAP2 SWAP1 PUSH2 0x1FEC JUMP JUMPDEST PUSH1 0x40 MLOAD DUP1 SWAP2 SUB SWAP1 RETURN JUMPDEST PUSH2 0x2D2 PUSH2 0xDBF JUMP JUMPDEST PUSH1 0x40 MLOAD PUSH2 0x2DF SWAP2 SWAP1 PUSH2 0x1EA6 JUMP JUMPDEST PUSH1 0x40 MLOAD DUP1 SWAP2 SUB SWAP1 RETURN JUMPDEST PUSH2 0x2F0 PUSH2 0xE15 JUMP JUMPDEST PUSH1 0x40 MLOAD PUSH2 0x2FD SWAP2 SWAP1 PUSH2 0x1F2F JUMP JUMPDEST PUSH1 0x40 MLOAD DUP1 SWAP2 SUB SWAP1 RETURN JUMPDEST PUSH2 0x30E PUSH2 0xEA5 JUMP JUMPDEST PUSH1 0x40 MLOAD PUSH2 0x31B SWAP2 SWAP1 PUSH2 0x1FEC JUMP JUMPDEST PUSH1 0x40 MLOAD DUP1 SWAP2 SUB SWAP1 RETURN JUMPDEST PUSH2 0x33E PUSH1 0x4 DUP1 CALLDATASIZE SUB DUP2 ADD SWAP1 PUSH2 0x339 SWAP2 SWAP1 PUSH2 0x2388 JUMP JUMPDEST PUSH2 0xECA JUMP JUMPDEST STOP JUMPDEST PUSH2 0x35A PUSH1 0x4 DUP1 CALLDATASIZE SUB DUP2 ADD SWAP1 PUSH2 0x355 SWAP2 SWAP1 PUSH2 0x1F82 JUMP JUMPDEST PUSH2 0x1030 JUMP JUMPDEST PUSH1 0x40 MLOAD PUSH2 0x367 SWAP2 SWAP1 PUSH2 0x255C JUMP JUMPDEST PUSH1 0x40 MLOAD DUP1 SWAP2 SUB SWAP1 RETURN JUMPDEST PUSH2 0x38A PUSH1 0x4 DUP1 CALLDATASIZE SUB DUP2 ADD SWAP1 PUSH2 0x385 SWAP2 SWAP1 PUSH2 0x261A JUMP JUMPDEST PUSH2 0x11C5 JUMP JUMPDEST STOP JUMPDEST PUSH2 0x3A6 PUSH1 0x4 DUP1 CALLDATASIZE SUB DUP2 ADD SWAP1 PUSH2 0x3A1 SWAP2 SWAP1 PUSH2 0x1F82 JUMP JUMPDEST PUSH2 0x1220 JUMP JUMPDEST PUSH1 0x40 MLOAD PUSH2 0x3B3 SWAP2 SWAP1 PUSH2 0x1F2F JUMP JUMPDEST PUSH1 0x40 MLOAD DUP1 SWAP2 SUB SWAP1 RETURN JUMPDEST PUSH2 0x3D6 PUSH1 0x4 DUP1 CALLDATASIZE SUB DUP2 ADD SWAP1 PUSH2 0x3D1 SWAP2 SWAP1 PUSH2 0x2333 JUMP JUMPDEST PUSH2 0x12C4 JUMP JUMPDEST STOP JUMPDEST PUSH2 0x3F2 PUSH1 0x4 DUP1 CALLDATASIZE SUB DUP2 ADD SWAP1 PUSH2 0x3ED SWAP2 SWAP1 PUSH2 0x269A JUMP JUMPDEST PUSH2 0x1437 JUMP JUMPDEST PUSH1 0x40 MLOAD PUSH2 0x3FF SWAP2 SWAP1 PUSH2 0x1EA6 JUMP JUMPDEST PUSH1 0x40 MLOAD DUP1 SWAP2 SUB SWAP1 RETURN JUMPDEST PUSH0 DUP1 PUSH0 DUP4 PUSH28 0xFFFFFFFFFFFFFFFFFFFFFFFFFFFFFFFFFFFFFFFFFFFFFFFFFFFFFFFF NOT AND PUSH28 0xFFFFFFFFFFFFFFFFFFFFFFFFFFFFFFFFFFFFFFFFFFFFFFFFFFFFFFFF NOT AND DUP2 MSTORE PUSH1 0x20 ADD SWAP1 DUP2 MSTORE PUSH1 0x20 ADD PUSH0 KECCAK256 PUSH0 SWAP1 SLOAD SWAP1 PUSH2 0x100 EXP SWAP1 DIV PUSH1 0xFF AND SWAP1 POP SWAP2 SWAP1 POP JUMP JUMPDEST PUSH1 0x60 PUSH1 0x2 DUP1 SLOAD PUSH2 0x47A SWAP1 PUSH2 0x2705 JUMP JUMPDEST DUP1 PUSH1 0x1F ADD PUSH1 0x20 DUP1 SWAP2 DIV MUL PUSH1 0x20 ADD PUSH1 0x40 MLOAD SWAP1 DUP2 ADD PUSH1 0x40 MSTORE DUP1 SWAP3 SWAP2 SWAP1 DUP2 DUP2 MSTORE PUSH1 0x20 ADD DUP3 DUP1 SLOAD PUSH2 0x4A6 SWAP1 PUSH2 0x2705 JUMP JUMPDEST DUP1 ISZERO PUSH2 0x4F1 JUMPI DUP1 PUSH1 0x1F LT PUSH2 0x4C8 JUMPI PUSH2 0x100 DUP1 DUP4 SLOAD DIV MUL DUP4 MSTORE SWAP2 PUSH1 0x20 ADD SWAP2 PUSH2 0x4F1 JUMP JUMPDEST DUP3 ADD SWAP2 SWAP1 PUSH0 MSTORE PUSH1 0x20 PUSH0 KECCAK256 SWAP1 JUMPDEST DUP2 SLOAD DUP2 MSTORE SWAP1 PUSH1 0x1 ADD SWAP1 PUSH1 0x20 ADD DUP1 DUP4 GT PUSH2 0x4D4 JUMPI DUP3 SWAP1 SUB PUSH1 0x1F AND DUP3 ADD SWAP2 JUMPDEST POP POP POP POP POP SWAP1 POP SWAP1 JUMP JUMPDEST PUSH0 PUSH2 0x505 DUP3 PUSH2 0x14C5 JUMP JUMPDEST PUSH2 0x544 JUMPI PUSH1 0x40 MLOAD PUSH32 0x8C379A000000000000000000000000000000000000000000000000000000000 DUP2 MSTORE PUSH1 0x4 ADD PUSH2 0x53B SWAP1 PUSH2 0x27A5 JUMP JUMPDEST PUSH1 0x40 MLOAD DUP1 SWAP2 SUB SWAP1 REVERT JUMPDEST PUSH1 0x9 PUSH0 DUP4 DUP2 MSTORE PUSH1 0x20 ADD SWAP1 DUP2 MSTORE PUSH1 0x20 ADD PUSH0 KECCAK256 PUSH0 SWAP1 SLOAD SWAP1 PUSH2 0x100 EXP SWAP1 DIV PUSH20 0xFFFFFFFFFFFFFFFFFFFFFFFFFFFFFFFFFFFFFFFF AND SWAP1 POP SWAP2 SWAP1 POP JUMP JUMPDEST PUSH0 PUSH2 0x586 DUP3 PUSH2 0xC37 JUMP JUMPDEST SWAP1 POP DUP1 PUSH20 0xFFFFFFFFFFFFFFFFFFFFFFFFFFFFFFFFFFFFFFFF AND DUP4 PUSH20 0xFFFFFFFFFFFFFFFFFFFFFFFFFFFFFFFFFFFFFFFF AND SUB PUSH2 0x5F6 JUMPI PUSH1 0x40 MLOAD PUSH32 0x8C379A000000000000000000000000000000000000000000000000000000000 DUP2 MSTORE PUSH1 0x4 ADD PUSH2 0x5ED SWAP1 PUSH2 0x2833 JUMP JUMPDEST PUSH1 0x40 MLOAD DUP1 SWAP2 SUB SWAP1 REVERT JUMPDEST DUP1 PUSH20 0xFFFFFFFFFFFFFFFFFFFFFFFFFFFFFFFFFFFFFFFF AND CALLER PUSH20 0xFFFFFFFFFFFFFFFFFFFFFFFFFFFFFFFFFFFFFFFF AND EQ DUP1 PUSH2 0x636 JUMPI POP PUSH2 0x635 DUP2 CALLER PUSH2 0x1437 JUMP JUMPDEST JUMPDEST PUSH2 0x675 JUMPI PUSH1 0x40 MLOAD PUSH32 0x8C379A000000000000000000000000000000000000000000000000000000000 DUP2 MSTORE PUSH1 0x4 ADD PUSH2 0x66C SWAP1 PUSH2 0x28C1 JUMP JUMPDEST PUSH1 0x40 MLOAD DUP1 SWAP2 SUB SWAP1 REVERT JUMPDEST DUP3 PUSH1 0x9 PUSH0 DUP5 DUP2 MSTORE PUSH1 0x20 ADD SWAP1 DUP2 MSTORE PUSH1 0x20 ADD PUSH0 KECCAK256 PUSH0 PUSH2 0x100 EXP DUP2 SLOAD DUP2 PUSH20 0xFFFFFFFFFFFFFFFFFFFFFFFFFFFFFFFFFFFFFFFF MUL NOT AND SWAP1 DUP4 PUSH20 0xFFFFFFFFFFFFFFFFFFFFFFFFFFFFFFFFFFFFFFFF AND MUL OR SWAP1 SSTORE POP DUP2 DUP4 PUSH20 0xFFFFFFFFFFFFFFFFFFFFFFFFFFFFFFFFFFFFFFFF AND DUP3 PUSH20 0xFFFFFFFFFFFFFFFFFFFFFFFFFFFFFFFFFFFFFFFF AND PUSH32 0x8C5BE1E5EBEC7D5BD14F71427D1E84F3DD0314C0F7B2291E5B200AC8C7C3B925 PUSH1 0x40 MLOAD PUSH1 0x40 MLOAD DUP1 SWAP2 SUB SWAP1 LOG4 POP POP POP JUMP JUMPDEST PUSH0 PUSH1 0x5 PUSH0 SWAP1 SLOAD SWAP1 PUSH2 0x100 EXP SWAP1 DIV PUSH20 0xFFFFFFFFFFFFFFFFFFFFFFFFFFFFFFFFFFFFFFFF AND PUSH20 0xFFFFFFFFFFFFFFFFFFFFFFFFFFFFFFFFFFFFFFFF AND CALLER PUSH20 0xFFFFFFFFFFFFFFFFFFFFFFFFFFFFFFFFFFFFFFFF AND EQ PUSH2 0x77D JUMPI PUSH0 DUP1 REVERT JUMPDEST PUSH0 PUSH20 0xFFFFFFFFFFFFFFFFFFFFFFFFFFFFFFFFFFFFFFFF AND DUP8 PUSH20 0xFFFFFFFFFFFFFFFFFFFFFFFFFFFFFFFFFFFFFFFF AND SUB PUSH2 0x7EB JUMPI PUSH1 0x40 MLOAD PUSH32 0x8C379A000000000000000000000000000000000000000000000000000000000 DUP2 MSTORE PUSH1 0x4 ADD PUSH2 0x7E2 SWAP1 PUSH2 0x2929 JUMP JUMPDEST PUSH1 0x40 MLOAD DUP1 SWAP2 SUB SWAP1 REVERT JUMPDEST PUSH1 0x3 DUP1 DUP2 GT ISZERO PUSH2 0x7FE JUMPI PUSH2 0x7FD PUSH2 0x241D JUMP JUMPDEST JUMPDEST PUSH1 0xFF AND DUP6 PUSH1 0xFF AND GT ISZERO PUSH2 0x846 JUMPI PUSH1 0x40 MLOAD PUSH32 0x8C379A000000000000000000000000000000000000000000000000000000000 DUP2 MSTORE PUSH1 0x4 ADD PUSH2 0x83D SWAP1 PUSH2 0x2991 JUMP JUMPDEST PUSH1 0x40 MLOAD DUP1 SWAP2 SUB SWAP1 REVERT JUMPDEST PUSH1 0x2 DUP1 DUP2 GT ISZERO PUSH2 0x859 JUMPI PUSH2 0x858 PUSH2 0x241D JUMP JUMPDEST JUMPDEST PUSH1 0xFF AND DUP5 PUSH1 0xFF AND GT ISZERO PUSH2 0x8A1 JUMPI PUSH1 0x40 MLOAD PUSH32 0x8C379A000000000000000000000000000000000000000000000000000000000 DUP2 MSTORE PUSH1 0x4 ADD PUSH2 0x898 SWAP1 PUSH2 0x29F9 JUMP JUMPDEST PUSH1 0x40 MLOAD DUP1 SWAP2 SUB SWAP1 REVERT JUMPDEST PUSH0 PUSH1 0x6 SLOAD SWAP1 POP PUSH2 0x8B1 DUP9 DUP3 PUSH2 0x152D JUMP JUMPDEST PUSH1 0x40 MLOAD DUP1 PUSH1 0xC0 ADD PUSH1 0x40 MSTORE DUP1 DUP3 DUP2 MSTORE PUSH1 0x20 ADD DUP9 DUP2 MSTORE PUSH1 0x20 ADD DUP8 PUSH1 0xFF AND PUSH1 0x3 DUP2 GT ISZERO PUSH2 0x8DE JUMPI PUSH2 0x8DD PUSH2 0x241D JUMP JUMPDEST JUMPDEST PUSH1 0x3 DUP2 GT ISZERO PUSH2 0x8F0 JUMPI PUSH2 0x8EF PUSH2 0x241D JUMP JUMPDEST JUMPDEST DUP2 MSTORE PUSH1 0x20 ADD DUP7 PUSH1 0xFF AND PUSH1 0x2 DUP2 GT ISZERO PUSH2 0x90B JUMPI PUSH2 0x90A PUSH2 0x241D JUMP JUMPDEST JUMPDEST PUSH1 0x2 DUP2 GT ISZERO PUSH2 0x91D JUMPI PUSH2 0x91C PUSH2 0x241D JUMP JUMPDEST JUMPDEST DUP2 MSTORE PUSH1 0x20 ADD DUP6 DUP2 MSTORE PUSH1 0x20 ADD DUP5 DUP2 MSTORE POP PUSH1 0xB PUSH0 DUP4 DUP2 MSTORE PUSH1 0x20 ADD SWAP1 DUP2 MSTORE PUSH1 0x20 ADD PUSH0 KECCAK256 PUSH0 DUP3 ADD MLOAD DUP2 PUSH0 ADD SSTORE PUSH1 0x20 DUP3 ADD MLOAD DUP2 PUSH1 0x1 ADD SWAP1 DUP2 PUSH2 0x95A SWAP2 SWAP1 PUSH2 0x2BB4 JUMP JUMPDEST POP PUSH1 0x40 DUP3 ADD MLOAD DUP2 PUSH1 0x2 ADD PUSH0 PUSH2 0x100 EXP DUP2 SLOAD DUP2 PUSH1 0xFF MUL NOT AND SWAP1 DUP4 PUSH1 0x3 DUP2 GT ISZERO PUSH2 0x985 JUMPI PUSH2 0x984 PUSH2 0x241D JUMP JUMPDEST JUMPDEST MUL OR SWAP1 SSTORE POP PUSH1 0x60 DUP3 ADD MLOAD DUP2 PUSH1 0x2 ADD PUSH1 0x1 PUSH2 0x100 EXP DUP2 SLOAD DUP2 PUSH1 0xFF MUL NOT AND SWAP1 DUP4 PUSH1 0x2 DUP2 GT ISZERO PUSH2 0x9B5 JUMPI PUSH2 0x9B4 PUSH2 0x241D JUMP JUMPDEST JUMPDEST MUL OR SWAP1 SSTORE POP PUSH1 0x80 DUP3 ADD MLOAD DUP2 PUSH1 0x3 ADD SSTORE PUSH1 0xA0 DUP3 ADD MLOAD DUP2 PUSH1 0x4 ADD SSTORE SWAP1 POP POP PUSH1 0x6 PUSH0 DUP2 SLOAD DUP1 SWAP3 SWAP2 SWAP1 PUSH2 0x9E3 SWAP1 PUSH2 0x2CB0 JUMP JUMPDEST SWAP2 SWAP1 POP SSTORE POP DUP1 PUSH32 0x6A8E7FD37DA999FC1925F460FE0C050176F4C334D0455D03AB25BEAB51ED0264 DUP9 DUP9 PUSH1 0xFF AND PUSH1 0x3 DUP2 GT ISZERO PUSH2 0xA21 JUMPI PUSH2 0xA20 PUSH2 0x241D JUMP JUMPDEST JUMPDEST DUP9 PUSH1 0xFF AND PUSH1 0x2 DUP2 GT ISZERO PUSH2 0xA37 JUMPI PUSH2 0xA36 PUSH2 0x241D JUMP JUMPDEST JUMPDEST PUSH1 0x40 MLOAD PUSH2 0xA46 SWAP4 SWAP3 SWAP2 SWAP1 PUSH2 0x2D15 JUMP JUMPDEST PUSH1 0x40 MLOAD DUP1 SWAP2 SUB SWAP1 LOG2 DUP1 SWAP2 POP POP SWAP7 SWAP6 POP POP POP POP POP POP JUMP JUMPDEST PUSH2 0xA66 CALLER DUP3 PUSH2 0x16FC JUMP JUMPDEST PUSH2 0xAA5 JUMPI PUSH1 0x40 MLOAD PUSH32 0x8C379A000000000000000000000000000000000000000000000000000000000 DUP2 MSTORE PUSH1 0x4 ADD PUSH2 0xA9C SWAP1 PUSH2 0x2DC1 JUMP JUMPDEST PUSH1 0x40 MLOAD DUP1 SWAP2 SUB SWAP1 REVERT JUMPDEST PUSH2 0xAB0 DUP4 DUP4 DUP4 PUSH2 0x1790 JUMP JUMPDEST POP POP POP JUMP JUMPDEST PUSH2 0xACF DUP4 DUP4 DUP4 PUSH1 0x40 MLOAD DUP1 PUSH1 0x20 ADD PUSH1 0x40 MSTORE DUP1 PUSH0 DUP2 MSTORE POP PUSH2 0x11C5 JUMP JUMPDEST POP POP POP JUMP JUMPDEST PUSH2 0xADC PUSH2 0xDBF JUMP JUMPDEST PUSH2 0xB1B JUMPI PUSH1 0x40 MLOAD PUSH32 0x8C379A000000000000000000000000000000000000000000000000000000000 DUP2 MSTORE PUSH1 0x4 ADD PUSH2 0xB12 SWAP1 PUSH2 0x2E4F JUMP JUMPDEST PUSH1 0x40 MLOAD DUP1 SWAP2 SUB SWAP1 REVERT JUMPDEST PUSH0 DUP2 MLOAD GT PUSH2 0xB5E JUMPI PUSH1 0x40 MLOAD PUSH32 0x8C379A000000000000000000000000000000000000000000000000000000000 DUP2 MSTORE PUSH1 0x4 ADD PUSH2 0xB55 SWAP1 PUSH2 0x2EB7 JUMP JUMPDEST PUSH1 0x40 MLOAD DUP1 SWAP2 SUB SWAP1 REVERT JUMPDEST PUSH0 PUSH1 0x4 DUP1 SLOAD PUSH2 0xB6C SWAP1 PUSH2 0x2705 JUMP JUMPDEST DUP1 PUSH1 0x1F ADD PUSH1 0x20 DUP1 SWAP2 DIV MUL PUSH1 0x20 ADD PUSH1 0x40 MLOAD SWAP1 DUP2 ADD PUSH1 0x40 MSTORE DUP1 SWAP3 SWAP2 SWAP1 DUP2 DUP2 MSTORE PUSH1 0x20 ADD DUP3 DUP1 SLOAD PUSH2 0xB98 SWAP1 PUSH2 0x2705 JUMP JUMPDEST DUP1 ISZERO PUSH2 0xBE3 JUMPI DUP1 PUSH1 0x1F LT PUSH2 0xBBA JUMPI PUSH2 0x100 DUP1 DUP4 SLOAD DIV MUL DUP4 MSTORE SWAP2 PUSH1 0x20 ADD SWAP2 PUSH2 0xBE3 JUMP JUMPDEST DUP3 ADD SWAP2 SWAP1 PUSH0 MSTORE PUSH1 0x20 PUSH0 KECCAK256 SWAP1 JUMPDEST DUP2 SLOAD DUP2 MSTORE SWAP1 PUSH1 0x1 ADD SWAP1 PUSH1 0x20 ADD DUP1 DUP4 GT PUSH2 0xBC6 JUMPI DUP3 SWAP1 SUB PUSH1 0x1F AND DUP3 ADD SWAP2 JUMPDEST POP POP POP POP POP SWAP1 POP DUP2 PUSH1 0x4 SWAP1 DUP2 PUSH2 0xBF9 SWAP2 SWAP1 PUSH2 0x2BB4 JUMP JUMPDEST POP PUSH32 0x309B29DED109B9E28FB9885757B3E0096EB75C51D23AA4635D68BCD569F6ADC1 DUP2 DUP4 PUSH1 0x40 MLOAD PUSH2 0xC2B SWAP3 SWAP2 SWAP1 PUSH2 0x2ED5 JUMP JUMPDEST PUSH1 0x40 MLOAD DUP1 SWAP2 SUB SWAP1 LOG1 POP POP JUMP JUMPDEST PUSH0 DUP1 PUSH1 0x7 PUSH0 DUP5 DUP2 MSTORE PUSH1 0x20 ADD SWAP1 DUP2 MSTORE PUSH1 0x20 ADD PUSH0 KECCAK256 PUSH0 SWAP1 SLOAD SWAP1 PUSH2 0x100 EXP SWAP1 DIV PUSH20 0xFFFFFFFFFFFFFFFFFFFFFFFFFFFFFFFFFFFFFFFF AND SWAP1 POP PUSH0 PUSH20 0xFFFFFFFFFFFFFFFFFFFFFFFFFFFFFFFFFFFFFFFF AND DUP2 PUSH20 0xFFFFFFFFFFFFFFFFFFFFFFFFFFFFFFFFFFFFFFFF AND SUB PUSH2 0xCDA JUMPI PUSH1 0x40 MLOAD PUSH32 0x8C379A000000000000000000000000000000000000000000000000000000000 DUP2 MSTORE PUSH1 0x4 ADD PUSH2 0xCD1 SWAP1 PUSH2 0x2F54 JUMP JUMPDEST PUSH1 0x40 MLOAD DUP1 SWAP2 SUB SWAP1 REVERT JUMPDEST DUP1 SWAP2 POP POP SWAP2 SWAP1 POP JUMP JUMPDEST PUSH0 DUP1 PUSH20 0xFFFFFFFFFFFFFFFFFFFFFFFFFFFFFFFFFFFFFFFF AND DUP3 PUSH20 0xFFFFFFFFFFFFFFFFFFFFFFFFFFFFFFFFFFFFFFFF AND SUB PUSH2 0xD52 JUMPI PUSH1 0x40 MLOAD PUSH32 0x8C379A000000000000000000000000000000000000000000000000000000000 DUP2 MSTORE PUSH1 0x4 ADD PUSH2 0xD49 SWAP1 PUSH2 0x2FE2 JUMP JUMPDEST PUSH1 0x40 MLOAD DUP1 SWAP2 SUB SWAP1 REVERT JUMPDEST PUSH1 0x8 PUSH0 DUP4 PUSH20 0xFFFFFFFFFFFFFFFFFFFFFFFFFFFFFFFFFFFFFFFF AND PUSH20 0xFFFFFFFFFFFFFFFFFFFFFFFFFFFFFFFFFFFFFFFF AND DUP2 MSTORE PUSH1 0x20 ADD SWAP1 DUP2 MSTORE PUSH1 0x20 ADD PUSH0 KECCAK256 SLOAD SWAP1 POP SWAP2 SWAP1 POP JUMP JUMPDEST PUSH0 PUSH1 0x1 PUSH0 SWAP1 SLOAD SWAP1 PUSH2 0x100 EXP SWAP1 DIV PUSH20 0xFFFFFFFFFFFFFFFFFFFFFFFFFFFFFFFFFFFFFFFF AND SWAP1 POP SWAP1 JUMP JUMPDEST PUSH0 PUSH1 0x1 PUSH0 SWAP1 SLOAD SWAP1 PUSH2 0x100 EXP SWAP1 DIV PUSH20 0xFFFFFFFFFFFFFFFFFFFFFFFFFFFFFFFFFFFFFFFF AND PUSH20 0xFFFFFFFFFFFFFFFFFFFFFFFFFFFFFFFFFFFFFFFF AND CALLER PUSH20 0xFFFFFFFFFFFFFFFFFFFFFFFFFFFFFFFFFFFFFFFF AND EQ SWAP1 POP SWAP1 JUMP JUMPDEST PUSH1 0x60 PUSH1 0x3 DUP1 SLOAD PUSH2 0xE24 SWAP1 PUSH2 0x2705 JUMP JUMPDEST DUP1 PUSH1 0x1F ADD PUSH1 0x20 DUP1 SWAP2 DIV MUL PUSH1 0x20 ADD PUSH1 0x40 MLOAD SWAP1 DUP2 ADD PUSH1 0x40 MSTORE DUP1 SWAP3 SWAP2 SWAP1 DUP2 DUP2 MSTORE PUSH1 0x20 ADD DUP3 DUP1 SLOAD PUSH2 0xE50 SWAP1 PUSH2 0x2705 JUMP JUMPDEST DUP1 ISZERO PUSH2 0xE9B JUMPI DUP1 PUSH1 0x1F LT PUSH2 0xE72 JUMPI PUSH2 0x100 DUP1 DUP4 SLOAD DIV MUL DUP4 MSTORE SWAP2 PUSH1 0x20 ADD SWAP2 PUSH2 0xE9B JUMP JUMPDEST DUP3 ADD SWAP2 SWAP1 PUSH0 MSTORE PUSH1 0x20 PUSH0 KECCAK256 SWAP1 JUMPDEST DUP2 SLOAD DUP2 MSTORE SWAP1 PUSH1 0x1 ADD SWAP1 PUSH1 0x20 ADD DUP1 DUP4 GT PUSH2 0xE7E JUMPI DUP3 SWAP1 SUB PUSH1 0x1F AND DUP3 ADD SWAP2 JUMPDEST POP POP POP POP POP SWAP1 POP SWAP1 JUMP JUMPDEST PUSH1 0x5 PUSH0 SWAP1 SLOAD SWAP1 PUSH2 0x100 EXP SWAP1 DIV PUSH20 0xFFFFFFFFFFFFFFFFFFFFFFFFFFFFFFFFFFFFFFFF AND DUP2 JUMP JUMPDEST DUP2 PUSH20 0xFFFFFFFFFFFFFFFFFFFFFFFFFFFFFFFFFFFFFFFF AND CALLER PUSH20 0xFFFFFFFFFFFFFFFFFFFFFFFFFFFFFFFFFFFFFFFF AND SUB PUSH2 0xF38 JUMPI PUSH1 0x40 MLOAD PUSH32 0x8C379A000000000000000000000000000000000000000000000000000000000 DUP2 MSTORE PUSH1 0x4 ADD PUSH2 0xF2F SWAP1 PUSH2 0x304A JUMP JUMPDEST PUSH1 0x40 MLOAD DUP1 SWAP2 SUB SWAP1 REVERT JUMPDEST DUP1 PUSH1 0xA PUSH0 CALLER PUSH20 0xFFFFFFFFFFFFFFFFFFFFFFFFFFFFFFFFFFFFFFFF AND PUSH20 0xFFFFFFFFFFFFFFFFFFFFFFFFFFFFFFFFFFFFFFFF AND DUP2 MSTORE PUSH1 0x20 ADD SWAP1 DUP2 MSTORE PUSH1 0x20 ADD PUSH0 KECCAK256 PUSH0 DUP5 PUSH20 0xFFFFFFFFFFFFFFFFFFFFFFFFFFFFFFFFFFFFFFFF AND PUSH20 0xFFFFFFFFFFFFFFFFFFFFFFFFFFFFFFFFFFFFFFFF AND DUP2 MSTORE PUSH1 0x20 ADD SWAP1 DUP2 MSTORE PUSH1 0x20 ADD PUSH0 KECCAK256 PUSH0 PUSH2 0x100 EXP DUP2 SLOAD DUP2 PUSH1 0xFF MUL NOT AND SWAP1 DUP4 ISZERO ISZERO MUL OR SWAP1 SSTORE POP DUP2 PUSH20 0xFFFFFFFFFFFFFFFFFFFFFFFFFFFFFFFFFFFFFFFF AND CALLER PUSH20 0xFFFFFFFFFFFFFFFFFFFFFFFFFFFFFFFFFFFFFFFF AND PUSH32 0x17307EAB39AB6107E8899845AD3D59BD9653F200F220920489CA2B5937696C31 DUP4 PUSH1 0x40 MLOAD PUSH2 0x1024 SWAP2 SWAP1 PUSH2 0x1EA6 JUMP JUMPDEST PUSH1 0x40 MLOAD DUP1 SWAP2 SUB SWAP1 LOG3 POP POP JUMP JUMPDEST PUSH2 0x1038 PUSH2 0x1DA6 JUMP JUMPDEST PUSH2 0x1041 DUP3 PUSH2 0x14C5 JUMP JUMPDEST PUSH2 0x1080 JUMPI PUSH1 0x40 MLOAD PUSH32 0x8C379A000000000000000000000000000000000000000000000000000000000 DUP2 MSTORE PUSH1 0x4 ADD PUSH2 0x1077 SWAP1 PUSH2 0x30B2 JUMP JUMPDEST PUSH1 0x40 MLOAD DUP1 SWAP2 SUB SWAP1 REVERT JUMPDEST PUSH1 0xB PUSH0 DUP4 DUP2 MSTORE PUSH1 0x20 ADD SWAP1 DUP2 MSTORE PUSH1 0x20 ADD PUSH0 KECCAK256 PUSH1 0x40 MLOAD DUP1 PUSH1 0xC0 ADD PUSH1 0x40 MSTORE SWAP1 DUP2 PUSH0 DUP3 ADD SLOAD DUP2 MSTORE PUSH1 0x20 ADD PUSH1 0x1 DUP3 ADD DUP1 SLOAD PUSH2 0x10B5 SWAP1 PUSH2 0x2705 JUMP JUMPDEST DUP1 PUSH1 0x1F ADD PUSH1 0x20 DUP1 SWAP2 DIV MUL PUSH1 0x20 ADD PUSH1 0x40 MLOAD SWAP1 DUP2 ADD PUSH1 0x40 MSTORE DUP1 SWAP3 SWAP2 SWAP1 DUP2 DUP2 MSTORE PUSH1 0x20 ADD DUP3 DUP1 SLOAD PUSH2 0x10E1 SWAP1 PUSH2 0x2705 JUMP JUMPDEST DUP1 ISZERO PUSH2 0x112C JUMPI DUP1 PUSH1 0x1F LT PUSH2 0x1103 JUMPI PUSH2 0x100 DUP1 DUP4 SLOAD DIV MUL DUP4 MSTORE SWAP2 PUSH1 0x20 ADD SWAP2 PUSH2 0x112C JUMP JUMPDEST DUP3 ADD SWAP2 SWAP1 PUSH0 MSTORE PUSH1 0x20 PUSH0 KECCAK256 SWAP1 JUMPDEST DUP2 SLOAD DUP2 MSTORE SWAP1 PUSH1 0x1 ADD SWAP1 PUSH1 0x20 ADD DUP1 DUP4 GT PUSH2 0x110F JUMPI DUP3 SWAP1 SUB PUSH1 0x1F AND DUP3 ADD SWAP2 JUMPDEST POP POP POP POP POP DUP2 MSTORE PUSH1 0x20 ADD PUSH1 0x2 DUP3 ADD PUSH0 SWAP1 SLOAD SWAP1 PUSH2 0x100 EXP SWAP1 DIV PUSH1 0xFF AND PUSH1 0x3 DUP2 GT ISZERO PUSH2 0x1159 JUMPI PUSH2 0x1158 PUSH2 0x241D JUMP JUMPDEST JUMPDEST PUSH1 0x3 DUP2 GT ISZERO PUSH2 0x116B JUMPI PUSH2 0x116A PUSH2 0x241D JUMP JUMPDEST JUMPDEST DUP2 MSTORE PUSH1 0x20 ADD PUSH1 0x2 DUP3 ADD PUSH1 0x1 SWAP1 SLOAD SWAP1 PUSH2 0x100 EXP SWAP1 DIV PUSH1 0xFF AND PUSH1 0x2 DUP2 GT ISZERO PUSH2 0x1194 JUMPI PUSH2 0x1193 PUSH2 0x241D JUMP JUMPDEST JUMPDEST PUSH1 0x2 DUP2 GT ISZERO PUSH2 0x11A6 JUMPI PUSH2 0x11A5 PUSH2 0x241D JUMP JUMPDEST JUMPDEST DUP2 MSTORE PUSH1 0x20 ADD PUSH1 0x3 DUP3 ADD SLOAD DUP2 MSTORE PUSH1 0x20 ADD PUSH1 0x4 DUP3 ADD SLOAD DUP2 MSTORE POP POP SWAP1 POP SWAP2 SWAP1 POP JUMP JUMPDEST PUSH2 0x11CF CALLER DUP4 PUSH2 0x16FC JUMP JUMPDEST PUSH2 0x120E JUMPI PUSH1 0x40 MLOAD PUSH32 0x8C379A000000000000000000000000000000000000000000000000000000000 DUP2 MSTORE PUSH1 0x4 ADD PUSH2 0x1205 SWAP1 PUSH2 0x2DC1 JUMP JUMPDEST PUSH1 0x40 MLOAD DUP1 SWAP2 SUB SWAP1 REVERT JUMPDEST PUSH2 0x121A DUP5 DUP5 DUP5 DUP5 PUSH2 0x19E1 JUMP JUMPDEST POP POP POP POP JUMP JUMPDEST PUSH1 0x60 PUSH2 0x122B DUP3 PUSH2 0x14C5 JUMP JUMPDEST PUSH2 0x126A JUMPI PUSH1 0x40 MLOAD PUSH32 0x8C379A000000000000000000000000000000000000000000000000000000000 DUP2 MSTORE PUSH1 0x4 ADD PUSH2 0x1261 SWAP1 PUSH2 0x3140 JUMP JUMPDEST PUSH1 0x40 MLOAD DUP1 SWAP2 SUB SWAP1 REVERT JUMPDEST PUSH0 PUSH2 0x1273 PUSH2 0x1A3D JUMP JUMPDEST SWAP1 POP PUSH0 DUP2 MLOAD GT PUSH2 0x1291 JUMPI PUSH1 0x40 MLOAD DUP1 PUSH1 0x20 ADD PUSH1 0x40 MSTORE DUP1 PUSH0 DUP2 MSTORE POP PUSH2 0x12BC JUMP JUMPDEST DUP1 PUSH2 0x129B DUP5 PUSH2 0x1ACD JUMP JUMPDEST PUSH1 0x40 MLOAD PUSH1 0x20 ADD PUSH2 0x12AC SWAP3 SWAP2 SWAP1 PUSH2 0x31E2 JUMP JUMPDEST PUSH1 0x40 MLOAD PUSH1 0x20 DUP2 DUP4 SUB SUB DUP2 MSTORE SWAP1 PUSH1 0x40 MSTORE JUMPDEST SWAP2 POP POP SWAP2 SWAP1 POP JUMP JUMPDEST PUSH2 0x12CC PUSH2 0xDBF JUMP JUMPDEST PUSH2 0x130B JUMPI PUSH1 0x40 MLOAD PUSH32 0x8C379A000000000000000000000000000000000000000000000000000000000 DUP2 MSTORE PUSH1 0x4 ADD PUSH2 0x1302 SWAP1 PUSH2 0x2E4F JUMP JUMPDEST PUSH1 0x40 MLOAD DUP1 SWAP2 SUB SWAP1 REVERT JUMPDEST PUSH0 PUSH20 0xFFFFFFFFFFFFFFFFFFFFFFFFFFFFFFFFFFFFFFFF AND DUP2 PUSH20 0xFFFFFFFFFFFFFFFFFFFFFFFFFFFFFFFFFFFFFFFF AND SUB PUSH2 0x1379 JUMPI PUSH1 0x40 MLOAD PUSH32 0x8C379A000000000000000000000000000000000000000000000000000000000 DUP2 MSTORE PUSH1 0x4 ADD PUSH2 0x1370 SWAP1 PUSH2 0x325A JUMP JUMPDEST PUSH1 0x40 MLOAD DUP1 SWAP2 SUB SWAP1 REVERT JUMPDEST DUP1 PUSH20 0xFFFFFFFFFFFFFFFFFFFFFFFFFFFFFFFFFFFFFFFF AND PUSH1 0x5 PUSH0 SWAP1 SLOAD SWAP1 PUSH2 0x100 EXP SWAP1 DIV PUSH20 0xFFFFFFFFFFFFFFFFFFFFFFFFFFFFFFFFFFFFFFFF AND PUSH20 0xFFFFFFFFFFFFFFFFFFFFFFFFFFFFFFFFFFFFFFFF AND PUSH32 0xAB49B1935E5902470601AC7C9BCB853566DEC7BCA0E9A66B343C1D7F0FE6E40E PUSH1 0x40 MLOAD PUSH1 0x40 MLOAD DUP1 SWAP2 SUB SWAP1 LOG3 DUP1 PUSH1 0x5 PUSH0 PUSH2 0x100 EXP DUP2 SLOAD DUP2 PUSH20 0xFFFFFFFFFFFFFFFFFFFFFFFFFFFFFFFFFFFFFFFF MUL NOT AND SWAP1 DUP4 PUSH20 0xFFFFFFFFFFFFFFFFFFFFFFFFFFFFFFFFFFFFFFFF AND MUL OR SWAP1 SSTORE POP POP JUMP JUMPDEST PUSH0 PUSH1 0xA PUSH0 DUP5 PUSH20 0xFFFFFFFFFFFFFFFFFFFFFFFFFFFFFFFFFFFFFFFF AND PUSH20 0xFFFFFFFFFFFFFFFFFFFFFFFFFFFFFFFFFFFFFFFF AND DUP2 MSTORE PUSH1 0x20 ADD SWAP1 DUP2 MSTORE PUSH1 0x20 ADD PUSH0 KECCAK256 PUSH0 DUP4 PUSH20 0xFFFFFFFFFFFFFFFFFFFFFFFFFFFFFFFFFFFFFFFF AND PUSH20 0xFFFFFFFFFFFFFFFFFFFFFFFFFFFFFFFFFFFFFFFF AND DUP2 MSTORE PUSH1 0x20 ADD SWAP1 DUP2 MSTORE PUSH1 0x20 ADD PUSH0 KECCAK256 PUSH0 SWAP1 SLOAD SWAP1 PUSH2 0x100 EXP SWAP1 DIV PUSH1 0xFF AND SWAP1 POP SWAP3 SWAP2 POP POP JUMP JUMPDEST PUSH0 DUP1 PUSH20 0xFFFFFFFFFFFFFFFFFFFFFFFFFFFFFFFFFFFFFFFF AND PUSH1 0x7 PUSH0 DUP5 DUP2 MSTORE PUSH1 0x20 ADD SWAP1 DUP2 MSTORE PUSH1 0x20 ADD PUSH0 KECCAK256 PUSH0 SWAP1 SLOAD SWAP1 PUSH2 0x100 EXP SWAP1 DIV PUSH20 0xFFFFFFFFFFFFFFFFFFFFFFFFFFFFFFFFFFFFFFFF AND PUSH20 0xFFFFFFFFFFFFFFFFFFFFFFFFFFFFFFFFFFFFFFFF AND EQ ISZERO SWAP1 POP SWAP2 SWAP1 POP JUMP JUMPDEST PUSH0 PUSH20 0xFFFFFFFFFFFFFFFFFFFFFFFFFFFFFFFFFFFFFFFF AND DUP3 PUSH20 0xFFFFFFFFFFFFFFFFFFFFFFFFFFFFFFFFFFFFFFFF AND SUB PUSH2 0x159B JUMPI PUSH1 0x40 MLOAD PUSH32 0x8C379A000000000000000000000000000000000000000000000000000000000 DUP2 MSTORE PUSH1 0x4 ADD PUSH2 0x1592 SWAP1 PUSH2 0x32C2 JUMP JUMPDEST PUSH1 0x40 MLOAD DUP1 SWAP2 SUB SWAP1 REVERT JUMPDEST PUSH2 0x15A4 DUP2 PUSH2 0x14C5 JUMP JUMPDEST ISZERO PUSH2 0x15E4 JUMPI PUSH1 0x40 MLOAD PUSH32 0x8C379A000000000000000000000000000000000000000000000000000000000 DUP2 MSTORE PUSH1 0x4 ADD PUSH2 0x15DB SWAP1 PUSH2 0x332A JUMP JUMPDEST PUSH1 0x40 MLOAD DUP1 SWAP2 SUB SWAP1 REVERT JUMPDEST PUSH2 0x15EF PUSH0 DUP4 DUP4 PUSH2 0x1C26 JUMP JUMPDEST PUSH1 0x1 PUSH1 0x8 PUSH0 DUP5 PUSH20 0xFFFFFFFFFFFFFFFFFFFFFFFFFFFFFFFFFFFFFFFF AND PUSH20 0xFFFFFFFFFFFFFFFFFFFFFFFFFFFFFFFFFFFFFFFF AND DUP2 MSTORE PUSH1 0x20 ADD SWAP1 DUP2 MSTORE PUSH1 0x20 ADD PUSH0 KECCAK256 PUSH0 DUP3 DUP3 SLOAD PUSH2 0x163C SWAP2 SWAP1 PUSH2 0x3348 JUMP JUMPDEST SWAP3 POP POP DUP2 SWAP1 SSTORE POP DUP2 PUSH1 0x7 PUSH0 DUP4 DUP2 MSTORE PUSH1 0x20 ADD SWAP1 DUP2 MSTORE PUSH1 0x20 ADD PUSH0 KECCAK256 PUSH0 PUSH2 0x100 EXP DUP2 SLOAD DUP2 PUSH20 0xFFFFFFFFFFFFFFFFFFFFFFFFFFFFFFFFFFFFFFFF MUL NOT AND SWAP1 DUP4 PUSH20 0xFFFFFFFFFFFFFFFFFFFFFFFFFFFFFFFFFFFFFFFF AND MUL OR SWAP1 SSTORE POP DUP1 DUP3 PUSH20 0xFFFFFFFFFFFFFFFFFFFFFFFFFFFFFFFFFFFFFFFF AND PUSH0 PUSH20 0xFFFFFFFFFFFFFFFFFFFFFFFFFFFFFFFFFFFFFFFF AND PUSH32 0xDDF252AD1BE2C89B69C2B068FC378DAA952BA7F163C4A11628F55A4DF523B3EF PUSH1 0x40 MLOAD PUSH1 0x40 MLOAD DUP1 SWAP2 SUB SWAP1 LOG4 PUSH2 0x16F8 PUSH0 DUP4 DUP4 PUSH2 0x1C2B JUMP JUMPDEST POP POP JUMP JUMPDEST PUSH0 DUP1 PUSH2 0x1707 DUP4 PUSH2 0xC37 JUMP JUMPDEST SWAP1 POP DUP1 PUSH20 0xFFFFFFFFFFFFFFFFFFFFFFFFFFFFFFFFFFFFFFFF AND DUP5 PUSH20 0xFFFFFFFFFFFFFFFFFFFFFFFFFFFFFFFFFFFFFFFF AND EQ DUP1 PUSH2 0x1749 JUMPI POP PUSH2 0x1748 DUP2 DUP6 PUSH2 0x1437 JUMP JUMPDEST JUMPDEST DUP1 PUSH2 0x1787 JUMPI POP DUP4 PUSH20 0xFFFFFFFFFFFFFFFFFFFFFFFFFFFFFFFFFFFFFFFF AND PUSH2 0x176F DUP5 PUSH2 0x4FB JUMP JUMPDEST PUSH20 0xFFFFFFFFFFFFFFFFFFFFFFFFFFFFFFFFFFFFFFFF AND EQ JUMPDEST SWAP2 POP POP SWAP3 SWAP2 POP POP JUMP JUMPDEST DUP3 PUSH20 0xFFFFFFFFFFFFFFFFFFFFFFFFFFFFFFFFFFFFFFFF AND PUSH2 0x17B0 DUP3 PUSH2 0xC37 JUMP JUMPDEST PUSH20 0xFFFFFFFFFFFFFFFFFFFFFFFFFFFFFFFFFFFFFFFF AND EQ PUSH2 0x1806 JUMPI PUSH1 0x40 MLOAD PUSH32 0x8C379A000000000000000000000000000000000000000000000000000000000 DUP2 MSTORE PUSH1 0x4 ADD PUSH2 0x17FD SWAP1 PUSH2 0x33EB JUMP JUMPDEST PUSH1 0x40 MLOAD DUP1 SWAP2 SUB SWAP1 REVERT JUMPDEST PUSH0 PUSH20 0xFFFFFFFFFFFFFFFFFFFFFFFFFFFFFFFFFFFFFFFF AND DUP3 PUSH20 0xFFFFFFFFFFFFFFFFFFFFFFFFFFFFFFFFFFFFFFFF AND SUB PUSH2 0x1874 JUMPI PUSH1 0x40 MLOAD PUSH32 0x8C379A000000000000000000000000000000000000000000000000000000000 DUP2 MSTORE PUSH1 0x4 ADD PUSH2 0x186B SWAP1 PUSH2 0x3479 JUMP JUMPDEST PUSH1 0x40 MLOAD DUP1 SWAP2 SUB SWAP1 REVERT JUMPDEST PUSH2 0x187F DUP4 DUP4 DUP4 PUSH2 0x1C26 JUMP JUMPDEST PUSH1 0x1 PUSH1 0x8 PUSH0 DUP6 PUSH20 0xFFFFFFFFFFFFFFFFFFFFFFFFFFFFFFFFFFFFFFFF AND PUSH20 0xFFFFFFFFFFFFFFFFFFFFFFFFFFFFFFFFFFFFFFFF AND DUP2 MSTORE PUSH1 0x20 ADD SWAP1 DUP2 MSTORE PUSH1 0x20 ADD PUSH0 KECCAK256 PUSH0 DUP3 DUP3 SLOAD PUSH2 0x18CC SWAP2 SWAP1 PUSH2 0x3497 JUMP JUMPDEST SWAP3 POP POP DUP2 SWAP1 SSTORE POP PUSH1 0x1 PUSH1 0x8 PUSH0 DUP5 PUSH20 0xFFFFFFFFFFFFFFFFFFFFFFFFFFFFFFFFFFFFFFFF AND PUSH20 0xFFFFFFFFFFFFFFFFFFFFFFFFFFFFFFFFFFFFFFFF AND DUP2 MSTORE PUSH1 0x20 ADD SWAP1 DUP2 MSTORE PUSH1 0x20 ADD PUSH0 KECCAK256 PUSH0 DUP3 DUP3 SLOAD PUSH2 0x1920 SWAP2 SWAP1 PUSH2 0x3348 JUMP JUMPDEST SWAP3 POP POP DUP2 SWAP1 SSTORE POP DUP2 PUSH1 0x7 PUSH0 DUP4 DUP2 MSTORE PUSH1 0x20 ADD SWAP1 DUP2 MSTORE PUSH1 0x20 ADD PUSH0 KECCAK256 PUSH0 PUSH2 0x100 EXP DUP2 SLOAD DUP2 PUSH20 0xFFFFFFFFFFFFFFFFFFFFFFFFFFFFFFFFFFFFFFFF MUL NOT AND SWAP1 DUP4 PUSH20 0xFFFFFFFFFFFFFFFFFFFFFFFFFFFFFFFFFFFFFFFF AND MUL OR SWAP1 SSTORE POP DUP1 DUP3 PUSH20 0xFFFFFFFFFFFFFFFFFFFFFFFFFFFFFFFFFFFFFFFF AND DUP5 PUSH20 0xFFFFFFFFFFFFFFFFFFFFFFFFFFFFFFFFFFFFFFFF AND PUSH32 0xDDF252AD1BE2C89B69C2B068FC378DAA952BA7F163C4A11628F55A4DF523B3EF PUSH1 0x40 MLOAD PUSH1 0x40 MLOAD DUP1 SWAP2 SUB SWAP1 LOG4 PUSH2 0x19DC DUP4 DUP4 DUP4 PUSH2 0x1C2B JUMP JUMPDEST POP POP POP JUMP JUMPDEST PUSH2 0x19EC DUP5 DUP5 DUP5 PUSH2 0x1790 JUMP JUMPDEST PUSH2 0x19F8 DUP5 DUP5 DUP5 DUP5 PUSH2 0x1C30 JUMP JUMPDEST PUSH2 0x1A37 JUMPI PUSH1 0x40 MLOAD PUSH32 0x8C379A000000000000000000000000000000000000000000000000000000000 DUP2 MSTORE PUSH1 0x4 ADD PUSH2 0x1A2E SWAP1 PUSH2 0x353A JUMP JUMPDEST PUSH1 0x40 MLOAD DUP1 SWAP2 SUB SWAP1 REVERT JUMPDEST POP POP POP POP JUMP JUMPDEST PUSH1 0x60 PUSH1 0x4 DUP1 SLOAD PUSH2 0x1A4C SWAP1 PUSH2 0x2705 JUMP JUMPDEST DUP1 PUSH1 0x1F ADD PUSH1 0x20 DUP1 SWAP2 DIV MUL PUSH1 0x20 ADD PUSH1 0x40 MLOAD SWAP1 DUP2 ADD PUSH1 0x40 MSTORE DUP1 SWAP3 SWAP2 SWAP1 DUP2 DUP2 MSTORE PUSH1 0x20 ADD DUP3 DUP1 SLOAD PUSH2 0x1A78 SWAP1 PUSH2 0x2705 JUMP JUMPDEST DUP1 ISZERO PUSH2 0x1AC3 JUMPI DUP1 PUSH1 0x1F LT PUSH2 0x1A9A JUMPI PUSH2 0x100 DUP1 DUP4 SLOAD DIV MUL DUP4 MSTORE SWAP2 PUSH1 0x20 ADD SWAP2 PUSH2 0x1AC3 JUMP JUMPDEST DUP3 ADD SWAP2 SWAP1 PUSH0 MSTORE PUSH1 0x20 PUSH0 KECCAK256 SWAP1 JUMPDEST DUP2 SLOAD DUP2 MSTORE SWAP1 PUSH1 0x1 ADD SWAP1 PUSH1 0x20 ADD DUP1 DUP4 GT PUSH2 0x1AA6 JUMPI DUP3 SWAP1 SUB PUSH1 0x1F AND DUP3 ADD SWAP2 JUMPDEST POP POP POP POP POP SWAP1 POP SWAP1 JUMP JUMPDEST PUSH1 0x60 PUSH0 DUP3 SUB PUSH2 0x1B13 JUMPI PUSH1 0x40 MLOAD DUP1 PUSH1 0x40 ADD PUSH1 0x40 MSTORE DUP1 PUSH1 0x1 DUP2 MSTORE PUSH1 0x20 ADD PUSH32 0x3000000000000000000000000000000000000000000000000000000000000000 DUP2 MSTORE POP SWAP1 POP PUSH2 0x1C21 JUMP JUMPDEST PUSH0 DUP3 SWAP1 POP PUSH0 JUMPDEST PUSH0 DUP3 EQ PUSH2 0x1B42 JUMPI DUP1 DUP1 PUSH2 0x1B2B SWAP1 PUSH2 0x2CB0 JUMP JUMPDEST SWAP2 POP POP PUSH1 0xA DUP3 PUSH2 0x1B3B SWAP2 SWAP1 PUSH2 0x3585 JUMP JUMPDEST SWAP2 POP PUSH2 0x1B19 JUMP JUMPDEST PUSH0 DUP2 PUSH8 0xFFFFFFFFFFFFFFFF DUP2 GT ISZERO PUSH2 0x1B5D JUMPI PUSH2 0x1B5C PUSH2 0x2075 JUMP JUMPDEST JUMPDEST PUSH1 0x40 MLOAD SWAP1 DUP1 DUP3 MSTORE DUP1 PUSH1 0x1F ADD PUSH1 0x1F NOT AND PUSH1 0x20 ADD DUP3 ADD PUSH1 0x40 MSTORE DUP1 ISZERO PUSH2 0x1B8F JUMPI DUP2 PUSH1 0x20 ADD PUSH1 0x1 DUP3 MUL DUP1 CALLDATASIZE DUP4 CALLDATACOPY DUP1 DUP3 ADD SWAP2 POP POP SWAP1 POP JUMPDEST POP SWAP1 POP JUMPDEST PUSH0 DUP6 EQ PUSH2 0x1C1A JUMPI PUSH1 0x1 DUP3 PUSH2 0x1BA7 SWAP2 SWAP1 PUSH2 0x3497 JUMP JUMPDEST SWAP2 POP PUSH1 0xA DUP6 PUSH2 0x1BB6 SWAP2 SWAP1 PUSH2 0x35B5 JUMP JUMPDEST PUSH1 0x30 PUSH2 0x1BC2 SWAP2 SWAP1 PUSH2 0x3348 JUMP JUMPDEST PUSH1 0xF8 SHL DUP2 DUP4 DUP2 MLOAD DUP2 LT PUSH2 0x1BD8 JUMPI PUSH2 0x1BD7 PUSH2 0x35E5 JUMP JUMPDEST JUMPDEST PUSH1 0x20 ADD ADD SWAP1 PUSH31 0xFFFFFFFFFFFFFFFFFFFFFFFFFFFFFFFFFFFFFFFFFFFFFFFFFFFFFFFFFFFFFF NOT AND SWAP1 DUP2 PUSH0 BYTE SWAP1 MSTORE8 POP PUSH1 0xA DUP6 PUSH2 0x1C13 SWAP2 SWAP1 PUSH2 0x3585 JUMP JUMPDEST SWAP5 POP PUSH2 0x1B93 JUMP JUMPDEST DUP1 SWAP4 POP POP POP POP JUMPDEST SWAP2 SWAP1 POP JUMP JUMPDEST POP POP POP JUMP JUMPDEST POP POP POP JUMP JUMPDEST PUSH0 DUP1 DUP5 PUSH20 0xFFFFFFFFFFFFFFFFFFFFFFFFFFFFFFFFFFFFFFFF AND EXTCODESIZE GT ISZERO PUSH2 0x1D99 JUMPI DUP4 PUSH20 0xFFFFFFFFFFFFFFFFFFFFFFFFFFFFFFFFFFFFFFFF AND PUSH4 0x150B7A02 CALLER DUP8 DUP7 DUP7 PUSH1 0x40 MLOAD DUP6 PUSH4 0xFFFFFFFF AND PUSH1 0xE0 SHL DUP2 MSTORE PUSH1 0x4 ADD PUSH2 0x1C8F SWAP5 SWAP4 SWAP3 SWAP2 SWAP1 PUSH2 0x3664 JUMP JUMPDEST PUSH1 0x20 PUSH1 0x40 MLOAD DUP1 DUP4 SUB DUP2 PUSH0 DUP8 GAS CALL SWAP3 POP POP POP DUP1 ISZERO PUSH2 0x1CCA JUMPI POP PUSH1 0x40 MLOAD RETURNDATASIZE PUSH1 0x1F NOT PUSH1 0x1F DUP3 ADD AND DUP3 ADD DUP1 PUSH1 0x40 MSTORE POP DUP2 ADD SWAP1 PUSH2 0x1CC7 SWAP2 SWAP1 PUSH2 0x36C2 JUMP JUMPDEST PUSH1 0x1 JUMPDEST PUSH2 0x1D49 JUMPI RETURNDATASIZE DUP1 PUSH0 DUP2 EQ PUSH2 0x1CF8 JUMPI PUSH1 0x40 MLOAD SWAP2 POP PUSH1 0x1F NOT PUSH1 0x3F RETURNDATASIZE ADD AND DUP3 ADD PUSH1 0x40 MSTORE RETURNDATASIZE DUP3 MSTORE RETURNDATASIZE PUSH0 PUSH1 0x20 DUP5 ADD RETURNDATACOPY PUSH2 0x1CFD JUMP JUMPDEST PUSH1 0x60 SWAP2 POP JUMPDEST POP PUSH0 DUP2 MLOAD SUB PUSH2 0x1D41 JUMPI PUSH1 0x40 MLOAD PUSH32 0x8C379A000000000000000000000000000000000000000000000000000000000 DUP2 MSTORE PUSH1 0x4 ADD PUSH2 0x1D38 SWAP1 PUSH2 0x353A JUMP JUMPDEST PUSH1 0x40 MLOAD DUP1 SWAP2 SUB SWAP1 REVERT JUMPDEST DUP1 MLOAD DUP2 PUSH1 0x20 ADD REVERT JUMPDEST PUSH4 0x150B7A02 PUSH1 0xE0 SHL PUSH28 0xFFFFFFFFFFFFFFFFFFFFFFFFFFFFFFFFFFFFFFFFFFFFFFFFFFFFFFFF NOT AND DUP2 PUSH28 0xFFFFFFFFFFFFFFFFFFFFFFFFFFFFFFFFFFFFFFFFFFFFFFFFFFFFFFFF NOT AND EQ SWAP2 POP POP PUSH2 0x1D9E JUMP JUMPDEST PUSH1 0x1 SWAP1 POP JUMPDEST SWAP5 SWAP4 POP POP POP POP JUMP JUMPDEST PUSH1 0x40 MLOAD DUP1 PUSH1 0xC0 ADD PUSH1 0x40 MSTORE DUP1 PUSH0 DUP2 MSTORE PUSH1 0x20 ADD PUSH1 0x60 DUP2 MSTORE PUSH1 0x20 ADD PUSH0 PUSH1 0x3 DUP2 GT ISZERO PUSH2 0x1DD1 JUMPI PUSH2 0x1DD0 PUSH2 0x241D JUMP JUMPDEST JUMPDEST DUP2 MSTORE PUSH1 0x20 ADD PUSH0 PUSH1 0x2 DUP2 GT ISZERO PUSH2 0x1DE9 JUMPI PUSH2 0x1DE8 PUSH2 0x241D JUMP JUMPDEST JUMPDEST DUP2 MSTORE PUSH1 0x20 ADD PUSH0 DUP2 MSTORE PUSH1 0x20 ADD PUSH0 DUP2 MSTORE POP SWAP1 JUMP JUMPDEST PUSH0 PUSH1 0x40 MLOAD SWAP1 POP SWAP1 JUMP JUMPDEST PUSH0 DUP1 REVERT JUMPDEST PUSH0 DUP1 REVERT JUMPDEST PUSH0 PUSH32 0xFFFFFFFF00000000000000000000000000000000000000000000000000000000 DUP3 AND SWAP1 POP SWAP2 SWAP1 POP JUMP JUMPDEST PUSH2 0x1E40 DUP2 PUSH2 0x1E0C JUMP JUMPDEST DUP2 EQ PUSH2 0x1E4A JUMPI PUSH0 DUP1 REVERT JUMPDEST POP JUMP JUMPDEST PUSH0 DUP2 CALLDATALOAD SWAP1 POP PUSH2 0x1E5B DUP2 PUSH2 0x1E37 JUMP JUMPDEST SWAP3 SWAP2 POP POP JUMP JUMPDEST PUSH0 PUSH1 0x20 DUP3 DUP5 SUB SLT ISZERO PUSH2 0x1E76 JUMPI PUSH2 0x1E75 PUSH2 0x1E04 JUMP JUMPDEST JUMPDEST PUSH0 PUSH2 0x1E83 DUP5 DUP3 DUP6 ADD PUSH2 0x1E4D JUMP JUMPDEST SWAP2 POP POP SWAP3 SWAP2 POP POP JUMP JUMPDEST PUSH0 DUP2 ISZERO ISZERO SWAP1 POP SWAP2 SWAP1 POP JUMP JUMPDEST PUSH2 0x1EA0 DUP2 PUSH2 0x1E8C JUMP JUMPDEST DUP3 MSTORE POP POP JUMP JUMPDEST PUSH0 PUSH1 0x20 DUP3 ADD SWAP1 POP PUSH2 0x1EB9 PUSH0 DUP4 ADD DUP5 PUSH2 0x1E97 JUMP JUMPDEST SWAP3 SWAP2 POP POP JUMP JUMPDEST PUSH0 DUP2 MLOAD SWAP1 POP SWAP2 SWAP1 POP JUMP JUMPDEST PUSH0 DUP3 DUP3 MSTORE PUSH1 0x20 DUP3 ADD SWAP1 POP SWAP3 SWAP2 POP POP JUMP JUMPDEST DUP3 DUP2 DUP4 MCOPY PUSH0 DUP4 DUP4 ADD MSTORE POP POP POP JUMP JUMPDEST PUSH0 PUSH1 0x1F NOT PUSH1 0x1F DUP4 ADD AND SWAP1 POP SWAP2 SWAP1 POP JUMP JUMPDEST PUSH0 PUSH2 0x1F01 DUP3 PUSH2 0x1EBF JUMP JUMPDEST PUSH2 0x1F0B DUP2 DUP6 PUSH2 0x1EC9 JUMP JUMPDEST SWAP4 POP PUSH2 0x1F1B DUP2 DUP6 PUSH1 0x20 DUP7 ADD PUSH2 0x1ED9 JUMP JUMPDEST PUSH2 0x1F24 DUP2 PUSH2 0x1EE7 JUMP JUMPDEST DUP5 ADD SWAP2 POP POP SWAP3 SWAP2 POP POP JUMP JUMPDEST PUSH0 PUSH1 0x20 DUP3 ADD SWAP1 POP DUP2 DUP2 SUB PUSH0 DUP4 ADD MSTORE PUSH2 0x1F47 DUP2 DUP5 PUSH2 0x1EF7 JUMP JUMPDEST SWAP1 POP SWAP3 SWAP2 POP POP JUMP JUMPDEST PUSH0 DUP2 SWAP1 POP SWAP2 SWAP1 POP JUMP JUMPDEST PUSH2 0x1F61 DUP2 PUSH2 0x1F4F JUMP JUMPDEST DUP2 EQ PUSH2 0x1F6B JUMPI PUSH0 DUP1 REVERT JUMPDEST POP JUMP JUMPDEST PUSH0 DUP2 CALLDATALOAD SWAP1 POP PUSH2 0x1F7C DUP2 PUSH2 0x1F58 JUMP JUMPDEST SWAP3 SWAP2 POP POP JUMP JUMPDEST PUSH0 PUSH1 0x20 DUP3 DUP5 SUB SLT ISZERO PUSH2 0x1F97 JUMPI PUSH2 0x1F96 PUSH2 0x1E04 JUMP JUMPDEST JUMPDEST PUSH0 PUSH2 0x1FA4 DUP5 DUP3 DUP6 ADD PUSH2 0x1F6E JUMP JUMPDEST SWAP2 POP POP SWAP3 SWAP2 POP POP JUMP JUMPDEST PUSH0 PUSH20 0xFFFFFFFFFFFFFFFFFFFFFFFFFFFFFFFFFFFFFFFF DUP3 AND SWAP1 POP SWAP2 SWAP1 POP JUMP JUMPDEST PUSH0 PUSH2 0x1FD6 DUP3 PUSH2 0x1FAD JUMP JUMPDEST SWAP1 POP SWAP2 SWAP1 POP JUMP JUMPDEST PUSH2 0x1FE6 DUP2 PUSH2 0x1FCC JUMP JUMPDEST DUP3 MSTORE POP POP JUMP JUMPDEST PUSH0 PUSH1 0x20 DUP3 ADD SWAP1 POP PUSH2 0x1FFF PUSH0 DUP4 ADD DUP5 PUSH2 0x1FDD JUMP JUMPDEST SWAP3 SWAP2 POP POP JUMP JUMPDEST PUSH2 0x200E DUP2 PUSH2 0x1FCC JUMP JUMPDEST DUP2 EQ PUSH2 0x2018 JUMPI PUSH0 DUP1 REVERT JUMPDEST POP JUMP JUMPDEST PUSH0 DUP2 CALLDATALOAD SWAP1 POP PUSH2 0x2029 DUP2 PUSH2 0x2005 JUMP JUMPDEST SWAP3 SWAP2 POP POP JUMP JUMPDEST PUSH0 DUP1 PUSH1 0x40 DUP4 DUP6 SUB SLT ISZERO PUSH2 0x2045 JUMPI PUSH2 0x2044 PUSH2 0x1E04 JUMP JUMPDEST JUMPDEST PUSH0 PUSH2 0x2052 DUP6 DUP3 DUP7 ADD PUSH2 0x201B JUMP JUMPDEST SWAP3 POP POP PUSH1 0x20 PUSH2 0x2063 DUP6 DUP3 DUP7 ADD PUSH2 0x1F6E JUMP JUMPDEST SWAP2 POP POP SWAP3 POP SWAP3 SWAP1 POP JUMP JUMPDEST PUSH0 DUP1 REVERT JUMPDEST PUSH0 DUP1 REVERT JUMPDEST PUSH32 0x4E487B7100000000000000000000000000000000000000000000000000000000 PUSH0 MSTORE PUSH1 0x41 PUSH1 0x4 MSTORE PUSH1 0x24 PUSH0 REVERT JUMPDEST PUSH2 0x20AB DUP3 PUSH2 0x1EE7 JUMP JUMPDEST DUP2 ADD DUP2 DUP2 LT PUSH8 0xFFFFFFFFFFFFFFFF DUP3 GT OR ISZERO PUSH2 0x20CA JUMPI PUSH2 0x20C9 PUSH2 0x2075 JUMP JUMPDEST JUMPDEST DUP1 PUSH1 0x40 MSTORE POP POP POP JUMP JUMPDEST PUSH0 PUSH2 0x20DC PUSH2 0x1DFB JUMP JUMPDEST SWAP1 POP PUSH2 0x20E8 DUP3 DUP3 PUSH2 0x20A2 JUMP JUMPDEST SWAP2 SWAP1 POP JUMP JUMPDEST PUSH0 PUSH8 0xFFFFFFFFFFFFFFFF DUP3 GT ISZERO PUSH2 0x2107 JUMPI PUSH2 0x2106 PUSH2 0x2075 JUMP JUMPDEST JUMPDEST PUSH2 0x2110 DUP3 PUSH2 0x1EE7 JUMP JUMPDEST SWAP1 POP PUSH1 0x20 DUP2 ADD SWAP1 POP SWAP2 SWAP1 POP JUMP JUMPDEST DUP3 DUP2 DUP4 CALLDATACOPY PUSH0 DUP4 DUP4 ADD MSTORE POP POP POP JUMP JUMPDEST PUSH0 PUSH2 0x213D PUSH2 0x2138 DUP5 PUSH2 0x20ED JUMP JUMPDEST PUSH2 0x20D3 JUMP JUMPDEST SWAP1 POP DUP3 DUP2 MSTORE PUSH1 0x20 DUP2 ADD DUP5 DUP5 DUP5 ADD GT ISZERO PUSH2 0x2159 JUMPI PUSH2 0x2158 PUSH2 0x2071 JUMP JUMPDEST JUMPDEST PUSH2 0x2164 DUP5 DUP3 DUP6 PUSH2 0x211D JUMP JUMPDEST POP SWAP4 SWAP3 POP POP POP JUMP JUMPDEST PUSH0 DUP3 PUSH1 0x1F DUP4 ADD SLT PUSH2 0x2180 JUMPI PUSH2 0x217F PUSH2 0x206D JUMP JUMPDEST JUMPDEST DUP2 CALLDATALOAD PUSH2 0x2190 DUP5 DUP3 PUSH1 0x20 DUP7 ADD PUSH2 0x212B JUMP JUMPDEST SWAP2 POP POP SWAP3 SWAP2 POP POP JUMP JUMPDEST PUSH0 PUSH1 0xFF DUP3 AND SWAP1 POP SWAP2 SWAP1 POP JUMP JUMPDEST PUSH2 0x21AE DUP2 PUSH2 0x2199 JUMP JUMPDEST DUP2 EQ PUSH2 0x21B8 JUMPI PUSH0 DUP1 REVERT JUMPDEST POP JUMP JUMPDEST PUSH0 DUP2 CALLDATALOAD SWAP1 POP PUSH2 0x21C9 DUP2 PUSH2 0x21A5 JUMP JUMPDEST SWAP3 SWAP2 POP POP JUMP JUMPDEST PUSH0 DUP1 PUSH0 DUP1 PUSH0 DUP1 PUSH1 0xC0 DUP8 DUP10 SUB SLT ISZERO PUSH2 0x21E9 JUMPI PUSH2 0x21E8 PUSH2 0x1E04 JUMP JUMPDEST JUMPDEST PUSH0 PUSH2 0x21F6 DUP10 DUP3 DUP11 ADD PUSH2 0x201B JUMP JUMPDEST SWAP7 POP POP PUSH1 0x20 DUP8 ADD CALLDATALOAD PUSH8 0xFFFFFFFFFFFFFFFF DUP2 GT ISZERO PUSH2 0x2217 JUMPI PUSH2 0x2216 PUSH2 0x1E08 JUMP JUMPDEST JUMPDEST PUSH2 0x2223 DUP10 DUP3 DUP11 ADD PUSH2 0x216C JUMP JUMPDEST SWAP6 POP POP PUSH1 0x40 PUSH2 0x2234 DUP10 DUP3 DUP11 ADD PUSH2 0x21BB JUMP JUMPDEST SWAP5 POP POP PUSH1 0x60 PUSH2 0x2245 DUP10 DUP3 DUP11 ADD PUSH2 0x21BB JUMP JUMPDEST SWAP4 POP POP PUSH1 0x80 PUSH2 0x2256 DUP10 DUP3 DUP11 ADD PUSH2 0x1F6E JUMP JUMPDEST SWAP3 POP POP PUSH1 0xA0 PUSH2 0x2267 DUP10 DUP3 DUP11 ADD PUSH2 0x1F6E JUMP JUMPDEST SWAP2 POP POP SWAP3 SWAP6 POP SWAP3 SWAP6 POP SWAP3 SWAP6 JUMP JUMPDEST PUSH2 0x227D DUP2 PUSH2 0x1F4F JUMP JUMPDEST DUP3 MSTORE POP POP JUMP JUMPDEST PUSH0 PUSH1 0x20 DUP3 ADD SWAP1 POP PUSH2 0x2296 PUSH0 DUP4 ADD DUP5 PUSH2 0x2274 JUMP JUMPDEST SWAP3 SWAP2 POP POP JUMP JUMPDEST PUSH0 DUP1 PUSH0 PUSH1 0x60 DUP5 DUP7 SUB SLT ISZERO PUSH2 0x22B3 JUMPI PUSH2 0x22B2 PUSH2 0x1E04 JUMP JUMPDEST JUMPDEST PUSH0 PUSH2 0x22C0 DUP7 DUP3 DUP8 ADD PUSH2 0x201B JUMP JUMPDEST SWAP4 POP POP PUSH1 0x20 PUSH2 0x22D1 DUP7 DUP3 DUP8 ADD PUSH2 0x201B JUMP JUMPDEST SWAP3 POP POP PUSH1 0x40 PUSH2 0x22E2 DUP7 DUP3 DUP8 ADD PUSH2 0x1F6E JUMP JUMPDEST SWAP2 POP POP SWAP3 POP SWAP3 POP SWAP3 JUMP JUMPDEST PUSH0 PUSH1 0x20 DUP3 DUP5 SUB SLT ISZERO PUSH2 0x2301 JUMPI PUSH2 0x2300 PUSH2 0x1E04 JUMP JUMPDEST JUMPDEST PUSH0 DUP3 ADD CALLDATALOAD PUSH8 0xFFFFFFFFFFFFFFFF DUP2 GT ISZERO PUSH2 0x231E JUMPI PUSH2 0x231D PUSH2 0x1E08 JUMP JUMPDEST JUMPDEST PUSH2 0x232A DUP5 DUP3 DUP6 ADD PUSH2 0x216C JUMP JUMPDEST SWAP2 POP POP SWAP3 SWAP2 POP POP JUMP JUMPDEST PUSH0 PUSH1 0x20 DUP3 DUP5 SUB SLT ISZERO PUSH2 0x2348 JUMPI PUSH2 0x2347 PUSH2 0x1E04 JUMP JUMPDEST JUMPDEST PUSH0 PUSH2 0x2355 DUP5 DUP3 DUP6 ADD PUSH2 0x201B JUMP JUMPDEST SWAP2 POP POP SWAP3 SWAP2 POP POP JUMP JUMPDEST PUSH2 0x2367 DUP2 PUSH2 0x1E8C JUMP JUMPDEST DUP2 EQ PUSH2 0x2371 JUMPI PUSH0 DUP1 REVERT JUMPDEST POP JUMP JUMPDEST PUSH0 DUP2 CALLDATALOAD SWAP1 POP PUSH2 0x2382 DUP2 PUSH2 0x235E JUMP JUMPDEST SWAP3 SWAP2 POP POP JUMP JUMPDEST PUSH0 DUP1 PUSH1 0x40 DUP4 DUP6 SUB SLT ISZERO PUSH2 0x239E JUMPI PUSH2 0x239D PUSH2 0x1E04 JUMP JUMPDEST JUMPDEST PUSH0 PUSH2 0x23AB DUP6 DUP3 DUP7 ADD PUSH2 0x201B JUMP JUMPDEST SWAP3 POP POP PUSH1 0x20 PUSH2 0x23BC DUP6 DUP3 DUP7 ADD PUSH2 0x2374 JUMP JUMPDEST SWAP2 POP POP SWAP3 POP SWAP3 SWAP1 POP JUMP JUMPDEST PUSH2 0x23CF DUP2 PUSH2 0x1F4F JUMP JUMPDEST DUP3 MSTORE POP POP JUMP JUMPDEST PUSH0 DUP3 DUP3 MSTORE PUSH1 0x20 DUP3 ADD SWAP1 POP SWAP3 SWAP2 POP POP JUMP JUMPDEST PUSH0 PUSH2 0x23EF DUP3 PUSH2 0x1EBF JUMP JUMPDEST PUSH2 0x23F9 DUP2 DUP6 PUSH2 0x23D5 JUMP JUMPDEST SWAP4 POP PUSH2 0x2409 DUP2 DUP6 PUSH1 0x20 DUP7 ADD PUSH2 0x1ED9 JUMP JUMPDEST PUSH2 0x2412 DUP2 PUSH2 0x1EE7 JUMP JUMPDEST DUP5 ADD SWAP2 POP POP SWAP3 SWAP2 POP POP JUMP JUMPDEST PUSH32 0x4E487B7100000000000000000000000000000000000000000000000000000000 PUSH0 MSTORE PUSH1 0x21 PUSH1 0x4 MSTORE PUSH1 0x24 PUSH0 REVERT JUMPDEST PUSH1 0x4 DUP2 LT PUSH2 0x245B JUMPI PUSH2 0x245A PUSH2 0x241D JUMP JUMPDEST JUMPDEST POP JUMP JUMPDEST PUSH0 DUP2 SWAP1 POP PUSH2 0x246B DUP3 PUSH2 0x244A JUMP JUMPDEST SWAP2 SWAP1 POP JUMP JUMPDEST PUSH0 PUSH2 0x247A DUP3 PUSH2 0x245E JUMP JUMPDEST SWAP1 POP SWAP2 SWAP1 POP JUMP JUMPDEST PUSH2 0x248A DUP2 PUSH2 0x2470 JUMP JUMPDEST DUP3 MSTORE POP POP JUMP JUMPDEST PUSH1 0x3 DUP2 LT PUSH2 0x24A1 JUMPI PUSH2 0x24A0 PUSH2 0x241D JUMP JUMPDEST JUMPDEST POP JUMP JUMPDEST PUSH0 DUP2 SWAP1 POP PUSH2 0x24B1 DUP3 PUSH2 0x2490 JUMP JUMPDEST SWAP2 SWAP1 POP JUMP JUMPDEST PUSH0 PUSH2 0x24C0 DUP3 PUSH2 0x24A4 JUMP JUMPDEST SWAP1 POP SWAP2 SWAP1 POP JUMP JUMPDEST PUSH2 0x24D0 DUP2 PUSH2 0x24B6 JUMP JUMPDEST DUP3 MSTORE POP POP JUMP JUMPDEST PUSH0 PUSH1 0xC0 DUP4 ADD PUSH0 DUP4 ADD MLOAD PUSH2 0x24EB PUSH0 DUP7 ADD DUP3 PUSH2 0x23C6 JUMP JUMPDEST POP PUSH1 0x20 DUP4 ADD MLOAD DUP5 DUP3 SUB PUSH1 0x20 DUP7 ADD MSTORE PUSH2 0x2503 DUP3 DUP3 PUSH2 0x23E5 JUMP JUMPDEST SWAP2 POP POP PUSH1 0x40 DUP4 ADD MLOAD PUSH2 0x2518 PUSH1 0x40 DUP7 ADD DUP3 PUSH2 0x2481 JUMP JUMPDEST POP PUSH1 0x60 DUP4 ADD MLOAD PUSH2 0x252B PUSH1 0x60 DUP7 ADD DUP3 PUSH2 0x24C7 JUMP JUMPDEST POP PUSH1 0x80 DUP4 ADD MLOAD PUSH2 0x253E PUSH1 0x80 DUP7 ADD DUP3 PUSH2 0x23C6 JUMP JUMPDEST POP PUSH1 0xA0 DUP4 ADD MLOAD PUSH2 0x2551 PUSH1 0xA0 DUP7 ADD DUP3 PUSH2 0x23C6 JUMP JUMPDEST POP DUP1 SWAP2 POP POP SWAP3 SWAP2 POP POP JUMP JUMPDEST PUSH0 PUSH1 0x20 DUP3 ADD SWAP1 POP DUP2 DUP2 SUB PUSH0 DUP4 ADD MSTORE PUSH2 0x2574 DUP2 DUP5 PUSH2 0x24D6 JUMP JUMPDEST SWAP1 POP SWAP3 SWAP2 POP POP JUMP JUMPDEST PUSH0 PUSH8 0xFFFFFFFFFFFFFFFF DUP3 GT ISZERO PUSH2 0x2596 JUMPI PUSH2 0x2595 PUSH2 0x2075 JUMP JUMPDEST JUMPDEST PUSH2 0x259F DUP3 PUSH2 0x1EE7 JUMP JUMPDEST SWAP1 POP PUSH1 0x20 DUP2 ADD SWAP1 POP SWAP2 SWAP1 POP JUMP JUMPDEST PUSH0 PUSH2 0x25BE PUSH2 0x25B9 DUP5 PUSH2 0x257C JUMP JUMPDEST PUSH2 0x20D3 JUMP JUMPDEST SWAP1 POP DUP3 DUP2 MSTORE PUSH1 0x20 DUP2 ADD DUP5 DUP5 DUP5 ADD GT ISZERO PUSH2 0x25DA JUMPI PUSH2 0x25D9 PUSH2 0x2071 JUMP JUMPDEST JUMPDEST PUSH2 0x25E5 DUP5 DUP3 DUP6 PUSH2 0x211D JUMP JUMPDEST POP SWAP4 SWAP3 POP POP POP JUMP JUMPDEST PUSH0 DUP3 PUSH1 0x1F DUP4 ADD SLT PUSH2 0x2601 JUMPI PUSH2 0x2600 PUSH2 0x206D JUMP JUMPDEST JUMPDEST DUP2 CALLDATALOAD PUSH2 0x2611 DUP5 DUP3 PUSH1 0x20 DUP7 ADD PUSH2 0x25AC JUMP JUMPDEST SWAP2 POP POP SWAP3 SWAP2 POP POP JUMP JUMPDEST PUSH0 DUP1 PUSH0 DUP1 PUSH1 0x80 DUP6 DUP8 SUB SLT ISZERO PUSH2 0x2632 JUMPI PUSH2 0x2631 PUSH2 0x1E04 JUMP JUMPDEST JUMPDEST PUSH0 PUSH2 0x263F DUP8 DUP3 DUP9 ADD PUSH2 0x201B JUMP JUMPDEST SWAP5 POP POP PUSH1 0x20 PUSH2 0x2650 DUP8 DUP3 DUP9 ADD PUSH2 0x201B JUMP JUMPDEST SWAP4 POP POP PUSH1 0x40 PUSH2 0x2661 DUP8 DUP3 DUP9 ADD PUSH2 0x1F6E JUMP JUMPDEST SWAP3 POP POP PUSH1 0x60 DUP6 ADD CALLDATALOAD PUSH8 0xFFFFFFFFFFFFFFFF DUP2 GT ISZERO PUSH2 0x2682 JUMPI PUSH2 0x2681 PUSH2 0x1E08 JUMP JUMPDEST JUMPDEST PUSH2 0x268E DUP8 DUP3 DUP9 ADD PUSH2 0x25ED JUMP JUMPDEST SWAP2 POP POP SWAP3 SWAP6 SWAP2 SWAP5 POP SWAP3 POP JUMP JUMPDEST PUSH0 DUP1 PUSH1 0x40 DUP4 DUP6 SUB SLT ISZERO PUSH2 0x26B0 JUMPI PUSH2 0x26AF PUSH2 0x1E04 JUMP JUMPDEST JUMPDEST PUSH0 PUSH2 0x26BD DUP6 DUP3 DUP7 ADD PUSH2 0x201B JUMP JUMPDEST SWAP3 POP POP PUSH1 0x20 PUSH2 0x26CE DUP6 DUP3 DUP7 ADD PUSH2 0x201B JUMP JUMPDEST SWAP2 POP POP SWAP3 POP SWAP3 SWAP1 POP JUMP JUMPDEST PUSH32 0x4E487B7100000000000000000000000000000000000000000000000000000000 PUSH0 MSTORE PUSH1 0x22 PUSH1 0x4 MSTORE PUSH1 0x24 PUSH0 REVERT JUMPDEST PUSH0 PUSH1 0x2 DUP3 DIV SWAP1 POP PUSH1 0x1 DUP3 AND DUP1 PUSH2 0x271C JUMPI PUSH1 0x7F DUP3 AND SWAP2 POP JUMPDEST PUSH1 0x20 DUP3 LT DUP2 SUB PUSH2 0x272F JUMPI PUSH2 0x272E PUSH2 0x26D8 JUMP JUMPDEST JUMPDEST POP SWAP2 SWAP1 POP JUMP JUMPDEST PUSH32 0x4552433732313A20417070726F76656420717565727920666F72206E6F6E6578 PUSH0 DUP3 ADD MSTORE PUSH32 0x697374656E7420746F6B656E0000000000000000000000000000000000000000 PUSH1 0x20 DUP3 ADD MSTORE POP JUMP JUMPDEST PUSH0 PUSH2 0x278F PUSH1 0x2C DUP4 PUSH2 0x1EC9 JUMP JUMPDEST SWAP2 POP PUSH2 0x279A DUP3 PUSH2 0x2735 JUMP JUMPDEST PUSH1 0x40 DUP3 ADD SWAP1 POP SWAP2 SWAP1 POP JUMP JUMPDEST PUSH0 PUSH1 0x20 DUP3 ADD SWAP1 POP DUP2 DUP2 SUB PUSH0 DUP4 ADD MSTORE PUSH2 0x27BC DUP2 PUSH2 0x2783 JUMP JUMPDEST SWAP1 POP SWAP2 SWAP1 POP JUMP JUMPDEST PUSH32 0x4552433732313A20417070726F76616C20746F2063757272656E74206F776E65 PUSH0 DUP3 ADD MSTORE PUSH32 0x7200000000000000000000000000000000000000000000000000000000000000 PUSH1 0x20 DUP3 ADD MSTORE POP JUMP JUMPDEST PUSH0 PUSH2 0x281D PUSH1 0x21 DUP4 PUSH2 0x1EC9 JUMP JUMPDEST SWAP2 POP PUSH2 0x2828 DUP3 PUSH2 0x27C3 JUMP JUMPDEST PUSH1 0x40 DUP3 ADD SWAP1 POP SWAP2 SWAP1 POP JUMP JUMPDEST PUSH0 PUSH1 0x20 DUP3 ADD SWAP1 POP DUP2 DUP2 SUB PUSH0 DUP4 ADD MSTORE PUSH2 0x284A DUP2 PUSH2 0x2811 JUMP JUMPDEST SWAP1 POP SWAP2 SWAP1 POP JUMP JUMPDEST PUSH32 0x4552433732313A20417070726F76652063616C6C6572206973206E6F7420746F PUSH0 DUP3 ADD MSTORE PUSH32 0x6B656E206F776E6572206F7220617070726F76656420666F7220616C6C000000 PUSH1 0x20 DUP3 ADD MSTORE POP JUMP JUMPDEST PUSH0 PUSH2 0x28AB PUSH1 0x3D DUP4 PUSH2 0x1EC9 JUMP JUMPDEST SWAP2 POP PUSH2 0x28B6 DUP3 PUSH2 0x2851 JUMP JUMPDEST PUSH1 0x40 DUP3 ADD SWAP1 POP SWAP2 SWAP1 POP JUMP JUMPDEST PUSH0 PUSH1 0x20 DUP3 ADD SWAP1 POP DUP2 DUP2 SUB PUSH0 DUP4 ADD MSTORE PUSH2 0x28D8 DUP2 PUSH2 0x289F JUMP JUMPDEST SWAP1 POP SWAP2 SWAP1 POP JUMP JUMPDEST PUSH32 0x43616E6E6F74206D696E7420746F207A65726F20616464726573730000000000 PUSH0 DUP3 ADD MSTORE POP JUMP JUMPDEST PUSH0 PUSH2 0x2913 PUSH1 0x1B DUP4 PUSH2 0x1EC9 JUMP JUMPDEST SWAP2 POP PUSH2 0x291E DUP3 PUSH2 0x28DF JUMP JUMPDEST PUSH1 0x20 DUP3 ADD SWAP1 POP SWAP2 SWAP1 POP JUMP JUMPDEST PUSH0 PUSH1 0x20 DUP3 ADD SWAP1 POP DUP2 DUP2 SUB PUSH0 DUP4 ADD MSTORE PUSH2 0x2940 DUP2 PUSH2 0x2907 JUMP JUMPDEST SWAP1 POP SWAP2 SWAP1 POP JUMP JUMPDEST PUSH32 0x496E76616C696420726172697479000000000000000000000000000000000000 PUSH0 DUP3 ADD MSTORE POP JUMP JUMPDEST PUSH0 PUSH2 0x297B PUSH1 0xE DUP4 PUSH2 0x1EC9 JUMP JUMPDEST SWAP2 POP PUSH2 0x2986 DUP3 PUSH2 0x2947 JUMP JUMPDEST PUSH1 0x20 DUP3 ADD SWAP1 POP SWAP2 SWAP1 POP JUMP JUMPDEST PUSH0 PUSH1 0x20 DUP3 ADD SWAP1 POP DUP2 DUP2 SUB PUSH0 DUP4 ADD MSTORE PUSH2 0x29A8 DUP2 PUSH2 0x296F JUMP JUMPDEST SWAP1 POP SWAP2 SWAP1 POP JUMP JUMPDEST PUSH32 0x496E76616C696420706F77657220747970650000000000000000000000000000 PUSH0 DUP3 ADD MSTORE POP JUMP JUMPDEST PUSH0 PUSH2 0x29E3 PUSH1 0x12 DUP4 PUSH2 0x1EC9 JUMP JUMPDEST SWAP2 POP PUSH2 0x29EE DUP3 PUSH2 0x29AF JUMP JUMPDEST PUSH1 0x20 DUP3 ADD SWAP1 POP SWAP2 SWAP1 POP JUMP JUMPDEST PUSH0 PUSH1 0x20 DUP3 ADD SWAP1 POP DUP2 DUP2 SUB PUSH0 DUP4 ADD MSTORE PUSH2 0x2A10 DUP2 PUSH2 0x29D7 JUMP JUMPDEST SWAP1 POP SWAP2 SWAP1 POP JUMP JUMPDEST PUSH0 DUP2 SWAP1 POP DUP2 PUSH0 MSTORE PUSH1 0x20 PUSH0 KECCAK256 SWAP1 POP SWAP2 SWAP1 POP JUMP JUMPDEST PUSH0 PUSH1 0x20 PUSH1 0x1F DUP4 ADD DIV SWAP1 POP SWAP2 SWAP1 POP JUMP JUMPDEST PUSH0 DUP3 DUP3 SHL SWAP1 POP SWAP3 SWAP2 POP POP JUMP JUMPDEST PUSH0 PUSH1 0x8 DUP4 MUL PUSH2 0x2A73 PUSH32 0xFFFFFFFFFFFFFFFFFFFFFFFFFFFFFFFFFFFFFFFFFFFFFFFFFFFFFFFFFFFFFFFF DUP3 PUSH2 0x2A38 JUMP JUMPDEST PUSH2 0x2A7D DUP7 DUP4 PUSH2 0x2A38 JUMP JUMPDEST SWAP6 POP DUP1 NOT DUP5 AND SWAP4 POP DUP1 DUP7 AND DUP5 OR SWAP3 POP POP POP SWAP4 SWAP3 POP POP POP JUMP JUMPDEST PUSH0 DUP2 SWAP1 POP SWAP2 SWAP1 POP JUMP JUMPDEST PUSH0 PUSH2 0x2AB8 PUSH2 0x2AB3 PUSH2 0x2AAE DUP5 PUSH2 0x1F4F JUMP JUMPDEST PUSH2 0x2A95 JUMP JUMPDEST PUSH2 0x1F4F JUMP JUMPDEST SWAP1 POP SWAP2 SWAP1 POP JUMP JUMPDEST PUSH0 DUP2 SWAP1 POP SWAP2 SWAP1 POP JUMP JUMPDEST PUSH2 0x2AD1 DUP4 PUSH2 0x2A9E JUMP JUMPDEST PUSH2 0x2AE5 PUSH2 0x2ADD DUP3 PUSH2 0x2ABF JUMP JUMPDEST DUP5 DUP5 SLOAD PUSH2 0x2A44 JUMP JUMPDEST DUP3 SSTORE POP POP POP POP JUMP JUMPDEST PUSH0 SWAP1 JUMP JUMPDEST PUSH2 0x2AF9 PUSH2 0x2AED JUMP JUMPDEST PUSH2 0x2B04 DUP2 DUP5 DUP5 PUSH2 0x2AC8 JUMP JUMPDEST POP POP POP JUMP JUMPDEST JUMPDEST DUP2 DUP2 LT ISZERO PUSH2 0x2B27 JUMPI PUSH2 0x2B1C PUSH0 DUP3 PUSH2 0x2AF1 JUMP JUMPDEST PUSH1 0x1 DUP2 ADD SWAP1 POP PUSH2 0x2B0A JUMP JUMPDEST POP POP JUMP JUMPDEST PUSH1 0x1F DUP3 GT ISZERO PUSH2 0x2B6C JUMPI PUSH2 0x2B3D DUP2 PUSH2 0x2A17 JUMP JUMPDEST PUSH2 0x2B46 DUP5 PUSH2 0x2A29 JUMP JUMPDEST DUP2 ADD PUSH1 0x20 DUP6 LT ISZERO PUSH2 0x2B55 JUMPI DUP2 SWAP1 POP JUMPDEST PUSH2 0x2B69 PUSH2 0x2B61 DUP6 PUSH2 0x2A29 JUMP JUMPDEST DUP4 ADD DUP3 PUSH2 0x2B09 JUMP JUMPDEST POP POP JUMPDEST POP POP POP JUMP JUMPDEST PUSH0 DUP3 DUP3 SHR SWAP1 POP SWAP3 SWAP2 POP POP JUMP JUMPDEST PUSH0 PUSH2 0x2B8C PUSH0 NOT DUP5 PUSH1 0x8 MUL PUSH2 0x2B71 JUMP JUMPDEST NOT DUP1 DUP4 AND SWAP2 POP POP SWAP3 SWAP2 POP POP JUMP JUMPDEST PUSH0 PUSH2 0x2BA4 DUP4 DUP4 PUSH2 0x2B7D JUMP JUMPDEST SWAP2 POP DUP3 PUSH1 0x2 MUL DUP3 OR SWAP1 POP SWAP3 SWAP2 POP POP JUMP JUMPDEST PUSH2 0x2BBD DUP3 PUSH2 0x1EBF JUMP JUMPDEST PUSH8 0xFFFFFFFFFFFFFFFF DUP2 GT ISZERO PUSH2 0x2BD6 JUMPI PUSH2 0x2BD5 PUSH2 0x2075 JUMP JUMPDEST JUMPDEST PUSH2 0x2BE0 DUP3 SLOAD PUSH2 0x2705 JUMP JUMPDEST PUSH2 0x2BEB DUP3 DUP3 DUP6 PUSH2 0x2B2B JUMP JUMPDEST PUSH0 PUSH1 0x20 SWAP1 POP PUSH1 0x1F DUP4 GT PUSH1 0x1 DUP2 EQ PUSH2 0x2C1C JUMPI PUSH0 DUP5 ISZERO PUSH2 0x2C0A JUMPI DUP3 DUP8 ADD MLOAD SWAP1 POP JUMPDEST PUSH2 0x2C14 DUP6 DUP3 PUSH2 0x2B99 JUMP JUMPDEST DUP7 SSTORE POP PUSH2 0x2C7B JUMP JUMPDEST PUSH1 0x1F NOT DUP5 AND PUSH2 0x2C2A DUP7 PUSH2 0x2A17 JUMP JUMPDEST PUSH0 JUMPDEST DUP3 DUP2 LT ISZERO PUSH2 0x2C51 JUMPI DUP5 DUP10 ADD MLOAD DUP3 SSTORE PUSH1 0x1 DUP3 ADD SWAP2 POP PUSH1 0x20 DUP6 ADD SWAP5 POP PUSH1 0x20 DUP2 ADD SWAP1 POP PUSH2 0x2C2C JUMP JUMPDEST DUP7 DUP4 LT ISZERO PUSH2 0x2C6E JUMPI DUP5 DUP10 ADD MLOAD PUSH2 0x2C6A PUSH1 0x1F DUP10 AND DUP3 PUSH2 0x2B7D JUMP JUMPDEST DUP4 SSTORE POP JUMPDEST PUSH1 0x1 PUSH1 0x2 DUP9 MUL ADD DUP9 SSTORE POP POP POP JUMPDEST POP POP POP POP POP POP JUMP JUMPDEST PUSH32 0x4E487B7100000000000000000000000000000000000000000000000000000000 PUSH0 MSTORE PUSH1 0x11 PUSH1 0x4 MSTORE PUSH1 0x24 PUSH0 REVERT JUMPDEST PUSH0 PUSH2 0x2CBA DUP3 PUSH2 0x1F4F JUMP JUMPDEST SWAP2 POP PUSH32 0xFFFFFFFFFFFFFFFFFFFFFFFFFFFFFFFFFFFFFFFFFFFFFFFFFFFFFFFFFFFFFFFF DUP3 SUB PUSH2 0x2CEC JUMPI PUSH2 0x2CEB PUSH2 0x2C83 JUMP JUMPDEST JUMPDEST PUSH1 0x1 DUP3 ADD SWAP1 POP SWAP2 SWAP1 POP JUMP JUMPDEST PUSH2 0x2D00 DUP2 PUSH2 0x2470 JUMP JUMPDEST DUP3 MSTORE POP POP JUMP JUMPDEST PUSH2 0x2D0F DUP2 PUSH2 0x24B6 JUMP JUMPDEST DUP3 MSTORE POP POP JUMP JUMPDEST PUSH0 PUSH1 0x60 DUP3 ADD SWAP1 POP DUP2 DUP2 SUB PUSH0 DUP4 ADD MSTORE PUSH2 0x2D2D DUP2 DUP7 PUSH2 0x1EF7 JUMP JUMPDEST SWAP1 POP PUSH2 0x2D3C PUSH1 0x20 DUP4 ADD DUP6 PUSH2 0x2CF7 JUMP JUMPDEST PUSH2 0x2D49 PUSH1 0x40 DUP4 ADD DUP5 PUSH2 0x2D06 JUMP JUMPDEST SWAP5 SWAP4 POP POP POP POP JUMP JUMPDEST PUSH32 0x4552433732313A2043616C6C6572206973206E6F7420746F6B656E206F776E65 PUSH0 DUP3 ADD MSTORE PUSH32 0x72206F7220617070726F76656400000000000000000000000000000000000000 PUSH1 0x20 DUP3 ADD MSTORE POP JUMP JUMPDEST PUSH0 PUSH2 0x2DAB PUSH1 0x2D DUP4 PUSH2 0x1EC9 JUMP JUMPDEST SWAP2 POP PUSH2 0x2DB6 DUP3 PUSH2 0x2D51 JUMP JUMPDEST PUSH1 0x40 DUP3 ADD SWAP1 POP SWAP2 SWAP1 POP JUMP JUMPDEST PUSH0 PUSH1 0x20 DUP3 ADD SWAP1 POP DUP2 DUP2 SUB PUSH0 DUP4 ADD MSTORE PUSH2 0x2DD8 DUP2 PUSH2 0x2D9F JUMP JUMPDEST SWAP1 POP SWAP2 SWAP1 POP JUMP JUMPDEST PUSH32 0x46756E6374696F6E2061636365737369626C65206F6E6C792062792074686520 PUSH0 DUP3 ADD MSTORE PUSH32 0x6F776E6572202121000000000000000000000000000000000000000000000000 PUSH1 0x20 DUP3 ADD MSTORE POP JUMP JUMPDEST PUSH0 PUSH2 0x2E39 PUSH1 0x28 DUP4 PUSH2 0x1EC9 JUMP JUMPDEST SWAP2 POP PUSH2 0x2E44 DUP3 PUSH2 0x2DDF JUMP JUMPDEST PUSH1 0x40 DUP3 ADD SWAP1 POP SWAP2 SWAP1 POP JUMP JUMPDEST PUSH0 PUSH1 0x20 DUP3 ADD SWAP1 POP DUP2 DUP2 SUB PUSH0 DUP4 ADD MSTORE PUSH2 0x2E66 DUP2 PUSH2 0x2E2D JUMP JUMPDEST SWAP1 POP SWAP2 SWAP1 POP JUMP JUMPDEST PUSH32 0x456D707479206261736520555249000000000000000000000000000000000000 PUSH0 DUP3 ADD MSTORE POP JUMP JUMPDEST PUSH0 PUSH2 0x2EA1 PUSH1 0xE DUP4 PUSH2 0x1EC9 JUMP JUMPDEST SWAP2 POP PUSH2 0x2EAC DUP3 PUSH2 0x2E6D JUMP JUMPDEST PUSH1 0x20 DUP3 ADD SWAP1 POP SWAP2 SWAP1 POP JUMP JUMPDEST PUSH0 PUSH1 0x20 DUP3 ADD SWAP1 POP DUP2 DUP2 SUB PUSH0 DUP4 ADD MSTORE PUSH2 0x2ECE DUP2 PUSH2 0x2E95 JUMP JUMPDEST SWAP1 POP SWAP2 SWAP1 POP JUMP JUMPDEST PUSH0 PUSH1 0x40 DUP3 ADD SWAP1 POP DUP2 DUP2 SUB PUSH0 DUP4 ADD MSTORE PUSH2 0x2EED DUP2 DUP6 PUSH2 0x1EF7 JUMP JUMPDEST SWAP1 POP DUP2 DUP2 SUB PUSH1 0x20 DUP4 ADD MSTORE PUSH2 0x2F01 DUP2 DUP5 PUSH2 0x1EF7 JUMP JUMPDEST SWAP1 POP SWAP4 SWAP3 POP POP POP JUMP JUMPDEST PUSH32 0x4552433732313A20496E76616C696420746F6B656E2049440000000000000000 PUSH0 DUP3 ADD MSTORE POP JUMP JUMPDEST PUSH0 PUSH2 0x2F3E PUSH1 0x18 DUP4 PUSH2 0x1EC9 JUMP JUMPDEST SWAP2 POP PUSH2 0x2F49 DUP3 PUSH2 0x2F0A JUMP JUMPDEST PUSH1 0x20 DUP3 ADD SWAP1 POP SWAP2 SWAP1 POP JUMP JUMPDEST PUSH0 PUSH1 0x20 DUP3 ADD SWAP1 POP DUP2 DUP2 SUB PUSH0 DUP4 ADD MSTORE PUSH2 0x2F6B DUP2 PUSH2 0x2F32 JUMP JUMPDEST SWAP1 POP SWAP2 SWAP1 POP JUMP JUMPDEST PUSH32 0x4552433732313A2041646472657373207A65726F206973206E6F742061207661 PUSH0 DUP3 ADD MSTORE PUSH32 0x6C6964206F776E65720000000000000000000000000000000000000000000000 PUSH1 0x20 DUP3 ADD MSTORE POP JUMP JUMPDEST PUSH0 PUSH2 0x2FCC PUSH1 0x29 DUP4 PUSH2 0x1EC9 JUMP JUMPDEST SWAP2 POP PUSH2 0x2FD7 DUP3 PUSH2 0x2F72 JUMP JUMPDEST PUSH1 0x40 DUP3 ADD SWAP1 POP SWAP2 SWAP1 POP JUMP JUMPDEST PUSH0 PUSH1 0x20 DUP3 ADD SWAP1 POP DUP2 DUP2 SUB PUSH0 DUP4 ADD MSTORE PUSH2 0x2FF9 DUP2 PUSH2 0x2FC0 JUMP JUMPDEST SWAP1 POP SWAP2 SWAP1 POP JUMP JUMPDEST PUSH32 0x4552433732313A20417070726F766520746F2063616C6C657200000000000000 PUSH0 DUP3 ADD MSTORE POP JUMP JUMPDEST PUSH0 PUSH2 0x3034 PUSH1 0x19 DUP4 PUSH2 0x1EC9 JUMP JUMPDEST SWAP2 POP PUSH2 0x303F DUP3 PUSH2 0x3000 JUMP JUMPDEST PUSH1 0x20 DUP3 ADD SWAP1 POP SWAP2 SWAP1 POP JUMP JUMPDEST PUSH0 PUSH1 0x20 DUP3 ADD SWAP1 POP DUP2 DUP2 SUB PUSH0 DUP4 ADD MSTORE PUSH2 0x3061 DUP2 PUSH2 0x3028 JUMP JUMPDEST SWAP1 POP SWAP2 SWAP1 POP JUMP JUMPDEST PUSH32 0x4D6F6E6B657920646F6573206E6F742065786973740000000000000000000000 PUSH0 DUP3 ADD MSTORE POP JUMP JUMPDEST PUSH0 PUSH2 0x309C PUSH1 0x15 DUP4 PUSH2 0x1EC9 JUMP JUMPDEST SWAP2 POP PUSH2 0x30A7 DUP3 PUSH2 0x3068 JUMP JUMPDEST PUSH1 0x20 DUP3 ADD SWAP1 POP SWAP2 SWAP1 POP JUMP JUMPDEST PUSH0 PUSH1 0x20 DUP3 ADD SWAP1 POP DUP2 DUP2 SUB PUSH0 DUP4 ADD MSTORE PUSH2 0x30C9 DUP2 PUSH2 0x3090 JUMP JUMPDEST SWAP1 POP SWAP2 SWAP1 POP JUMP JUMPDEST PUSH32 0x4552433732314D657461646174613A2055524920717565727920666F72206E6F PUSH0 DUP3 ADD MSTORE PUSH32 0x6E6578697374656E7420746F6B656E0000000000000000000000000000000000 PUSH1 0x20 DUP3 ADD MSTORE POP JUMP JUMPDEST PUSH0 PUSH2 0x312A PUSH1 0x2F DUP4 PUSH2 0x1EC9 JUMP JUMPDEST SWAP2 POP PUSH2 0x3135 DUP3 PUSH2 0x30D0 JUMP JUMPDEST PUSH1 0x40 DUP3 ADD SWAP1 POP SWAP2 SWAP1 POP JUMP JUMPDEST PUSH0 PUSH1 0x20 DUP3 ADD SWAP1 POP DUP2 DUP2 SUB PUSH0 DUP4 ADD MSTORE PUSH2 0x3157 DUP2 PUSH2 0x311E JUMP JUMPDEST SWAP1 POP SWAP2 SWAP1 POP JUMP JUMPDEST PUSH0 DUP2 SWAP1 POP SWAP3 SWAP2 POP POP JUMP JUMPDEST PUSH0 PUSH2 0x3172 DUP3 PUSH2 0x1EBF JUMP JUMPDEST PUSH2 0x317C DUP2 DUP6 PUSH2 0x315E JUMP JUMPDEST SWAP4 POP PUSH2 0x318C DUP2 DUP6 PUSH1 0x20 DUP7 ADD PUSH2 0x1ED9 JUMP JUMPDEST DUP1 DUP5 ADD SWAP2 POP POP SWAP3 SWAP2 POP POP JUMP JUMPDEST PUSH32 0x2E6A736F6E000000000000000000000000000000000000000000000000000000 PUSH0 DUP3 ADD MSTORE POP JUMP JUMPDEST PUSH0 PUSH2 0x31CC PUSH1 0x5 DUP4 PUSH2 0x315E JUMP JUMPDEST SWAP2 POP PUSH2 0x31D7 DUP3 PUSH2 0x3198 JUMP JUMPDEST PUSH1 0x5 DUP3 ADD SWAP1 POP SWAP2 SWAP1 POP JUMP JUMPDEST PUSH0 PUSH2 0x31ED DUP3 DUP6 PUSH2 0x3168 JUMP JUMPDEST SWAP2 POP PUSH2 0x31F9 DUP3 DUP5 PUSH2 0x3168 JUMP JUMPDEST SWAP2 POP PUSH2 0x3204 DUP3 PUSH2 0x31C0 JUMP JUMPDEST SWAP2 POP DUP2 SWAP1 POP SWAP4 SWAP3 POP POP POP JUMP JUMPDEST PUSH32 0x496E76616C696420676163686120616464726573730000000000000000000000 PUSH0 DUP3 ADD MSTORE POP JUMP JUMPDEST PUSH0 PUSH2 0x3244 PUSH1 0x15 DUP4 PUSH2 0x1EC9 JUMP JUMPDEST SWAP2 POP PUSH2 0x324F DUP3 PUSH2 0x3210 JUMP JUMPDEST PUSH1 0x20 DUP3 ADD SWAP1 POP SWAP2 SWAP1 POP JUMP JUMPDEST PUSH0 PUSH1 0x20 DUP3 ADD SWAP1 POP DUP2 DUP2 SUB PUSH0 DUP4 ADD MSTORE PUSH2 0x3271 DUP2 PUSH2 0x3238 JUMP JUMPDEST SWAP1 POP SWAP2 SWAP1 POP JUMP JUMPDEST PUSH32 0x455243203732313A206D696E7420746F207A65726F2061646472657373000000 PUSH0 DUP3 ADD MSTORE POP JUMP JUMPDEST PUSH0 PUSH2 0x32AC PUSH1 0x1D DUP4 PUSH2 0x1EC9 JUMP JUMPDEST SWAP2 POP PUSH2 0x32B7 DUP3 PUSH2 0x3278 JUMP JUMPDEST PUSH1 0x20 DUP3 ADD SWAP1 POP SWAP2 SWAP1 POP JUMP JUMPDEST PUSH0 PUSH1 0x20 DUP3 ADD SWAP1 POP DUP2 DUP2 SUB PUSH0 DUP4 ADD MSTORE PUSH2 0x32D9 DUP2 PUSH2 0x32A0 JUMP JUMPDEST SWAP1 POP SWAP2 SWAP1 POP JUMP JUMPDEST PUSH32 0x4552433732313A20746F6B656E20616C7265616479206D696E74656400000000 PUSH0 DUP3 ADD MSTORE POP JUMP JUMPDEST PUSH0 PUSH2 0x3314 PUSH1 0x1C DUP4 PUSH2 0x1EC9 JUMP JUMPDEST SWAP2 POP PUSH2 0x331F DUP3 PUSH2 0x32E0 JUMP JUMPDEST PUSH1 0x20 DUP3 ADD SWAP1 POP SWAP2 SWAP1 POP JUMP JUMPDEST PUSH0 PUSH1 0x20 DUP3 ADD SWAP1 POP DUP2 DUP2 SUB PUSH0 DUP4 ADD MSTORE PUSH2 0x3341 DUP2 PUSH2 0x3308 JUMP JUMPDEST SWAP1 POP SWAP2 SWAP1 POP JUMP JUMPDEST PUSH0 PUSH2 0x3352 DUP3 PUSH2 0x1F4F JUMP JUMPDEST SWAP2 POP PUSH2 0x335D DUP4 PUSH2 0x1F4F JUMP JUMPDEST SWAP3 POP DUP3 DUP3 ADD SWAP1 POP DUP1 DUP3 GT ISZERO PUSH2 0x3375 JUMPI PUSH2 0x3374 PUSH2 0x2C83 JUMP JUMPDEST JUMPDEST SWAP3 SWAP2 POP POP JUMP JUMPDEST PUSH32 0x4552433732313A207472616E736665722066726F6D20696E636F727265637420 PUSH0 DUP3 ADD MSTORE PUSH32 0x6F776E6572000000000000000000000000000000000000000000000000000000 PUSH1 0x20 DUP3 ADD MSTORE POP JUMP JUMPDEST PUSH0 PUSH2 0x33D5 PUSH1 0x25 DUP4 PUSH2 0x1EC9 JUMP JUMPDEST SWAP2 POP PUSH2 0x33E0 DUP3 PUSH2 0x337B JUMP JUMPDEST PUSH1 0x40 DUP3 ADD SWAP1 POP SWAP2 SWAP1 POP JUMP JUMPDEST PUSH0 PUSH1 0x20 DUP3 ADD SWAP1 POP DUP2 DUP2 SUB PUSH0 DUP4 ADD MSTORE PUSH2 0x3402 DUP2 PUSH2 0x33C9 JUMP JUMPDEST SWAP1 POP SWAP2 SWAP1 POP JUMP JUMPDEST PUSH32 0x4552433732313A207472616E7366657220746F20746865207A65726F20616464 PUSH0 DUP3 ADD MSTORE PUSH32 0x7265737300000000000000000000000000000000000000000000000000000000 PUSH1 0x20 DUP3 ADD MSTORE POP JUMP JUMPDEST PUSH0 PUSH2 0x3463 PUSH1 0x24 DUP4 PUSH2 0x1EC9 JUMP JUMPDEST SWAP2 POP PUSH2 0x346E DUP3 PUSH2 0x3409 JUMP JUMPDEST PUSH1 0x40 DUP3 ADD SWAP1 POP SWAP2 SWAP1 POP JUMP JUMPDEST PUSH0 PUSH1 0x20 DUP3 ADD SWAP1 POP DUP2 DUP2 SUB PUSH0 DUP4 ADD MSTORE PUSH2 0x3490 DUP2 PUSH2 0x3457 JUMP JUMPDEST SWAP1 POP SWAP2 SWAP1 POP JUMP JUMPDEST PUSH0 PUSH2 0x34A1 DUP3 PUSH2 0x1F4F JUMP JUMPDEST SWAP2 POP PUSH2 0x34AC DUP4 PUSH2 0x1F4F JUMP JUMPDEST SWAP3 POP DUP3 DUP3 SUB SWAP1 POP DUP2 DUP2 GT ISZERO PUSH2 0x34C4 JUMPI PUSH2 0x34C3 PUSH2 0x2C83 JUMP JUMPDEST JUMPDEST SWAP3 SWAP2 POP POP JUMP JUMPDEST PUSH32 0x4552433732313A207472616E7366657220746F206E6F6E204552433732315265 PUSH0 DUP3 ADD MSTORE PUSH32 0x63656976657220696D706C656D656E7465720000000000000000000000000000 PUSH1 0x20 DUP3 ADD MSTORE POP JUMP JUMPDEST PUSH0 PUSH2 0x3524 PUSH1 0x32 DUP4 PUSH2 0x1EC9 JUMP JUMPDEST SWAP2 POP PUSH2 0x352F DUP3 PUSH2 0x34CA JUMP JUMPDEST PUSH1 0x40 DUP3 ADD SWAP1 POP SWAP2 SWAP1 POP JUMP JUMPDEST PUSH0 PUSH1 0x20 DUP3 ADD SWAP1 POP DUP2 DUP2 SUB PUSH0 DUP4 ADD MSTORE PUSH2 0x3551 DUP2 PUSH2 0x3518 JUMP JUMPDEST SWAP1 POP SWAP2 SWAP1 POP JUMP JUMPDEST PUSH32 0x4E487B7100000000000000000000000000000000000000000000000000000000 PUSH0 MSTORE PUSH1 0x12 PUSH1 0x4 MSTORE PUSH1 0x24 PUSH0 REVERT JUMPDEST PUSH0 PUSH2 0x358F DUP3 PUSH2 0x1F4F JUMP JUMPDEST SWAP2 POP PUSH2 0x359A DUP4 PUSH2 0x1F4F JUMP JUMPDEST SWAP3 POP DUP3 PUSH2 0x35AA JUMPI PUSH2 0x35A9 PUSH2 0x3558 JUMP JUMPDEST JUMPDEST DUP3 DUP3 DIV SWAP1 POP SWAP3 SWAP2 POP POP JUMP JUMPDEST PUSH0 PUSH2 0x35BF DUP3 PUSH2 0x1F4F JUMP JUMPDEST SWAP2 POP PUSH2 0x35CA DUP4 PUSH2 0x1F4F JUMP JUMPDEST SWAP3 POP DUP3 PUSH2 0x35DA JUMPI PUSH2 0x35D9 PUSH2 0x3558 JUMP JUMPDEST JUMPDEST DUP3 DUP3 MOD SWAP1 POP SWAP3 SWAP2 POP POP JUMP JUMPDEST PUSH32 0x4E487B7100000000000000000000000000000000000000000000000000000000 PUSH0 MSTORE PUSH1 0x32 PUSH1 0x4 MSTORE PUSH1 0x24 PUSH0 REVERT JUMPDEST PUSH0 DUP2 MLOAD SWAP1 POP SWAP2 SWAP1 POP JUMP JUMPDEST PUSH0 DUP3 DUP3 MSTORE PUSH1 0x20 DUP3 ADD SWAP1 POP SWAP3 SWAP2 POP POP JUMP JUMPDEST PUSH0 PUSH2 0x3636 DUP3 PUSH2 0x3612 JUMP JUMPDEST PUSH2 0x3640 DUP2 DUP6 PUSH2 0x361C JUMP JUMPDEST SWAP4 POP PUSH2 0x3650 DUP2 DUP6 PUSH1 0x20 DUP7 ADD PUSH2 0x1ED9 JUMP JUMPDEST PUSH2 0x3659 DUP2 PUSH2 0x1EE7 JUMP JUMPDEST DUP5 ADD SWAP2 POP POP SWAP3 SWAP2 POP POP JUMP JUMPDEST PUSH0 PUSH1 0x80 DUP3 ADD SWAP1 POP PUSH2 0x3677 PUSH0 DUP4 ADD DUP8 PUSH2 0x1FDD JUMP JUMPDEST PUSH2 0x3684 PUSH1 0x20 DUP4 ADD DUP7 PUSH2 0x1FDD JUMP JUMPDEST PUSH2 0x3691 PUSH1 0x40 DUP4 ADD DUP6 PUSH2 0x2274 JUMP JUMPDEST DUP2 DUP2 SUB PUSH1 0x60 DUP4 ADD MSTORE PUSH2 0x36A3 DUP2 DUP5 PUSH2 0x362C JUMP JUMPDEST SWAP1 POP SWAP6 SWAP5 POP POP POP POP POP JUMP JUMPDEST PUSH0 DUP2 MLOAD SWAP1 POP PUSH2 0x36BC DUP2 PUSH2 0x1E37 JUMP JUMPDEST SWAP3 SWAP2 POP POP JUMP JUMPDEST PUSH0 PUSH1 0x20 DUP3 DUP5 SUB SLT ISZERO PUSH2 0x36D7 JUMPI PUSH2 0x36D6 PUSH2 0x1E04 JUMP JUMPDEST JUMPDEST PUSH0 PUSH2 0x36E4 DUP5 DUP3 DUP6 ADD PUSH2 0x36AE JUMP JUMPDEST SWAP2 POP POP SWAP3 SWAP2 POP POP JUMP INVALID LOG2 PUSH5 0x6970667358 0x22 SLT KECCAK256 BLOCKHASH 0xB5 STATICCALL TSTORE PUSH27 0x9BAD3FBA2FFBEB333E6523A63107AF7AD1FAD568E9B8ED87451089 PUSH5 0x736F6C6343 STOP ADDMOD BYTE STOP CALLER "
				},
				"gasEstimates": {
					"creation": {
						"codeDepositCost": "2823000",
						"executionCost": "infinite",
						"totalCost": "infinite"
					},
					"external": {
						"approve(address,uint256)": "31735",
						"balanceOf(address)": "2975",
						"gachaContract()": "2597",
						"getApproved(uint256)": "5211",
						"getMonkey(uint256)": "infinite",
						"isApprovedForAll(address,address)": "infinite",
						"isOwner()": "2535",
						"mintMonkey(address,string,uint8,uint8,uint256,uint256)": "infinite",
						"name()": "infinite",
						"owner()": "2538",
						"ownerOf(uint256)": "3030",
						"safeTransferFrom(address,address,uint256)": "infinite",
						"safeTransferFrom(address,address,uint256,bytes)": "infinite",
						"setApprovalForAll(address,bool)": "infinite",
						"setBaseURI(string)": "infinite",
						"setGachaContract(address)": "30720",
						"supportsInterface(bytes4)": "2858",
						"symbol()": "infinite",
						"tokenURI(uint256)": "infinite",
						"transferFrom(address,address,uint256)": "infinite"
					},
					"internal": {
						"_afterTokenTransfer(address,address,uint256)": "15",
						"_baseURI()": "infinite",
						"_beforeTokenTransfer(address,address,uint256)": "15",
						"_checkOnERC721Received(address,address,uint256,bytes memory)": "infinite",
						"_exists(uint256)": "2265",
						"_isApprovedOrOwner(address,uint256)": "infinite",
						"_mint(address,uint256)": "infinite",
						"_safeTransfer(address,address,uint256,bytes memory)": "infinite",
						"_transfer(address,address,uint256)": "infinite",
						"toString(uint256)": "infinite"
					}
				},
				"methodIdentifiers": {
					"approve(address,uint256)": "095ea7b3",
					"balanceOf(address)": "70a08231",
					"gachaContract()": "9d304e85",
					"getApproved(uint256)": "081812fc",
					"getMonkey(uint256)": "b7510da8",
					"isApprovedForAll(address,address)": "e985e9c5",
					"isOwner()": "8f32d59b",
					"mintMonkey(address,string,uint8,uint8,uint256,uint256)": "0d522f6e",
					"name()": "06fdde03",
					"owner()": "8da5cb5b",
					"ownerOf(uint256)": "6352211e",
					"safeTransferFrom(address,address,uint256)": "42842e0e",
					"safeTransferFrom(address,address,uint256,bytes)": "b88d4fde",
					"setApprovalForAll(address,bool)": "a22cb465",
					"setBaseURI(string)": "55f804b3",
					"setGachaContract(address)": "d33b6521",
					"supportsInterface(bytes4)": "01ffc9a7",
					"symbol()": "95d89b41",
					"tokenURI(uint256)": "c87b56dd",
					"transferFrom(address,address,uint256)": "23b872dd"
				}
			},
			"storageLayout": {
				"storage": [
					{
						"astId": 8,
						"contract": "contracts/Monkey.sol:Monkeys",
						"label": "_supportedInterfaces",
						"offset": 0,
						"slot": "0",
						"type": "t_mapping(t_bytes4,t_bool)"
					},
					{
						"astId": 1233,
						"contract": "contracts/Monkey.sol:Monkeys",
						"label": "_owner",
						"offset": 0,
						"slot": "1",
						"type": "t_address"
					},
					{
						"astId": 246,
						"contract": "contracts/Monkey.sol:Monkeys",
						"label": "_name",
						"offset": 0,
						"slot": "2",
						"type": "t_string_storage"
					},
					{
						"astId": 248,
						"contract": "contracts/Monkey.sol:Monkeys",
						"label": "_symbol",
						"offset": 0,
						"slot": "3",
						"type": "t_string_storage"
					},
					{
						"astId": 250,
						"contract": "contracts/Monkey.sol:Monkeys",
						"label": "_baseTokenURI",
						"offset": 0,
						"slot": "4",
						"type": "t_string_storage"
					},
					{
						"astId": 252,
						"contract": "contracts/Monkey.sol:Monkeys",
						"label": "gachaContract",
						"offset": 0,
						"slot": "5",
						"type": "t_address"
					},
					{
						"astId": 254,
						"contract": "contracts/Monkey.sol:Monkeys",
						"label": "_tokenIdCounter",
						"offset": 0,
						"slot": "6",
						"type": "t_uint256"
					},
					{
						"astId": 258,
						"contract": "contracts/Monkey.sol:Monkeys",
						"label": "_owners",
						"offset": 0,
						"slot": "7",
						"type": "t_mapping(t_uint256,t_address)"
					},
					{
						"astId": 262,
						"contract": "contracts/Monkey.sol:Monkeys",
						"label": "_balances",
						"offset": 0,
						"slot": "8",
						"type": "t_mapping(t_address,t_uint256)"
					},
					{
						"astId": 266,
						"contract": "contracts/Monkey.sol:Monkeys",
						"label": "_tokenApprovals",
						"offset": 0,
						"slot": "9",
						"type": "t_mapping(t_uint256,t_address)"
					},
					{
						"astId": 272,
						"contract": "contracts/Monkey.sol:Monkeys",
						"label": "_operatorApprovals",
						"offset": 0,
						"slot": "10",
						"type": "t_mapping(t_address,t_mapping(t_address,t_bool))"
					},
					{
						"astId": 277,
						"contract": "contracts/Monkey.sol:Monkeys",
						"label": "_monkeys",
						"offset": 0,
						"slot": "11",
						"type": "t_mapping(t_uint256,t_struct(Monkey)301_storage)"
					}
				],
				"types": {
					"t_address": {
						"encoding": "inplace",
						"label": "address",
						"numberOfBytes": "20"
					},
					"t_bool": {
						"encoding": "inplace",
						"label": "bool",
						"numberOfBytes": "1"
					},
					"t_bytes4": {
						"encoding": "inplace",
						"label": "bytes4",
						"numberOfBytes": "4"
					},
					"t_enum(PowerType)286": {
						"encoding": "inplace",
						"label": "enum Monkeys.PowerType",
						"numberOfBytes": "1"
					},
					"t_enum(Rarity)282": {
						"encoding": "inplace",
						"label": "enum Monkeys.Rarity",
						"numberOfBytes": "1"
					},
					"t_mapping(t_address,t_bool)": {
						"encoding": "mapping",
						"key": "t_address",
						"label": "mapping(address => bool)",
						"numberOfBytes": "32",
						"value": "t_bool"
					},
					"t_mapping(t_address,t_mapping(t_address,t_bool))": {
						"encoding": "mapping",
						"key": "t_address",
						"label": "mapping(address => mapping(address => bool))",
						"numberOfBytes": "32",
						"value": "t_mapping(t_address,t_bool)"
					},
					"t_mapping(t_address,t_uint256)": {
						"encoding": "mapping",
						"key": "t_address",
						"label": "mapping(address => uint256)",
						"numberOfBytes": "32",
						"value": "t_uint256"
					},
					"t_mapping(t_bytes4,t_bool)": {
						"encoding": "mapping",
						"key": "t_bytes4",
						"label": "mapping(bytes4 => bool)",
						"numberOfBytes": "32",
						"value": "t_bool"
					},
					"t_mapping(t_uint256,t_address)": {
						"encoding": "mapping",
						"key": "t_uint256",
						"label": "mapping(uint256 => address)",
						"numberOfBytes": "32",
						"value": "t_address"
					},
					"t_mapping(t_uint256,t_struct(Monkey)301_storage)": {
						"encoding": "mapping",
						"key": "t_uint256",
						"label": "mapping(uint256 => struct Monkeys.Monkey)",
						"numberOfBytes": "32",
						"value": "t_struct(Monkey)301_storage"
					},
					"t_string_storage": {
						"encoding": "bytes",
						"label": "string",
						"numberOfBytes": "32"
					},
					"t_struct(Monkey)301_storage": {
						"encoding": "inplace",
						"label": "struct Monkeys.Monkey",
						"members": [
							{
								"astId": 288,
								"contract": "contracts/Monkey.sol:Monkeys",
								"label": "id",
								"offset": 0,
								"slot": "0",
								"type": "t_uint256"
							},
							{
								"astId": 290,
								"contract": "contracts/Monkey.sol:Monkeys",
								"label": "name",
								"offset": 0,
								"slot": "1",
								"type": "t_string_storage"
							},
							{
								"astId": 293,
								"contract": "contracts/Monkey.sol:Monkeys",
								"label": "rarity",
								"offset": 0,
								"slot": "2",
								"type": "t_enum(Rarity)282"
							},
							{
								"astId": 296,
								"contract": "contracts/Monkey.sol:Monkeys",
								"label": "powerType",
								"offset": 1,
								"slot": "2",
								"type": "t_enum(PowerType)286"
							},
							{
								"astId": 298,
								"contract": "contracts/Monkey.sol:Monkeys",
								"label": "attack",
								"offset": 0,
								"slot": "3",
								"type": "t_uint256"
							},
							{
								"astId": 300,
								"contract": "contracts/Monkey.sol:Monkeys",
								"label": "health",
								"offset": 0,
								"slot": "4",
								"type": "t_uint256"
							}
						],
						"numberOfBytes": "160"
					},
					"t_uint256": {
						"encoding": "inplace",
						"label": "uint256",
						"numberOfBytes": "32"
					}
				}
			},
			"userdoc": {
				"kind": "user",
				"methods": {},
				"version": 1
			}
		}
	}
}